{
  "_format": "hh-sol-artifact-1",
  "contractName": "TEMPL",
  "sourceName": "contracts/TEMPL.sol",
  "abi": [
    {
      "inputs": [
        {
          "internalType": "address",
          "name": "_priest",
          "type": "address"
        },
        {
          "internalType": "address",
          "name": "_protocolFeeRecipient",
          "type": "address"
        },
        {
          "internalType": "address",
          "name": "_token",
          "type": "address"
        },
        {
          "internalType": "uint256",
          "name": "_entryFee",
          "type": "uint256"
        }
      ],
      "stateMutability": "nonpayable",
      "type": "constructor"
    },
    {
      "inputs": [],
      "name": "ActiveProposalExists",
      "type": "error"
    },
    {
      "inputs": [],
      "name": "AlreadyExecuted",
      "type": "error"
    },
    {
      "inputs": [],
      "name": "AlreadyPurchased",
      "type": "error"
    },
    {
      "inputs": [],
      "name": "AmountZero",
      "type": "error"
    },
    {
      "inputs": [],
      "name": "ContractPausedError",
      "type": "error"
    },
    {
      "inputs": [],
      "name": "EntryFeeTooSmall",
      "type": "error"
    },
    {
      "inputs": [],
      "name": "ExecutionDelayActive",
      "type": "error"
    },
    {
      "inputs": [],
      "name": "InsufficientBalance",
      "type": "error"
    },
    {
      "inputs": [],
      "name": "InsufficientPoolBalance",
      "type": "error"
    },
    {
      "inputs": [],
      "name": "InsufficientTreasuryBalance",
      "type": "error"
    },
    {
      "inputs": [],
      "name": "InvalidCallData",
      "type": "error"
    },
    {
      "inputs": [],
      "name": "InvalidEntryFee",
      "type": "error"
    },
    {
      "inputs": [],
      "name": "InvalidProposal",
      "type": "error"
    },
    {
      "inputs": [],
      "name": "InvalidRecipient",
      "type": "error"
    },
    {
      "inputs": [],
      "name": "InvalidSender",
      "type": "error"
    },
    {
      "inputs": [],
      "name": "JoinedAfterProposal",
      "type": "error"
    },
    {
      "inputs": [],
      "name": "LimitOutOfRange",
      "type": "error"
    },
    {
      "inputs": [],
      "name": "NoMembers",
      "type": "error"
    },
    {
      "inputs": [],
      "name": "NoRewardsToClaim",
      "type": "error"
    },
    {
      "inputs": [],
      "name": "NoTreasuryFunds",
      "type": "error"
    },
    {
      "inputs": [],
      "name": "NotDAO",
      "type": "error"
    },
    {
      "inputs": [],
      "name": "NotMember",
      "type": "error"
    },
    {
      "inputs": [],
      "name": "ProposalExecutionFailed",
      "type": "error"
    },
    {
      "inputs": [],
      "name": "ProposalNotPassed",
      "type": "error"
    },
    {
      "inputs": [],
      "name": "QuorumNotReached",
      "type": "error"
    },
    {
      "inputs": [],
      "name": "ReentrancyGuardReentrantCall",
      "type": "error"
    },
    {
      "inputs": [
        {
          "internalType": "address",
          "name": "token",
          "type": "address"
        }
      ],
      "name": "SafeERC20FailedOperation",
      "type": "error"
    },
    {
      "inputs": [],
      "name": "TokenChangeDisabled",
      "type": "error"
    },
    {
      "inputs": [],
      "name": "VotingEnded",
      "type": "error"
    },
    {
      "inputs": [],
      "name": "VotingNotEnded",
      "type": "error"
    },
    {
      "inputs": [],
      "name": "VotingPeriodTooLong",
      "type": "error"
    },
    {
      "inputs": [],
      "name": "VotingPeriodTooShort",
      "type": "error"
    },
    {
      "anonymous": false,
      "inputs": [
        {
          "indexed": true,
          "internalType": "address",
          "name": "purchaser",
          "type": "address"
        },
        {
          "indexed": false,
          "internalType": "uint256",
          "name": "totalAmount",
          "type": "uint256"
        },
        {
          "indexed": false,
          "internalType": "uint256",
          "name": "burnedAmount",
          "type": "uint256"
        },
        {
          "indexed": false,
          "internalType": "uint256",
          "name": "treasuryAmount",
          "type": "uint256"
        },
        {
          "indexed": false,
          "internalType": "uint256",
          "name": "memberPoolAmount",
          "type": "uint256"
        },
        {
          "indexed": false,
          "internalType": "uint256",
          "name": "protocolAmount",
          "type": "uint256"
        },
        {
          "indexed": false,
          "internalType": "uint256",
          "name": "timestamp",
          "type": "uint256"
        },
        {
          "indexed": false,
          "internalType": "uint256",
          "name": "blockNumber",
          "type": "uint256"
        },
        {
          "indexed": false,
          "internalType": "uint256",
          "name": "purchaseId",
          "type": "uint256"
        }
      ],
      "name": "AccessPurchased",
      "type": "event"
    },
    {
      "anonymous": false,
      "inputs": [
        {
          "indexed": true,
          "internalType": "address",
          "name": "token",
          "type": "address"
        },
        {
          "indexed": false,
          "internalType": "uint256",
          "name": "entryFee",
          "type": "uint256"
        }
      ],
      "name": "ConfigUpdated",
      "type": "event"
    },
    {
      "anonymous": false,
      "inputs": [
        {
          "indexed": false,
          "internalType": "bool",
          "name": "isPaused",
          "type": "bool"
        }
      ],
      "name": "ContractPaused",
      "type": "event"
    },
    {
      "anonymous": false,
      "inputs": [
        {
          "indexed": true,
          "internalType": "address",
          "name": "member",
          "type": "address"
        },
        {
          "indexed": false,
          "internalType": "uint256",
          "name": "amount",
          "type": "uint256"
        },
        {
          "indexed": false,
          "internalType": "uint256",
          "name": "timestamp",
          "type": "uint256"
        }
      ],
      "name": "MemberPoolClaimed",
      "type": "event"
    },
    {
      "anonymous": false,
      "inputs": [
        {
          "indexed": true,
          "internalType": "uint256",
          "name": "proposalId",
          "type": "uint256"
        },
        {
          "indexed": true,
          "internalType": "address",
          "name": "proposer",
          "type": "address"
        },
        {
          "indexed": false,
          "internalType": "uint256",
          "name": "endTime",
          "type": "uint256"
        }
      ],
      "name": "ProposalCreated",
      "type": "event"
    },
    {
      "anonymous": false,
      "inputs": [
        {
          "indexed": true,
          "internalType": "uint256",
          "name": "proposalId",
          "type": "uint256"
        },
        {
          "indexed": false,
          "internalType": "bool",
          "name": "success",
          "type": "bool"
        },
        {
          "indexed": false,
          "internalType": "bytes",
          "name": "returnData",
          "type": "bytes"
        }
      ],
      "name": "ProposalExecuted",
      "type": "event"
    },
    {
      "anonymous": false,
      "inputs": [
        {
          "indexed": true,
          "internalType": "uint256",
          "name": "proposalId",
          "type": "uint256"
        },
        {
          "indexed": true,
          "internalType": "address",
          "name": "token",
          "type": "address"
        },
        {
          "indexed": true,
          "internalType": "address",
          "name": "recipient",
          "type": "address"
        },
        {
          "indexed": false,
          "internalType": "uint256",
          "name": "amount",
          "type": "uint256"
        },
        {
          "indexed": false,
          "internalType": "string",
          "name": "description",
          "type": "string"
        }
      ],
      "name": "TreasuryAction",
      "type": "event"
    },
    {
      "anonymous": false,
      "inputs": [
        {
          "indexed": true,
          "internalType": "uint256",
          "name": "proposalId",
          "type": "uint256"
        },
        {
          "indexed": false,
          "internalType": "uint256",
          "name": "amount",
          "type": "uint256"
        },
        {
          "indexed": false,
          "internalType": "uint256",
          "name": "perMember",
          "type": "uint256"
        },
        {
          "indexed": false,
          "internalType": "uint256",
          "name": "remainder",
          "type": "uint256"
        }
      ],
      "name": "TreasuryDisbanded",
      "type": "event"
    },
    {
      "anonymous": false,
      "inputs": [
        {
          "indexed": true,
          "internalType": "uint256",
          "name": "proposalId",
          "type": "uint256"
        },
        {
          "indexed": true,
          "internalType": "address",
          "name": "voter",
          "type": "address"
        },
        {
          "indexed": false,
          "internalType": "bool",
          "name": "support",
          "type": "bool"
        },
        {
          "indexed": false,
          "internalType": "uint256",
          "name": "timestamp",
          "type": "uint256"
        }
      ],
      "name": "VoteCast",
      "type": "event"
    },
    {
      "inputs": [],
      "name": "DEFAULT_VOTING_PERIOD",
      "outputs": [
        {
          "internalType": "uint256",
          "name": "",
          "type": "uint256"
        }
      ],
      "stateMutability": "view",
      "type": "function"
    },
    {
      "inputs": [],
      "name": "MAX_VOTING_PERIOD",
      "outputs": [
        {
          "internalType": "uint256",
          "name": "",
          "type": "uint256"
        }
      ],
      "stateMutability": "view",
      "type": "function"
    },
    {
      "inputs": [],
      "name": "MIN_VOTING_PERIOD",
      "outputs": [
        {
          "internalType": "uint256",
          "name": "",
          "type": "uint256"
        }
      ],
      "stateMutability": "view",
      "type": "function"
    },
    {
      "inputs": [],
      "name": "accessToken",
      "outputs": [
        {
          "internalType": "address",
          "name": "",
          "type": "address"
        }
      ],
      "stateMutability": "view",
      "type": "function"
    },
    {
      "inputs": [
        {
          "internalType": "address",
          "name": "",
          "type": "address"
        }
      ],
      "name": "activeProposalId",
      "outputs": [
        {
          "internalType": "uint256",
          "name": "",
          "type": "uint256"
        }
      ],
      "stateMutability": "view",
      "type": "function"
    },
    {
      "inputs": [],
      "name": "claimMemberPool",
      "outputs": [],
      "stateMutability": "nonpayable",
      "type": "function"
    },
    {
      "inputs": [
        {
          "internalType": "uint256",
          "name": "_votingPeriod",
          "type": "uint256"
        }
      ],
      "name": "createProposalDisbandTreasury",
      "outputs": [
        {
          "internalType": "uint256",
          "name": "",
          "type": "uint256"
        }
      ],
      "stateMutability": "nonpayable",
      "type": "function"
    },
    {
      "inputs": [
        {
          "internalType": "address",
          "name": "_token",
          "type": "address"
        },
        {
          "internalType": "uint256",
          "name": "_votingPeriod",
          "type": "uint256"
        }
      ],
      "name": "createProposalDisbandTreasury",
      "outputs": [
        {
          "internalType": "uint256",
          "name": "",
          "type": "uint256"
        }
      ],
      "stateMutability": "nonpayable",
      "type": "function"
    },
    {
      "inputs": [
        {
          "internalType": "bool",
          "name": "_paused",
          "type": "bool"
        },
        {
          "internalType": "uint256",
          "name": "_votingPeriod",
          "type": "uint256"
        }
      ],
      "name": "createProposalSetPaused",
      "outputs": [
        {
          "internalType": "uint256",
          "name": "",
          "type": "uint256"
        }
      ],
      "stateMutability": "nonpayable",
      "type": "function"
    },
    {
      "inputs": [
        {
          "internalType": "uint256",
          "name": "_newEntryFee",
          "type": "uint256"
        },
        {
          "internalType": "uint256",
          "name": "_votingPeriod",
          "type": "uint256"
        }
      ],
      "name": "createProposalUpdateConfig",
      "outputs": [
        {
          "internalType": "uint256",
          "name": "",
          "type": "uint256"
        }
      ],
      "stateMutability": "nonpayable",
      "type": "function"
    },
    {
      "inputs": [
        {
          "internalType": "address",
          "name": "_token",
          "type": "address"
        },
        {
          "internalType": "address",
          "name": "_recipient",
          "type": "address"
        },
        {
          "internalType": "string",
          "name": "_reason",
          "type": "string"
        },
        {
          "internalType": "uint256",
          "name": "_votingPeriod",
          "type": "uint256"
        }
      ],
      "name": "createProposalWithdrawAllTreasury",
      "outputs": [
        {
          "internalType": "uint256",
          "name": "",
          "type": "uint256"
        }
      ],
      "stateMutability": "nonpayable",
      "type": "function"
    },
    {
      "inputs": [
        {
          "internalType": "address",
          "name": "_token",
          "type": "address"
        },
        {
          "internalType": "address",
          "name": "_recipient",
          "type": "address"
        },
        {
          "internalType": "uint256",
          "name": "_amount",
          "type": "uint256"
        },
        {
          "internalType": "string",
          "name": "_reason",
          "type": "string"
        },
        {
          "internalType": "uint256",
          "name": "_votingPeriod",
          "type": "uint256"
        }
      ],
      "name": "createProposalWithdrawTreasury",
      "outputs": [
        {
          "internalType": "uint256",
          "name": "",
          "type": "uint256"
        }
      ],
      "stateMutability": "nonpayable",
      "type": "function"
    },
    {
      "inputs": [],
      "name": "cumulativeMemberRewards",
      "outputs": [
        {
          "internalType": "uint256",
          "name": "",
          "type": "uint256"
        }
      ],
      "stateMutability": "view",
      "type": "function"
    },
    {
      "inputs": [],
      "name": "disbandTreasuryDAO",
      "outputs": [],
      "stateMutability": "nonpayable",
      "type": "function"
    },
    {
      "inputs": [
        {
          "internalType": "address",
          "name": "token",
          "type": "address"
        }
      ],
      "name": "disbandTreasuryDAO",
      "outputs": [],
      "stateMutability": "nonpayable",
      "type": "function"
    },
    {
      "inputs": [],
      "name": "entryFee",
      "outputs": [
        {
          "internalType": "uint256",
          "name": "",
          "type": "uint256"
        }
      ],
      "stateMutability": "view",
      "type": "function"
    },
    {
      "inputs": [
        {
          "internalType": "uint256",
          "name": "_proposalId",
          "type": "uint256"
        }
      ],
      "name": "executeProposal",
      "outputs": [],
      "stateMutability": "nonpayable",
      "type": "function"
    },
    {
      "inputs": [],
      "name": "executionDelayAfterQuorum",
      "outputs": [
        {
          "internalType": "uint256",
          "name": "",
          "type": "uint256"
        }
      ],
      "stateMutability": "view",
      "type": "function"
    },
    {
      "inputs": [],
      "name": "getActiveProposals",
      "outputs": [
        {
          "internalType": "uint256[]",
          "name": "",
          "type": "uint256[]"
        }
      ],
      "stateMutability": "view",
      "type": "function"
    },
    {
      "inputs": [
        {
          "internalType": "uint256",
          "name": "offset",
          "type": "uint256"
        },
        {
          "internalType": "uint256",
          "name": "limit",
          "type": "uint256"
        }
      ],
      "name": "getActiveProposalsPaginated",
      "outputs": [
        {
          "internalType": "uint256[]",
          "name": "proposalIds",
          "type": "uint256[]"
        },
        {
          "internalType": "bool",
          "name": "hasMore",
          "type": "bool"
        }
      ],
      "stateMutability": "view",
      "type": "function"
    },
    {
      "inputs": [
        {
          "internalType": "address",
          "name": "member",
          "type": "address"
        }
      ],
      "name": "getClaimablePoolAmount",
      "outputs": [
        {
          "internalType": "uint256",
          "name": "",
          "type": "uint256"
        }
      ],
      "stateMutability": "view",
      "type": "function"
    },
    {
      "inputs": [],
      "name": "getConfig",
      "outputs": [
        {
          "internalType": "address",
          "name": "token",
          "type": "address"
        },
        {
          "internalType": "uint256",
          "name": "fee",
          "type": "uint256"
        },
        {
          "internalType": "bool",
          "name": "isPaused",
          "type": "bool"
        },
        {
          "internalType": "uint256",
          "name": "purchases",
          "type": "uint256"
        },
        {
          "internalType": "uint256",
          "name": "treasury",
          "type": "uint256"
        },
        {
          "internalType": "uint256",
          "name": "pool",
          "type": "uint256"
        }
      ],
      "stateMutability": "view",
      "type": "function"
    },
    {
      "inputs": [],
      "name": "getMemberCount",
      "outputs": [
        {
          "internalType": "uint256",
          "name": "",
          "type": "uint256"
        }
      ],
      "stateMutability": "view",
      "type": "function"
    },
    {
      "inputs": [
        {
          "internalType": "uint256",
          "name": "_proposalId",
          "type": "uint256"
        }
      ],
      "name": "getProposal",
      "outputs": [
        {
          "internalType": "address",
          "name": "proposer",
          "type": "address"
        },
        {
          "internalType": "uint256",
          "name": "yesVotes",
          "type": "uint256"
        },
        {
          "internalType": "uint256",
          "name": "noVotes",
          "type": "uint256"
        },
        {
          "internalType": "uint256",
          "name": "endTime",
          "type": "uint256"
        },
        {
          "internalType": "bool",
          "name": "executed",
          "type": "bool"
        },
        {
          "internalType": "bool",
          "name": "passed",
          "type": "bool"
        }
      ],
      "stateMutability": "view",
      "type": "function"
    },
    {
      "inputs": [
        {
          "internalType": "address",
          "name": "user",
          "type": "address"
        }
      ],
      "name": "getPurchaseDetails",
      "outputs": [
        {
          "internalType": "bool",
          "name": "purchased",
          "type": "bool"
        },
        {
          "internalType": "uint256",
          "name": "timestamp",
          "type": "uint256"
        },
        {
          "internalType": "uint256",
          "name": "blockNum",
          "type": "uint256"
        }
      ],
      "stateMutability": "view",
      "type": "function"
    },
    {
      "inputs": [],
      "name": "getTreasuryInfo",
      "outputs": [
        {
          "internalType": "uint256",
          "name": "treasury",
          "type": "uint256"
        },
        {
          "internalType": "uint256",
          "name": "memberPool",
          "type": "uint256"
        },
        {
          "internalType": "uint256",
          "name": "totalReceived",
          "type": "uint256"
        },
        {
          "internalType": "uint256",
          "name": "totalBurnedAmount",
          "type": "uint256"
        },
        {
          "internalType": "uint256",
          "name": "totalProtocolFees",
          "type": "uint256"
        },
        {
          "internalType": "address",
          "name": "protocolAddress",
          "type": "address"
        }
      ],
      "stateMutability": "view",
      "type": "function"
    },
    {
      "inputs": [
        {
          "internalType": "address",
          "name": "voter",
          "type": "address"
        }
      ],
      "name": "getVoteWeight",
      "outputs": [
        {
          "internalType": "uint256",
          "name": "",
          "type": "uint256"
        }
      ],
      "stateMutability": "view",
      "type": "function"
    },
    {
      "inputs": [
        {
          "internalType": "address",
          "name": "user",
          "type": "address"
        }
      ],
      "name": "hasAccess",
      "outputs": [
        {
          "internalType": "bool",
          "name": "",
          "type": "bool"
        }
      ],
      "stateMutability": "view",
      "type": "function"
    },
    {
      "inputs": [
        {
          "internalType": "address",
          "name": "",
          "type": "address"
        }
      ],
      "name": "hasActiveProposal",
      "outputs": [
        {
          "internalType": "bool",
          "name": "",
          "type": "bool"
        }
      ],
      "stateMutability": "view",
      "type": "function"
    },
    {
      "inputs": [
        {
          "internalType": "uint256",
          "name": "_proposalId",
          "type": "uint256"
        },
        {
          "internalType": "address",
          "name": "_voter",
          "type": "address"
        }
      ],
      "name": "hasVoted",
      "outputs": [
        {
          "internalType": "bool",
          "name": "voted",
          "type": "bool"
        },
        {
          "internalType": "bool",
          "name": "support",
          "type": "bool"
        }
      ],
      "stateMutability": "view",
      "type": "function"
    },
    {
      "inputs": [
        {
          "internalType": "uint256",
          "name": "",
          "type": "uint256"
        }
      ],
      "name": "memberList",
      "outputs": [
        {
          "internalType": "address",
          "name": "",
          "type": "address"
        }
      ],
      "stateMutability": "view",
      "type": "function"
    },
    {
      "inputs": [],
      "name": "memberPoolBalance",
      "outputs": [
        {
          "internalType": "uint256",
          "name": "",
          "type": "uint256"
        }
      ],
      "stateMutability": "view",
      "type": "function"
    },
    {
      "inputs": [
        {
          "internalType": "address",
          "name": "",
          "type": "address"
        }
      ],
      "name": "memberPoolClaims",
      "outputs": [
        {
          "internalType": "uint256",
          "name": "",
          "type": "uint256"
        }
      ],
      "stateMutability": "view",
      "type": "function"
    },
    {
      "inputs": [],
      "name": "memberRewardRemainder",
      "outputs": [
        {
          "internalType": "uint256",
          "name": "",
          "type": "uint256"
        }
      ],
      "stateMutability": "view",
      "type": "function"
    },
    {
      "inputs": [
        {
          "internalType": "address",
          "name": "",
          "type": "address"
        }
      ],
      "name": "members",
      "outputs": [
        {
          "internalType": "bool",
          "name": "purchased",
          "type": "bool"
        },
        {
          "internalType": "uint256",
          "name": "timestamp",
          "type": "uint256"
        },
        {
          "internalType": "uint256",
          "name": "block",
          "type": "uint256"
        },
        {
          "internalType": "uint256",
          "name": "rewardSnapshot",
          "type": "uint256"
        }
      ],
      "stateMutability": "view",
      "type": "function"
    },
    {
      "inputs": [],
      "name": "paused",
      "outputs": [
        {
          "internalType": "bool",
          "name": "",
          "type": "bool"
        }
      ],
      "stateMutability": "view",
      "type": "function"
    },
    {
      "inputs": [],
      "name": "priest",
      "outputs": [
        {
          "internalType": "address",
          "name": "",
          "type": "address"
        }
      ],
      "stateMutability": "view",
      "type": "function"
    },
    {
      "inputs": [],
      "name": "proposalCount",
      "outputs": [
        {
          "internalType": "uint256",
          "name": "",
          "type": "uint256"
        }
      ],
      "stateMutability": "view",
      "type": "function"
    },
    {
      "inputs": [
        {
          "internalType": "uint256",
          "name": "",
          "type": "uint256"
        }
      ],
      "name": "proposals",
      "outputs": [
        {
          "internalType": "uint256",
          "name": "id",
          "type": "uint256"
        },
        {
          "internalType": "address",
          "name": "proposer",
          "type": "address"
        },
        {
          "internalType": "enum TEMPL.Action",
          "name": "action",
          "type": "uint8"
        },
        {
          "internalType": "address",
          "name": "token",
          "type": "address"
        },
        {
          "internalType": "address",
          "name": "recipient",
          "type": "address"
        },
        {
          "internalType": "uint256",
          "name": "amount",
          "type": "uint256"
        },
        {
          "internalType": "string",
          "name": "reason",
          "type": "string"
        },
        {
          "internalType": "bool",
          "name": "paused",
          "type": "bool"
        },
        {
          "internalType": "uint256",
          "name": "newEntryFee",
          "type": "uint256"
        },
        {
          "internalType": "uint256",
          "name": "yesVotes",
          "type": "uint256"
        },
        {
          "internalType": "uint256",
          "name": "noVotes",
          "type": "uint256"
        },
        {
          "internalType": "uint256",
          "name": "endTime",
          "type": "uint256"
        },
        {
          "internalType": "uint256",
          "name": "createdAt",
          "type": "uint256"
        },
        {
          "internalType": "bool",
          "name": "executed",
          "type": "bool"
        },
        {
          "internalType": "uint256",
          "name": "eligibleVoters",
          "type": "uint256"
        },
        {
          "internalType": "uint256",
          "name": "quorumReachedAt",
          "type": "uint256"
        },
        {
          "internalType": "bool",
          "name": "quorumExempt",
          "type": "bool"
        }
      ],
      "stateMutability": "view",
      "type": "function"
    },
    {
      "inputs": [],
      "name": "protocolFeeRecipient",
      "outputs": [
        {
          "internalType": "address",
          "name": "",
          "type": "address"
        }
      ],
      "stateMutability": "view",
      "type": "function"
    },
    {
      "inputs": [],
      "name": "purchaseAccess",
      "outputs": [],
      "stateMutability": "nonpayable",
      "type": "function"
    },
    {
      "inputs": [],
      "name": "quorumPercent",
      "outputs": [
        {
          "internalType": "uint256",
          "name": "",
          "type": "uint256"
        }
      ],
      "stateMutability": "view",
      "type": "function"
    },
    {
      "inputs": [
        {
          "internalType": "bool",
          "name": "_paused",
          "type": "bool"
        }
      ],
      "name": "setPausedDAO",
      "outputs": [],
      "stateMutability": "nonpayable",
      "type": "function"
    },
    {
      "inputs": [],
      "name": "totalBurned",
      "outputs": [
        {
          "internalType": "uint256",
          "name": "",
          "type": "uint256"
        }
      ],
      "stateMutability": "view",
      "type": "function"
    },
    {
      "inputs": [],
      "name": "totalPurchases",
      "outputs": [
        {
          "internalType": "uint256",
          "name": "",
          "type": "uint256"
        }
      ],
      "stateMutability": "view",
      "type": "function"
    },
    {
      "inputs": [],
      "name": "totalToMemberPool",
      "outputs": [
        {
          "internalType": "uint256",
          "name": "",
          "type": "uint256"
        }
      ],
      "stateMutability": "view",
      "type": "function"
    },
    {
      "inputs": [],
      "name": "totalToProtocol",
      "outputs": [
        {
          "internalType": "uint256",
          "name": "",
          "type": "uint256"
        }
      ],
      "stateMutability": "view",
      "type": "function"
    },
    {
      "inputs": [],
      "name": "totalToTreasury",
      "outputs": [
        {
          "internalType": "uint256",
          "name": "",
          "type": "uint256"
        }
      ],
      "stateMutability": "view",
      "type": "function"
    },
    {
      "inputs": [],
      "name": "treasuryBalance",
      "outputs": [
        {
          "internalType": "uint256",
          "name": "",
          "type": "uint256"
        }
      ],
      "stateMutability": "view",
      "type": "function"
    },
    {
      "inputs": [
        {
          "internalType": "address",
          "name": "_token",
          "type": "address"
        },
        {
          "internalType": "uint256",
          "name": "_entryFee",
          "type": "uint256"
        }
      ],
      "name": "updateConfigDAO",
      "outputs": [],
      "stateMutability": "nonpayable",
      "type": "function"
    },
    {
      "inputs": [
        {
          "internalType": "uint256",
          "name": "_proposalId",
          "type": "uint256"
        },
        {
          "internalType": "bool",
          "name": "_support",
          "type": "bool"
        }
      ],
      "name": "vote",
      "outputs": [],
      "stateMutability": "nonpayable",
      "type": "function"
    },
    {
      "inputs": [
        {
          "internalType": "address",
          "name": "token",
          "type": "address"
        },
        {
          "internalType": "address",
          "name": "recipient",
          "type": "address"
        },
        {
          "internalType": "string",
          "name": "reason",
          "type": "string"
        }
      ],
      "name": "withdrawAllTreasuryDAO",
      "outputs": [],
      "stateMutability": "nonpayable",
      "type": "function"
    },
    {
      "inputs": [
        {
          "internalType": "address",
          "name": "token",
          "type": "address"
        },
        {
          "internalType": "address",
          "name": "recipient",
          "type": "address"
        },
        {
          "internalType": "uint256",
          "name": "amount",
          "type": "uint256"
        },
        {
          "internalType": "string",
          "name": "reason",
          "type": "string"
        }
      ],
      "name": "withdrawTreasuryDAO",
      "outputs": [],
      "stateMutability": "nonpayable",
      "type": "function"
    },
    {
      "stateMutability": "payable",
      "type": "receive"
    }
  ],
  "bytecode": "0x60e034620001ee57601f6200355138819003918201601f191683019291906001600160401b03841183851017620001f3578160809284926040968752833981010312620001ee57620000518162000209565b90620000606020820162000209565b60606200006f85840162000209565b9201516001600055602160055562093a80600655926001600160a01b0380821615908115620001e2575b8115620001d6575b50620001c5578315620001b457600a8410620001a357600a8406620001925760805260a05260c05260015560ff19600454166004555161333290816200021f82396080518181816111020152818161175701526119eb015260a0518181816110680152818161149b0152611851015260c05181818161035f0152818161044c015281816105b101528181610efa01528181610ff3015281816112c80152818161143201528181611465015281816114bd015281816119b701528181611c4901528181611e0d01528181611fbf015281816121d00152818161236901528181612d2a01528181612f160152612f6a0152f35b8451636fe6a4c960e01b8152600490fd5b8451635eee050360e11b8152600490fd5b84516365e52d5160e11b8152600490fd5b8451634e46966960e11b8152600490fd5b905083161538620000a1565b83811615915062000099565b600080fd5b634e487b7160e01b600052604160045260246000fd5b51906001600160a01b0382168203620001ee5756fe60a0604052600436101561001b575b361561001957600080fd5b005b60003560e01c8063013cf08b14612618578063072ea61c146125fa57806308ae4b0c146125995780630d61b51914611e545780631808022a14611e31578063215809ca146111915780632833788614611df0578063313dab2014611dd25780633ccae22a14611be95780634385963214611b7a578063524ddc2314611b4d5780635584c4f914611a7a5780635962a94114611a5c57806359c266ff14611a3e5780635c975abb14611a1b5780635daae9d51461195b5780635fa7ddf01461193d578063640c4fa2146118d657806364653f291461188057806364df049e1461183b578063653724d6146118125780636898b19c146117f45780636ad18550146117ba5780637070ac481461179c57806371e86b6a146116e15780638f78bbc4146116a757806395a078e814611668578063997072f71461164a57806399e288d81461122f578063a51a46b914611211578063a64e024a146111f3578063a730117e146111d0578063a81bbe3c14611196578063aedfe53f14611191578063b307fc6d1461114f578063bdb75b3414611131578063bebc8fc0146110ec578063c1b57edb146110ce578063c293947114610fbf578063c3f909d414610ed4578063c470dd9014610d37578063c7f758a814610c57578063c9d27afe146109a4578063cc031082146107d2578063d402d4be14610548578063d89135cd1461052a578063da35c6641461050c578063dbb37a2e1461047b578063e243c5fb14610436578063f2be51ea146103fb578063f7158b2a146102c9578063f81cbd26146102ab5763ffafe4ad0361000e57346102a65760203660031901126102a6576001600160a01b036102886128d8565b16600052600f602052602060ff604060002054166040519015158152f35b600080fd5b346102a65760003660031901126102a6576020600554604051908152f35b346102a65760003660031901126102a65733600052600760205260ff60406000205416156103e9576102f9612cfd565b61030233612a45565b80156103d75780610318600354600b5490612a38565b106103c557600a5433600052600760205260036040600020015560096020526040600020610347828254612a2b565b905561035581600354612a38565b60035561038c81337f00000000000000000000000000000000000000000000000000000000000000006001600160a01b0316613214565b6040519081524260208201527fc4e740509dbfae3377bc9925dd7bcc8aaba69cd730316216d76b2d24725c636660403392a26001600055005b60405163bc6072f160e01b8152600490fd5b6040516373380d9960e01b8152600490fd5b60405163148fe22160e11b8152600490fd5b346102a65760203660031901126102a6576104146128d8565b3033036104245761001990612d20565b6040516327568d2f60e11b8152600490fd5b346102a65760003660031901126102a6576040517f00000000000000000000000000000000000000000000000000000000000000006001600160a01b03168152602090f35b346102a657610489366129c8565b33600052600760205260ff60406000205416156103e957816104d6575b6020916104b4600792612fd0565b60018101805460ff60a01b1916600160a01b1790559290920155604051908152f35b600a82106104fa57600a8206156104a6575b604051636fe6a4c960e01b8152600490fd5b604051635eee050360e11b8152600490fd5b346102a65760003660031901126102a6576020600c54604051908152f35b346102a65760003660031901126102a6576020601154604051908152f35b346102a65760803660031901126102a6576105616128d8565b6105696128ee565b6044359060643567ffffffffffffffff81116102a65761058d90369060040161293e565b92303303610424576001600160a01b03828116949085156107c05784156107ae57807f0000000000000000000000000000000000000000000000000000000000000000169216938285146000146106d1576040516370a0823160e01b8152306004820152602081602481875afa9081156106c557600091610693575b50600354808211156106815761061e91612a38565b81116106815761065a816000956000805160206132dd83398151915295610652600254808511158a1461067b578490612a38565b600255613214565b6106766040519283928352604060208401526040830190612898565b0390a4005b80612a38565b604051631c7b597b60e11b8152600490fd5b90506020813d6020116106bd575b816106ae602093836127d1565b810103126102a6575187610609565b3d91506106a1565b6040513d6000823e3d90fd5b9150918315600014610726575047811161068157600080808084885af16106f6612e95565b5015610714576000916000805160206132dd8339815191529161065a565b6040516331d436c760e01b8152600490fd5b90916040516370a0823160e01b8152306004820152602081602481885afa9081156106c55760009161077c575b50831161068157826107776000946000805160206132dd8339815191529487613214565b61065a565b90506020813d6020116107a6575b81610797602093836127d1565b810103126102a6575186610753565b3d915061078a565b6040516365e52d5160e11b8152600490fd5b604051634e46966960e11b8152600490fd5b346102a65760803660031901126102a6576107eb6128d8565b6107f36128ee565b67ffffffffffffffff916044358381116102a65761081590369060040161293e565b90336000526020936007855260ff60406000205416156103e957600561083c606435612fd0565b9095600194858301600360a01b60ff60a01b198254161790556002830160018060a01b0390816001600160601b0360a01b931683825416179055600384019216908254161790550192805191821161098e57610898845461277b565b601f8111610945575b508590601f83116001146108e2579282939183926000946108d7575b50501b916000199060031b1c19161790555b604051908152f35b0151925087806108bd565b90601f198316918560005283886000209360005b8a8883831061092e5750505010610915575b505050811b0190556108cf565b015160001960f88460031b161c19169055858080610908565b8686015188559096019594850194879350016108f6565b8460005286600020601f840160051c810191888510610984575b601f0160051c019084905b8281106109785750506108a1565b6000815501849061096a565b909150819061095f565b634e487b7160e01b600052604160045260246000fd5b346102a65760403660031901126102a6576004356024908135801515928382036102a657336000526020916007835260ff60406000205416156103e957600c54841015610c455783600052600d8352604060002090600a8201928354421015610c33576011918284019060ff8254161580610c26575b610bf9575b600d85013360005280885260ff60406000205416600e8701808a5260ff60406000205416928a526040600020600160ff198254161790558952610a728360406000209060ff801983541691151516179055565b610b7f575015610b64576008840180549060018201809211610b50575560ff905b54161580610b44575b610ad8575b5050505060405192835242908301527fcbdf6214089cba887ecbf35a0b6a734589959c9763342c756bb2a80ca2bc9f6e60403393a3005b6008549081600f850155600884015492606484029380850460641490151715610b32575050610b0990600554612c96565b1115610b17575b8080610aa1565b601042910155610b2960065442612a2b565b90558380610b10565b634e487b7160e01b6000526004526000fd5b50601083015415610a9c565b8385634e487b7160e01b6000526004526000fd5b6009840180549060018201809211610b50575560ff90610a93565b90508881151503610b94575b5060ff90610a93565b15610bca57600884018054600019810191908211610b5057556009840180549060018201809211610b50575560ff905b90610b8b565b600984018054600019810191908211610b5057556008840180549060018201809211610b50575560ff90610bc4565b3360005260078752600160406000200154601086015411610a1f5760405163f078ca7360e01b8152600490fd5b5060108501541515610a1a565b604051637a19ed0560e01b8152600490fd5b604051631dc0650160e31b8152600490fd5b346102a65760203660031901126102a657600435600c54811015610c4557600052600d60205260c0604060002060ff601182015416600014610cfe57600a81015442101580610ced575b60018060a01b0360018301541691600881015490600981015460ff600c600a840154930154169260405195865260208601526040850152606084015215156080830152151560a0820152f35b506008810154600982015410610ca1565b60108101548015610d2f57600654610d1591612a2b565b4210158015610ca157506008810154600982015410610ca1565b506000610ca1565b346102a65760a03660031901126102a657610d506128d8565b610d586128ee565b67ffffffffffffffff916064358381116102a657610d7a90369060040161293e565b90336000526020936007855260ff60406000205416156103e9576005610da1608435612fd0565b9095600194858301600160a11b60ff60a01b198254161790556002830160018060a01b0390816001600160601b0360a01b9316838254161790556003840192169082541617905560443560048201550192805191821161098e57610e05845461277b565b601f8111610e8b575b508590601f8311600114610e42579282939183926000946108d75750501b916000199060031b1c1916179055604051908152f35b90601f198316918560005283886000209360005b8a88838310610e74575050501061091557505050811b0190556108cf565b868601518855909601959485019487935001610e56565b8460005286600020601f840160051c810191888510610eca575b601f0160051c019084905b828110610ebe575050610e0e565b60008155018490610eb0565b9091508190610ea5565b346102a65760003660031901126102a6576040516370a0823160e01b81523060048201527f00000000000000000000000000000000000000000000000000000000000000006001600160a01b0316602082602481845afa80156106c557600090610f8c575b60035460c09350908180821115610f8357610f5391612a38565b60015460ff60045416601054916040519586526020860152151560408501526060840152608083015260a0820152f35b50506000610f53565b506020823d602011610fb7575b81610fa6602093836127d1565b810103126102a65760c09151610f39565b3d9150610f99565b346102a65760003660031901126102a6576040516370a0823160e01b81523060048201526001600160a01b036020826024817f000000000000000000000000000000000000000000000000000000000000000085165afa9081156106c557600091611099575b60035460c0935091828082111561108f5761103f91612a38565b915b601254601154906014549260405195865260208601526040850152606084015260808301527f00000000000000000000000000000000000000000000000000000000000000001660a0820152f35b5050600091611041565b90506020823d6020116110c6575b816110b4602093836127d1565b810103126102a65760c0915190611025565b3d91506110a7565b346102a65760003660031901126102a6576020601254604051908152f35b346102a65760003660031901126102a6576040517f00000000000000000000000000000000000000000000000000000000000000006001600160a01b03168152602090f35b346102a65760003660031901126102a6576020601354604051908152f35b346102a65760203660031901126102a6576004356008548110156102a6576111786020916129de565b905460405160039290921b1c6001600160a01b03168152f35b612904565b346102a65760203660031901126102a6576001600160a01b036111b76128d8565b1660005260096020526020604060002054604051908152f35b346102a65760203660031901126102a65760206108cf6111ee6128d8565b612cd3565b346102a65760003660031901126102a657602060405162278d008152f35b346102a65760003660031901126102a6576020600b54604051908152f35b346102a65760003660031901126102a65760ff600454166116385730331461162657611259612cfd565b3360005260076020526040600020805460ff811661161457600191825490601e820290821593838304601e1485171561155b5783603c810204603c1485171561155b57600a840294848604600a14171561155b576040516370a0823160e01b81523360048201526020816024817f00000000000000000000000000000000000000000000000000000000000000006001600160a01b03165afa80156106c55785916000916115df575b50106115cd5760ff19168517815542818601554360028201556008546801000000000000000081101561098e57808661133e92016008556129de565b81546001600160a01b0360039290921b91821b19163390911b17905560105461136690612adb565b601055600854858111611571575b506003600a549101558354601e810290808204601e149015171561155b576064603c816114929304946113a986600254612a2b565b6002556113b886600354612a2b565b6003556113c9838604601154612a2b565b6011556113d886601254612a2b565b6012556113e786601354612a2b565b6013556113f8838804601454612a2b565b6014556040516323b872dd60e01b602082015233602482015261dead60448201528386048482015283815261145f90611430816127b5565b7f00000000000000000000000000000000000000000000000000000000000000006001600160a01b0316613260565b020430337f00000000000000000000000000000000000000000000000000000000000000006001600160a01b03166131cd565b6114ea606484047f0000000000000000000000000000000000000000000000000000000000000000337f00000000000000000000000000000000000000000000000000000000000000006001600160a01b03166131cd565b83549260105492600019840193841161155b576064809360405196875204602086015280604086015260608501520460808301524260a08301524360c083015260e08201527fe6d1c0e418a42a777d49c66571075fc47bc1d92e7f506007ddde08d1ff182bbc6101003392a2600055005b634e487b7160e01b600052601160045260246000fd5b8554601e810290808204601e149015171561155b57611596906064600b549104612a2b565b600019820191821161155b576115b9826115b36115c49484612ca9565b92612cc9565b600b55600a54612a2b565b600a5585611374565b604051631e9acf1760e31b8152600490fd5b9150506020813d60201161160c575b816115fb602093836127d1565b810103126102a65784905188611302565b3d91506115ee565b604051630cd9ed5560e21b8152600490fd5b604051636edaef2f60e11b8152600490fd5b604051630eceade960e31b8152600490fd5b346102a65760003660031901126102a6576020600854604051908152f35b346102a65760203660031901126102a6576001600160a01b036116896128d8565b166000526007602052602060ff604060002054166040519015158152f35b346102a6576116d56116c16116bb366129c8565b90612afe565b604051928392604084526040840190612985565b90151560208301520390f35b346102a65760403660031901126102a6576116fa6128d8565b33600052600760205260ff60406000205416156103e95760209061171f602435612fd0565b60018101805460ff60a01b1916600160a21b1790556002810180546001600160a01b0319166001600160a01b039485161790559091337f000000000000000000000000000000000000000000000000000000000000000090911614611788575b50604051908152f35b601101805460ff191660011790558261177f565b346102a65760003660031901126102a6576020600654604051908152f35b346102a65760203660031901126102a6576001600160a01b036117db6128d8565b16600052600e6020526020604060002054604051908152f35b346102a65760003660031901126102a6576020600a54604051908152f35b346102a65760203660031901126102a65761182b6129b9565b3033036104245761001990612f92565b346102a65760003660031901126102a6576040517f00000000000000000000000000000000000000000000000000000000000000006001600160a01b03168152602090f35b346102a65760203660031901126102a6576001600160a01b036118a16128d8565b1660005260076020526060604060002060ff815416906002600182015491015490604051921515835260208301526040820152f35b346102a65760403660031901126102a6576118ef6129b9565b33600052600760205260ff60406000205416156103e95760066108cf602092611919602435612fd0565b6001819592950160ff60a01b198154169055019060ff801983541691151516179055565b346102a65760003660031901126102a6576020600354604051908152f35b346102a65760203660031901126102a65733600052600760205260ff60406000205416156103e9576020611990600435612fd0565b60018101805460ff60a01b1916600160a21b1790556002810180546001600160a01b0319167f00000000000000000000000000000000000000000000000000000000000000006001600160a01b0390811691909117909155337f0000000000000000000000000000000000000000000000000000000000000000909116146117885750604051908152f35b346102a65760003660031901126102a657602060ff600454166040519015158152f35b346102a65760003660031901126102a6576020601454604051908152f35b346102a65760003660031901126102a6576020601054604051908152f35b346102a65760003660031901126102a657600c805490611a9982612aa9565b9160009160005b828110611af757505050611ab381612aa9565b9160005b828110611ad85760405160208082528190611ad490820187612985565b0390f35b80611ae560019284612aea565b51611af08287612aea565b5201611ab7565b80600191600052600d602052604060002083600a82015442109182611b3e575b5050611b24575b01611aa0565b80611b38611b3187612adb565b9688612aea565b52611b1e565b60ff9250015416158388611b17565b346102a65760403660031901126102a657611b666128d8565b303303610424576100199060243590612ec5565b346102a65760403660031901126102a657600435611b966128ee565b600c54821015610c4557604091600052600d602052816000209060018060a01b0316600052600d8101602052600e60ff836000205416910160205260ff8260002054168251911515825215156020820152f35b346102a65760603660031901126102a657611c026128d8565b611c0a6128ee565b9060443567ffffffffffffffff81116102a657611c2b90369060040161293e565b90303303610424576001600160a01b03838116939084156107c057807f000000000000000000000000000000000000000000000000000000000000000016921692828414600014611d2d576040516370a0823160e01b815230600482015291602083602481875afa9283156106c557600093611cf9575b5060035480841115611ce757600094611ccd61065a926000805160206132dd83398151915296612a38565b928391610652600254808511158a1461067b578490612a38565b604051631ab9ebab60e01b8152600490fd5b9092506020813d602011611d25575b81611d15602093836127d1565b810103126102a657519186611ca2565b3d9150611d08565b915082611d4d5750478015611ce757600080808084885af16106f6612e95565b6040516370a0823160e01b81523060048201529091602082602481875afa9182156106c557600092611d9e575b50818215611ce7576107776000805160206132dd8339815191529360009587613214565b9091506020813d602011611dca575b81611dba602093836127d1565b810103126102a657519085611d7a565b3d9150611dad565b346102a65760003660031901126102a6576020600254604051908152f35b346102a65760003660031901126102a657303303610424576100197f0000000000000000000000000000000000000000000000000000000000000000612d20565b346102a65760203660031901126102a65760206108cf611e4f6128d8565b612a45565b346102a6576020806003193601126102a65760043590611e72612cfd565b600c54821015610c455781600052600d8152604060002060ff60118201541660001461255757600a8101544210612545575b600c810180549060ff82166125335760088301546009840154101561252157600160ff1980931617905560ff6001830160018060a01b039283825416600052600f865282604060002054168061250f575b6124ef575b505460a01c1660058110156124d95780611f4d5750506000805160206132bd83398151915291611f3260ff6006606094015416612f92565b60408051916001835282015260006040820152a26001600055005b60018103611f83575091611f7e8260076000805160206132bd83398151915295600260609601541691015490612ec5565b611f32565b9092906002908082036121a157508381840154168460038501541691611fb06005600487015496016127f3565b9583156107c05785156107ae577f0000000000000000000000000000000000000000000000000000000000000000168281036120c3576040516370a0823160e01b81523060048201528581602481855afa9081156106c557600091612096575b50600354808211156106815761202591612a38565b8611610681576000805160206132bd8339815191529686612073606098876000805160206132dd833981519152958761206c8f99548086111560001461067b578590612a38565b9055613214565b61208e60405192839283526040898401526040830190612898565b0390a4611f32565b90508581813d83116120bc575b6120ad81836127d1565b810103126102a6575189612010565b503d6120a3565b5050806121105747841161068157600080808087865af16120e2612e95565b501561071457856000805160206132dd8339815191526000805160206132bd83398151915296606096612073565b6040516370a0823160e01b81523060048201528381602481855afa9081156106c557600091612174575b50841161068157856000805160206132dd8339815191526000805160206132bd833981519152968661216f6060988787613214565b612073565b90508381813d831161219a575b61218b81836127d1565b810103126102a657518761213a565b503d612181565b909392906003810361235d57508284820154166121c760058560038501541693016127f3565b9382156107c0577f000000000000000000000000000000000000000000000000000000000000000016948186036122aa576040516370a0823160e01b81523060048201529484866024818a5afa9586156106c55760009661227b575b506003549081871115611ce7576000805160206132bd833981519152976120738a94876122616000805160206132dd8339815191529660609c612a38565b938261206c8694548086111560001461067b578590612a38565b9095508481813d83116122a3575b61229381836127d1565b810103126102a657519488612223565b503d612289565b50929350826122cc5747928315611ce757600080808087865af16120e2612e95565b6040516370a0823160e01b815230600482015293928285602481845afa9485156106c55760009561232e575b50848515611ce7576000805160206132dd833981519152606095889261216f6000805160206132bd833981519152998787613214565b9094508281813d8311612356575b61234681836127d1565b810103126102a6575193866122f8565b503d61233c565b6004036124c7578301547f0000000000000000000000000000000000000000000000000000000000000000831692168290036124c75780602492604051938480926370a0823160e01b82523060048301525afa9182156106c557600092612498575b506003549182811115611ce757826123d691612a38565b9160085490811561248657606084879361243b83977f8b887c99365b16ec127c895b4fbfab96273b2a79191ed7b42b9724cd8a695ae9958a6124346000805160206132bd8339815191529c548085111560001461067b578490612a38565b9055612a2b565b60035561245261244b8284612ca9565b9183612cc9565b9061245f81600a54612a2b565b600a5561246e82600b54612a2b565b600b55604051928352868301526040820152a2611f32565b604051630292d7c360e51b8152600490fd5b9080925081813d83116124c0575b6124b081836127d1565b810103126102a6575190846123bf565b503d6124a6565b604051631c49f4d160e01b8152600490fd5b634e487b7160e01b600052602160045260246000fd5b600f86526040600020908154169055600e85526000604081205586611efa565b50600e86528660406000205414611ef5565b60405163c8c93ba360e01b8152600490fd5b604051630dc1019760e01b8152600490fd5b604051633fc30bd160e11b8152600490fd5b601081015480156125875760065461256e91612a2b565b421015611ea45760405163a905056160e01b8152600490fd5b60405163aa26a69360e01b8152600490fd5b346102a65760203660031901126102a6576001600160a01b036125ba6128d8565b1660005260076020526080604060002060ff8154169060018101549060036002820154910154916040519315158452602084015260408301526060820152f35b346102a65760003660031901126102a6576020600154604051908152f35b346102a65760203660031901126102a657600435600052600d60205260406000208054600182015491600160a01b60019003600282015416600160a01b60019003600383015416600483015460058401612671906127f3565b600685015460ff16966007860154600887015490600988015492600a89015494600b8a015496600c8b015460ff1698600f8c01549a60108d01549c6011015460ff169d60405160805260805152600160a01b600190038516608051602001528460a01c60ff16600511156124d95760ff61271b9560a01c16604060805101526060608051015260808051015260a0608051015261022060c060805101526102206080510190612898565b99151560e060805101526101006080510152610120608051015261014060805101526101606080510152610180608051015215156101a060805101526101c060805101526101e06080510152151561020060805101526080519003608051f35b90600182811c921680156127ab575b602083101461279557565b634e487b7160e01b600052602260045260246000fd5b91607f169161278a565b60a0810190811067ffffffffffffffff82111761098e57604052565b90601f8019910116810190811067ffffffffffffffff82111761098e57604052565b906040519182600082546128068161277b565b908184526020946001916001811690816000146128765750600114612837575b505050612835925003836127d1565b565b600090815285812095935091905b81831061285e5750506128359350820101388080612826565b85548884018501529485019487945091830191612845565b9250505061283594925060ff191682840152151560051b820101388080612826565b919082519283825260005b8481106128c4575050826000602080949584010152601f8019910116010190565b6020818301810151848301820152016128a3565b600435906001600160a01b03821682036102a657565b602435906001600160a01b03821682036102a657565b346102a65760003660031901126102a657602060405162093a808152f35b67ffffffffffffffff811161098e57601f01601f191660200190565b81601f820112156102a65780359061295582612922565b9261296360405194856127d1565b828452602083830101116102a657816000926020809301838601378301015290565b90815180825260208080930193019160005b8281106129a5575050505090565b835185529381019392810192600101612997565b6004359081151582036102a657565b60409060031901126102a6576004359060243590565b600854811015612a155760086000527ff3f7a9fe364faab93b216da50a3214154f22a0a2b415b23a84c8169e8b636ee30190600090565b634e487b7160e01b600052603260045260246000fd5b9190820180921161155b57565b9190820391821161155b57565b6001600160a01b03166000908152600760205260409020805460ff1615612a8b576003600a54910154808211600014612a8457612a8191612a38565b90565b5050600090565b50600090565b67ffffffffffffffff811161098e5760051b60200190565b90612ab382612a91565b612ac060405191826127d1565b8281528092612ad1601f1991612a91565b0190602036910137565b600019811461155b5760010190565b8051821015612a155760209160051b010190565b9181158015612c8c575b612c7a57600c80549081851015612c4957612b2284612aa9565b92600092865b81881080612c40575b15612b9f575086600052600d602052604060002083600a82015442109182612b90575b5050612b76575b6001870180881161155b57612b709097612adb565b96612b28565b86612b8a612b8386612adb565b9587612aea565b52612b5b565b60ff9250015416158338612b54565b965091909450600095828110612bed575b505050612bbc81612aa9565b9160005b828110612bce575050509190565b80612bdb60019284612aea565b51612be68287612aea565b5201612bc0565b5b82811015612bb05780600052600d602052604060002082600a82015442109182612c31575b5050612c2157600101612bee565b5050509250600192388080612bb0565b60ff9250015416158238612c13565b50868510612b31565b50509150506040516020810181811067ffffffffffffffff82111761098e5760405260008152600036813790600090565b6040516381f396b760e01b8152600490fd5b5060648211612b08565b8181029291811591840414171561155b57565b8115612cb3570490565b634e487b7160e01b600052601260045260246000fd5b8115612cb3570690565b6001600160a01b031660009081526007602052604090205460ff1615612cf857600190565b600090565b600260005414612d0e576002600055565b604051633ee5aeb560e01b8152600490fd5b6001600160a01b037f0000000000000000000000000000000000000000000000000000000000000000811691168190036124c757602460206040928351928380926370a0823160e01b82523060048301525afa908115612e8a57600091612e58575b506003549081811115612e475781612d9991612a38565b91600854918215612e3657927f8b887c99365b16ec127c895b4fbfab96273b2a79191ed7b42b9724cd8a695ae992606092612df083600097612de8600254808411158b1461067b578390612a38565b600255612a2b565b600355612e07612e008385612ca9565b9284612cc9565b91612e1481600a54612a2b565b600a55612e2383600b54612a2b565b600b5581519384526020840152820152a2565b8151630292d7c360e51b8152600490fd5b8251631ab9ebab60e01b8152600490fd5b90506020813d602011612e82575b81612e73602093836127d1565b810103126102a6575138612d82565b3d9150612e66565b82513d6000823e3d90fd5b3d15612ec0573d90612ea682612922565b91612eb460405193846127d1565b82523d6000602084013e565b606090565b6001600160a01b03919082168015159081612f65575b50612f535780612f3a575b507faf8839d80c9b3bbf95c97465eb8c8348db4098f5c15af186c3b425b1129981176020600154926040519384527f00000000000000000000000000000000000000000000000000000000000000001692a2565b600a81106104fa57600a81066104e85760015538612ee6565b60405163b078ee9d60e01b8152600490fd5b9050827f000000000000000000000000000000000000000000000000000000000000000016141538612edb565b60207f752d7e161ff5146f80e3820893176eb40532811e5e20400dfdde57455213706a91151560ff196004541660ff821617600455604051908152a1565b600091338352602091600f835260409060ff8286205416613160575b8061315a575062093a80925b62093a8084106131495762278d008411613138577f3417b456fad6209c73445d5efd446d686e75e4560f0f50c13b5a5cde976447b4600c549161303a83612adb565b600c558296838152600d8252838561306e81842099838b5560018b01336001600160601b0360a01b82541617905542612a2b565b92600a8a0193845542600b8b0155600c8a0160ff1990818154169055338252600d8b018652828220600182825416179055600e8b018652828220600182825416179055600160088c01558160098c015560085480600f8d015560108c0183815560118d0183815416905581613104575b5050338252600f8652600183832091825416179055600e855220555493519384523393a3565b600554909161311291612c96565b60641015613121575b806130de565b42905561313060065442612a2b565b85553861311b565b815163eeeb962360e01b8152600490fd5b81516331806aeb60e21b8152600490fd5b92612ff8565b600e8493929452838520548552600d835283852060ff600c820154161590816131bf575b501561319b57835163792c310960e11b8152600490fd5b92909192338552600f845281852060ff198154169055600e84528482812055612fec565b600a91500154421038613184565b6040516323b872dd60e01b60208201526001600160a01b0392831660248201529290911660448301526064808301939093529181526128359161320f826127b5565b613260565b60405163a9059cbb60e01b60208201526001600160a01b039092166024830152604480830193909352918152608081019167ffffffffffffffff83118284101761098e57612835926040525b906000602091828151910182855af1156106c5576000513d6132b357506001600160a01b0381163b155b6132915750565b604051635274afe760e01b81526001600160a01b039091166004820152602490fd5b6001141561328a56feaf8f9d0e884d3306a083e846741a0bc4d75908e2b0ec63b558219652ae4c1b90d81f085560db5c809c425a15f00e3f2904e4fa46d6e8672ff2e671ccd6d9a231a2646970667358221220396a2b2c5bb773f350f38bf46ee4b44b8a2a70f251fde30cef7b5dfdb4597fcb64736f6c63430008170033",
  "linkReferences": {},
  "deployedLinkReferences": {}
}