{
  "_format": "hh-sol-artifact-1",
  "contractName": "TemplFactory",
  "sourceName": "contracts/TemplFactory.sol",
  "abi": [
    {
      "inputs": [
        {
          "internalType": "address",
          "name": "_protocolFeeRecipient",
          "type": "address"
        },
        {
          "internalType": "uint256",
          "name": "_protocolPercent",
          "type": "uint256"
        }
      ],
      "stateMutability": "nonpayable",
      "type": "constructor"
    },
    {
      "inputs": [],
      "name": "EntryFeeTooSmall",
      "type": "error"
    },
    {
      "inputs": [],
      "name": "InvalidEntryFee",
      "type": "error"
    },
    {
      "inputs": [],
      "name": "InvalidPercentage",
      "type": "error"
    },
    {
      "inputs": [],
      "name": "InvalidPercentageSplit",
      "type": "error"
    },
    {
      "inputs": [],
      "name": "InvalidRecipient",
      "type": "error"
    },
    {
      "anonymous": false,
      "inputs": [
        {
          "indexed": true,
          "internalType": "address",
          "name": "templ",
          "type": "address"
        },
        {
          "indexed": true,
          "internalType": "address",
          "name": "creator",
          "type": "address"
        },
        {
          "indexed": true,
          "internalType": "address",
          "name": "priest",
          "type": "address"
        },
        {
          "indexed": false,
          "internalType": "address",
          "name": "token",
          "type": "address"
        },
        {
          "indexed": false,
          "internalType": "uint256",
          "name": "entryFee",
          "type": "uint256"
        },
        {
          "indexed": false,
          "internalType": "uint256",
          "name": "burnPercent",
          "type": "uint256"
        },
        {
          "indexed": false,
          "internalType": "uint256",
          "name": "treasuryPercent",
          "type": "uint256"
        },
        {
          "indexed": false,
          "internalType": "uint256",
          "name": "memberPoolPercent",
          "type": "uint256"
        },
        {
          "indexed": false,
          "internalType": "uint256",
          "name": "quorumPercent",
          "type": "uint256"
        },
        {
          "indexed": false,
          "internalType": "uint256",
          "name": "executionDelaySeconds",
          "type": "uint256"
        },
        {
          "indexed": false,
          "internalType": "address",
          "name": "burnAddress",
          "type": "address"
        }
      ],
      "name": "TemplCreated",
      "type": "event"
    },
    {
      "inputs": [
        {
          "internalType": "address",
          "name": "_token",
          "type": "address"
        },
        {
          "internalType": "uint256",
          "name": "_entryFee",
          "type": "uint256"
        }
      ],
      "name": "createTempl",
      "outputs": [
        {
          "internalType": "address",
          "name": "templAddress",
          "type": "address"
        }
      ],
      "stateMutability": "nonpayable",
      "type": "function"
    },
    {
      "inputs": [
        {
          "components": [
            {
              "internalType": "address",
              "name": "priest",
              "type": "address"
            },
            {
              "internalType": "address",
              "name": "token",
              "type": "address"
            },
            {
              "internalType": "uint256",
              "name": "entryFee",
              "type": "uint256"
            },
            {
              "internalType": "uint256",
              "name": "burnPercent",
              "type": "uint256"
            },
            {
              "internalType": "uint256",
              "name": "treasuryPercent",
              "type": "uint256"
            },
            {
              "internalType": "uint256",
              "name": "memberPoolPercent",
              "type": "uint256"
            },
            {
              "internalType": "uint256",
              "name": "quorumPercent",
              "type": "uint256"
            },
            {
              "internalType": "uint256",
              "name": "executionDelaySeconds",
              "type": "uint256"
            },
            {
              "internalType": "address",
              "name": "burnAddress",
              "type": "address"
            }
          ],
          "internalType": "struct TemplFactory.CreateConfig",
          "name": "config",
          "type": "tuple"
        }
      ],
      "name": "createTemplWithConfig",
      "outputs": [
        {
          "internalType": "address",
          "name": "templAddress",
          "type": "address"
        }
      ],
      "stateMutability": "nonpayable",
      "type": "function"
    },
    {
      "inputs": [],
      "name": "protocolFeeRecipient",
      "outputs": [
        {
          "internalType": "address",
          "name": "",
          "type": "address"
        }
      ],
      "stateMutability": "view",
      "type": "function"
    },
    {
      "inputs": [],
      "name": "protocolPercent",
      "outputs": [
        {
          "internalType": "uint256",
          "name": "",
          "type": "uint256"
        }
      ],
      "stateMutability": "view",
      "type": "function"
    }
  ],
  "bytecode": "0x60c0346100ca57601f61439538819003918201601f19168301916001600160401b038311848410176100cf5780849260409485528339810103126100ca5780516001600160a01b038116918282036100ca576020015191156100b857606482116100a65760805260a0526040516142af90816100e6823960805181818161025101526103eb015260a0518181816101a70152818161035001528181610433015261053a0152f35b60405163542c8df360e11b8152600490fd5b604051634e46966960e11b8152600490fd5b600080fd5b634e487b7160e01b600052604160045260246000fdfe60806040818152600436101561001457600080fd5b600091823560e01c90816364df049e1461023d57508063b4c99cfd146101ca578063f0a827a4146101905763f3d13acb1461004e57600080fd5b3461018c5761012036600319011261018c5761006861029b565b91610071610280565b8084526001600160a01b0391602435838116810361018c5760208601526044358486015260643591606086019083825260843590608088019482865260a4359160a08a019583875260c4358b60c0810182815260e060e43592019282845261010435958d87169586880361018957509160209f9b99979593918e6101359e9c9a9896946101008f019788521615610181575b15610177575b501561016b575b5015610160575b50159182610157575b508161014e575b5061013d575b5050506102d2565b915191168152f35b601e9283809252525238808061012d565b90501538610127565b15915038610120565b61dead905238610117565b62093a80905238610110565b6021905238610109565b338d52610103565b80fd5b5080fd5b503461018c578160031936011261018c57602090517f00000000000000000000000000000000000000000000000000000000000000008152f35b503461018c578060031936011261018c576020906101e6610280565b6101356101f161029b565b3381526001600160a01b039283168582015260243584820152601e606082018190526080820181905260a0820152602160c082015262093a8060e082015261dead6101008201526102d2565b83903461018c578160031936011261018c577f00000000000000000000000000000000000000000000000000000000000000006001600160a01b03168152602090f35b600435906001600160a01b038216820361029657565b600080fd5b60405190610120820182811067ffffffffffffffff8211176102bc57604052565b634e487b7160e01b600052604160045260246000fd5b6020810180519192916001600160a01b0316156105a757600a60408401511061059557600a6040840151066105835760648060c085015111610571576060840151608085015160a08601518383118015610568575b801561055f575b8015610536575b6105245761034961034e92610375946105b9565b6105b9565b7f0000000000000000000000000000000000000000000000000000000000000000906105b9565b0361052457825181516040808601516060870151608088015160a089015160c08a015160e08b01516101008c01519651986001600160a01b0390811698613c9d98898c0198908316979396949594939290911667ffffffffffffffff89118c8a10176102bc576101609a8c9a620005dd8c3989527f00000000000000000000000000000000000000000000000000000000000000006001600160a01b031660208a015260408901526060880152608087015260a086015260c08501527f000000000000000000000000000000000000000000000000000000000000000060e08501526101008401526101208301526101408201520301906000f080156105185760018060a01b03169260018060a01b038151169160018060a01b03905116906040810151906060810151608082015160a08301519060c08401519260e08501519461010060018060a01b039101511695604051978852602088015260408701526060860152608085015260a084015260c083015260e0820152837f68eed2143207934c3a796eabd3740db331c18dfe438323008d95009d9542768d6101003393a4565b6040513d6000823e3d90fd5b60405163542c8df360e11b8152600490fd5b50837f000000000000000000000000000000000000000000000000000000000000000011610335565b5083811161032e565b50838211610327565b604051631f3b85d360e01b8152600490fd5b604051636fe6a4c960e01b8152600490fd5b604051635eee050360e11b8152600490fd5b604051634e46966960e11b8152600490fd5b919082018092116105c657565b634e487b7160e01b600052601160045260246000fdfe610100346200036757601f62003c9d38819003918201601f191683019291906001600160401b038411838510176200036c578161016092849260409687528339810103126200036757620000538162000382565b620000616020830162000382565b906200006f84840162000382565b606084015193608081015160a08201519060c083015160e08401519261010085015192620000a7610140610120880151970162000382565b60016000556001600160a01b0399909790808b161580156200035c575b6200034b5760a05260c05284608052606494858211801562000341575b801562000337575b80156200032d575b6200031c576200011386916200010d866200010d878762000397565b62000397565b036200030b576001556002556003558062000305575060215b8060095511620002f45780620002ee575062093a805b80600a5515620002dd578290808216620002d7575061dead5b8060e0521615620002c657168015620002b5578115620002a457600a82106200029357600a82066200028257600480546001600160a01b0319169190911790556005556008805460ff19169055516138e19081620003bc823960805181818161049c01528181610e7a015281816111e801528181611f27015281816133d30152613422015260a051818181610f88015281816114260152611984015260c0518181816103ad015281816104d5015281816105a901528181610dd001528181610f130152818161125e015281816113c2015281816113f3015281816114480152818161153d01528181611d3a0152818161225201528181612b2001528181612eeb015281816131b4015281816133f9015261348a015260e0518181816113a001526118410152f35b8251636fe6a4c960e01b8152600490fd5b8251635eee050360e11b8152600490fd5b82516365e52d5160e11b8152600490fd5b8251634e46966960e11b8152600490fd5b8351634e46966960e11b8152600490fd5b6200015b565b845163f8b9a2e360e01b8152600490fd5b62000142565b8551631f3b85d360e01b8152600490fd5b6200012c565b8a5163542c8df360e11b8152600490fd5b8b5163542c8df360e11b8152600490fd5b50858111620000f1565b50858411620000e9565b50858311620000e1565b8c51634e46966960e11b8152600490fd5b508a821615620000c4565b600080fd5b634e487b7160e01b600052604160045260246000fd5b51906001600160a01b03821682036200036757565b91908201809211620003a557565b634e487b7160e01b600052601160045260246000fdfe610140604052600436101561001c575b361561001a57600080fd5b005b60003560e01c8063013cf08b1461265a57806303807ee51461263c57806304ef9d581461261e578063072ea61c1461260057806308ae4b0c1461259f5780630d61b519146120c15780630f852b9a1461207b5780631808022a146120585780631df260a014611f905780631f4b1acb14611e77578063215809ca146110ae578063240d3a0614611cf2578063313dab2014611cd457806332f974b314611c535780634385963214611be457806353eee21214611bb85780635584c4f914611aed5780635962a94114611acf57806359c266ff14611ab15780635c975abb14611a8e5780635fa7ddf014611a70578063640c4fa214611a0957806364653f29146119b357806364df049e1461196e578063653724d6146119455780636898b19c146119275780636a499427146118c85780636ad185501461188e5780637070ac481461187057806370d5ae051461182b57806371e86b6a1461178d578063840634c5146117645780638f78bbc41461172257806395a078e8146116e3578063997072f7146116c557806399e288d81461116a578063a51a46b91461114c578063a64e024a1461112e578063a730117e1461110b578063a81bbe3c146110d1578063adadef27146110b3578063aedfe53f146110ae578063b307fc6d14611053578063bdb75b3414611035578063bebc8fc01461100c578063c1b57edb14610fee578063c293947114610edf578063c3f909d414610daa578063c470dd9014610bcb578063c7f758a814610aeb578063c9d27afe1461083c578063d402d4be14610540578063d89135cd14610522578063da35c66414610504578063e243c5fb146104bf578063f0a827a414610484578063f2be51ea14610449578063f7158b2a14610317578063f81cbd26146102f95763ffafe4ad0361000f57346102f45760203660031901126102f4576001600160a01b036102d6612952565b166000526013602052602060ff604060002054166040519015158152f35b600080fd5b346102f45760003660031901126102f4576020600954604051908152f35b346102f45760003660031901126102f45733600052600b60205260ff604060002054161561043757610347612e5a565b61035033612a5c565b80156104255780610366600754600f5490612a4f565b1061041357600e5433600052600b602052600360406000200155600d6020526040600020610395828254612a42565b90556103a381600754612a4f565b6007556103da81337f00000000000000000000000000000000000000000000000000000000000000006001600160a01b031661374a565b6040519081524260208201527fc4e740509dbfae3377bc9925dd7bcc8aaba69cd730316216d76b2d24725c636660403392a26001600055005b60405163bc6072f160e01b8152600490fd5b6040516373380d9960e01b8152600490fd5b60405163148fe22160e11b8152600490fd5b346102f45760203660031901126102f457610462612952565b3033036104725761001a90612ed3565b6040516327568d2f60e11b8152600490fd5b346102f45760003660031901126102f45760206040517f00000000000000000000000000000000000000000000000000000000000000008152f35b346102f45760003660031901126102f4576040517f00000000000000000000000000000000000000000000000000000000000000006001600160a01b03168152602090f35b346102f45760003660031901126102f4576020601054604051908152f35b346102f45760003660031901126102f4576020601554604051908152f35b346102f45760803660031901126102f457610559612952565b610561612968565b6044359060643567ffffffffffffffff81116102f4576105859036906004016129fb565b92303303610472576001600160a01b038281169490851561082a57841561081857807f0000000000000000000000000000000000000000000000000000000000000000169216938285146000146106c9576040516370a0823160e01b8152306004820152602081602481875afa9081156106bd5760009161068b575b50600754808211156106795761061691612a4f565b8111610679576106528160009560008051602061388c8339815191529561064a600654808511158a14610673578490612a4f565b60065561374a565b61066e6040519283928352604060208401526040830190612912565b0390a4005b80612a4f565b604051631c7b597b60e11b8152600490fd5b90506020813d6020116106b5575b816106a66020938361284b565b810103126102f4575187610601565b3d9150610699565b6040513d6000823e3d90fd5b915091831560001461076457506000805260196020527fd2ac945fcc0096878c763e37d6929b78378c1a2defabde8ba7ee5ed1d6e7a5b25447908082111561075b5761071491612a4f565b811161067957600080808084885af161072b612ac8565b50156107495760009160008051602061388c83398151915291610652565b6040516331d436c760e01b8152600490fd5b50506000610714565b90918360005260196020526040600020604051906370a0823160e01b8252306004830152602082602481895afa9182156106bd576000926107e4575b5054808211156107db576107b391612a4f565b831161067957826107d660009460008051602061388c833981519152948761374a565b610652565b505060006107b3565b9091506020813d602011610810575b816108006020938361284b565b810103126102f4575190876107a0565b3d91506107f3565b6040516365e52d5160e11b8152600490fd5b604051634e46966960e11b8152600490fd5b346102f45760403660031901126102f4576024803580151591600435918381036102f45733600052600b9160209280845260ff604060002054161561043757601054851015610ad95784600052601190818552604060002092600d8401948554421015610ac757601485019060ff8254161580610aba575b610a8d575b601086013360005280895260ff60406000205416868801808b5260ff60406000205416928b526040600020600160ff198254161790558a5261090b8360406000209060ff801983541691151516179055565b610a155750156109fa57828501805490600182018092116109e6575560ff905b541615806109da575b61096f575b87878760405192835242908301527fcbdf6214089cba887ecbf35a0b6a734589959c9763342c756bb2a80ca2bc9f6e60403393a3005b600c5491826012860155840154926064840293808504606414901517156109c857505061099e90600954612daf565b11156109ad575b808080610939565b6013429101556109bf600a5442612a42565b905583806109a5565b634e487b7160e01b6000526004526000fd5b50601384015415610934565b8386634e487b7160e01b6000526004526000fd5b600c8501805490600182018092116109e6575560ff9061092b565b90508981151503610a2a575b5060ff9061092b565b15610a5f5784830180546000198101919082116109e65755600c8501805490600182018092116109e6575560ff905b90610a21565b600c850180546000198101919082116109e65755828501805490600182018092116109e6575560ff90610a59565b33600052838852600160406000200154601387015410156108b95760405163f078ca7360e01b8152600490fd5b50601386015415156108b4565b604051637a19ed0560e01b8152600490fd5b604051631dc0650160e31b8152600490fd5b346102f45760203660031901126102f457600435601054811015610ad957600052601160205260c0604060002060ff601482015416600014610b9257600d81015442101580610b81575b60018060a01b0360018301541691600b81015490600c81015460ff600f600d840154930154169260405195865260208601526040850152606084015215156080830152151560a0820152f35b50600b810154600c82015410610b35565b60138101548015610bc357600a54610ba991612a42565b4210158015610b355750600b810154600c82015410610b35565b506000610b35565b346102f45760a03660031901126102f457610be4612952565b610bec612968565b67ffffffffffffffff916064358381116102f457610c0e9036906004016129fb565b9033600052602093600b855260ff6040600020541615610437576005610c35608435613548565b9095600194858301600160a11b60ff60a01b198254161790556002830160018060a01b0390816bffffffffffffffffffffffff60a01b93168382541617905560038401921690825416179055604435600482015501928051918211610d9457610c9e8454612811565b601f8111610d4b575b508590601f8311600114610ce857928293918392600094610cdd575b50501b916000199060031b1c19161790555b604051908152f35b015192508780610cc3565b90601f198316918560005283886000209360005b8a88838310610d345750505010610d1b575b505050811b019055610cd5565b015160001960f88460031b161c19169055858080610d0e565b868601518855909601959485019487935001610cfc565b8460005286600020601f840160051c810191888510610d8a575b601f0160051c019084905b828110610d7e575050610ca7565b60008155018490610d70565b9091508190610d65565b634e487b7160e01b600052604160045260246000fd5b346102f45760003660031901126102f4576040516370a0823160e01b81523060048201527f00000000000000000000000000000000000000000000000000000000000000006001600160a01b0316602082602481845afa80156106bd57600090610eab575b6007546101409350908180821115610ea157610e2a91612a4f565b905b6005549160ff6008541691601454916001549260025494600354966040519889526020890152151560408801526060870152608086015260a085015260c084015260e08301526101008201527f0000000000000000000000000000000000000000000000000000000000000000610120820152f35b5050600090610e2c565b506020823d602011610ed7575b81610ec56020938361284b565b810103126102f4576101409151610e0f565b3d9150610eb8565b346102f45760003660031901126102f4576040516370a0823160e01b81523060048201526001600160a01b036020826024817f000000000000000000000000000000000000000000000000000000000000000085165afa9081156106bd57600091610fb9575b60075460c09350918280821115610faf57610f5f91612a4f565b915b601654601554906018549260405195865260208601526040850152606084015260808301527f00000000000000000000000000000000000000000000000000000000000000001660a0820152f35b5050600091610f61565b90506020823d602011610fe6575b81610fd46020938361284b565b810103126102f45760c0915190610f45565b3d9150610fc7565b346102f45760003660031901126102f4576020601654604051908152f35b346102f45760003660031901126102f4576004546040516001600160a01b039091168152602090f35b346102f45760003660031901126102f4576020601754604051908152f35b346102f45760203660031901126102f457600435600c548110156102f457600c6000527fdf6966c971051c3d54ec59162606531493a51404a002842f56009d7e5cf4a8c701546040516001600160a01b039091168152602090f35b61298d565b346102f45760003660031901126102f4576020600354604051908152f35b346102f45760203660031901126102f4576001600160a01b036110f2612952565b16600052600d6020526020604060002054604051908152f35b346102f45760203660031901126102f4576020610cd5611129612952565b612e30565b346102f45760003660031901126102f457602060405162278d008152f35b346102f45760003660031901126102f4576020600f54604051908152f35b346102f45760003660031901126102f45760ff600854166116b3573033146116a157611194612e5a565b33600052600b602052604060002080549060ff821661168f576005549160646111bf60015485612daf565b049160646111cf60025486612daf565b049360646111df60035483612daf565b0491606461120d7f000000000000000000000000000000000000000000000000000000000000000084612daf565b049361122685611221866112218b8b612a42565b612a42565b83811161167d57838110611657575b506112408488612a42565b6040516370a0823160e01b81523360048201529093906020816024817f00000000000000000000000000000000000000000000000000000000000000006001600160a01b03165afa9081156106bd57600091611625575b50106116135760019060ff1916178155426001820155436002820155600c54600160401b811015610d94576001810180600c558110156115b157600c6000527fdf6966c971051c3d54ec59162606531493a51404a002842f56009d7e5cf4a8c70180546001600160a01b0319163317905560145461131490612be4565b601455600c54600181116115c7575b50601a5460005b8181106114f857505090611420916003600e5491015561134c86600654612a42565b60065561135b83600754612a42565b60075561136a85601554612a42565b60155561137986601654612a42565b60165561138883601754612a42565b60175561139784601854612a42565b6018556113ef857f0000000000000000000000000000000000000000000000000000000000000000337f00000000000000000000000000000000000000000000000000000000000000006001600160a01b031661379a565b30337f00000000000000000000000000000000000000000000000000000000000000006001600160a01b031661379a565b611475827f0000000000000000000000000000000000000000000000000000000000000000337f00000000000000000000000000000000000000000000000000000000000000006001600160a01b031661379a565b600554936014549360001985019485116114e25760405195865260208601526040850152606084015260808301524260a08301524360c083015260e08201527fe6d1c0e418a42a777d49c66571075fc47bc1d92e7f506007ddde08d1ff182bbc6101003392a26001600055005b634e487b7160e01b600052601160045260246000fd5b601a548110156115b157601a6000527f057c384a7d1c54f3a1b2e5e67b2617b8224fdfd1ea7234eea573a6ff665ff63e810154600191906001600160a01b03908116907f00000000000000000000000000000000000000000000000000000000000000001681146115ab57806000526019602052604060002060ff600382015416156115a4578301549033600052601b6020526040600020906000526020526040600020555b0161132a565b505061159e565b5061159e565b634e487b7160e01b600052603260045260246000fd5b6115d3600f5485612a42565b90806000198101116114e2576115ff61160a926115f4600019840182612dc2565b926000190190612aa8565b600f55600e54612a42565b600e5586611323565b604051631e9acf1760e31b8152600490fd5b90506020813d60201161164f575b816116406020938361284b565b810103126102f4575189611297565b3d9150611633565b96611676906116706116698a87612a4f565b8092612a42565b98612a42565b5087611235565b60405163542c8df360e11b8152600490fd5b604051630cd9ed5560e21b8152600490fd5b604051636edaef2f60e11b8152600490fd5b604051630eceade960e31b8152600490fd5b346102f45760003660031901126102f4576020600c54604051908152f35b346102f45760203660031901126102f4576001600160a01b03611704612952565b16600052600b602052602060ff604060002054166040519015158152f35b346102f45760403660031901126102f457611758611744602435600435612c07565b6040519283926040845260408401906129ab565b90151560208301520390f35b346102f45760203660031901126102f45761177d612952565b3033036104725761001a90612e7d565b346102f45760403660031901126102f4576117a6612952565b33600052600b60205260ff6040600020541615610437576020906117cb602435613548565b60018101805460ff60a01b1916600360a01b1790556002810180546001600160a01b0319166001600160a01b039485161790556004549192909133911614611817575b50604051908152f35b601401805460ff191660011790558261180e565b346102f45760003660031901126102f4576040517f00000000000000000000000000000000000000000000000000000000000000006001600160a01b03168152602090f35b346102f45760003660031901126102f4576020600a54604051908152f35b346102f45760203660031901126102f4576001600160a01b036118af612952565b1660005260126020526020604060002054604051908152f35b346102f45760203660031901126102f4576001600160a01b036118e9612952565b1660005260196020526040600020805461192360026001840154930154604051938493846040919493926060820195825260208201520152565b0390f35b346102f45760003660031901126102f4576020600e54604051908152f35b346102f45760203660031901126102f45761195e61297e565b3033036104725761001a906134b2565b346102f45760003660031901126102f4576040517f00000000000000000000000000000000000000000000000000000000000000006001600160a01b03168152602090f35b346102f45760203660031901126102f4576001600160a01b036119d4612952565b16600052600b6020526060604060002060ff815416906002600182015491015490604051921515835260208301526040820152f35b346102f45760403660031901126102f457611a2261297e565b33600052600b60205260ff6040600020541615610437576006610cd5602092611a4c602435613548565b6001819592950160ff60a01b198154169055019060ff801983541691151516179055565b346102f45760003660031901126102f4576020600754604051908152f35b346102f45760003660031901126102f457602060ff600854166040519015158152f35b346102f45760003660031901126102f4576020601854604051908152f35b346102f45760003660031901126102f4576020601454604051908152f35b346102f45760003660031901126102f457601054611b0a81612bb2565b9060009060005b818110611b63575050611b2381612bb2565b9160005b828110611b445760405160208082528190611923908201876129ab565b80611b5160019284612bf3565b51611b5c8287612bf3565b5201611b27565b8060019160005260116020526040600020600d81015442109081611ba8575b50611b8e575b01611b11565b80611ba2611b9b86612be4565b9587612bf3565b52611b88565b60ff9150600f0154161586611b82565b346102f45760403660031901126102f4576020610cd5611bd6612952565b611bde612968565b90612af8565b346102f45760403660031901126102f457600435611c00612968565b601054821015610ad9576040916000526011602052816000209060018060a01b031660005260108101602052601160ff836000205416910160205260ff8260002054168251911515825215156020820152f35b346102f45760403660031901126102f457611c6c612952565b33600052600b60205260ff6040600020541615610437576001600160a01b0316801561082a576003602091611ca2602435613548565b60018101805460ff60a01b1916600160a21b1790559290920180546001600160a01b0319169091179055604051908152f35b346102f45760003660031901126102f4576020600654604051908152f35b346102f4576020806003193601126102f457611d0c612952565b9033600052600b815260ff604060002054161561043757611d2b612e5a565b6001600160a01b0382811691907f0000000000000000000000000000000000000000000000000000000000000000168214611e6557816000526019815260406000209260ff6003850154161561042557611d859033612af8565b9283156104255780548481106104135784611de291600184015433600052601b8652604060002087600052865260406000205533600052601c855260406000208660005285526040600020611ddb838254612a42565b9055612a4f565b905581611e3357600080808086335af1611dfa612ac8565b5015610749577f26cd6ba06f6dc02c61247f710e95c768f4856af03b740594288907c36bb217e9905b6040519384523393a36001600055005b7f26cd6ba06f6dc02c61247f710e95c768f4856af03b740594288907c36bb217e990611e6084338561374a565b611e23565b604051631c49f4d160e01b8152600490fd5b346102f45760c03660031901126102f4576044356004356084358015159060243590606435908381036102f45733600052600b60205260ff60406000205416156104375784611f53575b9060209560149392611f22575b611ed960a435613548565b93909660018501600160a01b60ff60a01b19825416179055600785015560088401556009830155600a820155019061ff0082549160081b169061ff001916179055604051908152f35b611f4e7f00000000000000000000000000000000000000000000000000000000000000008383866134f0565b611ece565b9190600a8510611f7e57600a8506611f6c579091611ec1565b604051636fe6a4c960e01b8152600490fd5b604051635eee050360e11b8152600490fd5b346102f45760003660031901126102f45760405180601a5480835260208093018091601a6000527f057c384a7d1c54f3a1b2e5e67b2617b8224fdfd1ea7234eea573a6ff665ff63e9060005b8682821061203b578686611ff28288038361284b565b604051928392818401908285525180915260408401929160005b82811061201b57505050500390f35b83516001600160a01b03168552869550938101939281019260010161200c565b83546001600160a01b031685529093019260019283019201611fdc565b346102f45760203660031901126102f4576020610cd5612076612952565b612a5c565b346102f45760c03660031901126102f457612094612952565b6044359081151582036102f4573033036104725761001a9160a4359160843591606435916024359061335d565b346102f4576020806003193601126102f457600435906120df612e5a565b601054821015610ad95781600052601181526040600020906014820160ff908181541660001461255d57600d840154421061254b575b600f840180549083821661253957600b860154600c870154101561252757600160ff19809316179055826001860160018060a01b03928382541660005260138752826040600020541680612515575b6124f5575b505460a01c1660068110156124df578690806121bf5750505050906121a4606092600660008051602061386c833981519152950154166134b2565b60408051916001835282015260006040820152a26001600055005b92939260018103612213575050918461220e9260609594600260008051602061386c833981519152980154166007830154935493600884015492600a60098601549501549560081c169161335d565b6121a4565b9194935091506002810361248557505081600284015416826003850154169061224360056004870154960161286d565b93821561082a578515610818577f00000000000000000000000000000000000000000000000000000000000000001694818603612350576040516370a0823160e01b815230600482015284816024818a5afa9081156106bd57600091612323575b5060075480821115610679576122b991612a4f565b81116106795760008051602061388c833981519152606095826123008a948760008051602061386c8339815191529b61064a60065480851115600014610673578490612a4f565b61231b60405192839283526040898401526040830190612912565b0390a46121a4565b90508481813d8311612349575b61233a818361284b565b810103126102f45751886122a4565b503d612330565b939450806123c957600080526019835260406000204790548082116000146123c05761237b91612a4f565b841161067957600080808087865af1612392612ac8565b5015610749578560008051602061388c83398151915260008051602061386c83398151915296606096612300565b5050600061237b565b80600052601983526040600020604051906370a0823160e01b82523060048301528482602481865afa9182156106bd57600092612456575b50548082111561244d5761241491612a4f565b8411610679578560008051602061388c83398151915260008051602061386c8339815191529686612448606098878761374a565b612300565b50506000612414565b9091508481813d831161247e575b61246e818361284b565b810103126102f457519088612401565b503d612464565b91929091600381036124b457506060929161220e91600260008051602061386c8339815191529601541661319a565b90929150600403611e655761220e606092600360008051602061386c83398151915295015416612e7d565b634e487b7160e01b600052602160045260246000fd5b601387526040600020908154169055601286526000604081205588612169565b50601287528860406000205414612164565b60405163c8c93ba360e01b8152600490fd5b604051630dc1019760e01b8152600490fd5b604051633fc30bd160e11b8152600490fd5b6013840154801561258d57600a5461257491612a42565b4210156121155760405163a905056160e01b8152600490fd5b60405163aa26a69360e01b8152600490fd5b346102f45760203660031901126102f4576001600160a01b036125c0612952565b16600052600b6020526080604060002060ff8154169060018101549060036002820154910154916040519315158452602084015260408301526060820152f35b346102f45760003660031901126102f4576020600554604051908152f35b346102f45760003660031901126102f4576020600254604051908152f35b346102f45760003660031901126102f4576020600154604051908152f35b346102f45760203660031901126102f45760048035600090815260116020526040902080546001820154600283015460038401546001600160a01b0390811660a0529484015461010052909316926126b46005840161286d565b61012052600683015460ff1660e05260078301549360088401546009850154600a860154600b87015490600c88015492600d89015494600e8a015496600f8b015460ff169860128c01549a60138d01549c6014015460805260405160c05260c05152600160a01b60019003811660c051602001528060a01c60ff16600611156124df5760ff9060a01c16604060c0510152606060c051015260a051608060c05101526101005160a060c05101526102a060c08051015261277d6102a060c0510161012051612912565b9a60e051151560e060c051015261010060c051015261012060c051015261014060c051015261016060c051015261018060c05101526101a060c05101526101c060c05101526101e060c0510152151561020060c051015261022060c051015261024060c051015260ff60805116151561026060c051015260ff60805160081c16151561028060c051015260c051900360c051f35b90600182811c92168015612841575b602083101461282b57565b634e487b7160e01b600052602260045260246000fd5b91607f1691612820565b90601f8019910116810190811067ffffffffffffffff821117610d9457604052565b9060405191826000825461288081612811565b908184526020946001916001811690816000146128f057506001146128b1575b5050506128af9250038361284b565b565b600090815285812095935091905b8183106128d85750506128af93508201013880806128a0565b855488840185015294850194879450918301916128bf565b925050506128af94925060ff191682840152151560051b8201013880806128a0565b919082519283825260005b84811061293e575050826000602080949584010152601f8019910116010190565b60208183018101518483018201520161291d565b600435906001600160a01b03821682036102f457565b602435906001600160a01b03821682036102f457565b6004359081151582036102f457565b346102f45760003660031901126102f457602060405162093a808152f35b90815180825260208080930193019160005b8281106129cb575050505090565b8351855293810193928101926001016129bd565b67ffffffffffffffff8111610d9457601f01601f191660200190565b81601f820112156102f457803590612a12826129df565b92612a20604051948561284b565b828452602083830101116102f457816000926020809301838601378301015290565b919082018092116114e257565b919082039182116114e257565b6001600160a01b03166000908152600b60205260409020805460ff1615612aa2576003600e54910154808211600014612a9b57612a9891612a4f565b90565b5050600090565b50600090565b8115612ab2570690565b634e487b7160e01b600052601260045260246000fd5b3d15612af3573d90612ad9826129df565b91612ae7604051938461284b565b82523d6000602084013e565b606090565b60018060a01b0380911690600092828452600b60205260ff60408520541615612b94578116907f0000000000000000000000000000000000000000000000000000000000000000168114612b8f5780835260196020526040832060ff60038201541615612b945760010154918352601b60205260408320908352602052604082205490818111600014612b8f57612a989250612a4f565b505090565b50505090565b67ffffffffffffffff8111610d945760051b60200190565b90612bbc82612b9a565b612bc9604051918261284b565b8281528092612bda601f1991612b9a565b0190602036910137565b60001981146114e25760010190565b80518210156115b15760209160051b010190565b9181158015612da5575b612d93576010549283811015612d6357612c2a83612bb2565b91600094825b81841080612d5a575b15612cbd5750826000526011806020526040600020600d81015442109081612cad575b50612c93575b6001840190818511612c7f5750612c799093612be4565b92612c30565b634e487b7160e01b60005260045260246000fd5b83612ca7612ca089612be4565b9887612bf3565b52612c62565b60ff9150600f0154161538612c5c565b959250909350600094818110612d0a575b5050612cd981612bb2565b9160005b828110612ceb575050509190565b80612cf860019284612bf3565b51612d038287612bf3565b5201612cdd565b5b81811015612cce578060005260116020526040600020600d81015442109081612d4a575b50612d3c57600101612d0b565b505092506001923880612cce565b60ff9150600f0154161538612d2f565b50858710612c39565b509150506040516020810181811067ffffffffffffffff821117610d945760405260008152600036813790600090565b6040516381f396b760e01b8152600490fd5b5060648211612c11565b818102929181159184041417156114e257565b8115612ab2570490565b601a54600160401b811015610d94576001810180601a558110156115b157601a6000527f057c384a7d1c54f3a1b2e5e67b2617b8224fdfd1ea7234eea573a6ff665ff63e0180546001600160a01b0319166001600160a01b03909216919091179055565b6001600160a01b03166000908152600b602052604090205460ff1615612e5557600190565b600090565b600260005414612e6b576002600055565b604051633ee5aeb560e01b8152600490fd5b6001600160a01b0390811690811561082a5760045490811690818314611e65576001600160a01b03191682176004557f0f3a6964a8ba1b7473a14630b029eae6d49bec6babf098223718bacaac7197cc600080a3565b600c548015613188576001600160a01b0382811692907f000000000000000000000000000000000000000000000000000000000000000016838114613083575060008361300d575047915b836000526019602052604060002092835480821115612ffb57612f4091612a4f565b8015612ffb57612fdd600160009560008051602061384c833981519152958888526019602052600360408920019081549160ff831615612fe2575b505050612f89848254612a42565b815560028101612fae612f9d825487612a42565b96612fa88189612dc2565b97612aa8565b92839201612fbd878254612a42565b905555604051938493846040919493926060820195825260208201520152565b0390a3565b84612ff39360ff1916179055612dcc565b388080612f7b565b604051631ab9ebab60e01b8152600490fd5b6040516370a0823160e01b8152306004820152602081602481885afa91821561307757809261303f575b505091612f1e565b9091506020823d60201161306f575b8161305b6020938361284b565b8101031261306c5750513880613037565b80fd5b3d915061304e565b604051903d90823e3d90fd5b6040516370a0823160e01b81523060048201529150602090829060249082905afa9081156106bd57600091613156575b506007549182821115612ffb57826131006130df60009560008051602061384c83398151915295612a4f565b80926130f8600654808411158914610673578390612a4f565b600655612a42565b600755612fdd613126613115600f5484612a42565b936131208186612dc2565b94612aa8565b61313284600e54612a42565b600e5580600f55604051938493846040919493926060820195825260208201520152565b90506020813d602011613180575b816131716020938361284b565b810103126102f45751386130b3565b3d9150613164565b604051630292d7c360e51b8152600490fd5b90600c54918215613188576001600160a01b0381811693907f0000000000000000000000000000000000000000000000000000000000000000168481146132b757506000846132515750475b846000526019602052604060002090815480821115612ffb5761320891612a4f565b908115612ffb576001612fdd9160008051602061384c8339815191529588600052601960205260036040600020019081549160ff831615612fe257505050612f89848254612a42565b6040516370a0823160e01b8152306004820152602081602481895afa918215613077578092613282575b50506131e6565b9091506020823d6020116132af575b8161329e6020938361284b565b8101031261306c575051388061327b565b3d9150613291565b6040516370a0823160e01b81523060048201529250602090839060249082905afa9182156106bd57600092613329575b5060075480831115612ffb5761310061330f8260008051602061384c83398151915295612a4f565b80926130f860065480841115600014610673578390612a4f565b9091506020813d602011613355575b816133456020938361284b565b810103126102f4575190386132e7565b3d9150613338565b6001600160a01b0395949392919086168015159081613485575b50613473578061345a575b5061341d575b5050507fa00a4448d1c98b3edafbf488446a8320c2cb278ba20dd49c7b5d41a7ebfd582b60a060055492600154600254600354916040519687526020870152604086015260608501527f000000000000000000000000000000000000000000000000000000000000000060808501527f00000000000000000000000000000000000000000000000000000000000000001692a2565b6134497f00000000000000000000000000000000000000000000000000000000000000008484846134f0565b600155600255600355388080613388565b600a8110611f7e57600a8106611f6c5760055538613382565b60405163b078ee9d60e01b8152600490fd5b9050867f000000000000000000000000000000000000000000000000000000000000000016141538613377565b60207f752d7e161ff5146f80e3820893176eb40532811e5e20400dfdde57455213706a91151560ff196008541660ff821617600855604051908152a1565b91929060648311801561353e575b8015613534575b801561352a575b61167d576064936112216112219261352395612a42565b0361167d57565b506064821161350c565b5060648411613505565b50606481116134fe565b6000913383526020916013835260409060ff82862054166136dd575b806136d7575062093a80925b62093a8084106136c65762278d0084116136b5577f3417b456fad6209c73445d5efd446d686e75e4560f0f50c13b5a5cde976447b4601054916135b283612be4565b60105582968381526011825283856135eb81842099838b5560018b01336bffffffffffffffffffffffff60a01b82541617905542612a42565b92600d8a0193845542600e8b0155600f8a0160ff199081815416905533825260108b01865282822060018282541617905560118b0186528282206001828254161790556001600b8c015581600c8c0155600c548060128d015560138c0183815560148d0183815416905581613681575b5050338252601386526001838320918254161790556012855220555493519384523393a3565b600954909161368f91612daf565b6064101561369e575b8061365b565b4290556136ad600a5442612a42565b855538613698565b815163eeeb962360e01b8152600490fd5b81516331806aeb60e21b8152600490fd5b92613570565b601284939294528385205485526011835283852060ff600f8201541615908161373c575b501561371857835163792c310960e11b8152600490fd5b929091923385526013845281852060ff198154169055601284528482812055613564565b600d91500154421038613701565b60405163a9059cbb60e01b60208201526001600160a01b039092166024830152604480830193909352918152608081019167ffffffffffffffff831182841017610d94576128af926040526137ef565b6040516323b872dd60e01b60208201526001600160a01b03928316602482015292909116604483015260648083019390935291815260a081019181831067ffffffffffffffff841117610d94576128af926040525b906000602091828151910182855af1156106bd576000513d61384257506001600160a01b0381163b155b6138205750565b604051635274afe760e01b81526001600160a01b039091166004820152602490fd5b6001141561381956fef502c7eda43df8a8ec352065360db3486f90ce32849cf8182983d7939bfd3626af8f9d0e884d3306a083e846741a0bc4d75908e2b0ec63b558219652ae4c1b90d81f085560db5c809c425a15f00e3f2904e4fa46d6e8672ff2e671ccd6d9a231a2646970667358221220cb41992d37d3e8344e30762553ef230982eb031ffabf949ad9c1c5f6b08bfa6664736f6c63430008170033a264697066735822122019b4098f0467a11a5ccdf52edf49670e6df2685de5ae8c55ba1ca7fc1d0326a064736f6c63430008170033",
  "linkReferences": {},
  "deployedLinkReferences": {}
}