{
  "_format": "hh-sol-artifact-1",
  "contractName": "TEMPL",
  "sourceName": "contracts/TEMPL.sol",
  "abi": [
    {
      "inputs": [
        {
          "internalType": "address",
          "name": "_priest",
          "type": "address"
        },
        {
          "internalType": "address",
          "name": "_protocolFeeRecipient",
          "type": "address"
        },
        {
          "internalType": "address",
          "name": "_token",
          "type": "address"
        },
        {
          "internalType": "uint256",
          "name": "_entryFee",
          "type": "uint256"
        },
        {
          "internalType": "uint256",
          "name": "_burnPercent",
          "type": "uint256"
        },
        {
          "internalType": "uint256",
          "name": "_treasuryPercent",
          "type": "uint256"
        },
        {
          "internalType": "uint256",
          "name": "_memberPoolPercent",
          "type": "uint256"
        },
        {
          "internalType": "uint256",
          "name": "_protocolPercent",
          "type": "uint256"
        },
        {
          "internalType": "uint256",
          "name": "_quorumPercent",
          "type": "uint256"
        },
        {
          "internalType": "uint256",
          "name": "_executionDelay",
          "type": "uint256"
        },
        {
          "internalType": "address",
          "name": "_burnAddress",
          "type": "address"
        },
        {
          "internalType": "bool",
          "name": "_priestIsDictator",
          "type": "bool"
        },
        {
          "internalType": "uint256",
          "name": "_maxMembers",
          "type": "uint256"
        },
        {
          "internalType": "string",
          "name": "_homeLink",
          "type": "string"
        }
      ],
      "stateMutability": "nonpayable",
      "type": "constructor"
    },
    {
      "inputs": [],
      "name": "ActiveProposalExists",
      "type": "error"
    },
    {
      "inputs": [],
      "name": "AlreadyExecuted",
      "type": "error"
    },
    {
      "inputs": [],
      "name": "AmountZero",
      "type": "error"
    },
    {
      "inputs": [],
      "name": "DictatorshipEnabled",
      "type": "error"
    },
    {
      "inputs": [],
      "name": "DictatorshipUnchanged",
      "type": "error"
    },
    {
      "inputs": [],
      "name": "EntryFeeTooSmall",
      "type": "error"
    },
    {
      "inputs": [],
      "name": "ExecutionDelayActive",
      "type": "error"
    },
    {
      "inputs": [],
      "name": "ExternalRewardLimitReached",
      "type": "error"
    },
    {
      "inputs": [],
      "name": "ExternalRewardsNotSettled",
      "type": "error"
    },
    {
      "inputs": [],
      "name": "InsufficientBalance",
      "type": "error"
    },
    {
      "inputs": [],
      "name": "InsufficientPoolBalance",
      "type": "error"
    },
    {
      "inputs": [],
      "name": "InsufficientTreasuryBalance",
      "type": "error"
    },
    {
      "inputs": [],
      "name": "InvalidCallData",
      "type": "error"
    },
    {
      "inputs": [],
      "name": "InvalidEntryFee",
      "type": "error"
    },
    {
      "inputs": [],
      "name": "InvalidFeeCurve",
      "type": "error"
    },
    {
      "inputs": [],
      "name": "InvalidPercentage",
      "type": "error"
    },
    {
      "inputs": [],
      "name": "InvalidPercentageSplit",
      "type": "error"
    },
    {
      "inputs": [],
      "name": "InvalidProposal",
      "type": "error"
    },
    {
      "inputs": [],
      "name": "InvalidRecipient",
      "type": "error"
    },
    {
      "inputs": [],
      "name": "InvalidSender",
      "type": "error"
    },
    {
      "inputs": [],
      "name": "JoinIntakePaused",
      "type": "error"
    },
    {
      "inputs": [],
      "name": "JoinedAfterProposal",
      "type": "error"
    },
    {
      "inputs": [],
      "name": "LimitOutOfRange",
      "type": "error"
    },
    {
      "inputs": [],
      "name": "MemberAlreadyJoined",
      "type": "error"
    },
    {
      "inputs": [],
      "name": "MemberLimitReached",
      "type": "error"
    },
    {
      "inputs": [],
      "name": "MemberLimitTooLow",
      "type": "error"
    },
    {
      "inputs": [],
      "name": "NoMembers",
      "type": "error"
    },
    {
      "inputs": [],
      "name": "NoRewardsToClaim",
      "type": "error"
    },
    {
      "inputs": [],
      "name": "NoTreasuryFunds",
      "type": "error"
    },
    {
      "inputs": [],
      "name": "NotDAO",
      "type": "error"
    },
    {
      "inputs": [],
      "name": "NotMember",
      "type": "error"
    },
    {
      "inputs": [],
      "name": "PriestOnly",
      "type": "error"
    },
    {
      "inputs": [],
      "name": "ProposalExecutionFailed",
      "type": "error"
    },
    {
      "inputs": [],
      "name": "ProposalNotPassed",
      "type": "error"
    },
    {
      "inputs": [],
      "name": "QuorumNotReached",
      "type": "error"
    },
    {
      "inputs": [],
      "name": "ReentrancyGuardReentrantCall",
      "type": "error"
    },
    {
      "inputs": [
        {
          "internalType": "address",
          "name": "token",
          "type": "address"
        }
      ],
      "name": "SafeERC20FailedOperation",
      "type": "error"
    },
    {
      "inputs": [],
      "name": "TokenChangeDisabled",
      "type": "error"
    },
    {
      "inputs": [],
      "name": "VotingEnded",
      "type": "error"
    },
    {
      "inputs": [],
      "name": "VotingNotEnded",
      "type": "error"
    },
    {
      "inputs": [],
      "name": "VotingPeriodTooLong",
      "type": "error"
    },
    {
      "inputs": [],
      "name": "VotingPeriodTooShort",
      "type": "error"
    },
    {
      "anonymous": false,
      "inputs": [
        {
          "indexed": true,
          "internalType": "address",
          "name": "token",
          "type": "address"
        },
        {
          "indexed": false,
          "internalType": "uint256",
          "name": "entryFee",
          "type": "uint256"
        },
        {
          "indexed": false,
          "internalType": "uint256",
          "name": "burnPercent",
          "type": "uint256"
        },
        {
          "indexed": false,
          "internalType": "uint256",
          "name": "treasuryPercent",
          "type": "uint256"
        },
        {
          "indexed": false,
          "internalType": "uint256",
          "name": "memberPoolPercent",
          "type": "uint256"
        },
        {
          "indexed": false,
          "internalType": "uint256",
          "name": "protocolPercent",
          "type": "uint256"
        }
      ],
      "name": "ConfigUpdated",
      "type": "event"
    },
    {
      "anonymous": false,
      "inputs": [
        {
          "indexed": false,
          "internalType": "bool",
          "name": "enabled",
          "type": "bool"
        }
      ],
      "name": "DictatorshipModeChanged",
      "type": "event"
    },
    {
      "anonymous": false,
      "inputs": [
        {
          "indexed": true,
          "internalType": "address",
          "name": "token",
          "type": "address"
        },
        {
          "indexed": true,
          "internalType": "address",
          "name": "member",
          "type": "address"
        },
        {
          "indexed": false,
          "internalType": "uint256",
          "name": "amount",
          "type": "uint256"
        }
      ],
      "name": "ExternalRewardClaimed",
      "type": "event"
    },
    {
      "anonymous": false,
      "inputs": [
        {
          "indexed": false,
          "internalType": "enum TemplBase.FeeCurveFormula",
          "name": "formula",
          "type": "uint8"
        },
        {
          "indexed": false,
          "internalType": "uint256",
          "name": "slope",
          "type": "uint256"
        },
        {
          "indexed": false,
          "internalType": "uint256",
          "name": "scale",
          "type": "uint256"
        }
      ],
      "name": "FeeCurveUpdated",
      "type": "event"
    },
    {
      "anonymous": false,
      "inputs": [
        {
          "indexed": false,
          "internalType": "bool",
          "name": "joinPaused",
          "type": "bool"
        }
      ],
      "name": "JoinPauseUpdated",
      "type": "event"
    },
    {
      "anonymous": false,
      "inputs": [
        {
          "indexed": false,
          "internalType": "uint256",
          "name": "maxMembers",
          "type": "uint256"
        }
      ],
      "name": "MaxMembersUpdated",
      "type": "event"
    },
    {
      "anonymous": false,
      "inputs": [
        {
          "indexed": true,
          "internalType": "address",
          "name": "payer",
          "type": "address"
        },
        {
          "indexed": true,
          "internalType": "address",
          "name": "member",
          "type": "address"
        },
        {
          "indexed": false,
          "internalType": "uint256",
          "name": "totalAmount",
          "type": "uint256"
        },
        {
          "indexed": false,
          "internalType": "uint256",
          "name": "burnedAmount",
          "type": "uint256"
        },
        {
          "indexed": false,
          "internalType": "uint256",
          "name": "treasuryAmount",
          "type": "uint256"
        },
        {
          "indexed": false,
          "internalType": "uint256",
          "name": "memberPoolAmount",
          "type": "uint256"
        },
        {
          "indexed": false,
          "internalType": "uint256",
          "name": "protocolAmount",
          "type": "uint256"
        },
        {
          "indexed": false,
          "internalType": "uint256",
          "name": "timestamp",
          "type": "uint256"
        },
        {
          "indexed": false,
          "internalType": "uint256",
          "name": "blockNumber",
          "type": "uint256"
        },
        {
          "indexed": false,
          "internalType": "uint256",
          "name": "joinId",
          "type": "uint256"
        }
      ],
      "name": "MemberJoined",
      "type": "event"
    },
    {
      "anonymous": false,
      "inputs": [
        {
          "indexed": true,
          "internalType": "address",
          "name": "member",
          "type": "address"
        },
        {
          "indexed": false,
          "internalType": "uint256",
          "name": "amount",
          "type": "uint256"
        },
        {
          "indexed": false,
          "internalType": "uint256",
          "name": "timestamp",
          "type": "uint256"
        }
      ],
      "name": "MemberRewardsClaimed",
      "type": "event"
    },
    {
      "anonymous": false,
      "inputs": [
        {
          "indexed": true,
          "internalType": "address",
          "name": "oldPriest",
          "type": "address"
        },
        {
          "indexed": true,
          "internalType": "address",
          "name": "newPriest",
          "type": "address"
        }
      ],
      "name": "PriestChanged",
      "type": "event"
    },
    {
      "anonymous": false,
      "inputs": [
        {
          "indexed": true,
          "internalType": "uint256",
          "name": "proposalId",
          "type": "uint256"
        },
        {
          "indexed": true,
          "internalType": "address",
          "name": "proposer",
          "type": "address"
        },
        {
          "indexed": false,
          "internalType": "uint256",
          "name": "endTime",
          "type": "uint256"
        },
        {
          "indexed": false,
          "internalType": "string",
          "name": "title",
          "type": "string"
        },
        {
          "indexed": false,
          "internalType": "string",
          "name": "description",
          "type": "string"
        }
      ],
      "name": "ProposalCreated",
      "type": "event"
    },
    {
      "anonymous": false,
      "inputs": [
        {
          "indexed": true,
          "internalType": "uint256",
          "name": "proposalId",
          "type": "uint256"
        },
        {
          "indexed": false,
          "internalType": "bool",
          "name": "success",
          "type": "bool"
        },
        {
          "indexed": false,
          "internalType": "bytes",
          "name": "returnData",
          "type": "bytes"
        }
      ],
      "name": "ProposalExecuted",
      "type": "event"
    },
    {
      "anonymous": false,
      "inputs": [
        {
          "indexed": false,
          "internalType": "string",
          "name": "previousLink",
          "type": "string"
        },
        {
          "indexed": false,
          "internalType": "string",
          "name": "newLink",
          "type": "string"
        }
      ],
      "name": "TemplHomeLinkUpdated",
      "type": "event"
    },
    {
      "anonymous": false,
      "inputs": [
        {
          "indexed": true,
          "internalType": "uint256",
          "name": "proposalId",
          "type": "uint256"
        },
        {
          "indexed": true,
          "internalType": "address",
          "name": "token",
          "type": "address"
        },
        {
          "indexed": true,
          "internalType": "address",
          "name": "recipient",
          "type": "address"
        },
        {
          "indexed": false,
          "internalType": "uint256",
          "name": "amount",
          "type": "uint256"
        },
        {
          "indexed": false,
          "internalType": "string",
          "name": "description",
          "type": "string"
        }
      ],
      "name": "TreasuryAction",
      "type": "event"
    },
    {
      "anonymous": false,
      "inputs": [
        {
          "indexed": true,
          "internalType": "uint256",
          "name": "proposalId",
          "type": "uint256"
        },
        {
          "indexed": true,
          "internalType": "address",
          "name": "token",
          "type": "address"
        },
        {
          "indexed": false,
          "internalType": "uint256",
          "name": "amount",
          "type": "uint256"
        },
        {
          "indexed": false,
          "internalType": "uint256",
          "name": "perMember",
          "type": "uint256"
        },
        {
          "indexed": false,
          "internalType": "uint256",
          "name": "remainder",
          "type": "uint256"
        }
      ],
      "name": "TreasuryDisbanded",
      "type": "event"
    },
    {
      "anonymous": false,
      "inputs": [
        {
          "indexed": true,
          "internalType": "uint256",
          "name": "proposalId",
          "type": "uint256"
        },
        {
          "indexed": true,
          "internalType": "address",
          "name": "voter",
          "type": "address"
        },
        {
          "indexed": false,
          "internalType": "bool",
          "name": "support",
          "type": "bool"
        },
        {
          "indexed": false,
          "internalType": "uint256",
          "name": "timestamp",
          "type": "uint256"
        }
      ],
      "name": "VoteCast",
      "type": "event"
    },
    {
      "inputs": [],
      "name": "DEFAULT_VOTING_PERIOD",
      "outputs": [
        {
          "internalType": "uint256",
          "name": "",
          "type": "uint256"
        }
      ],
      "stateMutability": "view",
      "type": "function"
    },
    {
      "inputs": [],
      "name": "MAX_MEMBERS",
      "outputs": [
        {
          "internalType": "uint256",
          "name": "",
          "type": "uint256"
        }
      ],
      "stateMutability": "view",
      "type": "function"
    },
    {
      "inputs": [],
      "name": "MAX_VOTING_PERIOD",
      "outputs": [
        {
          "internalType": "uint256",
          "name": "",
          "type": "uint256"
        }
      ],
      "stateMutability": "view",
      "type": "function"
    },
    {
      "inputs": [],
      "name": "MIN_VOTING_PERIOD",
      "outputs": [
        {
          "internalType": "uint256",
          "name": "",
          "type": "uint256"
        }
      ],
      "stateMutability": "view",
      "type": "function"
    },
    {
      "inputs": [],
      "name": "accessToken",
      "outputs": [
        {
          "internalType": "address",
          "name": "",
          "type": "address"
        }
      ],
      "stateMutability": "view",
      "type": "function"
    },
    {
      "inputs": [
        {
          "internalType": "address",
          "name": "",
          "type": "address"
        }
      ],
      "name": "activeProposalId",
      "outputs": [
        {
          "internalType": "uint256",
          "name": "",
          "type": "uint256"
        }
      ],
      "stateMutability": "view",
      "type": "function"
    },
    {
      "inputs": [],
      "name": "burnAddress",
      "outputs": [
        {
          "internalType": "address",
          "name": "",
          "type": "address"
        }
      ],
      "stateMutability": "view",
      "type": "function"
    },
    {
      "inputs": [],
      "name": "burnPercent",
      "outputs": [
        {
          "internalType": "uint256",
          "name": "",
          "type": "uint256"
        }
      ],
      "stateMutability": "view",
      "type": "function"
    },
    {
      "inputs": [
        {
          "internalType": "address",
          "name": "newPriest",
          "type": "address"
        }
      ],
      "name": "changePriestDAO",
      "outputs": [],
      "stateMutability": "nonpayable",
      "type": "function"
    },
    {
      "inputs": [
        {
          "internalType": "address",
          "name": "token",
          "type": "address"
        }
      ],
      "name": "claimExternalReward",
      "outputs": [],
      "stateMutability": "nonpayable",
      "type": "function"
    },
    {
      "inputs": [],
      "name": "claimMemberRewards",
      "outputs": [],
      "stateMutability": "nonpayable",
      "type": "function"
    },
    {
      "inputs": [
        {
          "internalType": "address",
          "name": "token",
          "type": "address"
        }
      ],
      "name": "cleanupExternalRewardToken",
      "outputs": [],
      "stateMutability": "nonpayable",
      "type": "function"
    },
    {
      "inputs": [
        {
          "internalType": "address",
          "name": "_newPriest",
          "type": "address"
        },
        {
          "internalType": "uint256",
          "name": "_votingPeriod",
          "type": "uint256"
        },
        {
          "internalType": "string",
          "name": "_title",
          "type": "string"
        },
        {
          "internalType": "string",
          "name": "_description",
          "type": "string"
        }
      ],
      "name": "createProposalChangePriest",
      "outputs": [
        {
          "internalType": "uint256",
          "name": "",
          "type": "uint256"
        }
      ],
      "stateMutability": "nonpayable",
      "type": "function"
    },
    {
      "inputs": [
        {
          "internalType": "address",
          "name": "_token",
          "type": "address"
        },
        {
          "internalType": "uint256",
          "name": "_votingPeriod",
          "type": "uint256"
        },
        {
          "internalType": "string",
          "name": "_title",
          "type": "string"
        },
        {
          "internalType": "string",
          "name": "_description",
          "type": "string"
        }
      ],
      "name": "createProposalDisbandTreasury",
      "outputs": [
        {
          "internalType": "uint256",
          "name": "",
          "type": "uint256"
        }
      ],
      "stateMutability": "nonpayable",
      "type": "function"
    },
    {
      "inputs": [
        {
          "internalType": "bool",
          "name": "_enable",
          "type": "bool"
        },
        {
          "internalType": "uint256",
          "name": "_votingPeriod",
          "type": "uint256"
        },
        {
          "internalType": "string",
          "name": "_title",
          "type": "string"
        },
        {
          "internalType": "string",
          "name": "_description",
          "type": "string"
        }
      ],
      "name": "createProposalSetDictatorship",
      "outputs": [
        {
          "internalType": "uint256",
          "name": "",
          "type": "uint256"
        }
      ],
      "stateMutability": "nonpayable",
      "type": "function"
    },
    {
      "inputs": [
        {
          "internalType": "enum TemplBase.FeeCurveFormula",
          "name": "_formula",
          "type": "uint8"
        },
        {
          "internalType": "uint256",
          "name": "_slope",
          "type": "uint256"
        },
        {
          "internalType": "uint256",
          "name": "_scale",
          "type": "uint256"
        },
        {
          "internalType": "uint256",
          "name": "_votingPeriod",
          "type": "uint256"
        },
        {
          "internalType": "string",
          "name": "_title",
          "type": "string"
        },
        {
          "internalType": "string",
          "name": "_description",
          "type": "string"
        }
      ],
      "name": "createProposalSetFeeCurve",
      "outputs": [
        {
          "internalType": "uint256",
          "name": "",
          "type": "uint256"
        }
      ],
      "stateMutability": "nonpayable",
      "type": "function"
    },
    {
      "inputs": [
        {
          "internalType": "string",
          "name": "_newLink",
          "type": "string"
        },
        {
          "internalType": "uint256",
          "name": "_votingPeriod",
          "type": "uint256"
        },
        {
          "internalType": "string",
          "name": "_title",
          "type": "string"
        },
        {
          "internalType": "string",
          "name": "_description",
          "type": "string"
        }
      ],
      "name": "createProposalSetHomeLink",
      "outputs": [
        {
          "internalType": "uint256",
          "name": "",
          "type": "uint256"
        }
      ],
      "stateMutability": "nonpayable",
      "type": "function"
    },
    {
      "inputs": [
        {
          "internalType": "bool",
          "name": "_paused",
          "type": "bool"
        },
        {
          "internalType": "uint256",
          "name": "_votingPeriod",
          "type": "uint256"
        },
        {
          "internalType": "string",
          "name": "_title",
          "type": "string"
        },
        {
          "internalType": "string",
          "name": "_description",
          "type": "string"
        }
      ],
      "name": "createProposalSetJoinPaused",
      "outputs": [
        {
          "internalType": "uint256",
          "name": "",
          "type": "uint256"
        }
      ],
      "stateMutability": "nonpayable",
      "type": "function"
    },
    {
      "inputs": [
        {
          "internalType": "uint256",
          "name": "_newMaxMembers",
          "type": "uint256"
        },
        {
          "internalType": "uint256",
          "name": "_votingPeriod",
          "type": "uint256"
        },
        {
          "internalType": "string",
          "name": "_title",
          "type": "string"
        },
        {
          "internalType": "string",
          "name": "_description",
          "type": "string"
        }
      ],
      "name": "createProposalSetMaxMembers",
      "outputs": [
        {
          "internalType": "uint256",
          "name": "",
          "type": "uint256"
        }
      ],
      "stateMutability": "nonpayable",
      "type": "function"
    },
    {
      "inputs": [
        {
          "internalType": "uint256",
          "name": "_newEntryFee",
          "type": "uint256"
        },
        {
          "internalType": "uint256",
          "name": "_newBurnPercent",
          "type": "uint256"
        },
        {
          "internalType": "uint256",
          "name": "_newTreasuryPercent",
          "type": "uint256"
        },
        {
          "internalType": "uint256",
          "name": "_newMemberPoolPercent",
          "type": "uint256"
        },
        {
          "internalType": "bool",
          "name": "_updateFeeSplit",
          "type": "bool"
        },
        {
          "internalType": "uint256",
          "name": "_votingPeriod",
          "type": "uint256"
        },
        {
          "internalType": "string",
          "name": "_title",
          "type": "string"
        },
        {
          "internalType": "string",
          "name": "_description",
          "type": "string"
        }
      ],
      "name": "createProposalUpdateConfig",
      "outputs": [
        {
          "internalType": "uint256",
          "name": "",
          "type": "uint256"
        }
      ],
      "stateMutability": "nonpayable",
      "type": "function"
    },
    {
      "inputs": [
        {
          "internalType": "address",
          "name": "_token",
          "type": "address"
        },
        {
          "internalType": "address",
          "name": "_recipient",
          "type": "address"
        },
        {
          "internalType": "uint256",
          "name": "_amount",
          "type": "uint256"
        },
        {
          "internalType": "string",
          "name": "_reason",
          "type": "string"
        },
        {
          "internalType": "uint256",
          "name": "_votingPeriod",
          "type": "uint256"
        },
        {
          "internalType": "string",
          "name": "_title",
          "type": "string"
        },
        {
          "internalType": "string",
          "name": "_description",
          "type": "string"
        }
      ],
      "name": "createProposalWithdrawTreasury",
      "outputs": [
        {
          "internalType": "uint256",
          "name": "",
          "type": "uint256"
        }
      ],
      "stateMutability": "nonpayable",
      "type": "function"
    },
    {
      "inputs": [],
      "name": "cumulativeMemberRewards",
      "outputs": [
        {
          "internalType": "uint256",
          "name": "",
          "type": "uint256"
        }
      ],
      "stateMutability": "view",
      "type": "function"
    },
    {
      "inputs": [
        {
          "internalType": "address",
          "name": "token",
          "type": "address"
        }
      ],
      "name": "disbandTreasuryDAO",
      "outputs": [],
      "stateMutability": "nonpayable",
      "type": "function"
    },
    {
      "inputs": [],
      "name": "entryFee",
      "outputs": [
        {
          "internalType": "uint256",
          "name": "",
          "type": "uint256"
        }
      ],
      "stateMutability": "view",
      "type": "function"
    },
    {
      "inputs": [
        {
          "internalType": "uint256",
          "name": "_proposalId",
          "type": "uint256"
        }
      ],
      "name": "executeProposal",
      "outputs": [],
      "stateMutability": "nonpayable",
      "type": "function"
    },
    {
      "inputs": [],
      "name": "executionDelayAfterQuorum",
      "outputs": [
        {
          "internalType": "uint256",
          "name": "",
          "type": "uint256"
        }
      ],
      "stateMutability": "view",
      "type": "function"
    },
    {
      "inputs": [],
      "name": "feeCurve",
      "outputs": [
        {
          "internalType": "enum TemplBase.FeeCurveFormula",
          "name": "formula",
          "type": "uint8"
        },
        {
          "internalType": "uint256",
          "name": "slope",
          "type": "uint256"
        },
        {
          "internalType": "uint256",
          "name": "scale",
          "type": "uint256"
        }
      ],
      "stateMutability": "view",
      "type": "function"
    },
    {
      "inputs": [],
      "name": "getActiveProposals",
      "outputs": [
        {
          "internalType": "uint256[]",
          "name": "",
          "type": "uint256[]"
        }
      ],
      "stateMutability": "view",
      "type": "function"
    },
    {
      "inputs": [
        {
          "internalType": "uint256",
          "name": "offset",
          "type": "uint256"
        },
        {
          "internalType": "uint256",
          "name": "limit",
          "type": "uint256"
        }
      ],
      "name": "getActiveProposalsPaginated",
      "outputs": [
        {
          "internalType": "uint256[]",
          "name": "proposalIds",
          "type": "uint256[]"
        },
        {
          "internalType": "bool",
          "name": "hasMore",
          "type": "bool"
        }
      ],
      "stateMutability": "view",
      "type": "function"
    },
    {
      "inputs": [
        {
          "internalType": "address",
          "name": "member",
          "type": "address"
        },
        {
          "internalType": "address",
          "name": "token",
          "type": "address"
        }
      ],
      "name": "getClaimableExternalReward",
      "outputs": [
        {
          "internalType": "uint256",
          "name": "amount",
          "type": "uint256"
        }
      ],
      "stateMutability": "view",
      "type": "function"
    },
    {
      "inputs": [
        {
          "internalType": "address",
          "name": "member",
          "type": "address"
        }
      ],
      "name": "getClaimableMemberRewards",
      "outputs": [
        {
          "internalType": "uint256",
          "name": "",
          "type": "uint256"
        }
      ],
      "stateMutability": "view",
      "type": "function"
    },
    {
      "inputs": [],
      "name": "getConfig",
      "outputs": [
        {
          "internalType": "address",
          "name": "token",
          "type": "address"
        },
        {
          "internalType": "uint256",
          "name": "fee",
          "type": "uint256"
        },
        {
          "internalType": "bool",
          "name": "joinPaused",
          "type": "bool"
        },
        {
          "internalType": "uint256",
          "name": "joins",
          "type": "uint256"
        },
        {
          "internalType": "uint256",
          "name": "treasury",
          "type": "uint256"
        },
        {
          "internalType": "uint256",
          "name": "pool",
          "type": "uint256"
        },
        {
          "internalType": "uint256",
          "name": "burnPercentOut",
          "type": "uint256"
        },
        {
          "internalType": "uint256",
          "name": "treasuryPercentOut",
          "type": "uint256"
        },
        {
          "internalType": "uint256",
          "name": "memberPoolPercentOut",
          "type": "uint256"
        },
        {
          "internalType": "uint256",
          "name": "protocolPercentOut",
          "type": "uint256"
        }
      ],
      "stateMutability": "view",
      "type": "function"
    },
    {
      "inputs": [
        {
          "internalType": "address",
          "name": "token",
          "type": "address"
        }
      ],
      "name": "getExternalRewardState",
      "outputs": [
        {
          "internalType": "uint256",
          "name": "poolBalance",
          "type": "uint256"
        },
        {
          "internalType": "uint256",
          "name": "cumulativeRewards",
          "type": "uint256"
        },
        {
          "internalType": "uint256",
          "name": "remainder",
          "type": "uint256"
        }
      ],
      "stateMutability": "view",
      "type": "function"
    },
    {
      "inputs": [],
      "name": "getExternalRewardTokens",
      "outputs": [
        {
          "internalType": "address[]",
          "name": "tokens",
          "type": "address[]"
        }
      ],
      "stateMutability": "view",
      "type": "function"
    },
    {
      "inputs": [
        {
          "internalType": "address",
          "name": "user",
          "type": "address"
        }
      ],
      "name": "getJoinDetails",
      "outputs": [
        {
          "internalType": "bool",
          "name": "joined",
          "type": "bool"
        },
        {
          "internalType": "uint256",
          "name": "timestamp",
          "type": "uint256"
        },
        {
          "internalType": "uint256",
          "name": "blockNumber",
          "type": "uint256"
        }
      ],
      "stateMutability": "view",
      "type": "function"
    },
    {
      "inputs": [],
      "name": "getMemberCount",
      "outputs": [
        {
          "internalType": "uint256",
          "name": "",
          "type": "uint256"
        }
      ],
      "stateMutability": "view",
      "type": "function"
    },
    {
      "inputs": [
        {
          "internalType": "uint256",
          "name": "_proposalId",
          "type": "uint256"
        }
      ],
      "name": "getProposal",
      "outputs": [
        {
          "internalType": "address",
          "name": "proposer",
          "type": "address"
        },
        {
          "internalType": "uint256",
          "name": "yesVotes",
          "type": "uint256"
        },
        {
          "internalType": "uint256",
          "name": "noVotes",
          "type": "uint256"
        },
        {
          "internalType": "uint256",
          "name": "endTime",
          "type": "uint256"
        },
        {
          "internalType": "bool",
          "name": "executed",
          "type": "bool"
        },
        {
          "internalType": "bool",
          "name": "passed",
          "type": "bool"
        },
        {
          "internalType": "string",
          "name": "title",
          "type": "string"
        },
        {
          "internalType": "string",
          "name": "description",
          "type": "string"
        }
      ],
      "stateMutability": "view",
      "type": "function"
    },
    {
      "inputs": [
        {
          "internalType": "uint256",
          "name": "_proposalId",
          "type": "uint256"
        }
      ],
      "name": "getProposalSnapshots",
      "outputs": [
        {
          "internalType": "uint256",
          "name": "eligibleVotersPreQuorum",
          "type": "uint256"
        },
        {
          "internalType": "uint256",
          "name": "eligibleVotersPostQuorum",
          "type": "uint256"
        },
        {
          "internalType": "uint256",
          "name": "preQuorumSnapshotBlock",
          "type": "uint256"
        },
        {
          "internalType": "uint256",
          "name": "quorumSnapshotBlock",
          "type": "uint256"
        },
        {
          "internalType": "uint256",
          "name": "createdAt",
          "type": "uint256"
        },
        {
          "internalType": "uint256",
          "name": "quorumReachedAt",
          "type": "uint256"
        }
      ],
      "stateMutability": "view",
      "type": "function"
    },
    {
      "inputs": [],
      "name": "getTreasuryInfo",
      "outputs": [
        {
          "internalType": "uint256",
          "name": "treasury",
          "type": "uint256"
        },
        {
          "internalType": "uint256",
          "name": "memberPool",
          "type": "uint256"
        },
        {
          "internalType": "address",
          "name": "protocolAddress",
          "type": "address"
        }
      ],
      "stateMutability": "view",
      "type": "function"
    },
    {
      "inputs": [
        {
          "internalType": "address",
          "name": "voter",
          "type": "address"
        }
      ],
      "name": "getVoteWeight",
      "outputs": [
        {
          "internalType": "uint256",
          "name": "weight",
          "type": "uint256"
        }
      ],
      "stateMutability": "view",
      "type": "function"
    },
    {
      "inputs": [
        {
          "internalType": "address",
          "name": "",
          "type": "address"
        }
      ],
      "name": "hasActiveProposal",
      "outputs": [
        {
          "internalType": "bool",
          "name": "",
          "type": "bool"
        }
      ],
      "stateMutability": "view",
      "type": "function"
    },
    {
      "inputs": [
        {
          "internalType": "uint256",
          "name": "_proposalId",
          "type": "uint256"
        },
        {
          "internalType": "address",
          "name": "_voter",
          "type": "address"
        }
      ],
      "name": "hasVoted",
      "outputs": [
        {
          "internalType": "bool",
          "name": "voted",
          "type": "bool"
        },
        {
          "internalType": "bool",
          "name": "support",
          "type": "bool"
        }
      ],
      "stateMutability": "view",
      "type": "function"
    },
    {
      "inputs": [
        {
          "internalType": "address",
          "name": "user",
          "type": "address"
        }
      ],
      "name": "isMember",
      "outputs": [
        {
          "internalType": "bool",
          "name": "",
          "type": "bool"
        }
      ],
      "stateMutability": "view",
      "type": "function"
    },
    {
      "inputs": [],
      "name": "join",
      "outputs": [],
      "stateMutability": "nonpayable",
      "type": "function"
    },
    {
      "inputs": [
        {
          "internalType": "address",
          "name": "recipient",
          "type": "address"
        }
      ],
      "name": "joinFor",
      "outputs": [],
      "stateMutability": "nonpayable",
      "type": "function"
    },
    {
      "inputs": [],
      "name": "joinPaused",
      "outputs": [
        {
          "internalType": "bool",
          "name": "",
          "type": "bool"
        }
      ],
      "stateMutability": "view",
      "type": "function"
    },
    {
      "inputs": [],
      "name": "memberCount",
      "outputs": [
        {
          "internalType": "uint256",
          "name": "",
          "type": "uint256"
        }
      ],
      "stateMutability": "view",
      "type": "function"
    },
    {
      "inputs": [],
      "name": "memberPoolBalance",
      "outputs": [
        {
          "internalType": "uint256",
          "name": "",
          "type": "uint256"
        }
      ],
      "stateMutability": "view",
      "type": "function"
    },
    {
      "inputs": [
        {
          "internalType": "address",
          "name": "",
          "type": "address"
        }
      ],
      "name": "memberPoolClaims",
      "outputs": [
        {
          "internalType": "uint256",
          "name": "",
          "type": "uint256"
        }
      ],
      "stateMutability": "view",
      "type": "function"
    },
    {
      "inputs": [],
      "name": "memberPoolPercent",
      "outputs": [
        {
          "internalType": "uint256",
          "name": "",
          "type": "uint256"
        }
      ],
      "stateMutability": "view",
      "type": "function"
    },
    {
      "inputs": [],
      "name": "memberRewardRemainder",
      "outputs": [
        {
          "internalType": "uint256",
          "name": "",
          "type": "uint256"
        }
      ],
      "stateMutability": "view",
      "type": "function"
    },
    {
      "inputs": [
        {
          "internalType": "address",
          "name": "",
          "type": "address"
        }
      ],
      "name": "members",
      "outputs": [
        {
          "internalType": "bool",
          "name": "joined",
          "type": "bool"
        },
        {
          "internalType": "uint256",
          "name": "timestamp",
          "type": "uint256"
        },
        {
          "internalType": "uint256",
          "name": "blockNumber",
          "type": "uint256"
        },
        {
          "internalType": "uint256",
          "name": "rewardSnapshot",
          "type": "uint256"
        }
      ],
      "stateMutability": "view",
      "type": "function"
    },
    {
      "inputs": [],
      "name": "priest",
      "outputs": [
        {
          "internalType": "address",
          "name": "",
          "type": "address"
        }
      ],
      "stateMutability": "view",
      "type": "function"
    },
    {
      "inputs": [],
      "name": "priestIsDictator",
      "outputs": [
        {
          "internalType": "bool",
          "name": "",
          "type": "bool"
        }
      ],
      "stateMutability": "view",
      "type": "function"
    },
    {
      "inputs": [],
      "name": "proposalCount",
      "outputs": [
        {
          "internalType": "uint256",
          "name": "",
          "type": "uint256"
        }
      ],
      "stateMutability": "view",
      "type": "function"
    },
    {
      "inputs": [
        {
          "internalType": "uint256",
          "name": "",
          "type": "uint256"
        }
      ],
      "name": "proposals",
      "outputs": [
        {
          "internalType": "uint256",
          "name": "id",
          "type": "uint256"
        },
        {
          "internalType": "address",
          "name": "proposer",
          "type": "address"
        },
        {
          "internalType": "enum TemplBase.Action",
          "name": "action",
          "type": "uint8"
        },
        {
          "internalType": "address",
          "name": "token",
          "type": "address"
        },
        {
          "internalType": "address",
          "name": "recipient",
          "type": "address"
        },
        {
          "internalType": "uint256",
          "name": "amount",
          "type": "uint256"
        },
        {
          "internalType": "string",
          "name": "title",
          "type": "string"
        },
        {
          "internalType": "string",
          "name": "description",
          "type": "string"
        },
        {
          "internalType": "string",
          "name": "reason",
          "type": "string"
        },
        {
          "internalType": "bool",
          "name": "joinPaused",
          "type": "bool"
        },
        {
          "internalType": "uint256",
          "name": "newEntryFee",
          "type": "uint256"
        },
        {
          "internalType": "uint256",
          "name": "newBurnPercent",
          "type": "uint256"
        },
        {
          "internalType": "uint256",
          "name": "newTreasuryPercent",
          "type": "uint256"
        },
        {
          "internalType": "uint256",
          "name": "newMemberPoolPercent",
          "type": "uint256"
        },
        {
          "internalType": "enum TemplBase.FeeCurveFormula",
          "name": "newFeeCurveFormula",
          "type": "uint8"
        },
        {
          "internalType": "uint256",
          "name": "newFeeCurveSlope",
          "type": "uint256"
        },
        {
          "internalType": "uint256",
          "name": "newFeeCurveScale",
          "type": "uint256"
        },
        {
          "internalType": "string",
          "name": "newHomeLink",
          "type": "string"
        },
        {
          "internalType": "uint256",
          "name": "newMaxMembers",
          "type": "uint256"
        },
        {
          "internalType": "uint256",
          "name": "yesVotes",
          "type": "uint256"
        },
        {
          "internalType": "uint256",
          "name": "noVotes",
          "type": "uint256"
        },
        {
          "internalType": "uint256",
          "name": "endTime",
          "type": "uint256"
        },
        {
          "internalType": "uint256",
          "name": "createdAt",
          "type": "uint256"
        },
        {
          "internalType": "bool",
          "name": "executed",
          "type": "bool"
        },
        {
          "internalType": "uint256",
          "name": "eligibleVoters",
          "type": "uint256"
        },
        {
          "internalType": "uint256",
          "name": "postQuorumEligibleVoters",
          "type": "uint256"
        },
        {
          "internalType": "uint256",
          "name": "quorumReachedAt",
          "type": "uint256"
        },
        {
          "internalType": "uint256",
          "name": "quorumSnapshotBlock",
          "type": "uint256"
        },
        {
          "internalType": "bool",
          "name": "quorumExempt",
          "type": "bool"
        },
        {
          "internalType": "bool",
          "name": "updateFeeSplit",
          "type": "bool"
        },
        {
          "internalType": "uint256",
          "name": "preQuorumSnapshotBlock",
          "type": "uint256"
        },
        {
          "internalType": "bool",
          "name": "setDictatorship",
          "type": "bool"
        }
      ],
      "stateMutability": "view",
      "type": "function"
    },
    {
      "inputs": [],
      "name": "protocolFeeRecipient",
      "outputs": [
        {
          "internalType": "address",
          "name": "",
          "type": "address"
        }
      ],
      "stateMutability": "view",
      "type": "function"
    },
    {
      "inputs": [],
      "name": "protocolPercent",
      "outputs": [
        {
          "internalType": "uint256",
          "name": "",
          "type": "uint256"
        }
      ],
      "stateMutability": "view",
      "type": "function"
    },
    {
      "inputs": [
        {
          "internalType": "uint256",
          "name": "maxRemovals",
          "type": "uint256"
        }
      ],
      "name": "pruneInactiveProposals",
      "outputs": [
        {
          "internalType": "uint256",
          "name": "removed",
          "type": "uint256"
        }
      ],
      "stateMutability": "nonpayable",
      "type": "function"
    },
    {
      "inputs": [],
      "name": "quorumPercent",
      "outputs": [
        {
          "internalType": "uint256",
          "name": "",
          "type": "uint256"
        }
      ],
      "stateMutability": "view",
      "type": "function"
    },
    {
      "inputs": [
        {
          "internalType": "bool",
          "name": "enabled",
          "type": "bool"
        }
      ],
      "name": "setDictatorshipDAO",
      "outputs": [],
      "stateMutability": "nonpayable",
      "type": "function"
    },
    {
      "inputs": [
        {
          "internalType": "enum TemplBase.FeeCurveFormula",
          "name": "formula",
          "type": "uint8"
        },
        {
          "internalType": "uint256",
          "name": "slope",
          "type": "uint256"
        },
        {
          "internalType": "uint256",
          "name": "scale",
          "type": "uint256"
        }
      ],
      "name": "setFeeCurveDAO",
      "outputs": [],
      "stateMutability": "nonpayable",
      "type": "function"
    },
    {
      "inputs": [
        {
          "internalType": "bool",
          "name": "_paused",
          "type": "bool"
        }
      ],
      "name": "setJoinPausedDAO",
      "outputs": [],
      "stateMutability": "nonpayable",
      "type": "function"
    },
    {
      "inputs": [
        {
          "internalType": "uint256",
          "name": "_maxMembers",
          "type": "uint256"
        }
      ],
      "name": "setMaxMembersDAO",
      "outputs": [],
      "stateMutability": "nonpayable",
      "type": "function"
    },
    {
      "inputs": [
        {
          "internalType": "string",
          "name": "newLink",
          "type": "string"
        }
      ],
      "name": "setTemplHomeLinkDAO",
      "outputs": [],
      "stateMutability": "nonpayable",
      "type": "function"
    },
    {
      "inputs": [],
      "name": "templHomeLink",
      "outputs": [
        {
          "internalType": "string",
          "name": "",
          "type": "string"
        }
      ],
      "stateMutability": "view",
      "type": "function"
    },
    {
      "inputs": [],
      "name": "totalJoins",
      "outputs": [
        {
          "internalType": "uint256",
          "name": "",
          "type": "uint256"
        }
      ],
      "stateMutability": "view",
      "type": "function"
    },
    {
      "inputs": [],
      "name": "treasuryBalance",
      "outputs": [
        {
          "internalType": "uint256",
          "name": "",
          "type": "uint256"
        }
      ],
      "stateMutability": "view",
      "type": "function"
    },
    {
      "inputs": [],
      "name": "treasuryPercent",
      "outputs": [
        {
          "internalType": "uint256",
          "name": "",
          "type": "uint256"
        }
      ],
      "stateMutability": "view",
      "type": "function"
    },
    {
      "inputs": [
        {
          "internalType": "address",
          "name": "_token",
          "type": "address"
        },
        {
          "internalType": "uint256",
          "name": "_entryFee",
          "type": "uint256"
        },
        {
          "internalType": "bool",
          "name": "_updateFeeSplit",
          "type": "bool"
        },
        {
          "internalType": "uint256",
          "name": "_burnPercent",
          "type": "uint256"
        },
        {
          "internalType": "uint256",
          "name": "_treasuryPercent",
          "type": "uint256"
        },
        {
          "internalType": "uint256",
          "name": "_memberPoolPercent",
          "type": "uint256"
        }
      ],
      "name": "updateConfigDAO",
      "outputs": [],
      "stateMutability": "nonpayable",
      "type": "function"
    },
    {
      "inputs": [
        {
          "internalType": "uint256",
          "name": "_proposalId",
          "type": "uint256"
        },
        {
          "internalType": "bool",
          "name": "_support",
          "type": "bool"
        }
      ],
      "name": "vote",
      "outputs": [],
      "stateMutability": "nonpayable",
      "type": "function"
    },
    {
      "inputs": [
        {
          "internalType": "address",
          "name": "token",
          "type": "address"
        },
        {
          "internalType": "address",
          "name": "recipient",
          "type": "address"
        },
        {
          "internalType": "uint256",
          "name": "amount",
          "type": "uint256"
        },
        {
          "internalType": "string",
          "name": "reason",
          "type": "string"
        }
      ],
      "name": "withdrawTreasuryDAO",
      "outputs": [],
      "stateMutability": "nonpayable",
      "type": "function"
    },
    {
      "stateMutability": "payable",
      "type": "receive"
    }
  ],
  "bytecode": "0x61012060405234620007e857620060ef80380390816200001f81620007ed565b9182396101c0818381010312620007e8576200003b8162000813565b916200004a6020830162000813565b90620000596040840162000813565b606084015192608085015160a086015160c087015160e0880151610100890151936101208a015195620000906101408c0162000813565b976101608c0151918215158303620007e8576101808d01516101a08e01516001600160401b03610100819052919e918111620007e8578101908c8101601f83011215620007e85781519c8d61010051106200056c578d91620000fc601f8401601f1916602001620007ed565b9e8f520160208284010111620007e8576200011e916020808f01910162000828565b60016000556001600160a01b038116158015620007d6575b6200055a5760a05260c0526004549060ff60a01b90151560a01b169060ff60a01b191617600455809184938095829362000181846200017b856200017b86866200084d565b6200084d565b90612710820362000769575b5050505050620001af81612710926080526200017b866200017b87876200084d565b03620007575760015560025560035580620006f75750610ce4600d555b80620006f1575062093a805b600e556001600160a01b038116620006eb575061dead5b60e05280516101005181116200056c57600f54600181811c91168015620006e0575b6020821014620006ca57601f811162000671575b50806020601f8211600114620005f857600091620005ec575b508160011b916000199060031b1c191617600f555b805162000582575b50604051926060840193808510610100518611176200056c5760409485526000815260006020820152670de0b6b3a764000094859101527f715b42020a9e5afec6d7d52b6af5b5d5700d17eea68f26a5e4896e940f7f6774606060ff199586600a5416600a556000600b5580600c556040519060008252600060208301526040820152a16001600160a01b03169081156200055a5780156200054857600a81106200053657600a810662000524578160018060a01b0319600454161760045560055582600854166008556000526010602052604060002060018382541617815542600182015543600282015560036013549101556001601155801515908162000457575b60405161587390816200085c82396080518181816104c60152818161074e015281816112e80152818161279f015281816127ee01528181612a9301528181612ae501526147ab015260a0518181816113dc01528181612080015261491d015260c05181818161062d0152818161090e01528181611190015281816112400152818161138101528181611951015281816121fa015281816127c50152818161285601528181612ab901528181612b5a01528181612bc701528181613a3901528181614810015281816148c8015281816148f20152818161494001528181614dc00152615101015260e051818181611f6a01526148a50152f35b818062000519575b6200050757806009557fb63bcc75a862434e97db3146b78681478a2692253df1de5623d497ee61fac7996020604051838152a181620004fa575b5080620004ec575b620004af575b80806200035f565b60019060085416176008557fc2542ff58c47f8c0922a043c4b21423ecd816167eeab1dabfb51d56508d90a66602060405160018152a138620004a7565b5060ff6008541615620004a1565b9050600110153862000499565b604051633161e99d60e11b8152600490fd5b50600181106200045f565b604051636fe6a4c960e01b8152600490fd5b604051635eee050360e11b8152600490fd5b6040516365e52d5160e11b8152600490fd5b604051634e46966960e11b8152600490fd5b634e487b7160e01b600052604160045260246000fd5b7f71e57b89fe30fe66cb93427236f86ec18c6ec404e26b5c0914ee88193dd07da59060806040518092604082526000604083015260606020830152620005d8815180928160608601526020868601910162000828565b601f01601f19168101030190a1386200025b565b9050820151386200023e565b600f60009081529250600080516020620060cf833981519152905b601f198316841062000658576001935082601f198116106200063e575b5050811b01600f5562000253565b84015160001960f88460031b161c19169055388062000630565b8481015182556020938401936001909201910162000613565b600f600052600080516020620060cf833981519152601f830160051c81019160208410620006bf575b601f0160051c01905b818110620006b2575062000225565b60008155600101620006a3565b90915081906200069a565b634e487b7160e01b600052602260045260246000fd5b90607f169062000211565b620001ef565b620001d8565b80606481111562000729575b5061271081116200071757600d55620001cc565b604051631f3b85d360e01b8152600490fd5b90506064810290810460640362000741573862000703565b634e487b7160e01b600052601160045260246000fd5b60405163542c8df360e11b8152600490fd5b939750919550935060649250820362000757578181029080820483149015171562000741579181810290808204831490151715620007415792818102908082048314901517156200074157938181029181830414901517156200074157620001af6127103880806200018d565b506001600160a01b0382161562000136565b600080fd5b6040519190601f01601f191682016001600160401b038111838210176200056c57604052565b51906001600160a01b0382168203620007e857565b60005b8381106200083c5750506000910152565b81810151838201526020016200082b565b91908201809211620007415756fe6103e0604052600436101561001c575b361561001a57600080fd5b005b60003560e01c8063013cf08b1461328357806303807ee51461326557806304ef9d5814613247578063072ea61c1461322957806308ae4b0c146131c85780630d61b519146128ac5780630f852b9a146126db57806311aee38014611a695780631df260a0146126135780631f26ac7b146125e7578063215809ca1461173a5780632164d3f81461254d578063313dab201461252f57806343859632146124c05780634628047c146123de5780634902e427146123495780635584c4f9146122835780635998e845146121d35780635ece653a1461217d5780635fa7ddf01461215f57806361c896d2146120af57806364df049e1461206a5780636898b19c1461204c5780636a49942714611ff15780636ad1855014611fb75780637070ac4814611f9957806370d5ae0514611f5457806373023e6414611de35780637518927914611dc05780638022e55c14611da5578063840634c514611cee578063856695ea14611cc15780638b0e837914611bf85780638f78bbc414611bb6578063989fbb7614611a87578063997072f714611a695780639ddeddf914611909578063a230c524146118ca578063a51a46b9146118ac578063a64e024a1461188e578063a730117e1461186b578063a81bbe3c14611831578063aa5c442b1461177b578063ab99a0d31461175d578063adadef271461173f578063aedfe53f1461173a578063b488616b1461170a578063b688a363146116d6578063be893a1f146114f9578063bebc8fc0146114d0578063c17db3f214611442578063c29394711461134d578063c3f909d41461121a578063c556a02b146110fa578063c7f758a814610f64578063c9d27afe14610c3f578063cfb5446014610bbd578063d402d4be1461088b578063d6f8387614610824578063d8257b2d14610801578063da35c664146107e3578063dddac844146107bd578063e1a2c9bf1461065c578063e243c5fb14610617578063e4b5d7ba14610593578063ea0e35b114610575578063eccceda6146104e9578063f0a827a4146104ae578063f2be51ea14610422578063f81cbd2614610404578063fef638211461037d5763ffafe4ad0361000f5734610378576020366003190112610378576001600160a01b0361035a6137fe565b166000526018602052602060ff604060002054166040519015158152f35b600080fd5b346103785761038b366139a7565b949190929360ff60045460a01c166103f2576020956103c06103ea956103b86008986103c6963691613952565b923691613952565b9161417e565b6001819592950160ff60a01b198154169055019060ff801983541691151516179055565b604051908152f35b60405163a8ef9e1960e01b8152600490fd5b34610378576000366003190112610378576020600d54604051908152f35b346103785760203660031901126103785761043b6137fe565b60045460ff8160a01c1660001461048b57303314159081610477575b506104655761001a90614da7565b60405163626243e960e01b8152600490fd5b6001600160a01b0316331415905082610457565b5030330361049c5761001a90614da7565b6040516327568d2f60e11b8152600490fd5b346103785760003660031901126103785760206040517f00000000000000000000000000000000000000000000000000000000000000008152f35b34610378576104f736613884565b929490936001600160a01b039091169283156105635760ff60045460a01c166103f2576103c06003956103b8602098610531963691613952565b60018101805460ff60a01b1916600160a21b1790559290920180546001600160a01b0319169091179055604051908152f35b604051634e46966960e11b8152600490fd5b34610378576000366003190112610378576020600954604051908152f35b34610378576105a1366139a7565b949190929360ff60045460a01c1683151590151514610605576020956103c06103ea956103b8601f986105d5963691613952565b60018101805460ff60a01b1916600560a01b17905593909301805491151560ff1660ff1992909216919091179055565b6040516305548b1760e41b8152600490fd5b34610378576000366003190112610378576040517f00000000000000000000000000000000000000000000000000000000000000006001600160a01b03168152602090f35b346103785761010036600319011261037857608435600435811515602435606435604435838603610378576001600160401b0360c435818111610378576106a7903690600401613857565b9160e435908111610378576106c0903690600401613857565b92909860ff60045460a01c166103f2578861077a575b6020996103b861070094601d99989796946106f794610749575b3691613952565b9060a43561417e565b93909660018501600160a01b60ff60a01b198254161790556009850155600a840155600b830155600c820155019061ff0082549160081b169061ff001916179055604051908152f35b6107757f00000000000000000000000000000000000000000000000000000000000000008a8a8d614d74565b6106f0565b9594939290600a89106107ab57600a89066107995790929394956106d6565b604051636fe6a4c960e01b8152600490fd5b604051635eee050360e11b8152600490fd5b3461037857600036600319011261037857602060ff60045460a01c166040519015158152f35b34610378576000366003190112610378576020601554604051908152f35b346103785760203660031901126103785760206103ea61081f6137fe565b613ef5565b346103785760203660031901126103785761083d6137fe565b60ff6008541661087957303314610867576108609061085a613f58565b3361473d565b6001600055005b604051636edaef2f60e11b8152600490fd5b604051636f45999160e11b8152600490fd5b34610378576080366003190112610378576108a46137fe565b6108ac613814565b604435906064356001600160401b038111610378576108cf903690600401613989565b9260045460ff8160a01c16600014610ba357303314159081610b8f575b50610465575b6001600160a01b0382811694908515610563578415610b7d57807f000000000000000000000000000000000000000000000000000000000000000016921693828514600014610a2e576040516370a0823160e01b8152306004820152602081602481875afa908115610a22576000916109f0575b50600754808211156109de5761097b91613a04565b81116109de576109b7816000956000805160206157fe833981519152956109af600654808511158a146109d8578490613a04565b6006556146e4565b6109d360405192839283526040602084015260408301906137b1565b0390a4005b80613a04565b604051631c7b597b60e11b8152600490fd5b90506020813d602011610a1a575b81610a0b60209383613639565b81010312610378575187610966565b3d91506109fe565b6040513d6000823e3d90fd5b9150918315600014610ac9575060008052601b6020527f584f46c60af19681376031579adb04a2416e54ee5505351c2a8435e3766026ea54479080821115610ac057610a7991613a04565b81116109de57600080808084885af1610a90613ded565b5015610aae576000916000805160206157fe833981519152916109b7565b6040516331d436c760e01b8152600490fd5b50506000610a79565b909183600052601b6020526040600020604051906370a0823160e01b8252306004830152602082602481895afa918215610a2257600092610b49575b505480821115610b4057610b1891613a04565b83116109de5782610b3b6000946000805160206157fe83398151915294876146e4565b6109b7565b50506000610b18565b9091506020813d602011610b75575b81610b6560209383613639565b8101031261037857519087610b05565b3d9150610b58565b6040516365e52d5160e11b8152600490fd5b6001600160a01b03163314159050856108ec565b503330146108f2576040516327568d2f60e11b8152600490fd5b3461037857602036600319011261037857600435601554811015610c2d57600052601660205260c06040600020601981015490601a81015490601e810154601c82015490601b601584015493015493604051958652602086015260408501526060840152608083015260a0820152f35b604051631dc0650160e31b8152600490fd5b346103785760403660031901126103785760248035801515916004359183810361037857336000526020916010835260ff91826040600020541615610f5257601554851015610c2d5784600052601684526040600020918360045460a01c1680610f20575b6103f25760148301938454421015610f0e573360005260108652604060002092601b85019384548015600014610ee95750610ce990601e870154601588015491614d29565b610ed7575b6017850133600052808852826040600020541660188701808a528460406000205416928a526040600020600160ff198254161790558952610d3f8360406000209060ff801983541691151516179055565b610e66575015610e4e576012840180549060018201809211610e3957555b601d840154161580610e30575b610da6575b5050505060405192835242908301527fcbdf6214089cba887ecbf35a0b6a734589959c9763342c756bb2a80ca2bc9f6e60403393a3005b6019830154908115159182610dea575b5050610dc3575b80610d6f565b42905543601c820155601a601154910155610de0600e54426139e4565b9055838080610dbd565b601285015461271080820294509192918115918504141715610e1c5750610e1390600d546139f1565b11158780610db6565b634e487b7160e01b60009081526011600452fd5b50815415610d6a565b83634e487b7160e01b60005260116004526000fd5b6013840180549060018201809211610e395755610d5d565b90508881151503610e78575b50610d5d565b15610eab57601284018054600019810191908211610e3957556013840180549060018201809211610e3957555b88610e72565b601384018054600019810191908211610e3957556012840180549060018201809211610e395755610ea5565b60405163f078ca7360e01b8152600490fd5b601c870154610ef792614d29565b15610cee5760405163f078ca7360e01b8152600490fd5b604051637a19ed0560e01b8152600490fd5b5083600184015460a01c16600a811015610f3d5760051415610ca4565b50634e487b7160e01b60009081526021600452fd5b60405163148fe22160e11b8152600490fd5b3461037857602036600319011261037857600435601554811015610c2d576000526016602052604060002060ff601d8201541660001461104f5760148101544210158061103e575b905b61103a60018060a01b036001830154169261102c60128401549360138101549560148201549360ff601684015416610ff46006610fed6005870161370e565b950161370e565b95604051998a99610100958b5260208b015260408a0152606089015215156080880152151560a08701528060c08701528501906137b1565b9083820360e08501526137b1565b0390f35b506012810154601382015410610fac565b601b81015480156110f15760198201549081159182156110a7575b50600e54611077916139e4565b421015908161109f575b508061108e575b90610fae565b506012810154601382015410611088565b905082611081565b9091506012830154612710908181029181830414901517156110db576110d261107792600d546139f1565b1115919061106a565b634e487b7160e01b600052601160045260246000fd5b50600090610fae565b346103785760003660031901126103785733600052601060205260ff6040600020541615610f525761112a613f58565b61113333613ef5565b8015611208578061114960075460145490613a04565b106111f657601354336000526010602052600360406000200155601260205260406000206111788282546139e4565b905561118681600754613a04565b6007556111bd81337f00000000000000000000000000000000000000000000000000000000000000006001600160a01b03166146e4565b6040519081524260208201527f1c643327a899ca112a3300de75dd241ef8452e4f603609b53a20332da48b54e660403392a26001600055005b60405163bc6072f160e01b8152600490fd5b6040516373380d9960e01b8152600490fd5b34610378576000366003190112610378576040516370a0823160e01b81523060048201527f00000000000000000000000000000000000000000000000000000000000000006001600160a01b0316602082602481845afa8015610a2257600090611319575b600754610140935090818082111561130f5761129a91613a04565b905b600554916112a8613c38565b916001549160025493600354956040519788526020880152600060408801526060870152608086015260a085015260c084015260e08301526101008201527f0000000000000000000000000000000000000000000000000000000000000000610120820152f35b505060009061129c565b506020823d602011611345575b8161133360209383613639565b8101031261037857610140915161127f565b3d9150611326565b34610378576000366003190112610378576040516370a0823160e01b81523060048201526001600160a01b036020826024817f000000000000000000000000000000000000000000000000000000000000000085165afa908115610a225760009161140d575b60075460609350918280821115611403576113cd91613a04565b915b60405192835260208301527f0000000000000000000000000000000000000000000000000000000000000000166040820152f35b50506000916113cf565b90506020823d60201161143a575b8161142860209383613639565b810103126103785760609151906113b3565b3d915061141b565b34610378576020366003190112610378576004356001600160401b03811161037857611472903690600401613857565b60045460ff8160a01c166000146114bb573033141590816114a7575b506104655761001a916114a2913691613952565b614ac5565b6001600160a01b031633141590508361148e565b5030330361049c5761001a916114a2916106f0565b34610378576000366003190112610378576004546040516001600160a01b039091168152602090f35b346103785760e0366003190112610378576115126137fe565b61151a613814565b6001600160401b03906064358281116103785761153b903690600401613989565b9160a43581811161037857611554903690600401613857565b60c4358381116103785761156c903690600401613857565b909260ff60045460a01c166103f2576007936103b861159092611599953691613952565b9060843561417e565b6001808201805460ff60a01b1916600160a11b1790556002820180546001600160a01b03199081166001600160a01b039a8b16179091556003830180549091169890961697909717909455604435600485015584519093919091019181116116c0576020946116128261160c85546135e4565b85613be2565b8590601f831160011461165a5750819061164593949560009261164f575b50508160011b916000199060031b1c19161790565b9055604051908152f35b015190508680611630565b90601f198316958460005281600020926000905b8882106116a957505083600195969710611690575b505050811b0190556103ea565b015160001960f88460031b161c19169055858080611683565b82840151855593840193928901929089019061166e565b634e487b7160e01b600052604160045260246000fd5b346103785760003660031901126103785760ff600854166108795730331461086757611700613f58565b610860333361473d565b346103785760003660031901126103785761103a61172661365a565b6040519182916020835260208301906137b1565b613839565b34610378576000366003190112610378576020600354604051908152f35b346103785760203660031901126103785760206103ea600435613e47565b346103785760203660031901126103785761179461382a565b60045460ff8160a01c169182600014611818573033141580611805575b610465575b151580921515146106055760ff60a01b191660a082901b60ff60a01b16176004556040519081527fa8adfe89c6bc95edbe7049ed316f0473a03af92b1fd027ce1ac670082467c62390602090a1005b50336001600160a01b03831614156117b1565b3330146117b6576040516327568d2f60e11b8152600490fd5b34610378576020366003190112610378576001600160a01b036118526137fe565b1660005260126020526020604060002054604051908152f35b346103785760203660031901126103785760206103ea6118896137fe565b613e1d565b3461037857600036600319011261037857602060405162278d008152f35b34610378576000366003190112610378576020601454604051908152f35b34610378576020366003190112610378576001600160a01b036118eb6137fe565b166000526010602052602060ff604060002054166040519015158152f35b3461037857602080600319360112610378576119236137fe565b90336000526010815260ff6040600020541615610f5257611942613f58565b6001600160a01b0382811691907f0000000000000000000000000000000000000000000000000000000000000000168214611a575781600052601b815260406000209260ff600385015416156112085761199c9033613a11565b9283156112085780548481106111f657846119d491600184015433600052601e86526040600020876000528652604060002055613a04565b905581611a2557600080808086335af16119ec613ded565b5015610aae577f26cd6ba06f6dc02c61247f710e95c768f4856af03b740594288907c36bb217e9905b6040519384523393a36001600055005b7f26cd6ba06f6dc02c61247f710e95c768f4856af03b740594288907c36bb217e990611a528433856146e4565b611a15565b604051631c49f4d160e01b8152600490fd5b34610378576000366003190112610378576020601154604051908152f35b34610378576060366003190112610378576004356002811015610378576024356044359160045460ff8160a01c16600014611b9c57303314159081611b88575b50610465575b8215611b6d57801580611b7f575b611b6d57604051611aeb8161361e565b611af582826146d8565b6020810193838552604082019181835251916002831015611b57577f715b42020a9e5afec6d7d52b6af5b5d5700d17eea68f26a5e4896e940f7f677495611b3e611b5294613ad9565b51600b5551600c556040519384938461391a565b0390a1005b634e487b7160e01b600052602160045260246000fd5b604051635682e36760e11b8152600490fd5b50811515611adb565b6001600160a01b0316331415905084611ac7565b50333014611acd576040516327568d2f60e11b8152600490fd5b3461037857604036600319011261037857611bec611bd8602435600435613c56565b6040519283926040845260408401906138e6565b90151560208301520390f35b346103785760203660031901126103785760043560045460ff8160a01c16600014611ca757303314159081611c93575b50610465575b6011548115159081611c89575b50611c77576020817fb63bcc75a862434e97db3146b78681478a2692253df1de5623d497ee61fac79992600955604051908152a161001a61530d565b604051633161e99d60e11b8152600490fd5b9050811082611c3b565b6001600160a01b0316331415905082611c28565b50333014611c2e576040516327568d2f60e11b8152600490fd5b346103785760003660031901126103785760ff600a5416600b549061103a600c546040519384938461391a565b3461037857602036600319011261037857611d076137fe565b60045460ff8160a01c16600014611d8c573033141580611d79575b610465575b6001600160a01b0391821691821561056357811690818314611a57576001600160a01b03191682176004557f0f3a6964a8ba1b7473a14630b029eae6d49bec6babf098223718bacaac7197cc600080a3005b50336001600160a01b0382161415611d22565b333014611d27576040516327568d2f60e11b8152600490fd5b346103785760003660031901126103785760206103ea613c38565b3461037857600036600319011261037857602060ff600854166040519015158152f35b34610378576080366003190112610378576001600160401b0360043581811161037857611e14903690600401613857565b909160443581811161037857611e2e903690600401613857565b9060643583811161037857611e47903690600401613857565b919060ff60045460a01c166103f2576103b8611e6892611e71953691613952565b9060243561417e565b6001818101805460ff60a01b1916600760a01b17905591936010919091019290919082116116c057611ea78261160c85546135e4565b600090601f8311600114611ee65750908061164592602096600092611edb5750508160011b916000199060031b1c19161790565b013590508680611630565b90601f198316846000526020926020600020936000915b838310611f3d575050509583929160019460209810611f2357505050811b0190556103ea565b0135600019600384901b60f8161c19169055858080611683565b898501358655948501949381019391810191611efd565b34610378576000366003190112610378576040517f00000000000000000000000000000000000000000000000000000000000000006001600160a01b03168152602090f35b34610378576000366003190112610378576020600e54604051908152f35b34610378576020366003190112610378576001600160a01b03611fd86137fe565b1660005260176020526020604060002054604051908152f35b34610378576020366003190112610378576001600160a01b036120126137fe565b16600052601b6020526040600020805461103a60026001840154930154604051938493846040919493926060820195825260208201520152565b34610378576000366003190112610378576020601354604051908152f35b34610378576000366003190112610378576040517f00000000000000000000000000000000000000000000000000000000000000006001600160a01b03168152602090f35b34610378576080366003190112610378576001600160401b03600435604435828111610378576120e3903690600401613857565b919092606435908111610378576120fe903690600401613857565b60ff60049492945460a01c166103f25782151580612154575b611c7757611e686011946103b8602097612132953691613952565b60018101805460ff60a01b1916600360a11b1790559290920155604051908152f35b506011548310612117565b34610378576000366003190112610378576020600754604051908152f35b34610378576020366003190112610378576001600160a01b0361219e6137fe565b1660005260106020526060604060002060ff815416906002600182015491015490604051921515835260208301526040820152f35b34610378576020366003190112610378576121ec6137fe565b6001600160a01b03818116907f0000000000000000000000000000000000000000000000000000000000000000168114611a5757600052601b60205260406000209060038201805460ff811615611a5757835415801590612276575b6122645760006002858261001a9755015560ff191690556145d7565b60405163dda495d160e01b8152600490fd5b5060028401541515612248565b34610378576000366003190112610378576019546122a081613b09565b9060009060005b8181106122f95750506122b981613b09565b9160005b8281106122da576040516020808252819061103a908201876138e6565b806122e760019284613bce565b516122f28287613bce565b52016122bd565b80612305600192613b3b565b90549060031b1c8060005260166020526123234260406000206145b9565b61232f575b50016122a7565b61234261233b86613bbf565b9587613bce565b5285612328565b346103785761235736613884565b909493919260ff60045460a01c166103f2576020956103b86103c09261237e963691613952565b60018101805460ff60a01b1916600360a01b1790556002810180546001600160a01b0319166001600160a01b0394851617905560045491929091339116146123ca575b50604051908152f35b601d01805460ff19166001179055826123c1565b346103785760c0366003190112610378576004356002811015610378576001600160401b039060443560243560843584811161037857612422903690600401613857565b91909460a4359081116103785761243d903690600401613857565b60ff60049492945460a01c166103f2578415611b6d578515806124b7575b611b6d57612476600f946103b860209961247f953691613952565b9060643561417e565b91909460018301600160a31b60ff60a01b19825416179055600d83019060ff80198354169116179055600e8201550155604051908152f35b5082151561245b565b34610378576040366003190112610378576004356124dc613814565b601554821015610c2d576040916000526016602052816000209060018060a01b031660005260178101602052601860ff836000205416910160205260ff8260002054168251911515825215156020820152f35b34610378576000366003190112610378576020600654604051908152f35b346103785760203660031901126103785761256661382a565b60045460ff8160a01c166000146125c8573033141590816125b4575b5061046557602060008051602061579e833981519152915b151560ff196008541660ff821617600855604051908152a1005b6001600160a01b0316331415905082612582565b5030330361049c57602060008051602061579e8339815191529161259a565b346103785760403660031901126103785760206103ea6126056137fe565b61260d613814565b90613a11565b346103785760003660031901126103785760405180601c5480835260208093018091601c6000527f0e4562a10381dec21b205ed72637e6b1b523bdd0e4d4d50af5cd23dd4500a2119060005b868282106126be57868661267582880383613639565b604051928392818401908285525180915260408401929160005b82811061269e57505050500390f35b83516001600160a01b03168552869550938101939281019260010161268f565b83546001600160a01b03168552909301926001928301920161265f565b346103785760c0366003190112610378576126f46137fe565b6024356044358015158103610378576064356084359160a4359360045460ff8160a01c166000146128925730331415908161287e575b50610465575b6001600160a01b039586168015159081612851575b5061283f5780612826575b506127e9575b837fa00a4448d1c98b3edafbf488446a8320c2cb278ba20dd49c7b5d41a7ebfd582b60a060055492600154600254600354916040519687526020870152604086015260608501527f000000000000000000000000000000000000000000000000000000000000000060808501527f00000000000000000000000000000000000000000000000000000000000000001692a2005b6128157f0000000000000000000000000000000000000000000000000000000000000000848484614d74565b600155600255600355818080612756565b600a81106107ab57600a81066107995760055585612750565b60405163b078ee9d60e01b8152600490fd5b9050867f000000000000000000000000000000000000000000000000000000000000000016141587612745565b6001600160a01b031633141590508761272a565b50333014612730576040516327568d2f60e11b8152600490fd5b346103785760208060031936011261037857600435906128ca613f58565b601554821015610c2d57816000526016815260406000209160ff600454908060a092831c16806131ac575b6103f257601d8501948186541680809161319f575b61318d571561310a575b60168101958654938385166130f8576012830154601384015410156130e6576001978860ff19809716179055878301918460018060a01b03938481541660005260188a528160406000205416806130d4575b6130b5575b54831c16600a811015611b5757806129e357505050508460008051602061579e8339815191526129de968695856000805160206157de8339815191529660086060970154161515916008541690821617600855604051908152a15b604080519188835282015260006040820152a2613f7b565b600055005b92955090939291888103612b82575084600283015416926009830154915460081c16600a83015491600c600b850154940154948015159081612b55575b5061283f5780612b1c575b506000805160206157de833981519152946060946129de99948998947fa00a4448d1c98b3edafbf488446a8320c2cb278ba20dd49c7b5d41a7ebfd582b94612ae0575b505050600554928a5460025460035491604051968752878701526040860152868501527f000000000000000000000000000000000000000000000000000000000000000060808501527f00000000000000000000000000000000000000000000000000000000000000001692a26129c6565b612b0c7f0000000000000000000000000000000000000000000000000000000000000000848484614d74565b8c556002556003558a8080612a6e565b90939792959194600a82106107ab57600a82066107995760059190915591969094919390926000805160206157de833981519152612a2b565b9050877f00000000000000000000000000000000000000000000000000000000000000001614158b612a20565b9050600281979492959714600014612e0d5750505083600283015416938060038401541691612bb860076004860154950161370e565b918315610563578415610b7d577f00000000000000000000000000000000000000000000000000000000000000001692868403612cca576040516370a0823160e01b81523060048201528281602481885afa908115610a2257600091612c9d575b50600754808211156109de57612c2e91613a04565b85116109de576129de96866000805160206157fe83398151915260609588612c7a849a876000805160206157de8339815191529b6109af600654808511156000146109d8578490613a04565b612c95604051928392835260408984015260408301906137b1565b0390a46129c6565b90508281813d8311612cc3575b612cb48183613639565b81010312610378575189612c19565b503d612caa565b959391925083612d4b5760008052601b81526040600020479054808211600014612d4257612cf791613a04565b82116109de576000808080858a5af1612d0e613ded565b5015610aae576129de958594856000805160206157fe8339815191526000805160206157de83398151915296606096612c7a565b50506000612cf7565b83600052601b81526040600020604051906370a0823160e01b82523060048301528282602481895afa918215610a2257600092612dde575b505480821115612dd557612d9691613a04565b82116109de578584866000805160206157fe8339815191526000805160206157de8339815191529686612dd06060986129de9d869c6146e4565b612c7a565b50506000612d96565b9091508281813d8311612e06575b612df68183613639565b8101031261037857519089612d83565b503d612dec565b9295939260038103612e475750505060606129de94612e4285809560026000805160206157de833981519152960154166150e7565b6129c6565b92939260048103612eca57505050600381920154169081156105635760045490811690818314611a57576129de94836000805160206157de8339815191529386956060946bffffffffffffffffffffffff60a01b16176004557f0f3a6964a8ba1b7473a14630b029eae6d49bec6babf098223718bacaac7197cc600080a36129c6565b9192509060058103612f53575090601f819301541691600454921515809184841c161515146106055760ff60a01b199092169082901b60ff60a01b16176004556040519081526129de9282916000805160206157de833981519152916060917fa8adfe89c6bc95edbe7049ed316f0473a03af92b1fd027ce1ac670082467c623908290a16129c6565b905060068103612fcb575050601101546011548115159081612fc1575b50611c77576000805160206157de8339815191526060847fb63bcc75a862434e97db3146b78681478a2692253df1de5623d497ee61fac7996129de96858796600955604051908152a1612e4261530d565b9050811085612f70565b60078103612ffa5750506000805160206157de83398151915260606129de94612e426114a2601087960161370e565b600803611a5757600d8201541692600f600e830154920154908115611b6d576002851015611b57578415806130ac575b611b6d576040519061303b8261361e565b61304586836146d8565b808201848152604083019284845251946002861015611b57576129de976130a46000805160206157de833981519152966060967f715b42020a9e5afec6d7d52b6af5b5d5700d17eea68f26a5e4896e940f7f677495611b3e8c9b613ad9565b0390a16129c6565b5082151561302a565b60188a52604060002088815416905560178a526000604081205561296b565b5060178a528860406000205414612966565b60405163c8c93ba360e01b8152600490fd5b604051630dc1019760e01b8152600490fd5b601b810154801561313d57600e54613121916139e4565b421061317b576019810154801515908161314f575b5015612914575b60405163aa26a69360e01b8152600490fd5b6012830154612710808202935081159184041417156110db5761317490600d546139f1565b1187613136565b60405163a905056160e01b8152600490fd5b604051633fc30bd160e11b8152600490fd5b506014820154421061290a565b50806001860154831c16600a811015611b5757600514156128f5565b34610378576020366003190112610378576001600160a01b036131e96137fe565b1660005260106020526080604060002060ff8154169060018101549060036002820154910154916040519315158452602084015260408301526060820152f35b34610378576000366003190112610378576020600554604051908152f35b34610378576000366003190112610378576020600254604051908152f35b34610378576000366003190112610378576020600154604051908152f35b346103785760203660031901126103785760048035600090815260166020526040902061038081905280546101205260018101546103205260028101546001600160a01b039081166103c05260038201541661014052908101546103a0526132ed9060050161370e565b610280526133006006610380510161370e565b610340526133136007610380510161370e565b6103605260ff600861038051015416610300526009610380510154600a61038051015490600b61038051015491600c61038051015460ff600d6103805101541690600e6103805101546102a052600f6103805101546102c05261337b6010610380510161370e565b6102e052610380516011810154610100526012810154608052601381015460c052601481015461026052601581015461024052601681015460ff90811661022052601982015461020052601a8201546101e052601b8201546101c052601c8201546101a052601d82015461018052601e82015461016052601f90910154811660e05260405160a081815261012051909152610320805182516001600160a01b039091166020919091015251600a911c9091161015611b5757613524946134f69360ff6103205160a01c16604060a05101526103c051606060a051015261014051608060a05101526103a05160a08051015261040060c060a05101526134ba6134a461348f61040060a05101610280516137b1565b60a051810360e060a0510152610340516137b1565b60a051810361010060a0510152610360516137b1565b9561030051151561012060a051015261014060a051015261016060a051015261018060a05101526101a060a05101526101c060a05101906137f1565b6102a0516101e060a05101526102c05161020060a051015260a051810361022060a05101526102e0516137b1565b6101005161024060a051015260805161026060a051015260c05161028060a0510152610260516102a060a0510152610240516102c060a05101526102205115156102e060a05101526102005161030060a05101526101e05161032060a05101526101c05161034060a05101526101a05161036060a051015260ff6101805116151561038060a051015260ff6101805160081c1615156103a060a0510152610160516103c060a051015260e05115156103e060a051015260a051900360a051f35b90600182811c92168015613614575b60208310146135fe57565b634e487b7160e01b600052602260045260246000fd5b91607f16916135f3565b606081019081106001600160401b038211176116c057604052565b90601f801991011681019081106001600160401b038211176116c057604052565b60405190600082600f549161366e836135e4565b808352926020906001908181169081156136ea575060011461369b575b505061369992500383613639565b565b915092600f60005260008051602061581e833981519152936000925b8284106136d25750613699945050508101602001388061368b565b855488850183015294850194879450928101926136b7565b9150506020925061369994915060ff191682840152151560051b820101388061368b565b90604051918260008254613721816135e4565b9081845260209460019160018116908160001461378f5750600114613750575b50505061369992500383613639565b600090815285812095935091905b8183106137775750506136999350820101388080613741565b8554888401850152948501948794509183019161375e565b9250505061369994925060ff191682840152151560051b820101388080613741565b919082519283825260005b8481106137dd575050826000602080949584010152601f8019910116010190565b6020818301810151848301820152016137bc565b906002821015611b575752565b600435906001600160a01b038216820361037857565b602435906001600160a01b038216820361037857565b60043590811515820361037857565b3461037857600036600319011261037857602060405162093a808152f35b9181601f84011215610378578235916001600160401b038311610378576020838186019501011161037857565b6080600319820112610378576004356001600160a01b03811681036103785791602435916001600160401b039160443583811161037857826138c891600401613857565b93909392606435918211610378576138e291600401613857565b9091565b90815180825260208080930193019160005b828110613906575050505090565b8351855293810193928101926001016138f8565b60409194939261392e8260608101976137f1565b60208201520152565b6001600160401b0381116116c057601f01601f191660200190565b92919261395e82613937565b9161396c6040519384613639565b829481845281830111610378578281602093846000960137010152565b9080601f83011215610378578160206139a493359101613952565b90565b60806003198201126103785760043580151581036103785791602435916001600160401b039160443583811161037857826138c891600401613857565b919082018092116110db57565b818102929181159184041417156110db57565b919082039182116110db57565b60018060a01b0380911690600092828452601060205260ff60408520541615613ad3578116907f0000000000000000000000000000000000000000000000000000000000000000168114613ac657808352601b602052604083209060ff60038301541615613ad3578284526010602052613a9360408520600184015493614093565b928452601e60205260408420908452602052604083205491808310613acb575b5081811115613ac6576139a49250613a04565b505090565b915038613ab3565b50505090565b6002811015611b575760ff8019600a5416911617600a55565b6001600160401b0381116116c05760051b60200190565b90613b1382613af2565b613b206040519182613639565b8281528092613b31601f1991613af2565b0190602036910137565b601954811015613b725760196000527f944998273e477b495144fb8794c914197f3ccb46be2900f4698fd0ef743c96950190600090565b634e487b7160e01b600052603260045260246000fd5b601c54811015613b7257601c6000527f0e4562a10381dec21b205ed72637e6b1b523bdd0e4d4d50af5cd23dd4500a2110190600090565b60001981146110db5760010190565b8051821015613b725760209160051b010190565b90601f8111613bf057505050565b6000916000526020600020906020601f850160051c83019410613c2e575b601f0160051c01915b828110613c2357505050565b818155600101613c17565b9092508290613c0e565b6011548015613c505760001981019081116110db5790565b50600090565b919080158015613de3575b613dd1576019549160009360005b848110613d8a575084811015613d5a57613c8883613b09565b916000958694875b8888821080613d51575b15613d04575080613cad613cf992613b3b565b90549060031b1c806000526016602052613ccb4260406000206145b9565b15613cfe5786613cda8a613bbf565b9910613cfe57613cf3613cec8c613bbf565b9b89613bce565b52613bbf565b613c90565b50613bbf565b9397505050929350613d15916139e4565b1092613d2081613b09565b9160005b828110613d32575050509190565b80613d3f60019284613bce565b51613d4a8287613bce565b5201613d24565b50828110613c9a565b5092505050604051602081018181106001600160401b038211176116c05760405260008152600036813790600090565b613d9381613b3b565b90549060031b1c6000526016602052613db04260406000206145b9565b613dbd575b600101613c6f565b94613dc9600191613bbf565b959050613db5565b6040516381f396b760e01b8152600490fd5b5060648111613c61565b3d15613e18573d90613dfe82613937565b91613e0c6040519384613639565b82523d6000602084013e565b606090565b6001600160a01b031660009081526010602052604090205460ff1615613e4257600190565b600090565b906000906000908315613eee57601993601954908115613ee55793905b80151580613edc575b15613ec0576000198101908111613ec857613e8790613b3b565b90549060031b1c8084526016602052613ea342604086206145b9565b613ec05790613eb4613eb992613f7b565b613bbf565b8454613e64565b509350915050565b634e487b7160e01b84526011600452602484fd5b50848210613e6d565b50509250905090565b9250905090565b6001600160a01b03166000908152601060205260409020805460ff1615613c50576003601354910154808211600014613f31576139a491613a04565b5050600090565b8115613f42570690565b634e487b7160e01b600052601260045260246000fd5b600260005414613f69576002600055565b604051633ee5aeb560e01b8152600490fd5b600090808252601a60205260408220548015614072576000199080820181811161405e5760195483810190811161404a57808203613ffe575b5050506019548015613fea57810190613fcc82613b3b565b909182549160031b1b191690556019558152601a6020526040812055565b634e487b7160e01b84526031600452602484fd5b61401d9161400e61403692613b3b565b90549060031b1c928391613b3b565b90919082549060031b91821b91600019901b1916179055565b8452601a6020526040842055388080613fb4565b634e487b7160e01b86526011600452602486fd5b634e487b7160e01b85526011600452602485fd5b505050565b8054821015613b725760005260206000209060011b0190600090565b90600480830191825493841561417257506002810154600180920154906000955b8087106140e45750505050508115613f315760001982019182116110db576001916140de91614077565b50015490565b6140ee81886139e4565b841c906140fb8288614077565b50546001600160401b03908181168086101561411a57505050506140b4565b92999285111561414c5750505083810180911161413757956140b4565b601185634e487b7160e01b6000525260246000fd5b91989160401c1684101561416057506140b4565b965083810180911161413757956140b4565b60010154949350505050565b9192909260009233845260206010815260409160ff8387205416156145a8573386526018825260ff8387205416614538575b80614532575062093a80955b62093a8087106145215762278d00871161451057601554926141dd84613bbf565b60155583978488526016845281882097858955614216600192838b01336bffffffffffffffffffffffff60a01b825416179055426139e4565b9160148a019283554260158b015560058a018551906001600160401b03918281116144fc5761424f8161424984546135e4565b84613be2565b88601f821160011461449f57908061427c928791614494575b508160011b916000199060031b1c19161790565b90555b885160068c019181116143dc5761429a8161424984546135e4565b87601f82116001146144355790806142c692869161442a57508160011b916000199060031b1c19161790565b90555b43601e8b015560168a019060ff199182815416905533835260178b018752848320818382541617905560188b01875284832081838254161790558060128c01558260138c01556011548060198d0155601b8c01848155601d8d0184815416905581151580614413575b6143f0575b5050601954600160401b8110156143dc57857f0a3d356d942a35213f2f2e42f5c07221391ae9a4f16edaa23278b9f8068be772989796946143c8948461438b8d61401d876143d79c99839901601955613b3b565b601954858452601a8c528484205533835260188b5283832091825416179055601789522055549360608351968796875286015260608501906137b1565b908382039084015233966137b1565b0390a3565b634e487b7160e01b84526041600452602484fd5b42905543601c8d0155601a8c015561440a600e54426139e4565b84553880614337565b5061442082600d546139f1565b6127101015614332565b90508b015138614268565b828552888520849291601f198316878c8f5b83831061447d575050508311614464575b5050811b0190556142c9565b8c015160001960f88460031b161c191690553880614458565b840151855588969094019392830192018c8f614447565b905089015138614268565b828652898620859291601f198316885b8d8d8383106144e75750505083116144ce575b5050811b01905561427f565b8a015160001960f88460031b161c1916905538806144c2565b840151855589969094019392830192016144af565b634e487b7160e01b85526041600452602485fd5b825163eeeb962360e01b8152600490fd5b82516331806aeb60e21b8152600490fd5b956141bc565b6017829695949396528585205485526016825285852060ff60168201541615908161459a575b501561457557855163792c310960e11b8152600490fd5b94919293943386526018825282862060ff1981541690556017825285838120556141b0565b60149150015442103861455e565b825163148fe22160e11b8152600490fd5b9060148201541190816145ca575090565b60ff915060160154161590565b6001600160a01b039081166000818152601d602052604081205490929080156146d2576000199080820181811161404a57601c54908382019182116146be5790818186930361466b575b50505050601c54801561465757019061463982613b88565b909182549160031b1b19169055601c558152601d6020526040812055565b634e487b7160e01b85526031600452602485fd5b61468b9261467b6146a993613b88565b90549060031b1c16928391613b88565b90919060018060a01b038084549260031b9316831b921b1916179055565b8552601d602052604085205538828180614621565b634e487b7160e01b87526011600452602487fd5b50505050565b6002821015611b575752565b60405163a9059cbb60e01b60208201526001600160a01b03909216602483015260448083019390935291815260808101916001600160401b038311828410176116c05761369992604052615369565b8115613f42570490565b6001600160a01b039182169182156105635782600052601060205260406000209060ff825416614ab357601154926009548015159081614aa8575b50614a965783614a89575b61478c84615467565b93614799600154866154ee565b906147a6600354876154ee565b6147d07f0000000000000000000000000000000000000000000000000000000000000000886154ee565b916147e8836147e3846147e3888d613a04565b613a04565b966147f383896139e4565b6040516370a0823160e01b815287891660048201526020816024817f00000000000000000000000000000000000000000000000000000000000000008d165afa8015610a22578b91600091614a54575b5010614a4257600160ff1983541617825542600183015543600283015560018301918284116110db576149179260115583614a0c575b600360135491015561488d896006546139e4565b60065561489c846007546139e4565b6007556148ed867f0000000000000000000000000000000000000000000000000000000000000000898b7f000000000000000000000000000000000000000000000000000000000000000016615606565b3087897f000000000000000000000000000000000000000000000000000000000000000016615606565b614965837f000000000000000000000000000000000000000000000000000000000000000087897f000000000000000000000000000000000000000000000000000000000000000016615606565b806149cf575090610100949392917f1e609b99246f156bec3eb747e01ae03549c74e403e03208c30200ec52f26ade0966000935b604051998a5260208a01526040890152606088015260808701524260a08701524360c087015260e08601521692a361369961530d565b600019810195949392919086116110db577f1e609b99246f156bec3eb747e01ae03549c74e403e03208c30200ec52f26ade0966101009693614999565b614a3a614a1b601454876139e4565b614a2f86614a298184614733565b92613f38565b6014556013546139e4565b601355614879565b604051631e9acf1760e31b8152600490fd5b9150506020813d602011614a81575b81614a7060209383613639565b81010312610378578a905138614843565b3d9150614a63565b614a916153c5565b614783565b6040516382b675f560e01b8152600490fd5b905084101538614778565b604051636826b7b960e11b8152600490fd5b604051600091600f8054614ad8816135e4565b80855260209485810191816001988986168981600014614d0e5750600114614cc3575b614b0792500382613639565b51902083518585012014614cbc57614b1d61365a565b948351916001600160401b0383116116c057614b38906135e4565b601f8111614c68575b508490601f8311600114614bd0575092614bc092614b9c83614bb397947f71e57b89fe30fe66cb93427236f86ec18c6ec404e26b5c0914ee88193dd07da59997600091614bc557508160011b916000199060031b1c19161790565b90555b6040519485946040865260408601906137b1565b91848303908501526137b1565b0390a1565b905084015138614268565b9190601f198216908460005260008051602061581e8339815191529160005b818110614c53575092614bc09592614bb3989592827f71e57b89fe30fe66cb93427236f86ec18c6ec404e26b5c0914ee88193dd07da59b999610614c3a575b5050811b019055614b9f565b85015160001960f88460031b161c191690553880614c2e565b87830151845592850192918801918801614bef565b8360005260008051602061581e833981519152601f840160051c810191878510614cb2575b601f0160051c019082905b828110614ca6575050614b41565b60008155018290614c98565b9091508190614c8d565b5050505050565b505084600052818760008051602061581e8339815191528a6000915b858310614cf5575050614b079350820101614afb565b80919294505483858801015201910188908a8593614cdf565b915050614b079260ff1987168652151560051b820101614afb565b91908015614d6c576002830154818111614d6357149182614d55575b5050614d5057600090565b600190565b600101541190503880614d45565b50505050600190565b505050600090565b614d8e92614d896127109593614d89936139e4565b6139e4565b03614d9557565b60405163542c8df360e11b8152600490fd5b6011549081156150d5576001600160a01b0381811692907f000000000000000000000000000000000000000000000000000000000000000016838114614fbd5750600083614f47575047915b83600052601b602052604092836000209081549081811115614f365790614e1991613a04565b9185600052601b60205260038560002001805460ff811615614eb9575b505050906143d782600095614e5c846000805160206157be8339815191529796546139e4565b8255614e9e6002830192614e85614e748554886139e4565b97614e7f818a614733565b98613f38565b809460018301614e968a82546139e4565b9055556156e5565b51938493846040919493926060820195825260208201520152565b610100601c96959496541015614f255760ff19166001179055601c5493600160401b8510156116c057600095614f0b6143d79361468b8860016000805160206157be8339815191529a01601c55613b88565b601c54888852601d60205281882055958193949550614e36565b8651636ff5066b60e11b8152600490fd5b8551631ab9ebab60e01b8152600490fd5b6040516370a0823160e01b8152306004820152602081602481885afa918215614fb1578092614f79575b505091614df3565b9091506020823d602011614fa9575b81614f9560209383613639565b81010312614fa65750513880614f71565b80fd5b3d9150614f88565b604051903d90823e3d90fd5b6040516370a0823160e01b8152306004820152919250602090829060249082905afa908115610a22576000916150a3575b506007549182821115615091578261503b61501a6000956000805160206157be83398151915295613a04565b80926150336006548084111589146109d8578390613a04565b6006556139e4565b6007556143d7615061615050601454846139e4565b9361505b8186614733565b94613f38565b61506d846013546139e4565b60135580601455604051938493846040919493926060820195825260208201520152565b604051631ab9ebab60e01b8152600490fd5b90506020813d6020116150cd575b816150be60209383613639565b81010312610378575138614fee565b3d91506150b1565b604051630292d7c360e51b8152600490fd5b906011549182156150d5576001600160a01b0381811693907f0000000000000000000000000000000000000000000000000000000000000000168481146152675750600084615200575047915b84600052601b602052604092836000209081549081811115614f36579061515a91613a04565b9186600052601b60205260038560002001805460ff811615615199575b505050806000805160206157be83398151915294614e5c846143d794546139e4565b610100601c949394541015614f255760ff19166001179055601c5494600160401b8610156116c0576151e76143d79361468b8860016000805160206157be8339815191529a01601c55613b88565b601c5488600052601d6020528160002055948192615177565b6040516370a0823160e01b8152306004820152602081602481895afa918215614fb1578092615232575b505091615134565b9091506020823d60201161525f575b8161524e60209383613639565b81010312614fa6575051388061522a565b3d9150615241565b6040516370a0823160e01b81523060048201529250602090839060249082905afa918215610a22576000926152d9575b50600754808311156150915761503b6152bf826000805160206157be83398151915295613a04565b8092615033600654808411156000146109d8578390613a04565b9091506020813d602011615305575b816152f560209383613639565b8101031261037857519038615297565b3d91506152e8565b600954801515908161535c575b508061534f575b61532757565b600160ff19600854161760085560008051602061579e833981519152602060405160018152a1565b5060ff6008541615615321565b905060115410153861531a565b906000602091828151910182855af115610a22576000513d6153bc57506001600160a01b0381163b155b61539a5750565b604051635274afe760e01b81526001600160a01b039091166004820152602490fd5b60011415615393565b601154801561546457601c54906000805b8381106153e35750505050565b806153ef600192613b88565b838060a01b0391549060031b1c168352601b602052836040842060028101805490811561545b576154208483614733565b9182156154515761544b9461543491613f38565b90556154448583019182546139e4565b90556156e5565b016153d6565b505050505061544b565b5050505061544b565b50565b6040516154738161361e565b61548260ff600a5416826146d8565b600b549060208101918252600c54906040810191825280516002811015611b5757156154e457516002811015611b57576001146154cb57604051635682e36760e11b8152600490fd5b6139a4926154dc9251915191615569565b6005546139e4565b5050505060055490565b906000198183098183029182808310920391808303921461555e57612710908282111561554b577fbc01a36e2eb1c432ca57a786c226809d495182a9930be0ded288ce703afb7e91940990828211900360fc1b910360041c170290565b634e487b7160005260116020526024601cfd5b505061271091500490565b909160001983830992808302928380861095039480860395146155f957848311156155e0579082910981600003821680920460028082600302188083028203028083028203028083028203028083028203028083028203028092029003029360018380600003040190848311900302920304170290565b82634e487b71600052156003026011186020526024601cfd5b5050906139a49250614733565b6040516323b872dd60e01b60208201526001600160a01b03928316602482015292909116604483015260648083019390935291815260a08101918183106001600160401b038411176116c05761369992604052615369565b8054600160401b8110156116c05761567b91600182018155614077565b9190916156cf578051825460208301516fffffffffffffffffffffffffffffffff199091166001600160401b039290921691909117604091821b67ffffffffffffffff60401b161783556001910151910155565b634e487b7160e01b600052600060045260246000fd5b6001600160401b03600182015490604051926157008461361e565b81431684526004602085019183421683526040860194855201938454801561578f5760001981019081116110db576157389086614077565b50948386541684835116146000146157805750505183546fffffffffffffffff00000000000000001916911660401b67ffffffffffffffff60401b1617825560019051910155565b9250925050613699925061565e565b50925050506136999161565e56fec2542ff58c47f8c0922a043c4b21423ecd816167eeab1dabfb51d56508d90a66f502c7eda43df8a8ec352065360db3486f90ce32849cf8182983d7939bfd3626af8f9d0e884d3306a083e846741a0bc4d75908e2b0ec63b558219652ae4c1b90d81f085560db5c809c425a15f00e3f2904e4fa46d6e8672ff2e671ccd6d9a2318d1108e10bcb7c27dddfc02ed9d693a074039d026cf4ea4240b40f7d581ac802a264697066735822122059d7c656bc2c1993d1a37f9a0400d7b527fc66fd69165e1d2c4e3eb515b06ca564736f6c634300081700338d1108e10bcb7c27dddfc02ed9d693a074039d026cf4ea4240b40f7d581ac802",
  "linkReferences": {},
  "deployedLinkReferences": {}
}