{
  "_format": "hh-sol-artifact-1",
  "contractName": "TEMPL",
  "sourceName": "contracts/TEMPL.sol",
  "abi": [
    {
      "inputs": [
        {
          "internalType": "address",
          "name": "_priest",
          "type": "address"
        },
        {
          "internalType": "address",
          "name": "_protocolFeeRecipient",
          "type": "address"
        },
        {
          "internalType": "address",
          "name": "_token",
          "type": "address"
        },
        {
          "internalType": "uint256",
          "name": "_entryFee",
          "type": "uint256"
        }
      ],
      "stateMutability": "nonpayable",
      "type": "constructor"
    },
    {
      "inputs": [],
      "name": "ActiveProposalExists",
      "type": "error"
    },
    {
      "inputs": [],
      "name": "AlreadyExecuted",
      "type": "error"
    },
    {
      "inputs": [],
      "name": "AlreadyPurchased",
      "type": "error"
    },
    {
      "inputs": [],
      "name": "AmountZero",
      "type": "error"
    },
    {
      "inputs": [],
      "name": "CallDataRequired",
      "type": "error"
    },
    {
      "inputs": [],
      "name": "CallDataTooShort",
      "type": "error"
    },
    {
      "inputs": [],
      "name": "ContractPausedError",
      "type": "error"
    },
    {
      "inputs": [],
      "name": "DescriptionRequired",
      "type": "error"
    },
    {
      "inputs": [],
      "name": "EntryFeeTooSmall",
      "type": "error"
    },
    {
      "inputs": [],
      "name": "InsufficientBalance",
      "type": "error"
    },
    {
      "inputs": [],
      "name": "InsufficientPoolBalance",
      "type": "error"
    },
    {
      "inputs": [],
      "name": "InsufficientTreasuryBalance",
      "type": "error"
    },
    {
      "inputs": [],
      "name": "InvalidCallData",
      "type": "error"
    },
    {
      "inputs": [],
      "name": "InvalidEntryFee",
      "type": "error"
    },
    {
      "inputs": [],
      "name": "InvalidProposal",
      "type": "error"
    },
    {
      "inputs": [],
      "name": "InvalidRecipient",
      "type": "error"
    },
    {
      "inputs": [],
      "name": "InvalidSender",
      "type": "error"
    },
    {
      "inputs": [],
      "name": "JoinedAfterProposal",
      "type": "error"
    },
    {
      "inputs": [],
      "name": "LimitOutOfRange",
      "type": "error"
    },
    {
      "inputs": [],
      "name": "NoMembers",
      "type": "error"
    },
    {
      "inputs": [],
      "name": "NoRewardsToClaim",
      "type": "error"
    },
    {
      "inputs": [],
      "name": "NoTreasuryFunds",
      "type": "error"
    },
    {
      "inputs": [],
      "name": "NotDAO",
      "type": "error"
    },
    {
      "inputs": [],
      "name": "NotMember",
      "type": "error"
    },
    {
      "inputs": [],
      "name": "ProposalExecutionFailed",
      "type": "error"
    },
    {
      "inputs": [],
      "name": "ProposalNotPassed",
      "type": "error"
    },
    {
      "inputs": [],
      "name": "ReentrancyGuardReentrantCall",
      "type": "error"
    },
    {
      "inputs": [
        {
          "internalType": "address",
          "name": "token",
          "type": "address"
        }
      ],
      "name": "SafeERC20FailedOperation",
      "type": "error"
    },
    {
      "inputs": [],
      "name": "TitleRequired",
      "type": "error"
    },
    {
      "inputs": [],
      "name": "TokenChangeDisabled",
      "type": "error"
    },
    {
      "inputs": [],
      "name": "VotingEnded",
      "type": "error"
    },
    {
      "inputs": [],
      "name": "VotingNotEnded",
      "type": "error"
    },
    {
      "inputs": [],
      "name": "VotingPeriodTooLong",
      "type": "error"
    },
    {
      "inputs": [],
      "name": "VotingPeriodTooShort",
      "type": "error"
    },
    {
      "anonymous": false,
      "inputs": [
        {
          "indexed": true,
          "internalType": "address",
          "name": "purchaser",
          "type": "address"
        },
        {
          "indexed": false,
          "internalType": "uint256",
          "name": "totalAmount",
          "type": "uint256"
        },
        {
          "indexed": false,
          "internalType": "uint256",
          "name": "burnedAmount",
          "type": "uint256"
        },
        {
          "indexed": false,
          "internalType": "uint256",
          "name": "treasuryAmount",
          "type": "uint256"
        },
        {
          "indexed": false,
          "internalType": "uint256",
          "name": "memberPoolAmount",
          "type": "uint256"
        },
        {
          "indexed": false,
          "internalType": "uint256",
          "name": "protocolAmount",
          "type": "uint256"
        },
        {
          "indexed": false,
          "internalType": "uint256",
          "name": "timestamp",
          "type": "uint256"
        },
        {
          "indexed": false,
          "internalType": "uint256",
          "name": "blockNumber",
          "type": "uint256"
        },
        {
          "indexed": false,
          "internalType": "uint256",
          "name": "purchaseId",
          "type": "uint256"
        }
      ],
      "name": "AccessPurchased",
      "type": "event"
    },
    {
      "anonymous": false,
      "inputs": [
        {
          "indexed": true,
          "internalType": "address",
          "name": "token",
          "type": "address"
        },
        {
          "indexed": false,
          "internalType": "uint256",
          "name": "entryFee",
          "type": "uint256"
        }
      ],
      "name": "ConfigUpdated",
      "type": "event"
    },
    {
      "anonymous": false,
      "inputs": [
        {
          "indexed": false,
          "internalType": "bool",
          "name": "isPaused",
          "type": "bool"
        }
      ],
      "name": "ContractPaused",
      "type": "event"
    },
    {
      "anonymous": false,
      "inputs": [
        {
          "indexed": true,
          "internalType": "address",
          "name": "member",
          "type": "address"
        },
        {
          "indexed": false,
          "internalType": "uint256",
          "name": "amount",
          "type": "uint256"
        },
        {
          "indexed": false,
          "internalType": "uint256",
          "name": "timestamp",
          "type": "uint256"
        }
      ],
      "name": "MemberPoolClaimed",
      "type": "event"
    },
    {
      "anonymous": false,
      "inputs": [
        {
          "indexed": true,
          "internalType": "uint256",
          "name": "proposalId",
          "type": "uint256"
        },
        {
          "indexed": true,
          "internalType": "address",
          "name": "proposer",
          "type": "address"
        },
        {
          "indexed": false,
          "internalType": "string",
          "name": "title",
          "type": "string"
        },
        {
          "indexed": false,
          "internalType": "uint256",
          "name": "endTime",
          "type": "uint256"
        }
      ],
      "name": "ProposalCreated",
      "type": "event"
    },
    {
      "anonymous": false,
      "inputs": [
        {
          "indexed": true,
          "internalType": "uint256",
          "name": "proposalId",
          "type": "uint256"
        },
        {
          "indexed": false,
          "internalType": "bool",
          "name": "success",
          "type": "bool"
        },
        {
          "indexed": false,
          "internalType": "bytes",
          "name": "returnData",
          "type": "bytes"
        }
      ],
      "name": "ProposalExecuted",
      "type": "event"
    },
    {
      "anonymous": false,
      "inputs": [
        {
          "indexed": true,
          "internalType": "uint256",
          "name": "proposalId",
          "type": "uint256"
        },
        {
          "indexed": true,
          "internalType": "address",
          "name": "recipient",
          "type": "address"
        },
        {
          "indexed": false,
          "internalType": "uint256",
          "name": "amount",
          "type": "uint256"
        },
        {
          "indexed": false,
          "internalType": "string",
          "name": "description",
          "type": "string"
        }
      ],
      "name": "TreasuryAction",
      "type": "event"
    },
    {
      "anonymous": false,
      "inputs": [
        {
          "indexed": true,
          "internalType": "uint256",
          "name": "proposalId",
          "type": "uint256"
        },
        {
          "indexed": false,
          "internalType": "uint256",
          "name": "amount",
          "type": "uint256"
        },
        {
          "indexed": false,
          "internalType": "uint256",
          "name": "perMember",
          "type": "uint256"
        },
        {
          "indexed": false,
          "internalType": "uint256",
          "name": "remainder",
          "type": "uint256"
        }
      ],
      "name": "TreasuryDisbanded",
      "type": "event"
    },
    {
      "anonymous": false,
      "inputs": [
        {
          "indexed": true,
          "internalType": "uint256",
          "name": "proposalId",
          "type": "uint256"
        },
        {
          "indexed": true,
          "internalType": "address",
          "name": "voter",
          "type": "address"
        },
        {
          "indexed": false,
          "internalType": "bool",
          "name": "support",
          "type": "bool"
        },
        {
          "indexed": false,
          "internalType": "uint256",
          "name": "timestamp",
          "type": "uint256"
        }
      ],
      "name": "VoteCast",
      "type": "event"
    },
    {
      "inputs": [],
      "name": "DEFAULT_VOTING_PERIOD",
      "outputs": [
        {
          "internalType": "uint256",
          "name": "",
          "type": "uint256"
        }
      ],
      "stateMutability": "view",
      "type": "function"
    },
    {
      "inputs": [],
      "name": "MAX_VOTING_PERIOD",
      "outputs": [
        {
          "internalType": "uint256",
          "name": "",
          "type": "uint256"
        }
      ],
      "stateMutability": "view",
      "type": "function"
    },
    {
      "inputs": [],
      "name": "MIN_VOTING_PERIOD",
      "outputs": [
        {
          "internalType": "uint256",
          "name": "",
          "type": "uint256"
        }
      ],
      "stateMutability": "view",
      "type": "function"
    },
    {
      "inputs": [],
      "name": "accessToken",
      "outputs": [
        {
          "internalType": "address",
          "name": "",
          "type": "address"
        }
      ],
      "stateMutability": "view",
      "type": "function"
    },
    {
      "inputs": [
        {
          "internalType": "address",
          "name": "",
          "type": "address"
        }
      ],
      "name": "activeProposalId",
      "outputs": [
        {
          "internalType": "uint256",
          "name": "",
          "type": "uint256"
        }
      ],
      "stateMutability": "view",
      "type": "function"
    },
    {
      "inputs": [],
      "name": "claimMemberPool",
      "outputs": [],
      "stateMutability": "nonpayable",
      "type": "function"
    },
    {
      "inputs": [
        {
          "internalType": "string",
          "name": "_title",
          "type": "string"
        },
        {
          "internalType": "string",
          "name": "_description",
          "type": "string"
        },
        {
          "internalType": "bytes",
          "name": "_callData",
          "type": "bytes"
        },
        {
          "internalType": "uint256",
          "name": "_votingPeriod",
          "type": "uint256"
        }
      ],
      "name": "createProposal",
      "outputs": [
        {
          "internalType": "uint256",
          "name": "",
          "type": "uint256"
        }
      ],
      "stateMutability": "nonpayable",
      "type": "function"
    },
    {
      "inputs": [],
      "name": "cumulativeMemberRewards",
      "outputs": [
        {
          "internalType": "uint256",
          "name": "",
          "type": "uint256"
        }
      ],
      "stateMutability": "view",
      "type": "function"
    },
    {
      "inputs": [],
      "name": "disbandTreasuryDAO",
      "outputs": [],
      "stateMutability": "nonpayable",
      "type": "function"
    },
    {
      "inputs": [],
      "name": "entryFee",
      "outputs": [
        {
          "internalType": "uint256",
          "name": "",
          "type": "uint256"
        }
      ],
      "stateMutability": "view",
      "type": "function"
    },
    {
      "inputs": [
        {
          "internalType": "uint256",
          "name": "_proposalId",
          "type": "uint256"
        }
      ],
      "name": "executeProposal",
      "outputs": [],
      "stateMutability": "nonpayable",
      "type": "function"
    },
    {
      "inputs": [],
      "name": "getActiveProposals",
      "outputs": [
        {
          "internalType": "uint256[]",
          "name": "",
          "type": "uint256[]"
        }
      ],
      "stateMutability": "view",
      "type": "function"
    },
    {
      "inputs": [
        {
          "internalType": "uint256",
          "name": "offset",
          "type": "uint256"
        },
        {
          "internalType": "uint256",
          "name": "limit",
          "type": "uint256"
        }
      ],
      "name": "getActiveProposalsPaginated",
      "outputs": [
        {
          "internalType": "uint256[]",
          "name": "proposalIds",
          "type": "uint256[]"
        },
        {
          "internalType": "bool",
          "name": "hasMore",
          "type": "bool"
        }
      ],
      "stateMutability": "view",
      "type": "function"
    },
    {
      "inputs": [
        {
          "internalType": "address",
          "name": "member",
          "type": "address"
        }
      ],
      "name": "getClaimablePoolAmount",
      "outputs": [
        {
          "internalType": "uint256",
          "name": "",
          "type": "uint256"
        }
      ],
      "stateMutability": "view",
      "type": "function"
    },
    {
      "inputs": [],
      "name": "getConfig",
      "outputs": [
        {
          "internalType": "address",
          "name": "token",
          "type": "address"
        },
        {
          "internalType": "uint256",
          "name": "fee",
          "type": "uint256"
        },
        {
          "internalType": "bool",
          "name": "isPaused",
          "type": "bool"
        },
        {
          "internalType": "uint256",
          "name": "purchases",
          "type": "uint256"
        },
        {
          "internalType": "uint256",
          "name": "treasury",
          "type": "uint256"
        },
        {
          "internalType": "uint256",
          "name": "pool",
          "type": "uint256"
        }
      ],
      "stateMutability": "view",
      "type": "function"
    },
    {
      "inputs": [],
      "name": "getMemberCount",
      "outputs": [
        {
          "internalType": "uint256",
          "name": "",
          "type": "uint256"
        }
      ],
      "stateMutability": "view",
      "type": "function"
    },
    {
      "inputs": [
        {
          "internalType": "uint256",
          "name": "_proposalId",
          "type": "uint256"
        }
      ],
      "name": "getProposal",
      "outputs": [
        {
          "internalType": "address",
          "name": "proposer",
          "type": "address"
        },
        {
          "internalType": "string",
          "name": "title",
          "type": "string"
        },
        {
          "internalType": "string",
          "name": "description",
          "type": "string"
        },
        {
          "internalType": "uint256",
          "name": "yesVotes",
          "type": "uint256"
        },
        {
          "internalType": "uint256",
          "name": "noVotes",
          "type": "uint256"
        },
        {
          "internalType": "uint256",
          "name": "endTime",
          "type": "uint256"
        },
        {
          "internalType": "bool",
          "name": "executed",
          "type": "bool"
        },
        {
          "internalType": "bool",
          "name": "passed",
          "type": "bool"
        }
      ],
      "stateMutability": "view",
      "type": "function"
    },
    {
      "inputs": [
        {
          "internalType": "address",
          "name": "user",
          "type": "address"
        }
      ],
      "name": "getPurchaseDetails",
      "outputs": [
        {
          "internalType": "bool",
          "name": "purchased",
          "type": "bool"
        },
        {
          "internalType": "uint256",
          "name": "timestamp",
          "type": "uint256"
        },
        {
          "internalType": "uint256",
          "name": "blockNum",
          "type": "uint256"
        }
      ],
      "stateMutability": "view",
      "type": "function"
    },
    {
      "inputs": [],
      "name": "getTreasuryInfo",
      "outputs": [
        {
          "internalType": "uint256",
          "name": "treasury",
          "type": "uint256"
        },
        {
          "internalType": "uint256",
          "name": "memberPool",
          "type": "uint256"
        },
        {
          "internalType": "uint256",
          "name": "totalReceived",
          "type": "uint256"
        },
        {
          "internalType": "uint256",
          "name": "totalBurnedAmount",
          "type": "uint256"
        },
        {
          "internalType": "uint256",
          "name": "totalProtocolFees",
          "type": "uint256"
        },
        {
          "internalType": "address",
          "name": "protocolAddress",
          "type": "address"
        }
      ],
      "stateMutability": "view",
      "type": "function"
    },
    {
      "inputs": [
        {
          "internalType": "address",
          "name": "voter",
          "type": "address"
        }
      ],
      "name": "getVoteWeight",
      "outputs": [
        {
          "internalType": "uint256",
          "name": "",
          "type": "uint256"
        }
      ],
      "stateMutability": "view",
      "type": "function"
    },
    {
      "inputs": [
        {
          "internalType": "address",
          "name": "user",
          "type": "address"
        }
      ],
      "name": "hasAccess",
      "outputs": [
        {
          "internalType": "bool",
          "name": "",
          "type": "bool"
        }
      ],
      "stateMutability": "view",
      "type": "function"
    },
    {
      "inputs": [
        {
          "internalType": "address",
          "name": "",
          "type": "address"
        }
      ],
      "name": "hasActiveProposal",
      "outputs": [
        {
          "internalType": "bool",
          "name": "",
          "type": "bool"
        }
      ],
      "stateMutability": "view",
      "type": "function"
    },
    {
      "inputs": [
        {
          "internalType": "uint256",
          "name": "_proposalId",
          "type": "uint256"
        },
        {
          "internalType": "address",
          "name": "_voter",
          "type": "address"
        }
      ],
      "name": "hasVoted",
      "outputs": [
        {
          "internalType": "bool",
          "name": "voted",
          "type": "bool"
        },
        {
          "internalType": "bool",
          "name": "support",
          "type": "bool"
        }
      ],
      "stateMutability": "view",
      "type": "function"
    },
    {
      "inputs": [
        {
          "internalType": "address",
          "name": "",
          "type": "address"
        }
      ],
      "name": "memberIndex",
      "outputs": [
        {
          "internalType": "uint256",
          "name": "",
          "type": "uint256"
        }
      ],
      "stateMutability": "view",
      "type": "function"
    },
    {
      "inputs": [
        {
          "internalType": "uint256",
          "name": "",
          "type": "uint256"
        }
      ],
      "name": "memberList",
      "outputs": [
        {
          "internalType": "address",
          "name": "",
          "type": "address"
        }
      ],
      "stateMutability": "view",
      "type": "function"
    },
    {
      "inputs": [],
      "name": "memberPoolBalance",
      "outputs": [
        {
          "internalType": "uint256",
          "name": "",
          "type": "uint256"
        }
      ],
      "stateMutability": "view",
      "type": "function"
    },
    {
      "inputs": [
        {
          "internalType": "address",
          "name": "",
          "type": "address"
        }
      ],
      "name": "memberPoolClaims",
      "outputs": [
        {
          "internalType": "uint256",
          "name": "",
          "type": "uint256"
        }
      ],
      "stateMutability": "view",
      "type": "function"
    },
    {
      "inputs": [],
      "name": "memberRewardRemainder",
      "outputs": [
        {
          "internalType": "uint256",
          "name": "",
          "type": "uint256"
        }
      ],
      "stateMutability": "view",
      "type": "function"
    },
    {
      "inputs": [
        {
          "internalType": "address",
          "name": "",
          "type": "address"
        }
      ],
      "name": "members",
      "outputs": [
        {
          "internalType": "bool",
          "name": "purchased",
          "type": "bool"
        },
        {
          "internalType": "uint256",
          "name": "timestamp",
          "type": "uint256"
        },
        {
          "internalType": "uint256",
          "name": "block",
          "type": "uint256"
        },
        {
          "internalType": "uint256",
          "name": "rewardSnapshot",
          "type": "uint256"
        }
      ],
      "stateMutability": "view",
      "type": "function"
    },
    {
      "inputs": [],
      "name": "paused",
      "outputs": [
        {
          "internalType": "bool",
          "name": "",
          "type": "bool"
        }
      ],
      "stateMutability": "view",
      "type": "function"
    },
    {
      "inputs": [],
      "name": "priest",
      "outputs": [
        {
          "internalType": "address",
          "name": "",
          "type": "address"
        }
      ],
      "stateMutability": "view",
      "type": "function"
    },
    {
      "inputs": [],
      "name": "proposalCount",
      "outputs": [
        {
          "internalType": "uint256",
          "name": "",
          "type": "uint256"
        }
      ],
      "stateMutability": "view",
      "type": "function"
    },
    {
      "inputs": [
        {
          "internalType": "uint256",
          "name": "",
          "type": "uint256"
        }
      ],
      "name": "proposals",
      "outputs": [
        {
          "internalType": "uint256",
          "name": "id",
          "type": "uint256"
        },
        {
          "internalType": "address",
          "name": "proposer",
          "type": "address"
        },
        {
          "internalType": "string",
          "name": "title",
          "type": "string"
        },
        {
          "internalType": "string",
          "name": "description",
          "type": "string"
        },
        {
          "internalType": "bytes",
          "name": "callData",
          "type": "bytes"
        },
        {
          "internalType": "uint256",
          "name": "yesVotes",
          "type": "uint256"
        },
        {
          "internalType": "uint256",
          "name": "noVotes",
          "type": "uint256"
        },
        {
          "internalType": "uint256",
          "name": "endTime",
          "type": "uint256"
        },
        {
          "internalType": "uint256",
          "name": "createdAt",
          "type": "uint256"
        },
        {
          "internalType": "uint256",
          "name": "eligibleVoters",
          "type": "uint256"
        },
        {
          "internalType": "bool",
          "name": "executed",
          "type": "bool"
        }
      ],
      "stateMutability": "view",
      "type": "function"
    },
    {
      "inputs": [],
      "name": "protocolFeeRecipient",
      "outputs": [
        {
          "internalType": "address",
          "name": "",
          "type": "address"
        }
      ],
      "stateMutability": "view",
      "type": "function"
    },
    {
      "inputs": [],
      "name": "purchaseAccess",
      "outputs": [],
      "stateMutability": "nonpayable",
      "type": "function"
    },
    {
      "inputs": [
        {
          "internalType": "bool",
          "name": "_paused",
          "type": "bool"
        }
      ],
      "name": "setPausedDAO",
      "outputs": [],
      "stateMutability": "nonpayable",
      "type": "function"
    },
    {
      "inputs": [],
      "name": "totalBurned",
      "outputs": [
        {
          "internalType": "uint256",
          "name": "",
          "type": "uint256"
        }
      ],
      "stateMutability": "view",
      "type": "function"
    },
    {
      "inputs": [],
      "name": "totalPurchases",
      "outputs": [
        {
          "internalType": "uint256",
          "name": "",
          "type": "uint256"
        }
      ],
      "stateMutability": "view",
      "type": "function"
    },
    {
      "inputs": [],
      "name": "totalToMemberPool",
      "outputs": [
        {
          "internalType": "uint256",
          "name": "",
          "type": "uint256"
        }
      ],
      "stateMutability": "view",
      "type": "function"
    },
    {
      "inputs": [],
      "name": "totalToProtocol",
      "outputs": [
        {
          "internalType": "uint256",
          "name": "",
          "type": "uint256"
        }
      ],
      "stateMutability": "view",
      "type": "function"
    },
    {
      "inputs": [],
      "name": "totalToTreasury",
      "outputs": [
        {
          "internalType": "uint256",
          "name": "",
          "type": "uint256"
        }
      ],
      "stateMutability": "view",
      "type": "function"
    },
    {
      "inputs": [],
      "name": "treasuryBalance",
      "outputs": [
        {
          "internalType": "uint256",
          "name": "",
          "type": "uint256"
        }
      ],
      "stateMutability": "view",
      "type": "function"
    },
    {
      "inputs": [
        {
          "internalType": "address",
          "name": "_token",
          "type": "address"
        },
        {
          "internalType": "uint256",
          "name": "_entryFee",
          "type": "uint256"
        }
      ],
      "name": "updateConfigDAO",
      "outputs": [],
      "stateMutability": "nonpayable",
      "type": "function"
    },
    {
      "inputs": [
        {
          "internalType": "uint256",
          "name": "_proposalId",
          "type": "uint256"
        },
        {
          "internalType": "bool",
          "name": "_support",
          "type": "bool"
        }
      ],
      "name": "vote",
      "outputs": [],
      "stateMutability": "nonpayable",
      "type": "function"
    },
    {
      "inputs": [
        {
          "internalType": "address",
          "name": "recipient",
          "type": "address"
        },
        {
          "internalType": "string",
          "name": "reason",
          "type": "string"
        }
      ],
      "name": "withdrawAllTreasuryDAO",
      "outputs": [],
      "stateMutability": "nonpayable",
      "type": "function"
    },
    {
      "inputs": [
        {
          "internalType": "address",
          "name": "recipient",
          "type": "address"
        },
        {
          "internalType": "uint256",
          "name": "amount",
          "type": "uint256"
        },
        {
          "internalType": "string",
          "name": "reason",
          "type": "string"
        }
      ],
      "name": "withdrawTreasuryDAO",
      "outputs": [],
      "stateMutability": "nonpayable",
      "type": "function"
    },
    {
      "stateMutability": "payable",
      "type": "receive"
    }
  ],
  "bytecode": "0x60c06040526000196010553480156200001757600080fd5b5060405162002f3c38038062002f3c8339810160408190526200003a916200015a565b60016000556001600160a01b03841615806200005d57506001600160a01b038316155b806200007057506001600160a01b038216155b156200008f57604051634e46966960e11b815260040160405180910390fd5b80600003620000b1576040516365e52d5160e11b815260040160405180910390fd5b600a811015620000d457604051635eee050360e11b815260040160405180910390fd5b620000e1600a82620001ac565b156200010057604051636fe6a4c960e01b815260040160405180910390fd5b6001600160a01b0393841660805291831660a052600180546001600160a01b03191691909316179091556002556005805460ff19169055620001cf565b80516001600160a01b03811681146200015557600080fd5b919050565b600080600080608085870312156200017157600080fd5b6200017c856200013d565b93506200018c602086016200013d565b92506200019c604086016200013d565b6060959095015193969295505050565b600082620001ca57634e487b7160e01b600052601260045260246000fd5b500690565b60805160a051612d3962000203600039600081816105a5015281816107eb0152611c04015260006107950152612d396000f3fe6080604052600436106102815760003560e01c80638f78bbc41161014f578063bebc8fc0116100c1578063d3493ced1161007a578063d3493ced146108f4578063d89135cd14610914578063da35c6641461092a578063e243c5fb14610940578063f7158b2a14610960578063ffafe4ad1461097557600080fd5b8063bebc8fc014610783578063c1b57edb146107b7578063c2939471146107cd578063c3f909d414610840578063c7f758a8146108a0578063c9d27afe146108d457600080fd5b8063a64e024a11610113578063a64e024a146106e9578063a730117e14610700578063a81bbe3c14610720578063aedfe53f1461039b578063b307fc6d1461074d578063bdb75b341461076d57600080fd5b80638f78bbc41461064257806395a078e814610670578063997072f7146106a957806399e288d8146106be578063a51a46b9146106d357600080fd5b8063524ddc23116101f35780635fa7ddf0116101ac5780635fa7ddf01461051957806364653f291461052f57806364df049e14610593578063653724d6146105df5780636898b19c146105ff5780636ad185501461061557600080fd5b8063524ddc231461046157806354403801146104815780635584c4f9146104a15780635962a941146104c357806359c266ff146104d95780635c975abb146104ef57600080fd5b8063215809ca11610245578063215809ca1461039b57806328337886146103b2578063313dab20146103c757806332d084bb146103dd5780633dd35279146103fd578063438596321461042a57600080fd5b8063013cf08b1461028d578063072ea61c146102cd57806308ae4b0c146102f15780630d61b519146103595780631808022a1461037b57600080fd5b3661028857005b600080fd5b34801561029957600080fd5b506102ad6102a83660046125a2565b6109a5565b6040516102c49b9a9998979695949392919061260b565b60405180910390f35b3480156102d957600080fd5b506102e360025481565b6040519081526020016102c4565b3480156102fd57600080fd5b5061033761030c3660046126b5565b600660205260009081526040902080546001820154600283015460039093015460ff90921692909184565b60408051941515855260208501939093529183015260608201526080016102c4565b34801561036557600080fd5b506103796103743660046125a2565b610ba0565b005b34801561038757600080fd5b506102e36103963660046126b5565b610dc7565b3480156103a757600080fd5b506102e362093a8081565b3480156103be57600080fd5b50610379610e2e565b3480156103d357600080fd5b506102e360035481565b3480156103e957600080fd5b506102e36103f8366004612783565b610f73565b34801561040957600080fd5b506102e36104183660046126b5565b60086020526000908152604090205481565b34801561043657600080fd5b5061044a610445366004612827565b61127d565b6040805192151583529015156020830152016102c4565b34801561046d57600080fd5b5061037961047c366004612853565b6112e6565b34801561048d57600080fd5b5061037961049c36600461287d565b6113ea565b3480156104ad57600080fd5b506104b6611514565b6040516102c49190612910565b3480156104cf57600080fd5b506102e360115481565b3480156104e557600080fd5b506102e360155481565b3480156104fb57600080fd5b506005546105099060ff1681565b60405190151581526020016102c4565b34801561052557600080fd5b506102e360045481565b34801561053b57600080fd5b5061057661054a3660046126b5565b6001600160a01b031660009081526006602052604090208054600182015460029092015460ff90911692565b6040805193151584526020840192909252908201526060016102c4565b34801561059f57600080fd5b506105c77f000000000000000000000000000000000000000000000000000000000000000081565b6040516001600160a01b0390911681526020016102c4565b3480156105eb57600080fd5b506103796105fa366004612933565b61163a565b34801561060b57600080fd5b506102e3600a5481565b34801561062157600080fd5b506102e36106303660046126b5565b600e6020526000908152604090205481565b34801561064e57600080fd5b5061066261065d36600461294e565b6116a1565b6040516102c4929190612970565b34801561067c57600080fd5b5061050961068b3660046126b5565b6001600160a01b031660009081526006602052604090205460ff1690565b3480156106b557600080fd5b506007546102e3565b3480156106ca57600080fd5b506103796118d2565b3480156106df57600080fd5b506102e3600b5481565b3480156106f557600080fd5b506102e362278d0081565b34801561070c57600080fd5b506102e361071b3660046126b5565b611cba565b34801561072c57600080fd5b506102e361073b3660046126b5565b60096020526000908152604090205481565b34801561075957600080fd5b506105c76107683660046125a2565b611cea565b34801561077957600080fd5b506102e360145481565b34801561078f57600080fd5b506105c77f000000000000000000000000000000000000000000000000000000000000000081565b3480156107c357600080fd5b506102e360135481565b3480156107d957600080fd5b506003546004546013546012546015547f000000000000000000000000000000000000000000000000000000000000000060408051968752602087019590955293850192909252606084015260808301526001600160a01b031660a082015260c0016102c4565b34801561084c57600080fd5b50600154600254600554601154600354600454604080516001600160a01b039097168752602087019590955260ff9093161515938501939093526060840152608083019190915260a082015260c0016102c4565b3480156108ac57600080fd5b506108c06108bb3660046125a2565b611d14565b6040516102c4989796959493929190612994565b3480156108e057600080fd5b506103796108ef3660046129fd565b611edb565b34801561090057600080fd5b5061037961090f366004612a20565b6120d4565b34801561092057600080fd5b506102e360125481565b34801561093657600080fd5b506102e3600c5481565b34801561094c57600080fd5b506001546105c7906001600160a01b031681565b34801561096c57600080fd5b506103796121ca565b34801561098157600080fd5b506105096109903660046126b5565b600f6020526000908152604090205460ff1681565b600d6020526000908152604090208054600182015460028301805492936001600160a01b03909216926109d790612a6e565b80601f0160208091040260200160405190810160405280929190818152602001828054610a0390612a6e565b8015610a505780601f10610a2557610100808354040283529160200191610a50565b820191906000526020600020905b815481529060010190602001808311610a3357829003601f168201915b505050505090806003018054610a6590612a6e565b80601f0160208091040260200160405190810160405280929190818152602001828054610a9190612a6e565b8015610ade5780601f10610ab357610100808354040283529160200191610ade565b820191906000526020600020905b815481529060010190602001808311610ac157829003601f168201915b505050505090806004018054610af390612a6e565b80601f0160208091040260200160405190810160405280929190818152602001828054610b1f90612a6e565b8015610b6c5780601f10610b4157610100808354040283529160200191610b6c565b820191906000526020600020905b815481529060010190602001808311610b4f57829003601f168201915b50505060058401546006850154600786015460088701546009880154600a9098015496979396929550909350919060ff168b565b610ba8612313565b600c548110610bca57604051631dc0650160e31b815260040160405180910390fd5b6000818152600d602052604090206007810154421015610bfd57604051633fc30bd160e11b815260040160405180910390fd5b600a81015460ff1615610c2357604051630dc1019760e01b815260040160405180910390fd5b8060060154816005015411610c4b5760405163c8c93ba360e01b815260040160405180910390fd5b600a8101805460ff191660019081179091558101546001600160a01b03166000818152600f602052604090205460ff168015610c9e57506001600160a01b0381166000908152600e602052604090205483145b15610ccf576001600160a01b0381166000908152600f60209081526040808320805460ff19169055600e9091528120555b610cd883601055565b6000610d6f836004018054610cec90612a6e565b80601f0160208091040260200160405190810160405280929190818152602001828054610d1890612a6e565b8015610d655780601f10610d3a57610100808354040283529160200191610d65565b820191906000526020600020905b815481529060010190602001808311610d4857829003601f168201915b505050505061233d565b9050610d7c600019601055565b837faf8f9d0e884d3306a083e846741a0bc4d75908e2b0ec63b558219652ae4c1b90600183604051610daf929190612aa8565b60405180910390a2505050610dc46001600055565b50565b6001600160a01b03811660009081526006602052604081205460ff16610def57506000919050565b600a546001600160a01b038316600090815260066020526040902060030154808211610e1c576000610e26565b610e268183612ad9565b949350505050565b333014610e4e576040516327568d2f60e11b815260040160405180910390fd5b6003546000819003610e7357604051631ab9ebab60e01b815260040160405180910390fd5b6007546000819003610e9857604051630292d7c360e51b815260040160405180910390fd5b601054600c548110610ebd57604051631dc0650160e31b815260040160405180910390fd5b60006003819055508260046000828254610ed79190612aec565b9091555060009050610ee98385612b15565b90506000610ef78486612b29565b905081600a6000828254610f0b9190612aec565b9250508190555080600b6000828254610f249190612aec565b9091555050604080518681526020810184905290810182905283907f8b887c99365b16ec127c895b4fbfab96273b2a79191ed7b42b9724cd8a695ae99060600160405180910390a25050505050565b3360009081526006602052604081205460ff16610fa35760405163148fe22160e11b815260040160405180910390fd5b8451600003610fc5576040516319d546f160e31b815260040160405180910390fd5b8351600003610fe757604051633e61080d60e01b815260040160405180910390fd5b82516000036110095760405163066e738d60e01b815260040160405180910390fd5b60048351101561102c57604051632d2b93ff60e01b815260040160405180910390fd5b6020830151600061103c82612408565b90508061105c57604051631c49f4d160e01b815260040160405180910390fd5b336000908152600f602052604090205460ff16156110ed57336000908152600e6020908152604080832054808452600d909252909120600a81015460ff161580156110aa5750806007015442105b156110c85760405163792c310960e11b815260040160405180910390fd5b336000908152600f60209081526040808320805460ff19169055600e90915281205550505b8360008190036110fd575062093a805b62093a80811015611121576040516331806aeb60e21b815260040160405180910390fd5b62278d008111156111455760405163eeeb962360e01b815260040160405180910390fd5b600c80546000918261115683612b3d565b909155506000818152600d602052604090208181556001810180546001600160a01b03191633179055909150600281016111908b82612ba6565b506003810161119f8a82612ba6565b50600481016111ae8982612ba6565b506111b98342612aec565b6007808301918255426008840155546009830155600a8201805460ff19908116909155336000818152600b850160209081526040808320805486166001908117909155600c8801835281842080548716821790556005880181905560068801849055600f8352818420805490961617909455600e90528290208590559154905184917f98120a6aaa04295520ab4e01c6c1235dd316e822cc9ff31db7b3f197366d18bd91611268918f91612c66565b60405180910390a35098975050505050505050565b600080600c5484106112a257604051631dc0650160e31b815260040160405180910390fd5b50506000828152600d602090815260408083206001600160a01b0385168452600b8101835281842054600c9091019092529091205460ff91821691165b9250929050565b333014611306576040516327568d2f60e11b815260040160405180910390fd5b6001600160a01b0382161580159061132c57506001546001600160a01b03838116911614155b1561134a5760405163b078ee9d60e01b815260040160405180910390fd5b80156113a157600a81101561137257604051635eee050360e11b815260040160405180910390fd5b61137d600a82612b29565b1561139b57604051636fe6a4c960e01b815260040160405180910390fd5b60028190555b6001546002546040519081526001600160a01b03909116907faf8839d80c9b3bbf95c97465eb8c8348db4098f5c15af186c3b425b1129981179060200160405180910390a25050565b33301461140a576040516327568d2f60e11b815260040160405180910390fd5b6001600160a01b03831661143157604051634e46966960e11b815260040160405180910390fd5b81600003611452576040516365e52d5160e11b815260040160405180910390fd5b60035482111561147557604051631c7b597b60e11b815260040160405180910390fd5b601054600c54811061149a57604051631dc0650160e31b815260040160405180910390fd5b82600360008282546114ac9190612ad9565b92505081905550836001600160a01b0316817f1ba011ee074f0e08cc727335f32d75fb7ee71dc0a1e13bb9473e5650b0afd1a385856040516114ef929190612c88565b60405180910390a360015461150e906001600160a01b03168585612490565b50505050565b60606000805b600c54811015611571576000818152600d60205260409020600701544210801561155657506000818152600d60205260409020600a015460ff16155b15611569578161156581612b3d565b9250505b60010161151a565b5060008167ffffffffffffffff81111561158d5761158d6126d7565b6040519080825280602002602001820160405280156115b6578160200160208202803683370190505b5090506000805b600c54811015611631576000818152600d6020526040902060070154421080156115f957506000818152600d60205260409020600a015460ff16155b156116295780838361160a81612b3d565b94508151811061161c5761161c612ca1565b6020026020010181815250505b6001016115bd565b50909392505050565b33301461165a576040516327568d2f60e11b815260040160405180910390fd5b6005805460ff19168215159081179091556040519081527f752d7e161ff5146f80e3820893176eb40532811e5e20400dfdde57455213706a9060200160405180910390a150565b606060008215806116b25750606483115b156116d0576040516381f396b760e01b815260040160405180910390fd5b600c5484106116f157505060408051600080825260208201909252906112df565b60008367ffffffffffffffff81111561170c5761170c6126d7565b604051908082528060200260200182016040528015611735578160200160208202803683370190505b509050600085805b600c548110801561174d57508683105b156117d3576000818152600d60205260409020600701544210801561178457506000818152600d60205260409020600a015460ff16155b156117b45780848461179581612b3d565b9550815181106117a7576117a7612ca1565b6020026020010181815250505b6117bf816001612aec565b9150806117cb81612b3d565b91505061173d565b5060009350600c5481101561183857805b600c54811015611836576000818152600d60205260409020600701544210801561182057506000818152600d60205260409020600a015460ff16155b1561182e5760019450611836565b6001016117e4565b505b8167ffffffffffffffff811115611851576118516126d7565b60405190808252806020026020018201604052801561187a578160200160208202803683370190505b50945060005b828110156118c75783818151811061189a5761189a612ca1565b60200260200101518682815181106118b4576118b4612ca1565b6020908102919091010152600101611880565b505050509250929050565b60055460ff16156118f657604051630eceade960e31b815260040160405180910390fd5b30330361191657604051636edaef2f60e11b815260040160405180910390fd5b61191e612313565b336000908152600660205260409020805460ff161561195057604051630cd9ed5560e21b815260040160405180910390fd5b60006064600254601e6119639190612cb7565b61196d9190612b15565b905060006064600254600a6119829190612cb7565b61198c9190612b15565b6002546001546040516370a0823160e01b815233600482015292935090916001600160a01b03909116906370a0823190602401602060405180830381865afa1580156119dc573d6000803e3d6000fd5b505050506040513d601f19601f82011682018060405250810190611a009190612cce565b1015611a1f57604051631e9acf1760e31b815260040160405180910390fd5b825460ff19166001908117845542848201554360028501556007805433600081815260086020526040812083905593820183559183527fa66cc928b5edb82af9bd49922954155ab7b0942694bea4ce44661d9a8736c6880180546001600160a01b03191690911790556011805491611a9683612b3d565b909155505060075460011015611b11576000600b5483611ab69190612aec565b600754909150600090611acb90600190612ad9565b611ad59083612b15565b600754909150611ae790600190612ad9565b611af19083612b29565b600b8190555080600a6000828254611b099190612aec565b909155505050505b600a5483600301819055508160036000828254611b2e9190612aec565b925050819055508160046000828254611b479190612aec565b925050819055508160126000828254611b609190612aec565b925050819055508160136000828254611b799190612aec565b925050819055508160146000828254611b929190612aec565b925050819055508060156000828254611bab9190612aec565b90915550506001546001600160a01b0316611bca813361dead866124f4565b611bdf6001600160a01b0382163330866124f4565b611bf46001600160a01b0382163330866124f4565b611c296001600160a01b038216337f0000000000000000000000000000000000000000000000000000000000000000856124f4565b336001600160a01b03167fe6d1c0e418a42a777d49c66571075fc47bc1d92e7f506007ddde08d1ff182bbc6002548586878742436001601154611c6c9190612ad9565b604080519889526020890197909752958701949094526060860192909252608085015260a084015260c083015260e08201526101000160405180910390a250505050611cb86001600055565b565b6001600160a01b03811660009081526006602052604081205460ff16611ce257506000919050565b506001919050565b60078181548110611cfa57600080fd5b6000918252602090912001546001600160a01b0316905081565b60006060806000806000806000600c548910611d4357604051631dc0650160e31b815260040160405180910390fd5b6000898152600d6020526040902060078101544210801590611d6c575080600601548160050154115b6001820154600583015460068401546007850154600a8601546002870180549698506001600160a01b0390951695600388019493929160ff169089908790611db390612a6e565b80601f0160208091040260200160405190810160405280929190818152602001828054611ddf90612a6e565b8015611e2c5780601f10611e0157610100808354040283529160200191611e2c565b820191906000526020600020905b815481529060010190602001808311611e0f57829003601f168201915b50505050509650858054611e3f90612a6e565b80601f0160208091040260200160405190810160405280929190818152602001828054611e6b90612a6e565b8015611eb85780601f10611e8d57610100808354040283529160200191611eb8565b820191906000526020600020905b815481529060010190602001808311611e9b57829003601f168201915b505050505095509850985098509850985098509850985050919395975091939597565b3360009081526006602052604090205460ff16611f0b5760405163148fe22160e11b815260040160405180910390fd5b600c548210611f2d57604051631dc0650160e31b815260040160405180910390fd5b6000828152600d6020526040902060078101544210611f5f57604051637a19ed0560e01b815260040160405180910390fd5b60088101543360009081526006602052604090206001015410611f955760405163f078ca7360e01b815260040160405180910390fd5b336000908152600b8201602090815260408083208054600c86019093529220805460ff198084166001179094558154861515941693909317905560ff908116911681612016578315612001576001836005016000828254611ff69190612aec565b9091555061208f9050565b6001836006016000828254611ff69190612aec565b8315158115151461208f57801561205857600183600501600082825461203c9190612ad9565b925050819055506001836006016000828254611ff69190612aec565b600183600601600082825461206d9190612ad9565b9250508190555060018360050160008282546120899190612aec565b90915550505b604080518515158152426020820152339187917fcbdf6214089cba887ecbf35a0b6a734589959c9763342c756bb2a80ca2bc9f6e910160405180910390a35050505050565b3330146120f4576040516327568d2f60e11b815260040160405180910390fd5b6001600160a01b03821661211b57604051634e46966960e11b815260040160405180910390fd5b60035460000361213e57604051631ab9ebab60e01b815260040160405180910390fd5b601054600c54811061216357604051631dc0650160e31b815260040160405180910390fd5b6003805460009091556040516001600160a01b0385169083907f1ba011ee074f0e08cc727335f32d75fb7ee71dc0a1e13bb9473e5650b0afd1a3906121ab9085908890612c88565b60405180910390a360015461150e906001600160a01b03168583612490565b3360009081526006602052604090205460ff166121fa5760405163148fe22160e11b815260040160405180910390fd5b612202612313565b600061220d33610dc7565b905080600003612230576040516373380d9960e01b815260040160405180910390fd5b6000600b546004546122429190612ad9565b9050818110156122655760405163bc6072f160e01b815260040160405180910390fd5b600a5433600090815260066020908152604080832060030193909355600990529081208054849290612298908490612aec565b9250508190555081600460008282546122b19190612ad9565b90915550506001546122cd906001600160a01b03163384612490565b6040805183815242602082015233917fc4e740509dbfae3377bc9925dd7bcc8aaba69cd730316216d76b2d24725c6366910160405180910390a25050611cb86001600055565b60026000540361233657604051633ee5aeb560e01b815260040160405180910390fd5b6002600055565b6020810151606090600061235082612408565b90508061237057604051631c49f4d160e01b815260040160405180910390fd5b600080306001600160a01b03168660405161238b9190612ce7565b6000604051808303816000865af19150503d80600081146123c8576040519150601f19603f3d011682016040523d82523d6000602084013e6123cd565b606091505b5091509150816123ff578051156123e657805160208201fd5b6040516331d436c760e01b815260040160405180910390fd5b95945050505050565b60006001600160e01b0319821663329b926b60e11b148061243957506001600160e01b0319821663524ddc2360e01b145b8061245457506001600160e01b03198216635440380160e01b145b8061246f57506001600160e01b0319821663d3493ced60e01b145b8061248a57506001600160e01b03198216631419bc4360e11b145b92915050565b6040516001600160a01b038381166024830152604482018390526124ef91859182169063a9059cbb906064015b604051602081830303815290604052915060e01b6020820180516001600160e01b03838183161783525050505061252d565b505050565b6040516001600160a01b03848116602483015283811660448301526064820183905261150e9186918216906323b872dd906084016124bd565b600080602060008451602086016000885af180612550576040513d6000823e3d81fd5b50506000513d91508115612568578060011415612575565b6001600160a01b0384163b155b1561150e57604051635274afe760e01b81526001600160a01b038516600482015260240160405180910390fd5b6000602082840312156125b457600080fd5b5035919050565b60005b838110156125d65781810151838201526020016125be565b50506000910152565b600081518084526125f78160208601602086016125bb565b601f01601f19169290920160200192915050565b8b81526001600160a01b038b166020820152610160604082018190526000906126368382018d6125df565b9050828103606084015261264a818c6125df565b9050828103608084015261265e818b6125df565b60a0840199909952505060c081019590955260e085019390935261010084019190915261012083015215156101409091015295945050505050565b80356001600160a01b03811681146126b057600080fd5b919050565b6000602082840312156126c757600080fd5b6126d082612699565b9392505050565b634e487b7160e01b600052604160045260246000fd5b600067ffffffffffffffff80841115612708576127086126d7565b604051601f8501601f19908116603f01168101908282118183101715612730576127306126d7565b8160405280935085815286868601111561274957600080fd5b858560208301376000602087830101525050509392505050565b600082601f83011261277457600080fd5b6126d0838335602085016126ed565b6000806000806080858703121561279957600080fd5b843567ffffffffffffffff808211156127b157600080fd5b6127bd88838901612763565b955060208701359150808211156127d357600080fd5b6127df88838901612763565b945060408701359150808211156127f557600080fd5b508501601f8101871361280757600080fd5b612816878235602084016126ed565b949793965093946060013593505050565b6000806040838503121561283a57600080fd5b8235915061284a60208401612699565b90509250929050565b6000806040838503121561286657600080fd5b61286f83612699565b946020939093013593505050565b60008060006060848603121561289257600080fd5b61289b84612699565b925060208401359150604084013567ffffffffffffffff8111156128be57600080fd5b6128ca86828701612763565b9150509250925092565b60008151808452602080850194506020840160005b83811015612905578151875295820195908201906001016128e9565b509495945050505050565b6020815260006126d060208301846128d4565b803580151581146126b057600080fd5b60006020828403121561294557600080fd5b6126d082612923565b6000806040838503121561296157600080fd5b50508035926020909101359150565b60408152600061298360408301856128d4565b905082151560208301529392505050565b6001600160a01b0389168152610100602082018190526000906129b98382018b6125df565b905082810360408401526129cd818a6125df565b60608401989098525050608081019490945260a0840192909252151560c0830152151560e0909101529392505050565b60008060408385031215612a1057600080fd5b8235915061284a60208401612923565b60008060408385031215612a3357600080fd5b612a3c83612699565b9150602083013567ffffffffffffffff811115612a5857600080fd5b612a6485828601612763565b9150509250929050565b600181811c90821680612a8257607f821691505b602082108103612aa257634e487b7160e01b600052602260045260246000fd5b50919050565b8215158152604060208201526000610e2660408301846125df565b634e487b7160e01b600052601160045260246000fd5b8181038181111561248a5761248a612ac3565b8082018082111561248a5761248a612ac3565b634e487b7160e01b600052601260045260246000fd5b600082612b2457612b24612aff565b500490565b600082612b3857612b38612aff565b500690565b600060018201612b4f57612b4f612ac3565b5060010190565b601f8211156124ef576000816000526020600020601f850160051c81016020861015612b7f5750805b601f850160051c820191505b81811015612b9e57828155600101612b8b565b505050505050565b815167ffffffffffffffff811115612bc057612bc06126d7565b612bd481612bce8454612a6e565b84612b56565b602080601f831160018114612c095760008415612bf15750858301515b600019600386901b1c1916600185901b178555612b9e565b600085815260208120601f198616915b82811015612c3857888601518255948401946001909101908401612c19565b5085821015612c565787850151600019600388901b60f8161c191681555b5050505050600190811b01905550565b604081526000612c7960408301856125df565b90508260208301529392505050565b828152604060208201526000610e2660408301846125df565b634e487b7160e01b600052603260045260246000fd5b808202811582820484141761248a5761248a612ac3565b600060208284031215612ce057600080fd5b5051919050565b60008251612cf98184602087016125bb565b919091019291505056fea2646970667358221220a3a9bbd17cd4e3f21ede6b63be889e1014523579f54ec13d230cb72d88bfc7ac64736f6c63430008170033",
  "linkReferences": {},
  "deployedLinkReferences": {}
}