{
  "_format": "hh-sol-artifact-1",
  "contractName": "TEMPL",
  "sourceName": "contracts/TEMPL.sol",
  "abi": [
    {
      "inputs": [
        {
          "internalType": "address",
          "name": "_priest",
          "type": "address"
        },
        {
          "internalType": "address",
          "name": "_protocolFeeRecipient",
          "type": "address"
        },
        {
          "internalType": "address",
          "name": "_token",
          "type": "address"
        },
        {
          "internalType": "uint256",
          "name": "_entryFee",
          "type": "uint256"
        }
      ],
      "stateMutability": "nonpayable",
      "type": "constructor"
    },
    {
      "inputs": [],
      "name": "ActiveProposalExists",
      "type": "error"
    },
    {
      "inputs": [],
      "name": "AlreadyExecuted",
      "type": "error"
    },
    {
      "inputs": [],
      "name": "AlreadyPurchased",
      "type": "error"
    },
    {
      "inputs": [],
      "name": "AmountZero",
      "type": "error"
    },
    {
      "inputs": [],
      "name": "ContractPausedError",
      "type": "error"
    },
    {
      "inputs": [],
      "name": "EntryFeeTooSmall",
      "type": "error"
    },
    {
      "inputs": [],
      "name": "ExecutionDelayActive",
      "type": "error"
    },
    {
      "inputs": [],
      "name": "InsufficientBalance",
      "type": "error"
    },
    {
      "inputs": [],
      "name": "InsufficientPoolBalance",
      "type": "error"
    },
    {
      "inputs": [],
      "name": "InsufficientTreasuryBalance",
      "type": "error"
    },
    {
      "inputs": [],
      "name": "InvalidCallData",
      "type": "error"
    },
    {
      "inputs": [],
      "name": "InvalidEntryFee",
      "type": "error"
    },
    {
      "inputs": [],
      "name": "InvalidProposal",
      "type": "error"
    },
    {
      "inputs": [],
      "name": "InvalidRecipient",
      "type": "error"
    },
    {
      "inputs": [],
      "name": "InvalidSender",
      "type": "error"
    },
    {
      "inputs": [],
      "name": "JoinedAfterProposal",
      "type": "error"
    },
    {
      "inputs": [],
      "name": "LimitOutOfRange",
      "type": "error"
    },
    {
      "inputs": [],
      "name": "NoMembers",
      "type": "error"
    },
    {
      "inputs": [],
      "name": "NoRewardsToClaim",
      "type": "error"
    },
    {
      "inputs": [],
      "name": "NoTreasuryFunds",
      "type": "error"
    },
    {
      "inputs": [],
      "name": "NotDAO",
      "type": "error"
    },
    {
      "inputs": [],
      "name": "NotMember",
      "type": "error"
    },
    {
      "inputs": [],
      "name": "ProposalExecutionFailed",
      "type": "error"
    },
    {
      "inputs": [],
      "name": "ProposalNotPassed",
      "type": "error"
    },
    {
      "inputs": [],
      "name": "QuorumNotReached",
      "type": "error"
    },
    {
      "inputs": [],
      "name": "ReentrancyGuardReentrantCall",
      "type": "error"
    },
    {
      "inputs": [
        {
          "internalType": "address",
          "name": "token",
          "type": "address"
        }
      ],
      "name": "SafeERC20FailedOperation",
      "type": "error"
    },
    {
      "inputs": [],
      "name": "TokenChangeDisabled",
      "type": "error"
    },
    {
      "inputs": [],
      "name": "VotingEnded",
      "type": "error"
    },
    {
      "inputs": [],
      "name": "VotingNotEnded",
      "type": "error"
    },
    {
      "inputs": [],
      "name": "VotingPeriodTooLong",
      "type": "error"
    },
    {
      "inputs": [],
      "name": "VotingPeriodTooShort",
      "type": "error"
    },
    {
      "anonymous": false,
      "inputs": [
        {
          "indexed": true,
          "internalType": "address",
          "name": "purchaser",
          "type": "address"
        },
        {
          "indexed": false,
          "internalType": "uint256",
          "name": "totalAmount",
          "type": "uint256"
        },
        {
          "indexed": false,
          "internalType": "uint256",
          "name": "burnedAmount",
          "type": "uint256"
        },
        {
          "indexed": false,
          "internalType": "uint256",
          "name": "treasuryAmount",
          "type": "uint256"
        },
        {
          "indexed": false,
          "internalType": "uint256",
          "name": "memberPoolAmount",
          "type": "uint256"
        },
        {
          "indexed": false,
          "internalType": "uint256",
          "name": "protocolAmount",
          "type": "uint256"
        },
        {
          "indexed": false,
          "internalType": "uint256",
          "name": "timestamp",
          "type": "uint256"
        },
        {
          "indexed": false,
          "internalType": "uint256",
          "name": "blockNumber",
          "type": "uint256"
        },
        {
          "indexed": false,
          "internalType": "uint256",
          "name": "purchaseId",
          "type": "uint256"
        }
      ],
      "name": "AccessPurchased",
      "type": "event"
    },
    {
      "anonymous": false,
      "inputs": [
        {
          "indexed": true,
          "internalType": "address",
          "name": "token",
          "type": "address"
        },
        {
          "indexed": false,
          "internalType": "uint256",
          "name": "entryFee",
          "type": "uint256"
        }
      ],
      "name": "ConfigUpdated",
      "type": "event"
    },
    {
      "anonymous": false,
      "inputs": [
        {
          "indexed": false,
          "internalType": "bool",
          "name": "isPaused",
          "type": "bool"
        }
      ],
      "name": "ContractPaused",
      "type": "event"
    },
    {
      "anonymous": false,
      "inputs": [
        {
          "indexed": true,
          "internalType": "address",
          "name": "member",
          "type": "address"
        },
        {
          "indexed": false,
          "internalType": "uint256",
          "name": "amount",
          "type": "uint256"
        },
        {
          "indexed": false,
          "internalType": "uint256",
          "name": "timestamp",
          "type": "uint256"
        }
      ],
      "name": "MemberPoolClaimed",
      "type": "event"
    },
    {
      "anonymous": false,
      "inputs": [
        {
          "indexed": true,
          "internalType": "address",
          "name": "oldPriest",
          "type": "address"
        },
        {
          "indexed": true,
          "internalType": "address",
          "name": "newPriest",
          "type": "address"
        }
      ],
      "name": "PriestChanged",
      "type": "event"
    },
    {
      "anonymous": false,
      "inputs": [
        {
          "indexed": true,
          "internalType": "uint256",
          "name": "proposalId",
          "type": "uint256"
        },
        {
          "indexed": true,
          "internalType": "address",
          "name": "proposer",
          "type": "address"
        },
        {
          "indexed": false,
          "internalType": "uint256",
          "name": "endTime",
          "type": "uint256"
        }
      ],
      "name": "ProposalCreated",
      "type": "event"
    },
    {
      "anonymous": false,
      "inputs": [
        {
          "indexed": true,
          "internalType": "uint256",
          "name": "proposalId",
          "type": "uint256"
        },
        {
          "indexed": false,
          "internalType": "bool",
          "name": "success",
          "type": "bool"
        },
        {
          "indexed": false,
          "internalType": "bytes",
          "name": "returnData",
          "type": "bytes"
        }
      ],
      "name": "ProposalExecuted",
      "type": "event"
    },
    {
      "anonymous": false,
      "inputs": [
        {
          "indexed": true,
          "internalType": "uint256",
          "name": "proposalId",
          "type": "uint256"
        },
        {
          "indexed": true,
          "internalType": "address",
          "name": "token",
          "type": "address"
        },
        {
          "indexed": true,
          "internalType": "address",
          "name": "recipient",
          "type": "address"
        },
        {
          "indexed": false,
          "internalType": "uint256",
          "name": "amount",
          "type": "uint256"
        },
        {
          "indexed": false,
          "internalType": "string",
          "name": "description",
          "type": "string"
        }
      ],
      "name": "TreasuryAction",
      "type": "event"
    },
    {
      "anonymous": false,
      "inputs": [
        {
          "indexed": true,
          "internalType": "uint256",
          "name": "proposalId",
          "type": "uint256"
        },
        {
          "indexed": false,
          "internalType": "uint256",
          "name": "amount",
          "type": "uint256"
        },
        {
          "indexed": false,
          "internalType": "uint256",
          "name": "perMember",
          "type": "uint256"
        },
        {
          "indexed": false,
          "internalType": "uint256",
          "name": "remainder",
          "type": "uint256"
        }
      ],
      "name": "TreasuryDisbanded",
      "type": "event"
    },
    {
      "anonymous": false,
      "inputs": [
        {
          "indexed": true,
          "internalType": "uint256",
          "name": "proposalId",
          "type": "uint256"
        },
        {
          "indexed": true,
          "internalType": "address",
          "name": "voter",
          "type": "address"
        },
        {
          "indexed": false,
          "internalType": "bool",
          "name": "support",
          "type": "bool"
        },
        {
          "indexed": false,
          "internalType": "uint256",
          "name": "timestamp",
          "type": "uint256"
        }
      ],
      "name": "VoteCast",
      "type": "event"
    },
    {
      "inputs": [],
      "name": "DEFAULT_VOTING_PERIOD",
      "outputs": [
        {
          "internalType": "uint256",
          "name": "",
          "type": "uint256"
        }
      ],
      "stateMutability": "view",
      "type": "function"
    },
    {
      "inputs": [],
      "name": "MAX_VOTING_PERIOD",
      "outputs": [
        {
          "internalType": "uint256",
          "name": "",
          "type": "uint256"
        }
      ],
      "stateMutability": "view",
      "type": "function"
    },
    {
      "inputs": [],
      "name": "MIN_VOTING_PERIOD",
      "outputs": [
        {
          "internalType": "uint256",
          "name": "",
          "type": "uint256"
        }
      ],
      "stateMutability": "view",
      "type": "function"
    },
    {
      "inputs": [],
      "name": "accessToken",
      "outputs": [
        {
          "internalType": "address",
          "name": "",
          "type": "address"
        }
      ],
      "stateMutability": "view",
      "type": "function"
    },
    {
      "inputs": [
        {
          "internalType": "address",
          "name": "",
          "type": "address"
        }
      ],
      "name": "activeProposalId",
      "outputs": [
        {
          "internalType": "uint256",
          "name": "",
          "type": "uint256"
        }
      ],
      "stateMutability": "view",
      "type": "function"
    },
    {
      "inputs": [
        {
          "internalType": "address",
          "name": "newPriest",
          "type": "address"
        }
      ],
      "name": "changePriestDAO",
      "outputs": [],
      "stateMutability": "nonpayable",
      "type": "function"
    },
    {
      "inputs": [],
      "name": "claimMemberPool",
      "outputs": [],
      "stateMutability": "nonpayable",
      "type": "function"
    },
    {
      "inputs": [
        {
          "internalType": "address",
          "name": "_newPriest",
          "type": "address"
        },
        {
          "internalType": "uint256",
          "name": "_votingPeriod",
          "type": "uint256"
        }
      ],
      "name": "createProposalChangePriest",
      "outputs": [
        {
          "internalType": "uint256",
          "name": "",
          "type": "uint256"
        }
      ],
      "stateMutability": "nonpayable",
      "type": "function"
    },
    {
      "inputs": [
        {
          "internalType": "uint256",
          "name": "_votingPeriod",
          "type": "uint256"
        }
      ],
      "name": "createProposalDisbandTreasury",
      "outputs": [
        {
          "internalType": "uint256",
          "name": "",
          "type": "uint256"
        }
      ],
      "stateMutability": "nonpayable",
      "type": "function"
    },
    {
      "inputs": [
        {
          "internalType": "bool",
          "name": "_paused",
          "type": "bool"
        },
        {
          "internalType": "uint256",
          "name": "_votingPeriod",
          "type": "uint256"
        }
      ],
      "name": "createProposalSetPaused",
      "outputs": [
        {
          "internalType": "uint256",
          "name": "",
          "type": "uint256"
        }
      ],
      "stateMutability": "nonpayable",
      "type": "function"
    },
    {
      "inputs": [
        {
          "internalType": "uint256",
          "name": "_newEntryFee",
          "type": "uint256"
        },
        {
          "internalType": "uint256",
          "name": "_votingPeriod",
          "type": "uint256"
        }
      ],
      "name": "createProposalUpdateConfig",
      "outputs": [
        {
          "internalType": "uint256",
          "name": "",
          "type": "uint256"
        }
      ],
      "stateMutability": "nonpayable",
      "type": "function"
    },
    {
      "inputs": [
        {
          "internalType": "address",
          "name": "_token",
          "type": "address"
        },
        {
          "internalType": "address",
          "name": "_recipient",
          "type": "address"
        },
        {
          "internalType": "uint256",
          "name": "_amount",
          "type": "uint256"
        },
        {
          "internalType": "string",
          "name": "_reason",
          "type": "string"
        },
        {
          "internalType": "uint256",
          "name": "_votingPeriod",
          "type": "uint256"
        }
      ],
      "name": "createProposalWithdrawTreasury",
      "outputs": [
        {
          "internalType": "uint256",
          "name": "",
          "type": "uint256"
        }
      ],
      "stateMutability": "nonpayable",
      "type": "function"
    },
    {
      "inputs": [],
      "name": "cumulativeMemberRewards",
      "outputs": [
        {
          "internalType": "uint256",
          "name": "",
          "type": "uint256"
        }
      ],
      "stateMutability": "view",
      "type": "function"
    },
    {
      "inputs": [],
      "name": "disbandTreasuryDAO",
      "outputs": [],
      "stateMutability": "nonpayable",
      "type": "function"
    },
    {
      "inputs": [],
      "name": "entryFee",
      "outputs": [
        {
          "internalType": "uint256",
          "name": "",
          "type": "uint256"
        }
      ],
      "stateMutability": "view",
      "type": "function"
    },
    {
      "inputs": [
        {
          "internalType": "uint256",
          "name": "_proposalId",
          "type": "uint256"
        }
      ],
      "name": "executeProposal",
      "outputs": [],
      "stateMutability": "nonpayable",
      "type": "function"
    },
    {
      "inputs": [],
      "name": "executionDelayAfterQuorum",
      "outputs": [
        {
          "internalType": "uint256",
          "name": "",
          "type": "uint256"
        }
      ],
      "stateMutability": "view",
      "type": "function"
    },
    {
      "inputs": [],
      "name": "getActiveProposals",
      "outputs": [
        {
          "internalType": "uint256[]",
          "name": "",
          "type": "uint256[]"
        }
      ],
      "stateMutability": "view",
      "type": "function"
    },
    {
      "inputs": [
        {
          "internalType": "uint256",
          "name": "offset",
          "type": "uint256"
        },
        {
          "internalType": "uint256",
          "name": "limit",
          "type": "uint256"
        }
      ],
      "name": "getActiveProposalsPaginated",
      "outputs": [
        {
          "internalType": "uint256[]",
          "name": "proposalIds",
          "type": "uint256[]"
        },
        {
          "internalType": "bool",
          "name": "hasMore",
          "type": "bool"
        }
      ],
      "stateMutability": "view",
      "type": "function"
    },
    {
      "inputs": [
        {
          "internalType": "address",
          "name": "member",
          "type": "address"
        }
      ],
      "name": "getClaimablePoolAmount",
      "outputs": [
        {
          "internalType": "uint256",
          "name": "",
          "type": "uint256"
        }
      ],
      "stateMutability": "view",
      "type": "function"
    },
    {
      "inputs": [],
      "name": "getConfig",
      "outputs": [
        {
          "internalType": "address",
          "name": "token",
          "type": "address"
        },
        {
          "internalType": "uint256",
          "name": "fee",
          "type": "uint256"
        },
        {
          "internalType": "bool",
          "name": "isPaused",
          "type": "bool"
        },
        {
          "internalType": "uint256",
          "name": "purchases",
          "type": "uint256"
        },
        {
          "internalType": "uint256",
          "name": "treasury",
          "type": "uint256"
        },
        {
          "internalType": "uint256",
          "name": "pool",
          "type": "uint256"
        }
      ],
      "stateMutability": "view",
      "type": "function"
    },
    {
      "inputs": [],
      "name": "getMemberCount",
      "outputs": [
        {
          "internalType": "uint256",
          "name": "",
          "type": "uint256"
        }
      ],
      "stateMutability": "view",
      "type": "function"
    },
    {
      "inputs": [
        {
          "internalType": "uint256",
          "name": "_proposalId",
          "type": "uint256"
        }
      ],
      "name": "getProposal",
      "outputs": [
        {
          "internalType": "address",
          "name": "proposer",
          "type": "address"
        },
        {
          "internalType": "uint256",
          "name": "yesVotes",
          "type": "uint256"
        },
        {
          "internalType": "uint256",
          "name": "noVotes",
          "type": "uint256"
        },
        {
          "internalType": "uint256",
          "name": "endTime",
          "type": "uint256"
        },
        {
          "internalType": "bool",
          "name": "executed",
          "type": "bool"
        },
        {
          "internalType": "bool",
          "name": "passed",
          "type": "bool"
        }
      ],
      "stateMutability": "view",
      "type": "function"
    },
    {
      "inputs": [
        {
          "internalType": "address",
          "name": "user",
          "type": "address"
        }
      ],
      "name": "getPurchaseDetails",
      "outputs": [
        {
          "internalType": "bool",
          "name": "purchased",
          "type": "bool"
        },
        {
          "internalType": "uint256",
          "name": "timestamp",
          "type": "uint256"
        },
        {
          "internalType": "uint256",
          "name": "blockNum",
          "type": "uint256"
        }
      ],
      "stateMutability": "view",
      "type": "function"
    },
    {
      "inputs": [],
      "name": "getTreasuryInfo",
      "outputs": [
        {
          "internalType": "uint256",
          "name": "treasury",
          "type": "uint256"
        },
        {
          "internalType": "uint256",
          "name": "memberPool",
          "type": "uint256"
        },
        {
          "internalType": "uint256",
          "name": "totalReceived",
          "type": "uint256"
        },
        {
          "internalType": "uint256",
          "name": "totalBurnedAmount",
          "type": "uint256"
        },
        {
          "internalType": "uint256",
          "name": "totalProtocolFees",
          "type": "uint256"
        },
        {
          "internalType": "address",
          "name": "protocolAddress",
          "type": "address"
        }
      ],
      "stateMutability": "view",
      "type": "function"
    },
    {
      "inputs": [
        {
          "internalType": "address",
          "name": "voter",
          "type": "address"
        }
      ],
      "name": "getVoteWeight",
      "outputs": [
        {
          "internalType": "uint256",
          "name": "",
          "type": "uint256"
        }
      ],
      "stateMutability": "view",
      "type": "function"
    },
    {
      "inputs": [
        {
          "internalType": "address",
          "name": "user",
          "type": "address"
        }
      ],
      "name": "hasAccess",
      "outputs": [
        {
          "internalType": "bool",
          "name": "",
          "type": "bool"
        }
      ],
      "stateMutability": "view",
      "type": "function"
    },
    {
      "inputs": [
        {
          "internalType": "address",
          "name": "",
          "type": "address"
        }
      ],
      "name": "hasActiveProposal",
      "outputs": [
        {
          "internalType": "bool",
          "name": "",
          "type": "bool"
        }
      ],
      "stateMutability": "view",
      "type": "function"
    },
    {
      "inputs": [
        {
          "internalType": "uint256",
          "name": "_proposalId",
          "type": "uint256"
        },
        {
          "internalType": "address",
          "name": "_voter",
          "type": "address"
        }
      ],
      "name": "hasVoted",
      "outputs": [
        {
          "internalType": "bool",
          "name": "voted",
          "type": "bool"
        },
        {
          "internalType": "bool",
          "name": "support",
          "type": "bool"
        }
      ],
      "stateMutability": "view",
      "type": "function"
    },
    {
      "inputs": [
        {
          "internalType": "uint256",
          "name": "",
          "type": "uint256"
        }
      ],
      "name": "memberList",
      "outputs": [
        {
          "internalType": "address",
          "name": "",
          "type": "address"
        }
      ],
      "stateMutability": "view",
      "type": "function"
    },
    {
      "inputs": [],
      "name": "memberPoolBalance",
      "outputs": [
        {
          "internalType": "uint256",
          "name": "",
          "type": "uint256"
        }
      ],
      "stateMutability": "view",
      "type": "function"
    },
    {
      "inputs": [
        {
          "internalType": "address",
          "name": "",
          "type": "address"
        }
      ],
      "name": "memberPoolClaims",
      "outputs": [
        {
          "internalType": "uint256",
          "name": "",
          "type": "uint256"
        }
      ],
      "stateMutability": "view",
      "type": "function"
    },
    {
      "inputs": [],
      "name": "memberRewardRemainder",
      "outputs": [
        {
          "internalType": "uint256",
          "name": "",
          "type": "uint256"
        }
      ],
      "stateMutability": "view",
      "type": "function"
    },
    {
      "inputs": [
        {
          "internalType": "address",
          "name": "",
          "type": "address"
        }
      ],
      "name": "members",
      "outputs": [
        {
          "internalType": "bool",
          "name": "purchased",
          "type": "bool"
        },
        {
          "internalType": "uint256",
          "name": "timestamp",
          "type": "uint256"
        },
        {
          "internalType": "uint256",
          "name": "block",
          "type": "uint256"
        },
        {
          "internalType": "uint256",
          "name": "rewardSnapshot",
          "type": "uint256"
        }
      ],
      "stateMutability": "view",
      "type": "function"
    },
    {
      "inputs": [],
      "name": "paused",
      "outputs": [
        {
          "internalType": "bool",
          "name": "",
          "type": "bool"
        }
      ],
      "stateMutability": "view",
      "type": "function"
    },
    {
      "inputs": [],
      "name": "priest",
      "outputs": [
        {
          "internalType": "address",
          "name": "",
          "type": "address"
        }
      ],
      "stateMutability": "view",
      "type": "function"
    },
    {
      "inputs": [],
      "name": "proposalCount",
      "outputs": [
        {
          "internalType": "uint256",
          "name": "",
          "type": "uint256"
        }
      ],
      "stateMutability": "view",
      "type": "function"
    },
    {
      "inputs": [
        {
          "internalType": "uint256",
          "name": "",
          "type": "uint256"
        }
      ],
      "name": "proposals",
      "outputs": [
        {
          "internalType": "uint256",
          "name": "id",
          "type": "uint256"
        },
        {
          "internalType": "address",
          "name": "proposer",
          "type": "address"
        },
        {
          "internalType": "enum TemplBase.Action",
          "name": "action",
          "type": "uint8"
        },
        {
          "internalType": "address",
          "name": "token",
          "type": "address"
        },
        {
          "internalType": "address",
          "name": "recipient",
          "type": "address"
        },
        {
          "internalType": "uint256",
          "name": "amount",
          "type": "uint256"
        },
        {
          "internalType": "string",
          "name": "reason",
          "type": "string"
        },
        {
          "internalType": "bool",
          "name": "paused",
          "type": "bool"
        },
        {
          "internalType": "uint256",
          "name": "newEntryFee",
          "type": "uint256"
        },
        {
          "internalType": "uint256",
          "name": "yesVotes",
          "type": "uint256"
        },
        {
          "internalType": "uint256",
          "name": "noVotes",
          "type": "uint256"
        },
        {
          "internalType": "uint256",
          "name": "endTime",
          "type": "uint256"
        },
        {
          "internalType": "uint256",
          "name": "createdAt",
          "type": "uint256"
        },
        {
          "internalType": "bool",
          "name": "executed",
          "type": "bool"
        },
        {
          "internalType": "uint256",
          "name": "eligibleVoters",
          "type": "uint256"
        },
        {
          "internalType": "uint256",
          "name": "quorumReachedAt",
          "type": "uint256"
        },
        {
          "internalType": "bool",
          "name": "quorumExempt",
          "type": "bool"
        }
      ],
      "stateMutability": "view",
      "type": "function"
    },
    {
      "inputs": [],
      "name": "protocolFeeRecipient",
      "outputs": [
        {
          "internalType": "address",
          "name": "",
          "type": "address"
        }
      ],
      "stateMutability": "view",
      "type": "function"
    },
    {
      "inputs": [],
      "name": "purchaseAccess",
      "outputs": [],
      "stateMutability": "nonpayable",
      "type": "function"
    },
    {
      "inputs": [],
      "name": "quorumPercent",
      "outputs": [
        {
          "internalType": "uint256",
          "name": "",
          "type": "uint256"
        }
      ],
      "stateMutability": "view",
      "type": "function"
    },
    {
      "inputs": [
        {
          "internalType": "bool",
          "name": "_paused",
          "type": "bool"
        }
      ],
      "name": "setPausedDAO",
      "outputs": [],
      "stateMutability": "nonpayable",
      "type": "function"
    },
    {
      "inputs": [],
      "name": "totalBurned",
      "outputs": [
        {
          "internalType": "uint256",
          "name": "",
          "type": "uint256"
        }
      ],
      "stateMutability": "view",
      "type": "function"
    },
    {
      "inputs": [],
      "name": "totalPurchases",
      "outputs": [
        {
          "internalType": "uint256",
          "name": "",
          "type": "uint256"
        }
      ],
      "stateMutability": "view",
      "type": "function"
    },
    {
      "inputs": [],
      "name": "totalToMemberPool",
      "outputs": [
        {
          "internalType": "uint256",
          "name": "",
          "type": "uint256"
        }
      ],
      "stateMutability": "view",
      "type": "function"
    },
    {
      "inputs": [],
      "name": "totalToProtocol",
      "outputs": [
        {
          "internalType": "uint256",
          "name": "",
          "type": "uint256"
        }
      ],
      "stateMutability": "view",
      "type": "function"
    },
    {
      "inputs": [],
      "name": "totalToTreasury",
      "outputs": [
        {
          "internalType": "uint256",
          "name": "",
          "type": "uint256"
        }
      ],
      "stateMutability": "view",
      "type": "function"
    },
    {
      "inputs": [],
      "name": "treasuryBalance",
      "outputs": [
        {
          "internalType": "uint256",
          "name": "",
          "type": "uint256"
        }
      ],
      "stateMutability": "view",
      "type": "function"
    },
    {
      "inputs": [
        {
          "internalType": "address",
          "name": "_token",
          "type": "address"
        },
        {
          "internalType": "uint256",
          "name": "_entryFee",
          "type": "uint256"
        }
      ],
      "name": "updateConfigDAO",
      "outputs": [],
      "stateMutability": "nonpayable",
      "type": "function"
    },
    {
      "inputs": [
        {
          "internalType": "uint256",
          "name": "_proposalId",
          "type": "uint256"
        },
        {
          "internalType": "bool",
          "name": "_support",
          "type": "bool"
        }
      ],
      "name": "vote",
      "outputs": [],
      "stateMutability": "nonpayable",
      "type": "function"
    },
    {
      "inputs": [
        {
          "internalType": "address",
          "name": "token",
          "type": "address"
        },
        {
          "internalType": "address",
          "name": "recipient",
          "type": "address"
        },
        {
          "internalType": "uint256",
          "name": "amount",
          "type": "uint256"
        },
        {
          "internalType": "string",
          "name": "reason",
          "type": "string"
        }
      ],
      "name": "withdrawTreasuryDAO",
      "outputs": [],
      "stateMutability": "nonpayable",
      "type": "function"
    },
    {
      "stateMutability": "payable",
      "type": "receive"
    }
  ],
  "bytecode": "0x60c034620001c157601f6200308538819003918201601f191683019291906001600160401b03841183851017620001c6578160809284926040968752833981010312620001c1576200005181620001dc565b6200005f60208301620001dc565b9060606200006f858501620001dc565b9301516001600055602160065562093a80600755926001600160a01b0392808416158015620001b6575b620001a55760805260a052168015620001945781156200018357600a82106200017257600a82066200016157600180546001600160a01b0319169190911790556002556005805460ff1916905551612e939081620001f28239608051818181610ee9015281816112a401526115eb015260a051818181610351015281816103fa0152818161055901528181610d7b01528181610e76015281816111270152818161175101528181611a6701528181611d4401528181611f7e01528181612a4e0152612ac60152f35b8251636fe6a4c960e01b8152600490fd5b8251635eee050360e11b8152600490fd5b82516365e52d5160e11b8152600490fd5b8251634e46966960e11b8152600490fd5b8551634e46966960e11b8152600490fd5b508382161562000099565b600080fd5b634e487b7160e01b600052604160045260246000fd5b51906001600160a01b0382168203620001c15756fe60a060405260048036101561001d575b50361561001b57600080fd5b005b60003560e01c908163013cf08b1461223d578163072ea61c1461221f57816308ae4b0c146121be5781630d61b51914611bd65781631808022a14611bb3578163215809ca14610ff45781632833788614611a35578163313dab2014611a1757816332f974b3146119865781634385963214611905578163524ddc23146118d85781635584c4f9146118095781635962a941146117eb57816359c266ff146117cd5781635c975abb146117aa5781635daae9d5146116f55781635fa7ddf0146116d8578163640c4fa21461167057816364653f291461161a57816364df049e146115d5578163653724d6146115ac5781636898b19c1461158e5781636ad18550146115545781637070ac4814611536578163840634c5146114fd5781638f78bbc4146114c357816395a078e814611484578163997072f71461146657816399e288d814611092578163a51a46b914611074578163a64e024a14611056578163a730117e14611033578163a81bbe3c14610ff9578163aedfe53f14610ff4578163b307fc6d14610fb4578163bdb75b3414610f96578163bebc8fc014610f6d578163c1b57edb14610f4f578163c293947114610e42578163c3f909d414610d55578163c470dd9014610b64578163c7f758a814610a74578163c9d27afe146107b9578163d402d4be146104f1578163d89135cd146104d3578163da35c664146104b5578163dbb37a2e14610429578163e243c5fb146103e4578163f7158b2a146102bd57508063f81cbd261461029f5763ffafe4ad1461025b573861000f565b3461029a57602036600319011261029a576001600160a01b0361027c61252e565b166000526010602052602060ff604060002054166040519015158152f35b600080fd5b3461029a57600036600319011261029a576020600654604051908152f35b3461029a57600036600319011261029a5733600052600860205260ff60406000205416156103d5576102ed612960565b6102f6336126b1565b9081156103c6578161030c8254600c54906126a4565b106103b757600b54336000526008602052600360406000200155600a602052604060002061033b838254612681565b90556103488282546126a4565b905561037e81337f00000000000000000000000000000000000000000000000000000000000000006001600160a01b0316612d75565b6040519081524260208201527fc4e740509dbfae3377bc9925dd7bcc8aaba69cd730316216d76b2d24725c636660403392a26001600055005b60405163bc6072f160e01b8152fd5b6040516373380d9960e01b8152fd5b60405163148fe22160e11b8152fd5b3461029a57600036600319011261029a576040517f00000000000000000000000000000000000000000000000000000000000000006001600160a01b03168152602090f35b3461029a57610437366125bb565b909133600052600860205260ff60406000205416156103d55782610486575b602060078461046485612b2c565b60018101805460ff60a01b1916600160a01b1790559290920155604051908152f35b600a83106104a657600a83061561045657604051636fe6a4c960e01b8152fd5b604051635eee050360e11b8152fd5b3461029a57600036600319011261029a576020600d54604051908152f35b3461029a57600036600319011261029a576020601254604051908152f35b3461029a57608036600319011261029a5761050a61252e565b90610513612544565b60443560643567ffffffffffffffff811161029a57610535903690850161263a565b913033036107a8576001600160a01b038181169590861561079757831561078657807f00000000000000000000000000000000000000000000000000000000000000001691169481861460001461068a576040516370a0823160e01b81523082820152602081602481865afa90811561067e5760009161064c575b508154908181111561063b57906105c6916126a4565b841161062c5750916106058160009593600080516020612e3e833981519152956105fd600354808511158a146106265784906126a4565b600355612d75565b61062160405192839283526040602084015260408301906124ee565b0390a4005b806126a4565b604051631c7b597b60e11b8152fd5b604051631c7b597b60e11b81528390fd5b90506020813d602011610676575b8161066760209383612427565b8101031261029a5751886105b0565b3d915061065a565b6040513d6000823e3d90fd5b919050846106fe575047821161062c57600080808085895af13d156106f9573d6106b38161261e565b906106c16040519283612427565b8152600060203d92013e5b156106ea5750600091600080516020612e3e83398151915291610605565b6040516331d436c760e01b8152fd5b6106cc565b906040516370a0823160e01b81523082820152602081602481895afa90811561067e57600091610754575b50831161062c5750918161074f600080516020612e3e8339815191529360009587612d75565b610605565b90506020813d60201161077e575b8161076f60209383612427565b8101031261029a575187610729565b3d9150610762565b6040516365e52d5160e11b81528690fd5b604051634e46966960e11b81528690fd5b6040516327568d2f60e11b81528490fd5b3461029a57604036600319011261029a57803560249182358015159384820361029a573360005260089260209380855260ff6040600020541615610a6457600d54861015610a545785600052600e8552604060002092600a8401948554421015610a43576011908186019060ff8254161580610a36575b610a0a575b600d870133600052808a5260ff60406000205416600e8901808c5260ff60406000205416928c526040600020600160ff198254161790558b526108888360406000209060ff801983541691151516179055565b6109925750156109775783860180549060018201809211610963575560ff905b54161580610957575b6108ec575b88888860405192835242908301527fcbdf6214089cba887ecbf35a0b6a734589959c9763342c756bb2a80ca2bc9f6e60403393a3005b6009549283600f870155850154936064850294808604606414901517156109475750505061091c906006546128f9565b111561092c575b808080806108b6565b60104291015561093e60075442612681565b90558380610923565b634e487b7160e01b600052526000fd5b506010850154156108b1565b50505083634e487b7160e01b600052526000fd5b6009860180549060018201809211610963575560ff906108a8565b90508a811515036109a7575b5060ff906108a8565b156109dc57858401805460001981019190821161096357556009860180549060018201809211610963575560ff905b9061099e565b600986018054600019810191908211610963575583860180549060018201809211610963575560ff906109d6565b33600052848952600160406000200154601088015410156108355760405163f078ca7360e01b81528690fd5b5060108701541515610830565b604051637a19ed0560e01b81528490fd5b50604051631dc0650160e31b8152fd5b5060405163148fe22160e11b8152fd5b3461029a57602036600319011261029a57803590600d54821015610b555750600052600e60205260c0604060002060ff601182015416600014610b1c57600a81015442101580610b0b575b60018060a01b0360018301541691600881015490600981015460ff600c600a840154930154169260405195865260208601526040850152606084015215156080830152151560a0820152f35b506008810154600982015410610abf565b60108101548015610b4d57600754610b3391612681565b4210158015610abf57506008810154600982015410610abf565b506000610abf565b604051631dc0650160e31b8152fd5b3461029a5760a036600319011261029a57610b7d61252e565b90610b86612544565b906064359267ffffffffffffffff9384811161029a57610ba9903690840161263a565b93336000526020946008865260ff6040600020541615610d44576005610bd0608435612b2c565b9096600195868301600160a11b60ff60a01b198254161790556002830160018060a01b0390816bffffffffffffffffffffffff60a01b931683825416179055600384019216908254161790556044358682015501938151928311610d2f5750610c3984546123bb565b601f8111610ce6575b508590601f8311600114610c8357928293918392600094610c78575b50501b916000199060031b1c19161790555b604051908152f35b015192508780610c5e565b90601f198316918560005283886000209360005b8a88838310610ccf5750505010610cb6575b505050811b019055610c70565b015160001960f88460031b161c19169055858080610ca9565b868601518855909601959485019487935001610c97565b8460005286600020601f840160051c810191888510610d25575b601f0160051c019084905b828110610d19575050610c42565b60008155018490610d0b565b9091508190610d00565b604190634e487b7160e01b6000525260246000fd5b60405163148fe22160e11b81528490fd5b3461029a57600036600319011261029a576040516370a0823160e01b81523082820152907f00000000000000000000000000000000000000000000000000000000000000006001600160a01b031690602083602481855afa90811561067e57600091610e0d575b5460c09350908180821115610e0457610dd4916126a4565b60025460ff60055416601154916040519586526020860152151560408501526060840152608083015260a0820152f35b50506000610dd4565b90506020833d602011610e3a575b81610e2860209383612427565b8101031261029a5760c0925190610dbc565b3d9150610e1b565b3461029a57600036600319011261029a576040516370a0823160e01b81523081830152906001600160a01b036020836024817f000000000000000000000000000000000000000000000000000000000000000085165afa91821561067e57600092610f1a575b5460c09350918280821115610f1057610ec0916126a4565b915b601354601254906015549260405195865260208601526040850152606084015260808301527f00000000000000000000000000000000000000000000000000000000000000001660a0820152f35b5050600091610ec2565b91506020833d602011610f47575b81610f3560209383612427565b8101031261029a5760c0925191610ea8565b3d9150610f28565b3461029a57600036600319011261029a576020601354604051908152f35b3461029a57600036600319011261029a576001546040516001600160a01b039091168152602090f35b3461029a57600036600319011261029a576020601454604051908152f35b3461029a57602036600319011261029a573560095481101561029a57610fdb6020916125d1565b905460405160039290921b1c6001600160a01b03168152f35b61255a565b3461029a57602036600319011261029a576001600160a01b0361101a61252e565b16600052600a6020526020604060002054604051908152f35b3461029a57602036600319011261029a576020610c7061105161252e565b612936565b3461029a57600036600319011261029a57602060405162278d008152f35b3461029a57600036600319011261029a576020600c54604051908152f35b3461029a57600036600319011261029a5760ff6005541661145757303314611448576110bc612960565b3360005260209060088252604060002091825460ff811661143757600254601e9283820291801593818404861485171561142257606480940493603c830295838704603c1481171561140d57600a840290848204600a14171561140d578190049660018060a01b03807f00000000000000000000000000000000000000000000000000000000000000001693604051956370a0823160e01b8752338c880152602496888189818a5afa90811561067e576000916113e0575b50106113cf5760019060ff1916178b554260018c01554360028c0155600954680100000000000000008110156113bb578060016111b492016009556125d1565b819291549060031b9133831b921b19161790556011996111d48b54612747565b8b556009546001811161134c575b506003600b5491015560025481810291818304149015171561133957916112a28289936112cb9504986112178a600354612681565b6003556112258a8d54612681565b8c5561123389601254612681565b6012556112428a601354612681565b6013556112518a601454612681565b60145561126085601554612681565b6015556112996040516323b872dd60e01b8a820152338982015261dead60448201528a84820152838152611293816123f5565b85612dc1565b04303384612d2e565b7f0000000000000000000000000000000000000000000000000000000000000000903390612d2e565b60025496805496600019880197881161094757505050604051958652850152806040850152606084015260808301524260a08301524360c083015260e08201527fe6d1c0e418a42a777d49c66571075fc47bc1d92e7f506007ddde08d1ff182bbc6101003392a26001600055005b838a8a634e487b7160e01b600052526000fd5b600254838102908082048514901517156113a85761136f9085600c549104612681565b9060001981019081116113a857906113948261138e61139f948461290c565b9261292c565b600c55600b54612681565b600b558b6111e2565b868d8d634e487b7160e01b600052526000fd5b8560418c634e487b7160e01b600052526000fd5b604051631e9acf1760e31b81528b90fd5b90508881813d8311611406575b6113f78183612427565b8101031261029a57518e611174565b503d6113ed565b601189634e487b7160e01b6000525260246000fd5b601187634e487b7160e01b6000525260246000fd5b604051630cd9ed5560e21b81528390fd5b604051636edaef2f60e11b8152fd5b604051630eceade960e31b8152fd5b3461029a57600036600319011261029a576020600954604051908152f35b3461029a57602036600319011261029a576001600160a01b036114a561252e565b166000526008602052602060ff604060002054166040519015158152f35b3461029a576114f16114dd6114d7366125bb565b9061276a565b604051928392604084526040840190612578565b90151560208301520390f35b3461029a57602036600319011261029a5761151661252e565b3033036115265761001b90612983565b506040516327568d2f60e11b8152fd5b3461029a57600036600319011261029a576020600754604051908152f35b3461029a57602036600319011261029a576001600160a01b0361157561252e565b16600052600f6020526020604060002054604051908152f35b3461029a57600036600319011261029a576020600b54604051908152f35b3461029a57602036600319011261029a576115c56125ac565b3033036115265761001b90612aee565b3461029a57600036600319011261029a576040517f00000000000000000000000000000000000000000000000000000000000000006001600160a01b03168152602090f35b3461029a57602036600319011261029a576001600160a01b0361163b61252e565b1660005260086020526060604060002060ff815416906002600182015491015490604051921515835260208301526040820152f35b3461029a57604036600319011261029a576116896125ac565b9033600052600860205260ff60406000205416156103d55760206006610c70846116b4602435612b2c565b6001819592950160ff60a01b198154169055019060ff801983541691151516179055565b3461029a57600036600319011261029a5760209054604051908152f35b3461029a57602036600319011261029a5733600052600860205260ff60406000205416156103d55761172960209135612b2c565b6001818101805460ff60a01b1916600360a01b1790556002820180546001600160a01b0319167f00000000000000000000000000000000000000000000000000000000000000006001600160a01b0390811691909117909155905433911614611796575b50604051908152f35b601101805460ff191660011790558261178d565b3461029a57600036600319011261029a57602060ff600554166040519015158152f35b3461029a57600036600319011261029a576020601554604051908152f35b3461029a57600036600319011261029a576020601154604051908152f35b3461029a57600036600319011261029a57600d5461182681612715565b9060009060005b81811061188357505061183f81612715565b9160005b828110611864576040516020808252819061186090820187612578565b0390f35b8061187160019284612756565b5161187c8287612756565b5201611843565b80600191600052600e6020526040600020600a810154421090816118c8575b506118ae575b0161182d565b806118c26118bb86612747565b9587612756565b526118a8565b60ff9150600c01541615866118a2565b3461029a57604036600319011261029a576118f161252e565b3033036115265761001b90602435906129fd565b3461029a57604036600319011261029a578035611920612544565b90600d548110156119755760409250600052600e602052816000209060018060a01b0316600052600d8101602052600e60ff836000205416910160205260ff8260002054168251911515825215156020820152f35b604051631dc0650160e31b81528390fd5b3461029a57604036600319011261029a5761199f61252e565b33600052600860205260ff6040600020541615610a64576001600160a01b0316908115611a085760206003836119d6602435612b2c565b60018101805460ff60a01b1916600160a21b1790559290920180546001600160a01b0319169091179055604051908152f35b604051634e46966960e11b8152fd5b3461029a57600036600319011261029a576020600354604051908152f35b3461029a57600036600319011261029a57303303611ba4576040516370a0823160e01b815230828201526020816024817f00000000000000000000000000000000000000000000000000000000000000006001600160a01b03165afa90811561067e57600091611b72575b5081549081811115611b615781611ab6916126a4565b90600954908115611b505791606091600094611b0d837f8b887c99365b16ec127c895b4fbfab96273b2a79191ed7b42b9724cd8a695ae996611b05600354808411158b146106265783906126a4565b600355612681565b9055611b29611b1e600c5484612681565b9161138e818461290c565b90611b3681600b54612681565b600b5581600c5560405192835260208301526040820152a2005b604051630292d7c360e51b81528490fd5b604051631ab9ebab60e01b81528390fd5b90506020813d602011611b9c575b81611b8d60209383612427565b8101031261029a575182611aa0565b3d9150611b80565b6040516327568d2f60e11b8152fd5b3461029a57602036600319011261029a576020610c70611bd161252e565b6126b1565b3461029a5760208060031936011261029a57813591611bf3612960565b600d54831015610b555782600052600e825260406000209060ff60118301541660001461218157600a8201544210612172575b600c82019081549160ff83166121625760088401546009850154101561215257600160ff1980941617905560ff6001840160018060a01b03938482541660005260108752826040600020541680612140575b612120575b505460a01c16600581101561210b5780611cd157505050600080516020612e1e83398151915291611cb660ff6006606094015416612aee565b60408051916001835282015260006040820152a26001600055005b60018103611d0857505091611d03826007600080516020612e1e833981519152956002606096015416910154906129fd565b611cb6565b90929060028103611f6f57509080600283015416918160038201541693611d356005828401549301612449565b928515611f5f578215611f4f577f00000000000000000000000000000000000000000000000000000000000000001690848203611e46576040516370a0823160e01b815230828201528781602481865afa90811561067e57600091611e19575b508154908181111561063b5790611dab916126a4565b831161062c5750600080516020612e3e833981519152859383611df6600080516020612e1e8339815191529997956060998c966105fd600354808511156000146106265784906126a4565b611e11604051928392835260408984015260408301906124ee565b0390a4611cb6565b90508781813d8311611e3f575b611e308183612427565b8101031261029a575189611d95565b503d611e26565b905083611ebb5747821161062c57600080808085895af13d15611eb6573d611e6d8161261e565b90611e7b6040519283612427565b81526000883d92013e5b156106ea57509185600080516020612e3e83398151915260609593600080516020612e1e8339815191529795611df6565b611e85565b6040516370a0823160e01b815230828201528681602481885afa90811561067e57600091611f22575b50821161062c57509185600080516020612e3e833981519152859385611f1d600080516020612e1e833981519152999760609987612d75565b611df6565b90508681813d8311611f48575b611f398183612427565b8101031261029a575188611ee4565b503d611f2f565b506040516365e52d5160e11b8152fd5b50604051634e46966960e11b8152fd5b600381036120d05750600201547f0000000000000000000000000000000000000000000000000000000000000000821691168190036120c05782602491604051928380926370a0823160e01b825230878301525afa90811561067e57600091612093575b5081549081811115611b615781611fe9916126a4565b9160095491821561208357606084600080516020612e1e8339815191529694889461204984987f8b887c99365b16ec127c895b4fbfab96273b2a79191ed7b42b9724cd8a695ae996611b05600354808411156000146106265783906126a4565b905561205a611b1e600c5484612681565b9061206781600b54612681565b600b5581600c55604051928352868301526040820152a2611cb6565b50604051630292d7c360e51b8152fd5b90508281813d83116120b9575b6120aa8183612427565b8101031261029a575184611fd3565b503d6120a0565b50604051631c49f4d160e01b8152fd5b9192909181036120fc575091611d036060926003600080516020612e1e83398151915295015416612983565b604051631c49f4d160e01b8152fd5b602182634e487b7160e01b6000525260246000fd5b601087526040600020908154169055600f86526000604081205587611c7d565b50600f87528760406000205414611c78565b5060405163c8c93ba360e01b8152fd5b50604051630dc1019760e01b8152fd5b604051633fc30bd160e11b8152fd5b601082015480156121ae5760075461219891612681565b421015611c265760405163a905056160e01b8152fd5b5060405163aa26a69360e01b8152fd5b3461029a57602036600319011261029a576001600160a01b036121df61252e565b1660005260086020526080604060002060ff8154169060018101549060036002820154910154916040519315158452602084015260408301526060820152f35b3461029a57600036600319011261029a576020600254604051908152f35b3461029a57602036600319011261029a5780356000908152600e60205260409020805460018201546002830154600384015484860154959394938493909290916001600160a01b03918216911661229660058601612449565b97600686015460ff1698600787015490600888015492600989015494600a8a015496600b8b015498600c8c015460ff169a600f8d01549c601001549d6011015460ff169e60405160805260805152600160a01b600190038216608051602001528160a01c60ff16600511156123a657509060ff6123469594939260a01c16604060805101526060608051015260808051015260a0608051015261022060c0608051015261022060805101906124ee565b99151560e060805101526101006080510152610120608051015261014060805101526101606080510152610180608051015215156101a060805101526101c060805101526101e06080510152151561020060805101526080519003608051f35b602190634e487b7160e01b6000525260246000fd5b90600182811c921680156123eb575b60208310146123d557565b634e487b7160e01b600052602260045260246000fd5b91607f16916123ca565b60a0810190811067ffffffffffffffff82111761241157604052565b634e487b7160e01b600052604160045260246000fd5b90601f8019910116810190811067ffffffffffffffff82111761241157604052565b9060405191826000825461245c816123bb565b908184526020946001916001811690816000146124cc575060011461248d575b50505061248b92500383612427565b565b600090815285812095935091905b8183106124b457505061248b935082010138808061247c565b8554888401850152948501948794509183019161249b565b9250505061248b94925060ff191682840152151560051b82010138808061247c565b919082519283825260005b84811061251a575050826000602080949584010152601f8019910116010190565b6020818301810151848301820152016124f9565b600435906001600160a01b038216820361029a57565b602435906001600160a01b038216820361029a57565b3461029a57600036600319011261029a57602060405162093a808152f35b90815180825260208080930193019160005b828110612598575050505090565b83518552938101939281019260010161258a565b60043590811515820361029a57565b604090600319011261029a576004359060243590565b6009548110156126085760096000527f6e1540171b6c0c960b71a7020d9f60077f6af931a8bbf590da0223dacf75c7af0190600090565b634e487b7160e01b600052603260045260246000fd5b67ffffffffffffffff811161241157601f01601f191660200190565b81601f8201121561029a578035906126518261261e565b9261265f6040519485612427565b8284526020838301011161029a57816000926020809301838601378301015290565b9190820180921161268e57565b634e487b7160e01b600052601160045260246000fd5b9190820391821161268e57565b6001600160a01b03166000908152600860205260409020805460ff16156126f7576003600b549101548082116000146126f0576126ed916126a4565b90565b5050600090565b50600090565b67ffffffffffffffff81116124115760051b60200190565b9061271f826126fd565b61272c6040519182612427565b828152809261273d601f19916126fd565b0190602036910137565b600019811461268e5760010190565b80518210156126085760209160051b010190565b91811580156128ef575b6128dd57600d54808410156128ad5761278c83612715565b91600091855b818710806128a4575b15612808575085600052600e6020526040600020600a810154421090816127f8575b506127de575b6001860180871161268e576127d89096612747565b95612792565b856127f26127eb85612747565b9486612756565b526127c3565b60ff9150600c01541615386127bd565b9550909350600094818110612854575b505061282381612715565b9160005b828110612835575050509190565b8061284260019284612756565b5161284d8287612756565b5201612827565b5b818110156128185780600052600e6020526040600020600a81015442109081612894575b5061288657600101612855565b505092506001923880612818565b60ff9150600c0154161538612879565b5085841061279b565b509150506040516020810181811067ffffffffffffffff8211176124115760405260008152600036813790600090565b6040516381f396b760e01b8152600490fd5b5060648211612774565b8181029291811591840414171561268e57565b8115612916570490565b634e487b7160e01b600052601260045260246000fd5b8115612916570690565b6001600160a01b031660009081526008602052604090205460ff161561295b57600190565b600090565b600260005414612971576002600055565b604051633ee5aeb560e01b8152600490fd5b6001600160a01b039081169081156129eb57600154908116908183146129d9576001600160a01b03191682176001557f0f3a6964a8ba1b7473a14630b029eae6d49bec6babf098223718bacaac7197cc600080a3565b604051631c49f4d160e01b8152600490fd5b604051634e46966960e11b8152600490fd5b6001600160a01b03919082168015159081612ac1575b50612aaf5780612a72575b507faf8839d80c9b3bbf95c97465eb8c8348db4098f5c15af186c3b425b1129981176020600254926040519384527f00000000000000000000000000000000000000000000000000000000000000001692a2565b600a8110612a9d57600a8106612a8b5760025538612a1e565b604051636fe6a4c960e01b8152600490fd5b604051635eee050360e11b8152600490fd5b60405163b078ee9d60e01b8152600490fd5b9050827f000000000000000000000000000000000000000000000000000000000000000016141538612a13565b60207f752d7e161ff5146f80e3820893176eb40532811e5e20400dfdde57455213706a91151560ff196005541660ff821617600555604051908152a1565b6000913383526020916010835260409060ff8286205416612cc1575b80612cbb575062093a80925b62093a808410612caa5762278d008411612c99577f3417b456fad6209c73445d5efd446d686e75e4560f0f50c13b5a5cde976447b4600d5491612b9683612747565b600d558296838152600e82528385612bcf81842099838b5560018b01336bffffffffffffffffffffffff60a01b82541617905542612681565b92600a8a0193845542600b8b0155600c8a0160ff1990818154169055338252600d8b018652828220600182825416179055600e8b018652828220600182825416179055600160088c01558160098c015560095480600f8d015560108c0183815560118d0183815416905581612c65575b505033825260108652600183832091825416179055600f855220555493519384523393a3565b6006549091612c73916128f9565b60641015612c82575b80612c3f565b429055612c9160075442612681565b855538612c7c565b815163eeeb962360e01b8152600490fd5b81516331806aeb60e21b8152600490fd5b92612b54565b600f8493929452838520548552600e835283852060ff600c82015416159081612d20575b5015612cfc57835163792c310960e11b8152600490fd5b929091923385526010845281852060ff198154169055600f84528482812055612b48565b600a91500154421038612ce5565b6040516323b872dd60e01b60208201526001600160a01b03928316602482015292909116604483015260648083019390935291815261248b91612d70826123f5565b612dc1565b60405163a9059cbb60e01b60208201526001600160a01b039092166024830152604480830193909352918152608081019167ffffffffffffffff8311828410176124115761248b926040525b906000602091828151910182855af11561067e576000513d612e1457506001600160a01b0381163b155b612df25750565b604051635274afe760e01b81526001600160a01b039091166004820152602490fd5b60011415612deb56feaf8f9d0e884d3306a083e846741a0bc4d75908e2b0ec63b558219652ae4c1b90d81f085560db5c809c425a15f00e3f2904e4fa46d6e8672ff2e671ccd6d9a231a264697066735822122047af4de9d35e7bf02c64ede2c775e966b2533104f4f5e82e8e23d07886ed7bac64736f6c63430008170033",
  "linkReferences": {},
  "deployedLinkReferences": {}
}