{
  "_format": "hh-sol-artifact-1",
  "contractName": "TEMPL",
  "sourceName": "contracts/TEMPL.sol",
  "abi": [
    {
      "inputs": [
        {
          "internalType": "address",
          "name": "_priest",
          "type": "address"
        },
        {
          "internalType": "address",
          "name": "_protocolFeeRecipient",
          "type": "address"
        },
        {
          "internalType": "address",
          "name": "_token",
          "type": "address"
        },
        {
          "internalType": "uint256",
          "name": "_entryFee",
          "type": "uint256"
        }
      ],
      "stateMutability": "nonpayable",
      "type": "constructor"
    },
    {
      "inputs": [],
      "name": "ActiveProposalExists",
      "type": "error"
    },
    {
      "inputs": [],
      "name": "AlreadyExecuted",
      "type": "error"
    },
    {
      "inputs": [],
      "name": "AlreadyPurchased",
      "type": "error"
    },
    {
      "inputs": [],
      "name": "AmountZero",
      "type": "error"
    },
    {
      "inputs": [],
      "name": "ContractPausedError",
      "type": "error"
    },
    {
      "inputs": [],
      "name": "DescriptionRequired",
      "type": "error"
    },
    {
      "inputs": [],
      "name": "EntryFeeTooSmall",
      "type": "error"
    },
    {
      "inputs": [],
      "name": "InsufficientBalance",
      "type": "error"
    },
    {
      "inputs": [],
      "name": "InsufficientPoolBalance",
      "type": "error"
    },
    {
      "inputs": [],
      "name": "InsufficientTreasuryBalance",
      "type": "error"
    },
    {
      "inputs": [],
      "name": "InvalidEntryFee",
      "type": "error"
    },
    {
      "inputs": [],
      "name": "InvalidProposal",
      "type": "error"
    },
    {
      "inputs": [],
      "name": "InvalidRecipient",
      "type": "error"
    },
    {
      "inputs": [],
      "name": "InvalidSender",
      "type": "error"
    },
    {
      "inputs": [],
      "name": "JoinedAfterProposal",
      "type": "error"
    },
    {
      "inputs": [],
      "name": "LimitOutOfRange",
      "type": "error"
    },
    {
      "inputs": [],
      "name": "NoMembers",
      "type": "error"
    },
    {
      "inputs": [],
      "name": "NoRewardsToClaim",
      "type": "error"
    },
    {
      "inputs": [],
      "name": "NoTreasuryFunds",
      "type": "error"
    },
    {
      "inputs": [],
      "name": "NotDAO",
      "type": "error"
    },
    {
      "inputs": [],
      "name": "NotMember",
      "type": "error"
    },
    {
      "inputs": [],
      "name": "ProposalExecutionFailed",
      "type": "error"
    },
    {
      "inputs": [],
      "name": "ProposalNotPassed",
      "type": "error"
    },
    {
      "inputs": [],
      "name": "ReentrancyGuardReentrantCall",
      "type": "error"
    },
    {
      "inputs": [
        {
          "internalType": "address",
          "name": "token",
          "type": "address"
        }
      ],
      "name": "SafeERC20FailedOperation",
      "type": "error"
    },
    {
      "inputs": [],
      "name": "TitleRequired",
      "type": "error"
    },
    {
      "inputs": [],
      "name": "TokenChangeDisabled",
      "type": "error"
    },
    {
      "inputs": [],
      "name": "VotingEnded",
      "type": "error"
    },
    {
      "inputs": [],
      "name": "VotingNotEnded",
      "type": "error"
    },
    {
      "inputs": [],
      "name": "VotingPeriodTooLong",
      "type": "error"
    },
    {
      "inputs": [],
      "name": "VotingPeriodTooShort",
      "type": "error"
    },
    {
      "anonymous": false,
      "inputs": [
        {
          "indexed": true,
          "internalType": "address",
          "name": "purchaser",
          "type": "address"
        },
        {
          "indexed": false,
          "internalType": "uint256",
          "name": "totalAmount",
          "type": "uint256"
        },
        {
          "indexed": false,
          "internalType": "uint256",
          "name": "burnedAmount",
          "type": "uint256"
        },
        {
          "indexed": false,
          "internalType": "uint256",
          "name": "treasuryAmount",
          "type": "uint256"
        },
        {
          "indexed": false,
          "internalType": "uint256",
          "name": "memberPoolAmount",
          "type": "uint256"
        },
        {
          "indexed": false,
          "internalType": "uint256",
          "name": "protocolAmount",
          "type": "uint256"
        },
        {
          "indexed": false,
          "internalType": "uint256",
          "name": "timestamp",
          "type": "uint256"
        },
        {
          "indexed": false,
          "internalType": "uint256",
          "name": "blockNumber",
          "type": "uint256"
        },
        {
          "indexed": false,
          "internalType": "uint256",
          "name": "purchaseId",
          "type": "uint256"
        }
      ],
      "name": "AccessPurchased",
      "type": "event"
    },
    {
      "anonymous": false,
      "inputs": [
        {
          "indexed": true,
          "internalType": "address",
          "name": "token",
          "type": "address"
        },
        {
          "indexed": false,
          "internalType": "uint256",
          "name": "entryFee",
          "type": "uint256"
        }
      ],
      "name": "ConfigUpdated",
      "type": "event"
    },
    {
      "anonymous": false,
      "inputs": [
        {
          "indexed": false,
          "internalType": "bool",
          "name": "isPaused",
          "type": "bool"
        }
      ],
      "name": "ContractPaused",
      "type": "event"
    },
    {
      "anonymous": false,
      "inputs": [
        {
          "indexed": true,
          "internalType": "address",
          "name": "member",
          "type": "address"
        },
        {
          "indexed": false,
          "internalType": "uint256",
          "name": "amount",
          "type": "uint256"
        },
        {
          "indexed": false,
          "internalType": "uint256",
          "name": "timestamp",
          "type": "uint256"
        }
      ],
      "name": "MemberPoolClaimed",
      "type": "event"
    },
    {
      "anonymous": false,
      "inputs": [
        {
          "indexed": true,
          "internalType": "uint256",
          "name": "proposalId",
          "type": "uint256"
        },
        {
          "indexed": true,
          "internalType": "address",
          "name": "proposer",
          "type": "address"
        },
        {
          "indexed": false,
          "internalType": "string",
          "name": "title",
          "type": "string"
        },
        {
          "indexed": false,
          "internalType": "uint256",
          "name": "endTime",
          "type": "uint256"
        }
      ],
      "name": "ProposalCreated",
      "type": "event"
    },
    {
      "anonymous": false,
      "inputs": [
        {
          "indexed": true,
          "internalType": "uint256",
          "name": "proposalId",
          "type": "uint256"
        },
        {
          "indexed": false,
          "internalType": "bool",
          "name": "success",
          "type": "bool"
        },
        {
          "indexed": false,
          "internalType": "bytes",
          "name": "returnData",
          "type": "bytes"
        }
      ],
      "name": "ProposalExecuted",
      "type": "event"
    },
    {
      "anonymous": false,
      "inputs": [
        {
          "indexed": true,
          "internalType": "uint256",
          "name": "proposalId",
          "type": "uint256"
        },
        {
          "indexed": true,
          "internalType": "address",
          "name": "token",
          "type": "address"
        },
        {
          "indexed": true,
          "internalType": "address",
          "name": "recipient",
          "type": "address"
        },
        {
          "indexed": false,
          "internalType": "uint256",
          "name": "amount",
          "type": "uint256"
        },
        {
          "indexed": false,
          "internalType": "string",
          "name": "description",
          "type": "string"
        }
      ],
      "name": "TreasuryAction",
      "type": "event"
    },
    {
      "anonymous": false,
      "inputs": [
        {
          "indexed": true,
          "internalType": "uint256",
          "name": "proposalId",
          "type": "uint256"
        },
        {
          "indexed": false,
          "internalType": "uint256",
          "name": "amount",
          "type": "uint256"
        },
        {
          "indexed": false,
          "internalType": "uint256",
          "name": "perMember",
          "type": "uint256"
        },
        {
          "indexed": false,
          "internalType": "uint256",
          "name": "remainder",
          "type": "uint256"
        }
      ],
      "name": "TreasuryDisbanded",
      "type": "event"
    },
    {
      "anonymous": false,
      "inputs": [
        {
          "indexed": true,
          "internalType": "uint256",
          "name": "proposalId",
          "type": "uint256"
        },
        {
          "indexed": true,
          "internalType": "address",
          "name": "voter",
          "type": "address"
        },
        {
          "indexed": false,
          "internalType": "bool",
          "name": "support",
          "type": "bool"
        },
        {
          "indexed": false,
          "internalType": "uint256",
          "name": "timestamp",
          "type": "uint256"
        }
      ],
      "name": "VoteCast",
      "type": "event"
    },
    {
      "inputs": [],
      "name": "DEFAULT_VOTING_PERIOD",
      "outputs": [
        {
          "internalType": "uint256",
          "name": "",
          "type": "uint256"
        }
      ],
      "stateMutability": "view",
      "type": "function"
    },
    {
      "inputs": [],
      "name": "MAX_VOTING_PERIOD",
      "outputs": [
        {
          "internalType": "uint256",
          "name": "",
          "type": "uint256"
        }
      ],
      "stateMutability": "view",
      "type": "function"
    },
    {
      "inputs": [],
      "name": "MIN_VOTING_PERIOD",
      "outputs": [
        {
          "internalType": "uint256",
          "name": "",
          "type": "uint256"
        }
      ],
      "stateMutability": "view",
      "type": "function"
    },
    {
      "inputs": [],
      "name": "accessToken",
      "outputs": [
        {
          "internalType": "address",
          "name": "",
          "type": "address"
        }
      ],
      "stateMutability": "view",
      "type": "function"
    },
    {
      "inputs": [
        {
          "internalType": "address",
          "name": "",
          "type": "address"
        }
      ],
      "name": "activeProposalId",
      "outputs": [
        {
          "internalType": "uint256",
          "name": "",
          "type": "uint256"
        }
      ],
      "stateMutability": "view",
      "type": "function"
    },
    {
      "inputs": [],
      "name": "claimMemberPool",
      "outputs": [],
      "stateMutability": "nonpayable",
      "type": "function"
    },
    {
      "inputs": [
        {
          "internalType": "string",
          "name": "_title",
          "type": "string"
        },
        {
          "internalType": "string",
          "name": "_description",
          "type": "string"
        },
        {
          "internalType": "uint256",
          "name": "_votingPeriod",
          "type": "uint256"
        }
      ],
      "name": "createProposalDisbandTreasury",
      "outputs": [
        {
          "internalType": "uint256",
          "name": "",
          "type": "uint256"
        }
      ],
      "stateMutability": "nonpayable",
      "type": "function"
    },
    {
      "inputs": [
        {
          "internalType": "string",
          "name": "_title",
          "type": "string"
        },
        {
          "internalType": "string",
          "name": "_description",
          "type": "string"
        },
        {
          "internalType": "bool",
          "name": "_paused",
          "type": "bool"
        },
        {
          "internalType": "uint256",
          "name": "_votingPeriod",
          "type": "uint256"
        }
      ],
      "name": "createProposalSetPaused",
      "outputs": [
        {
          "internalType": "uint256",
          "name": "",
          "type": "uint256"
        }
      ],
      "stateMutability": "nonpayable",
      "type": "function"
    },
    {
      "inputs": [
        {
          "internalType": "string",
          "name": "_title",
          "type": "string"
        },
        {
          "internalType": "string",
          "name": "_description",
          "type": "string"
        },
        {
          "internalType": "uint256",
          "name": "_newEntryFee",
          "type": "uint256"
        },
        {
          "internalType": "uint256",
          "name": "_votingPeriod",
          "type": "uint256"
        }
      ],
      "name": "createProposalUpdateConfig",
      "outputs": [
        {
          "internalType": "uint256",
          "name": "",
          "type": "uint256"
        }
      ],
      "stateMutability": "nonpayable",
      "type": "function"
    },
    {
      "inputs": [
        {
          "internalType": "string",
          "name": "_title",
          "type": "string"
        },
        {
          "internalType": "string",
          "name": "_description",
          "type": "string"
        },
        {
          "internalType": "address",
          "name": "_token",
          "type": "address"
        },
        {
          "internalType": "address",
          "name": "_recipient",
          "type": "address"
        },
        {
          "internalType": "string",
          "name": "_reason",
          "type": "string"
        },
        {
          "internalType": "uint256",
          "name": "_votingPeriod",
          "type": "uint256"
        }
      ],
      "name": "createProposalWithdrawAllTreasury",
      "outputs": [
        {
          "internalType": "uint256",
          "name": "",
          "type": "uint256"
        }
      ],
      "stateMutability": "nonpayable",
      "type": "function"
    },
    {
      "inputs": [
        {
          "internalType": "string",
          "name": "_title",
          "type": "string"
        },
        {
          "internalType": "string",
          "name": "_description",
          "type": "string"
        },
        {
          "internalType": "address",
          "name": "_token",
          "type": "address"
        },
        {
          "internalType": "address",
          "name": "_recipient",
          "type": "address"
        },
        {
          "internalType": "uint256",
          "name": "_amount",
          "type": "uint256"
        },
        {
          "internalType": "string",
          "name": "_reason",
          "type": "string"
        },
        {
          "internalType": "uint256",
          "name": "_votingPeriod",
          "type": "uint256"
        }
      ],
      "name": "createProposalWithdrawTreasury",
      "outputs": [
        {
          "internalType": "uint256",
          "name": "",
          "type": "uint256"
        }
      ],
      "stateMutability": "nonpayable",
      "type": "function"
    },
    {
      "inputs": [],
      "name": "cumulativeMemberRewards",
      "outputs": [
        {
          "internalType": "uint256",
          "name": "",
          "type": "uint256"
        }
      ],
      "stateMutability": "view",
      "type": "function"
    },
    {
      "inputs": [],
      "name": "disbandTreasuryDAO",
      "outputs": [],
      "stateMutability": "nonpayable",
      "type": "function"
    },
    {
      "inputs": [],
      "name": "entryFee",
      "outputs": [
        {
          "internalType": "uint256",
          "name": "",
          "type": "uint256"
        }
      ],
      "stateMutability": "view",
      "type": "function"
    },
    {
      "inputs": [
        {
          "internalType": "uint256",
          "name": "_proposalId",
          "type": "uint256"
        }
      ],
      "name": "executeProposal",
      "outputs": [],
      "stateMutability": "nonpayable",
      "type": "function"
    },
    {
      "inputs": [],
      "name": "getActiveProposals",
      "outputs": [
        {
          "internalType": "uint256[]",
          "name": "",
          "type": "uint256[]"
        }
      ],
      "stateMutability": "view",
      "type": "function"
    },
    {
      "inputs": [
        {
          "internalType": "uint256",
          "name": "offset",
          "type": "uint256"
        },
        {
          "internalType": "uint256",
          "name": "limit",
          "type": "uint256"
        }
      ],
      "name": "getActiveProposalsPaginated",
      "outputs": [
        {
          "internalType": "uint256[]",
          "name": "proposalIds",
          "type": "uint256[]"
        },
        {
          "internalType": "bool",
          "name": "hasMore",
          "type": "bool"
        }
      ],
      "stateMutability": "view",
      "type": "function"
    },
    {
      "inputs": [
        {
          "internalType": "address",
          "name": "member",
          "type": "address"
        }
      ],
      "name": "getClaimablePoolAmount",
      "outputs": [
        {
          "internalType": "uint256",
          "name": "",
          "type": "uint256"
        }
      ],
      "stateMutability": "view",
      "type": "function"
    },
    {
      "inputs": [],
      "name": "getConfig",
      "outputs": [
        {
          "internalType": "address",
          "name": "token",
          "type": "address"
        },
        {
          "internalType": "uint256",
          "name": "fee",
          "type": "uint256"
        },
        {
          "internalType": "bool",
          "name": "isPaused",
          "type": "bool"
        },
        {
          "internalType": "uint256",
          "name": "purchases",
          "type": "uint256"
        },
        {
          "internalType": "uint256",
          "name": "treasury",
          "type": "uint256"
        },
        {
          "internalType": "uint256",
          "name": "pool",
          "type": "uint256"
        }
      ],
      "stateMutability": "view",
      "type": "function"
    },
    {
      "inputs": [],
      "name": "getMemberCount",
      "outputs": [
        {
          "internalType": "uint256",
          "name": "",
          "type": "uint256"
        }
      ],
      "stateMutability": "view",
      "type": "function"
    },
    {
      "inputs": [
        {
          "internalType": "uint256",
          "name": "_proposalId",
          "type": "uint256"
        }
      ],
      "name": "getProposal",
      "outputs": [
        {
          "internalType": "address",
          "name": "proposer",
          "type": "address"
        },
        {
          "internalType": "string",
          "name": "title",
          "type": "string"
        },
        {
          "internalType": "string",
          "name": "description",
          "type": "string"
        },
        {
          "internalType": "uint256",
          "name": "yesVotes",
          "type": "uint256"
        },
        {
          "internalType": "uint256",
          "name": "noVotes",
          "type": "uint256"
        },
        {
          "internalType": "uint256",
          "name": "endTime",
          "type": "uint256"
        },
        {
          "internalType": "bool",
          "name": "executed",
          "type": "bool"
        },
        {
          "internalType": "bool",
          "name": "passed",
          "type": "bool"
        }
      ],
      "stateMutability": "view",
      "type": "function"
    },
    {
      "inputs": [
        {
          "internalType": "address",
          "name": "user",
          "type": "address"
        }
      ],
      "name": "getPurchaseDetails",
      "outputs": [
        {
          "internalType": "bool",
          "name": "purchased",
          "type": "bool"
        },
        {
          "internalType": "uint256",
          "name": "timestamp",
          "type": "uint256"
        },
        {
          "internalType": "uint256",
          "name": "blockNum",
          "type": "uint256"
        }
      ],
      "stateMutability": "view",
      "type": "function"
    },
    {
      "inputs": [],
      "name": "getTreasuryInfo",
      "outputs": [
        {
          "internalType": "uint256",
          "name": "treasury",
          "type": "uint256"
        },
        {
          "internalType": "uint256",
          "name": "memberPool",
          "type": "uint256"
        },
        {
          "internalType": "uint256",
          "name": "totalReceived",
          "type": "uint256"
        },
        {
          "internalType": "uint256",
          "name": "totalBurnedAmount",
          "type": "uint256"
        },
        {
          "internalType": "uint256",
          "name": "totalProtocolFees",
          "type": "uint256"
        },
        {
          "internalType": "address",
          "name": "protocolAddress",
          "type": "address"
        }
      ],
      "stateMutability": "view",
      "type": "function"
    },
    {
      "inputs": [
        {
          "internalType": "address",
          "name": "voter",
          "type": "address"
        }
      ],
      "name": "getVoteWeight",
      "outputs": [
        {
          "internalType": "uint256",
          "name": "",
          "type": "uint256"
        }
      ],
      "stateMutability": "view",
      "type": "function"
    },
    {
      "inputs": [
        {
          "internalType": "address",
          "name": "user",
          "type": "address"
        }
      ],
      "name": "hasAccess",
      "outputs": [
        {
          "internalType": "bool",
          "name": "",
          "type": "bool"
        }
      ],
      "stateMutability": "view",
      "type": "function"
    },
    {
      "inputs": [
        {
          "internalType": "address",
          "name": "",
          "type": "address"
        }
      ],
      "name": "hasActiveProposal",
      "outputs": [
        {
          "internalType": "bool",
          "name": "",
          "type": "bool"
        }
      ],
      "stateMutability": "view",
      "type": "function"
    },
    {
      "inputs": [
        {
          "internalType": "uint256",
          "name": "_proposalId",
          "type": "uint256"
        },
        {
          "internalType": "address",
          "name": "_voter",
          "type": "address"
        }
      ],
      "name": "hasVoted",
      "outputs": [
        {
          "internalType": "bool",
          "name": "voted",
          "type": "bool"
        },
        {
          "internalType": "bool",
          "name": "support",
          "type": "bool"
        }
      ],
      "stateMutability": "view",
      "type": "function"
    },
    {
      "inputs": [
        {
          "internalType": "address",
          "name": "",
          "type": "address"
        }
      ],
      "name": "memberIndex",
      "outputs": [
        {
          "internalType": "uint256",
          "name": "",
          "type": "uint256"
        }
      ],
      "stateMutability": "view",
      "type": "function"
    },
    {
      "inputs": [
        {
          "internalType": "uint256",
          "name": "",
          "type": "uint256"
        }
      ],
      "name": "memberList",
      "outputs": [
        {
          "internalType": "address",
          "name": "",
          "type": "address"
        }
      ],
      "stateMutability": "view",
      "type": "function"
    },
    {
      "inputs": [],
      "name": "memberPoolBalance",
      "outputs": [
        {
          "internalType": "uint256",
          "name": "",
          "type": "uint256"
        }
      ],
      "stateMutability": "view",
      "type": "function"
    },
    {
      "inputs": [
        {
          "internalType": "address",
          "name": "",
          "type": "address"
        }
      ],
      "name": "memberPoolClaims",
      "outputs": [
        {
          "internalType": "uint256",
          "name": "",
          "type": "uint256"
        }
      ],
      "stateMutability": "view",
      "type": "function"
    },
    {
      "inputs": [],
      "name": "memberRewardRemainder",
      "outputs": [
        {
          "internalType": "uint256",
          "name": "",
          "type": "uint256"
        }
      ],
      "stateMutability": "view",
      "type": "function"
    },
    {
      "inputs": [
        {
          "internalType": "address",
          "name": "",
          "type": "address"
        }
      ],
      "name": "members",
      "outputs": [
        {
          "internalType": "bool",
          "name": "purchased",
          "type": "bool"
        },
        {
          "internalType": "uint256",
          "name": "timestamp",
          "type": "uint256"
        },
        {
          "internalType": "uint256",
          "name": "block",
          "type": "uint256"
        },
        {
          "internalType": "uint256",
          "name": "rewardSnapshot",
          "type": "uint256"
        }
      ],
      "stateMutability": "view",
      "type": "function"
    },
    {
      "inputs": [],
      "name": "paused",
      "outputs": [
        {
          "internalType": "bool",
          "name": "",
          "type": "bool"
        }
      ],
      "stateMutability": "view",
      "type": "function"
    },
    {
      "inputs": [],
      "name": "priest",
      "outputs": [
        {
          "internalType": "address",
          "name": "",
          "type": "address"
        }
      ],
      "stateMutability": "view",
      "type": "function"
    },
    {
      "inputs": [],
      "name": "proposalCount",
      "outputs": [
        {
          "internalType": "uint256",
          "name": "",
          "type": "uint256"
        }
      ],
      "stateMutability": "view",
      "type": "function"
    },
    {
      "inputs": [
        {
          "internalType": "uint256",
          "name": "",
          "type": "uint256"
        }
      ],
      "name": "proposals",
      "outputs": [
        {
          "internalType": "uint256",
          "name": "id",
          "type": "uint256"
        },
        {
          "internalType": "address",
          "name": "proposer",
          "type": "address"
        },
        {
          "internalType": "string",
          "name": "title",
          "type": "string"
        },
        {
          "internalType": "string",
          "name": "description",
          "type": "string"
        },
        {
          "internalType": "enum TEMPL.Action",
          "name": "action",
          "type": "uint8"
        },
        {
          "internalType": "address",
          "name": "token",
          "type": "address"
        },
        {
          "internalType": "address",
          "name": "recipient",
          "type": "address"
        },
        {
          "internalType": "uint256",
          "name": "amount",
          "type": "uint256"
        },
        {
          "internalType": "string",
          "name": "reason",
          "type": "string"
        },
        {
          "internalType": "bool",
          "name": "paused",
          "type": "bool"
        },
        {
          "internalType": "uint256",
          "name": "newEntryFee",
          "type": "uint256"
        },
        {
          "internalType": "uint256",
          "name": "yesVotes",
          "type": "uint256"
        },
        {
          "internalType": "uint256",
          "name": "noVotes",
          "type": "uint256"
        },
        {
          "internalType": "uint256",
          "name": "endTime",
          "type": "uint256"
        },
        {
          "internalType": "uint256",
          "name": "createdAt",
          "type": "uint256"
        },
        {
          "internalType": "uint256",
          "name": "eligibleVoters",
          "type": "uint256"
        },
        {
          "internalType": "bool",
          "name": "executed",
          "type": "bool"
        }
      ],
      "stateMutability": "view",
      "type": "function"
    },
    {
      "inputs": [],
      "name": "protocolFeeRecipient",
      "outputs": [
        {
          "internalType": "address",
          "name": "",
          "type": "address"
        }
      ],
      "stateMutability": "view",
      "type": "function"
    },
    {
      "inputs": [],
      "name": "purchaseAccess",
      "outputs": [],
      "stateMutability": "nonpayable",
      "type": "function"
    },
    {
      "inputs": [
        {
          "internalType": "bool",
          "name": "_paused",
          "type": "bool"
        }
      ],
      "name": "setPausedDAO",
      "outputs": [],
      "stateMutability": "nonpayable",
      "type": "function"
    },
    {
      "inputs": [],
      "name": "totalBurned",
      "outputs": [
        {
          "internalType": "uint256",
          "name": "",
          "type": "uint256"
        }
      ],
      "stateMutability": "view",
      "type": "function"
    },
    {
      "inputs": [],
      "name": "totalPurchases",
      "outputs": [
        {
          "internalType": "uint256",
          "name": "",
          "type": "uint256"
        }
      ],
      "stateMutability": "view",
      "type": "function"
    },
    {
      "inputs": [],
      "name": "totalToMemberPool",
      "outputs": [
        {
          "internalType": "uint256",
          "name": "",
          "type": "uint256"
        }
      ],
      "stateMutability": "view",
      "type": "function"
    },
    {
      "inputs": [],
      "name": "totalToProtocol",
      "outputs": [
        {
          "internalType": "uint256",
          "name": "",
          "type": "uint256"
        }
      ],
      "stateMutability": "view",
      "type": "function"
    },
    {
      "inputs": [],
      "name": "totalToTreasury",
      "outputs": [
        {
          "internalType": "uint256",
          "name": "",
          "type": "uint256"
        }
      ],
      "stateMutability": "view",
      "type": "function"
    },
    {
      "inputs": [],
      "name": "treasuryBalance",
      "outputs": [
        {
          "internalType": "uint256",
          "name": "",
          "type": "uint256"
        }
      ],
      "stateMutability": "view",
      "type": "function"
    },
    {
      "inputs": [
        {
          "internalType": "address",
          "name": "_token",
          "type": "address"
        },
        {
          "internalType": "uint256",
          "name": "_entryFee",
          "type": "uint256"
        }
      ],
      "name": "updateConfigDAO",
      "outputs": [],
      "stateMutability": "nonpayable",
      "type": "function"
    },
    {
      "inputs": [
        {
          "internalType": "uint256",
          "name": "_proposalId",
          "type": "uint256"
        },
        {
          "internalType": "bool",
          "name": "_support",
          "type": "bool"
        }
      ],
      "name": "vote",
      "outputs": [],
      "stateMutability": "nonpayable",
      "type": "function"
    },
    {
      "inputs": [
        {
          "internalType": "address",
          "name": "token",
          "type": "address"
        },
        {
          "internalType": "address",
          "name": "recipient",
          "type": "address"
        },
        {
          "internalType": "string",
          "name": "reason",
          "type": "string"
        }
      ],
      "name": "withdrawAllTreasuryDAO",
      "outputs": [],
      "stateMutability": "nonpayable",
      "type": "function"
    },
    {
      "inputs": [
        {
          "internalType": "address",
          "name": "token",
          "type": "address"
        },
        {
          "internalType": "address",
          "name": "recipient",
          "type": "address"
        },
        {
          "internalType": "uint256",
          "name": "amount",
          "type": "uint256"
        },
        {
          "internalType": "string",
          "name": "reason",
          "type": "string"
        }
      ],
      "name": "withdrawTreasuryDAO",
      "outputs": [],
      "stateMutability": "nonpayable",
      "type": "function"
    },
    {
      "stateMutability": "payable",
      "type": "receive"
    }
  ],
  "bytecode": "0x60e034620001b157601f6200324038819003918201601f191683019291906001600160401b03841183851017620001b6578160809284926040968752833981010312620001b1576200005181620001cc565b906200006060208201620001cc565b60606200006f858401620001cc565b9201516001600055926001600160a01b0380821615908115620001a5575b811562000199575b50620001885783156200017757600a84106200016657600a8406620001555760805260a05260c05260015560ff19600454166004555161305e9081620001e2823960805181610a5c015260a051818181610a0101528181611017015261147b015260c051818181610320015281816103d2015281816104a60152818161097b01528181610e3301528181610fae01528181610fe10152818161103901528181611a0a01528181611d7901528181611f180152818161298301526129d70152f35b8451636fe6a4c960e01b8152600490fd5b8451635eee050360e11b8152600490fd5b84516365e52d5160e11b8152600490fd5b8451634e46966960e11b8152600490fd5b90508316153862000095565b8381161591506200008d565b600080fd5b634e487b7160e01b600052604160045260246000fd5b51906001600160a01b0382168203620001b15756fe60a0604052600436101561001b575b361561001957600080fd5b005b60003560e01c8063013cf08b146121ee578063072ea61c146121d057806308ae4b0c1461216f5780630d61b51914611c185780631808022a14611bf5578063215809ca14610aeb5780632833788614611b38578063313dab2014611b1a5780633ccae22a146119ac5780633dd352791461197257806343859632146119035780634a87169d14611878578063524ddc231461184b5780635584c4f91461175957806356e4a9a81461157d5780635962a9411461155f57806359c266ff146115415780635c975abb1461151e5780635fa7ddf01461150057806364653f29146114aa57806364df049e14611465578063653724d6146114385780636898b19c1461141a5780636ad18550146113e0578063843257a61461133b5780638e3a3d98146112655780638f78bbc41461122357806395a078e8146111e4578063997072f7146111c657806399e288d814610d9a578063a51a46b914610d7c578063a64e024a14610d5e578063a730117e14610d3b578063a81bbe3c14610d01578063ae79d21714610af0578063aedfe53f14610aeb578063b307fc6d14610aa9578063bdb75b3414610a8b578063bebc8fc014610a46578063c1b57edb14610a28578063c2939471146109ba578063c3f909d414610947578063c7f758a81461086f578063c9d27afe14610656578063d402d4be1461043d578063d89135cd1461041f578063da35c66414610401578063e243c5fb146103bc578063f7158b2a1461028a5763ffafe4ad0361000e5734610285576020366003190112610285576001600160a01b036102676124d2565b16600052600e602052602060ff604060002054166040519015158152f35b600080fd5b346102855760003660031901126102855733600052600560205260ff60406000205416156103aa576102ba6128df565b6102c333612638565b801561039857806102d9600354600a549061262b565b106103865760095433600052600560205260036040600020015560086020526040600020610308828254612710565b90556103168160035461262b565b60035561034d81337f00000000000000000000000000000000000000000000000000000000000000006001600160a01b0316612f41565b6040519081524260208201527fc4e740509dbfae3377bc9925dd7bcc8aaba69cd730316216d76b2d24725c636660403392a26001600055005b60405163bc6072f160e01b8152600490fd5b6040516373380d9960e01b8152600490fd5b60405163148fe22160e11b8152600490fd5b34610285576000366003190112610285576040517f00000000000000000000000000000000000000000000000000000000000000006001600160a01b03168152602090f35b34610285576000366003190112610285576020600b54604051908152f35b34610285576000366003190112610285576020601054604051908152f35b34610285576080366003190112610285576104566124d2565b61045e6124e8565b90604435906064356001600160401b03811161028557610482903690600401612563565b92303303610644576001600160a01b038181169490851561063257841561062057807f00000000000000000000000000000000000000000000000000000000000000001693169383851460001461053a5760025493848211610528578160008051602061300983398151915294610507926104ff8360009961262b565b600255612f41565b6105236040519283928352604060208401526040830190612492565b0390a4005b604051631c7b597b60e11b8152600490fd5b909250908361058c575047811161052857600080808084885af161055c612902565b501561057a5760009160008051602061300983398151915291610507565b6040516331d436c760e01b8152600490fd5b90916040516370a0823160e01b8152306004820152602081602481885afa908115610614576000916105e2575b50831161052857826105dd6000946000805160206130098339815191529487612f41565b610507565b90506020813d60201161060c575b816105fd602093836123cc565b810103126102855751866105b9565b3d91506105f0565b6040513d6000823e3d90fd5b6040516365e52d5160e11b8152600490fd5b604051634e46966960e11b8152600490fd5b6040516327568d2f60e11b8152600490fd5b346102855760403660031901126102855760043560249081358015159283820361028557336000526020916005835260ff60406000205416156103aa57600b5484101561085d5783600052600c8352604060002091600c83015442101561084b5733600052600584526001928360406000200154600d82015411156108395760108101923360005283865260ff604060002054169360119485840180895260ff6040600020541692895260406000208860ff19825416179055885261072b8360406000209060ff801983541691151516179055565b6107a657501561078e57600a0191825493840180941161077c575050555b60405192835242908301527fcbdf6214089cba887ecbf35a0b6a734589959c9763342c756bb2a80ca2bc9f6e60403393a3005b634e487b7160e01b6000526004526000fd5b600b0191825493840180941161077c57505055610749565b905087811515036107bc575b5050505050610749565b1561080a57600a810180546000198101919082116107f65790600b9291550191825493840180941161077c575050555b83808080806107b2565b8385634e487b7160e01b6000526004526000fd5b600b810180546000198101919082116107f65790600a9291550191825493840180941161077c575050556107ec565b60405163f078ca7360e01b8152600490fd5b604051637a19ed0560e01b8152600490fd5b604051631dc0650160e31b8152600490fd5b3461028557602036600319011261028557600435600b5481101561085d57600052600c6020526040600020600c810154804210159081610935575b60018060a01b0360018401541691600a84015491600b8501549060ff600f87015416916109136108e860036108e160028b016123ed565b99016123ed565b610905604051998a99610100908b528060208c01528a0190612492565b9088820360408a0152612492565b946060870152608086015260a0850152151560c0840152151560e08301520390f35b600a830154600b8401541091506108aa565b346102855760003660031901126102855760c060015460ff60045416600f5460025490600354926040519460018060a01b037f00000000000000000000000000000000000000000000000000000000000000001686526020860152151560408501526060840152608083015260a0820152f35b346102855760003660031901126102855760c06002546003546011546010549060135492604051948552602085015260408401526060830152608082015260018060a01b037f00000000000000000000000000000000000000000000000000000000000000001660a0820152f35b34610285576000366003190112610285576020601154604051908152f35b34610285576000366003190112610285576040517f00000000000000000000000000000000000000000000000000000000000000006001600160a01b03168152602090f35b34610285576000366003190112610285576020601254604051908152f35b346102855760203660031901126102855760043560065481101561028557610ad26020916125de565b905460405160039290921b1c6001600160a01b03168152f35b61252a565b346102855760c0366003190112610285576001600160401b0360043581811161028557610b21903690600401612563565b60243582811161028557610b39903690600401612563565b91610b426124fe565b90610b4b612514565b9360843582811161028557610b64903690600401612563565b93336000526020956005875260ff60406000205416156103aa57610b91610bbf9260079460a43591612a3d565b6004810180546001600160a81b03191660089890981b610100600160a81b0316979097176003179096559491565b6005820180546001600160a01b0319166001600160a01b0390921691909117905584519101918111610ceb57610bf58254612377565b601f8111610ca5575b508493601f8211600114610c41579381929394600092610c36575b50508160011b916000199060031b1c19161790555b604051908152f35b015190508580610c19565b601f1982169483600052866000209160005b88888210610c8f57505083600195969710610c76575b505050811b019055610c2e565b015160001960f88460031b161c19169055858080610c69565b6001849582939585015181550194019201610c53565b8260005285600020601f830160051c810191878410610ce1575b601f0160051c01905b818110610cd55750610bfe565b60008155600101610cc8565b9091508190610cbf565b634e487b7160e01b600052604160045260246000fd5b34610285576020366003190112610285576001600160a01b03610d226124d2565b1660005260086020526020604060002054604051908152f35b34610285576020366003190112610285576020610c2e610d596124d2565b6128b5565b3461028557600036600319011261028557602060405162278d008152f35b34610285576000366003190112610285576020600a54604051908152f35b346102855760003660031901126102855760ff600454166111b4573033146111a257610dc46128df565b3360005260056020526040600020805460ff811661119057600191825490601e820290821593838304601e148517156110d75783603c810204603c148517156110d757600a840294848604600a1417156110d7576040516370a0823160e01b81523360048201526020816024817f00000000000000000000000000000000000000000000000000000000000000006001600160a01b03165afa801561061457859160009161115b575b501061114957859060ff191617815542858201554360028201556006543360005260076020528060406000205568010000000000000000811015610ceb578086610eba92016006556125de565b81546001600160a01b0360039290921b91821b19163390911b179055600f54610ee290612684565b600f556006548581116110ed575b5060036009549101558354601e810290808204601e14901517156110d7576064603c8161100e930494610f2586600254612710565b600255610f3486600354612710565b600355610f45838604601054612710565b601055610f5486601154612710565b601155610f6386601254612710565b601255610f74838804601354612710565b6013556040516323b872dd60e01b602082015233602482015261dead604482015283860484820152838152610fdb90610fac816123b1565b7f00000000000000000000000000000000000000000000000000000000000000006001600160a01b0316612f8c565b020430337f00000000000000000000000000000000000000000000000000000000000000006001600160a01b0316612efa565b611066606484047f0000000000000000000000000000000000000000000000000000000000000000337f00000000000000000000000000000000000000000000000000000000000000006001600160a01b0316612efa565b835492600f549260001984019384116110d7576064809360405196875204602086015280604086015260608501520460808301524260a08301524360c083015260e08201527fe6d1c0e418a42a777d49c66571075fc47bc1d92e7f506007ddde08d1ff182bbc6101003392a2600055005b634e487b7160e01b600052601160045260246000fd5b8554601e810290808204601e14901517156110d757611112906064600a549104612710565b60001982019182116110d7576111358261112f61114094846128ab565b926126f0565b600a55600954612710565b60095585610ef0565b604051631e9acf1760e31b8152600490fd5b9150506020813d602011611188575b81611177602093836123cc565b810103126102855784905188610e6d565b3d915061116a565b604051630cd9ed5560e21b8152600490fd5b604051636edaef2f60e11b8152600490fd5b604051630eceade960e31b8152600490fd5b34610285576000366003190112610285576020600654604051908152f35b34610285576020366003190112610285576001600160a01b036112056124d2565b166000526005602052602060ff604060002054166040519015158152f35b346102855760403660031901126102855761125961124560243560043561271d565b6040519283926040845260408401906125aa565b90151560208301520390f35b34610285576080366003190112610285576001600160401b0360043581811161028557611296903690600401612563565b90602435908111610285576112af903690600401612563565b906044359133600052600560205260ff60406000205416156103aa5782611300575b916112e460099260209460643591612a3d565b60048101805460ff191660011790559290920155604051908152f35b91600a811061132957600a810661131757916112d1565b604051636fe6a4c960e01b8152600490fd5b604051635eee050360e11b8152600490fd5b34610285576080366003190112610285576001600160401b036004358181116102855761136c903690600401612563565b9060243590811161028557611385903690600401612563565b6044359182151583036102855733600052600560205260ff60406000205416156103aa576020926113bf610c2e9260089460643591612a3d565b6004819592950160ff198154169055019060ff801983541691151516179055565b34610285576020366003190112610285576001600160a01b036114016124d2565b16600052600d6020526020604060002054604051908152f35b34610285576000366003190112610285576020600954604051908152f35b346102855760203660031901126102855760043580151581036102855730330361064457610019906129ff565b34610285576000366003190112610285576040517f00000000000000000000000000000000000000000000000000000000000000006001600160a01b03168152602090f35b34610285576020366003190112610285576001600160a01b036114cb6124d2565b1660005260056020526060604060002060ff815416906002600182015491015490604051921515835260208301526040820152f35b34610285576000366003190112610285576020600354604051908152f35b3461028557600036600319011261028557602060ff600454166040519015158152f35b34610285576000366003190112610285576020601354604051908152f35b34610285576000366003190112610285576020600f54604051908152f35b346102855760e0366003190112610285576001600160401b03600435818111610285576115ae903690600401612563565b602435828111610285576115c6903690600401612563565b916115cf6124fe565b906115d8612514565b9360a435828111610285576115f1903690600401612563565b93336000526020956005875260ff60406000205416156103aa5761161e61164c9260079460c43591612a3d565b6004810180546001600160a81b03191660089890981b610100600160a81b0316979097176002179096559491565b6005820180546001600160a01b0319166001600160a01b03909216919091179055608435600682015584519101918111610ceb5761168a8254612377565b601f8111611713575b508493601f82116001146116c9579381929394600092610c365750508160011b916000199060031b1c1916179055604051908152f35b601f1982169483600052866000209160005b888882106116fd57505083600195969710610c7657505050811b019055610c2e565b60018495829395850151815501940192016116db565b8260005285600020601f830160051c81019187841061174f575b601f0160051c01905b8181106117435750611693565b60008155600101611736565b909150819061172d565b3461028557600036600319011261028557600b546000805b8281106117fd5750611782906126aa565b906000805b8281106117a857604051602080825281906117a4908201876125aa565b0390f35b80600191600052600c80602052604060002090810154421090816117ed575b506117d3575b01611787565b806117e76117e085612684565b94876126dc565b526117cd565b60ff9150600f01541615866117c7565b80600052600c806020526040600020908101544210908161183b575b50611827575b600101611771565b90611833600191612684565b91905061181f565b60ff9150600f0154161584611819565b34610285576040366003190112610285576118646124d2565b303303610644576100199060243590612932565b34610285576060366003190112610285576001600160401b03600435818111610285576118a9903690600401612563565b90602435908111610285576118c2903690600401612563565b9033600052600560205260ff60406000205416156103aa576118ec60049160209360443591612a3d565b91909101805460ff19166004179055604051908152f35b346102855760403660031901126102855760043561191f6124e8565b600b5482101561085d57604091600052600c602052816000209060018060a01b031660005260108101602052601160ff836000205416910160205260ff8260002054168251911515825215156020820152f35b34610285576020366003190112610285576001600160a01b036119936124d2565b1660005260076020526020604060002054604051908152f35b34610285576060366003190112610285576119c56124d2565b6119cd6124e8565b6044356001600160401b038111610285576119ec903690600401612563565b90303303610644576001600160a01b038181169390841561063257807f000000000000000000000000000000000000000000000000000000000000000016911692818414600014611a7457600254918215611a625761050783600095600080516020613009833981519152959387600255612f41565b604051631ab9ebab60e01b8152600490fd5b91905082611a955750478015611a6257600080808084885af161055c612902565b6040516370a0823160e01b81523060048201529091602082602481875afa91821561061457600092611ae6575b50818215611a62576105dd6000805160206130098339815191529360009587612f41565b9091506020813d602011611b12575b81611b02602093836123cc565b8101031261028557519085611ac2565b3d9150611af5565b34610285576000366003190112610285576020600254604051908152f35b3461028557600036600319011261028557303303610644576002548015611a6257600654908115611be35760607f8b887c99365b16ec127c895b4fbfab96273b2a79191ed7b42b9724cd8a695ae99160009384600255611b9a82600354612710565b600355611bb1611baa82846128ab565b91836126f0565b90611bbe81600954612710565b600955611bcd82600a54612710565b600a5560405192835260208301526040820152a2005b604051630292d7c360e51b8152600490fd5b34610285576020366003190112610285576020610c2e611c136124d2565b612638565b34610285576020806003193601126102855760043590611c366128df565b600b5482101561085d5781600052600c8152604060002090600c820154421061215d57600f820180549060ff821661214b57600a840154600b850154101561213957600160ff1980931617905560018060a01b039081600185015416600052600e835260ff6040600020541680612127575b612107575b506004830160ff81541660058110156120f15780611d0557505050606090611cea60ff6008600080516020612fe9833981519152950154166129ff565b60408051916001835282015260006040820152a26001600055005b60018103611d3b5750600080516020612fe983398151915293600960609493611d36935460081c1691015490612932565b611cea565b91929160029190828103611ee8575083905460081c168360058601541691611d6a6007600688015497016123ed565b948315610632578615610620577f00000000000000000000000000000000000000000000000000000000000000001694828603611e08578154908188116105285787611de5818760609a8d97611dde600080516020612fe98339815191529e6000805160206130098339815191529961262b565b9055612f41565b611e0060405192839283526040898401526040830190612492565b0390a4611cea565b9594505080611e575747841161052857600080808087865af1611e29612902565b501561057a5785600080516020613009833981519152600080516020612fe983398151915296606096611de5565b6040516370a0823160e01b81523060048201528381602481855afa90811561061457600091611ebb575b5084116105285785600080516020613009833981519152600080516020612fe98339815191529686611eb66060988787612f41565b611de5565b90508381813d8311611ee1575b611ed281836123cc565b81010312610285575187611e81565b503d611ec8565b939491936003810361202c575084905460081c16611f0f60078660058501541693016123ed565b948215610632577f000000000000000000000000000000000000000000000000000000000000000016818103611f7a5784548015611a6257600080516020612fe983398151915296606096611de583878c966000600080516020613009833981519152979555612f41565b50925082611f9b5747928315611a6257600080808087865af1611e29612902565b6040516370a0823160e01b815230600482015293928285602481845afa94851561061457600095611ffd575b50848515611a62576000805160206130098339815191526060958892611eb6600080516020612fe9833981519152998787612f41565b9094508281813d8311612025575b61201581836123cc565b8101031261028557519386611fc7565b503d61200b565b915050600491935014612052575b506060600080516020612fe983398151915291611cea565b8054918215611a6257600654928315611be3577f8b887c99365b16ec127c895b4fbfab96273b2a79191ed7b42b9724cd8a695ae960608692600080516020612fe98339815191529660008397556120ab82600354612710565b6003556120bb611baa82846128ab565b906120c881600954612710565b6009556120d782600a54612710565b600a55604051928352868301526040820152a2915061203a565b634e487b7160e01b600052602160045260246000fd5b600e83526040600020908154169055600d82526000604081205584611cad565b50600d83528460406000205414611ca8565b60405163c8c93ba360e01b8152600490fd5b604051630dc1019760e01b8152600490fd5b604051633fc30bd160e11b8152600490fd5b34610285576020366003190112610285576001600160a01b036121906124d2565b1660005260056020526080604060002060ff8154169060018101549060036002820154910154916040519315158452602084015260408301526060820152f35b34610285576000366003190112610285576020600154604051908152f35b3461028557602036600319011261028557600435600052600c6020526040600020805490600160a01b60019003600182015416906002810161222f906123ed565b9261223c600383016123ed565b6004830154600584015460068501546001600160a01b03909116969291612265600787016123ed565b90600887015460ff1698600988015492600a89015494600b8a015496600c8b015498600d8c01549a600e8d01549c600f015460ff169d6040516080526102209160805152608051602001528060805160400152608051016122c591612492565b6080518103608051606001526122da91612492565b9260ff8516600511156120f1578460ff612328961660808051015260018060a01b039060081c1660a0608051015260c0608051015260e0608051015260805182036101006080510152612492565b97151561012060805101526101406080510152610160608051015261018060805101526101a060805101526101c060805101526101e06080510152151561020060805101526080519003608051f35b90600182811c921680156123a7575b602083101461239157565b634e487b7160e01b600052602260045260246000fd5b91607f1691612386565b60a081019081106001600160401b03821117610ceb57604052565b90601f801991011681019081106001600160401b03821117610ceb57604052565b9060405191826000825461240081612377565b908184526020946001916001811690816000146124705750600114612431575b50505061242f925003836123cc565b565b600090815285812095935091905b81831061245857505061242f9350820101388080612420565b8554888401850152948501948794509183019161243f565b9250505061242f94925060ff191682840152151560051b820101388080612420565b919082519283825260005b8481106124be575050826000602080949584010152601f8019910116010190565b60208183018101518483018201520161249d565b600435906001600160a01b038216820361028557565b602435906001600160a01b038216820361028557565b604435906001600160a01b038216820361028557565b606435906001600160a01b038216820361028557565b3461028557600036600319011261028557602060405162093a808152f35b6001600160401b038111610ceb57601f01601f191660200190565b81601f820112156102855780359061257a82612548565b9261258860405194856123cc565b8284526020838301011161028557816000926020809301838601378301015290565b90815180825260208080930193019160005b8281106125ca575050505090565b8351855293810193928101926001016125bc565b6006548110156126155760066000527ff652222313e28459528d920b65115c16c04f3efc82aaedc97be59f3f377c0d3f0190600090565b634e487b7160e01b600052603260045260246000fd5b919082039182116110d757565b6001600160a01b03166000908152600560205260409020805460ff161561267e576003600954910154808211600014612677576126749161262b565b90565b5050600090565b50600090565b60001981146110d75760010190565b6001600160401b038111610ceb5760051b60200190565b906126b482612693565b6126c160405191826123cc565b82815280926126d2601f1991612693565b0190602036910137565b80518210156126155760209160051b010190565b81156126fa570690565b634e487b7160e01b600052601260045260246000fd5b919082018092116110d757565b91811580156128a1575b61288f57600b54808410156128605761273f836126aa565b91600091855b81871080612857575b156127bb575085600052600c80602052604060002090810154421090816127ab575b50612791575b600186018087116110d75761278b9096612684565b95612745565b856127a561279e85612684565b94866126dc565b52612776565b60ff9150600f0154161538612770565b9550909350600094818110612807575b50506127d6816126aa565b9160005b8281106127e8575050509190565b806127f5600192846126dc565b5161280082876126dc565b52016127da565b5b818110156127cb5780600052600c8060205260406000209081015442109081612847575b5061283957600101612808565b5050925060019238806127cb565b60ff9150600f015416153861282c565b5085841061274e565b50915050604051602081018181106001600160401b03821117610ceb5760405260008152600036813790600090565b6040516381f396b760e01b8152600490fd5b5060648211612727565b81156126fa570490565b6001600160a01b031660009081526005602052604090205460ff16156128da57600190565b600090565b6002600054146128f0576002600055565b604051633ee5aeb560e01b8152600490fd5b3d1561292d573d9061291382612548565b9161292160405193846123cc565b82523d6000602084013e565b606090565b6001600160a01b039190821680151590816129d2575b506129c057806129a7575b507faf8839d80c9b3bbf95c97465eb8c8348db4098f5c15af186c3b425b1129981176020600154926040519384527f00000000000000000000000000000000000000000000000000000000000000001692a2565b600a811061132957600a81066113175760015538612953565b60405163b078ee9d60e01b8152600490fd5b9050827f000000000000000000000000000000000000000000000000000000000000000016141538612948565b60207f752d7e161ff5146f80e3820893176eb40532811e5e20400dfdde57455213706a91151560ff196004541660ff821617600455604051908152a1565b91929092825115612ee857835115612ed6576000338152602091600e835260409060ff8284205416612e65575b80612e5f575062093a80945b62093a808610612e4e5762278d008611612e3d57600b5492612a9784612684565b600b558397848252600c865283822097858955600191828a01336bffffffffffffffffffffffff60a01b82541617905560028a018551906001600160401b0391828111612e2957612ae88254612377565b601f8111612de3575b50808b601f8211600114612d84578891612d79575b50600019600383901b1c191690861b1790555b60038b01918051918211612d655792828c95928a99989795612b3c8d9654612377565b601f8111612ceb575b508590601f8311600114612c3757612baa88957f98120a6aaa04295520ab4e01c6c1235dd316e822cc9ff31db7b3f197366d18bd9d9895858e99968996600b96612c209f9e92612c2c575b5050600019600383901b1c191690871b1790555b42612710565b97600c810198895542600d820155600654600e820155600f81019460ff19958681541690553384526010820181528784208587825416179055601182019052868320848682541617905583600a8201550155600e8c5283832091825416179055600d8a5220555491835193808552840190612492565b948201528033940390a3565b015190503880612b90565b90601f9b98999a9b1983169184895287892092895b818110612cbd575095612c209a9895887f98120a6aaa04295520ab4e01c6c1235dd316e822cc9ff31db7b3f197366d18bd9f9e9d9b98968f9a9796600b96612baa96838d9a10612ca4575b505050811b019055612ba4565b015160001960f88460031b161c19169055388080612c97565b95989296999b5092879a5096819497878493015181550195019301928f99979491928d9996938f9895612c4c565b92955092958098999a508591949750528a8720601f840160051c8101918c8510612d5b575b928c95928f989592601f8e9d9c9b99960160051c01905b818110612d345750612b45565b889a9b9c5086995080929598919497509592955501928a99989795928c95928f9895612d27565b9091508190612d10565b634e487b7160e01b86526041600452602486fd5b905088015138612b06565b8389528c892088935090601f1983168a8f5b8d838310612dcd575050508311612db4575b5050811b019055612b19565b8a015160001960f88460031b161c191690553880612da8565b84015185558b969094019392830192018f612d96565b8288528b8820601f830160051c8101918d8410612e1f575b601f0160051c019087905b828110612e14575050612af1565b898155018790612e06565b9091508190612dfb565b634e487b7160e01b87526041600452602487fd5b815163eeeb962360e01b8152600490fd5b81516331806aeb60e21b8152600490fd5b94612a76565b600d84939296959452858220548252600c835285822060ff600f82015416159081612ec8575b5015612ea257855163792c310960e11b8152600490fd5b949091929394338352600e845281832060ff198154169055600d84528282812055612a6a565b600c91500154421038612e8b565b604051633e61080d60e01b8152600490fd5b6040516319d546f160e31b8152600490fd5b6040516323b872dd60e01b60208201526001600160a01b03928316602482015292909116604483015260648083019390935291815261242f91612f3c826123b1565b612f8c565b60405163a9059cbb60e01b60208201526001600160a01b03909216602483015260448083019390935291815260808101916001600160401b03831182841017610ceb5761242f926040525b906000602091828151910182855af115610614576000513d612fdf57506001600160a01b0381163b155b612fbd5750565b604051635274afe760e01b81526001600160a01b039091166004820152602490fd5b60011415612fb656feaf8f9d0e884d3306a083e846741a0bc4d75908e2b0ec63b558219652ae4c1b90d81f085560db5c809c425a15f00e3f2904e4fa46d6e8672ff2e671ccd6d9a231a26469706673582212202852056f59166ae2e886975270c715f4f619c4636931321ee0b4fe76d2b4f5b364736f6c63430008170033",
  "linkReferences": {},
  "deployedLinkReferences": {}
}