{
  "_format": "hh-sol-artifact-1",
  "contractName": "TEMPL",
  "sourceName": "contracts/TEMPL.sol",
  "abi": [
    {
      "inputs": [
        {
          "internalType": "address",
          "name": "_priest",
          "type": "address"
        },
        {
          "internalType": "address",
          "name": "_token",
          "type": "address"
        },
        {
          "internalType": "uint256",
          "name": "_entryFee",
          "type": "uint256"
        }
      ],
      "stateMutability": "nonpayable",
      "type": "constructor"
    },
    {
      "anonymous": false,
      "inputs": [
        {
          "indexed": true,
          "internalType": "address",
          "name": "purchaser",
          "type": "address"
        },
        {
          "indexed": false,
          "internalType": "uint256",
          "name": "totalAmount",
          "type": "uint256"
        },
        {
          "indexed": false,
          "internalType": "uint256",
          "name": "burnedAmount",
          "type": "uint256"
        },
        {
          "indexed": false,
          "internalType": "uint256",
          "name": "treasuryAmount",
          "type": "uint256"
        },
        {
          "indexed": false,
          "internalType": "uint256",
          "name": "memberPoolAmount",
          "type": "uint256"
        },
        {
          "indexed": false,
          "internalType": "uint256",
          "name": "protocolAmount",
          "type": "uint256"
        },
        {
          "indexed": false,
          "internalType": "uint256",
          "name": "timestamp",
          "type": "uint256"
        },
        {
          "indexed": false,
          "internalType": "uint256",
          "name": "blockNumber",
          "type": "uint256"
        },
        {
          "indexed": false,
          "internalType": "uint256",
          "name": "purchaseId",
          "type": "uint256"
        }
      ],
      "name": "AccessPurchased",
      "type": "event"
    },
    {
      "anonymous": false,
      "inputs": [
        {
          "indexed": true,
          "internalType": "address",
          "name": "token",
          "type": "address"
        },
        {
          "indexed": false,
          "internalType": "uint256",
          "name": "entryFee",
          "type": "uint256"
        }
      ],
      "name": "ConfigUpdated",
      "type": "event"
    },
    {
      "anonymous": false,
      "inputs": [
        {
          "indexed": false,
          "internalType": "bool",
          "name": "isPaused",
          "type": "bool"
        }
      ],
      "name": "ContractPaused",
      "type": "event"
    },
    {
      "anonymous": false,
      "inputs": [
        {
          "indexed": true,
          "internalType": "address",
          "name": "member",
          "type": "address"
        },
        {
          "indexed": false,
          "internalType": "uint256",
          "name": "amount",
          "type": "uint256"
        },
        {
          "indexed": false,
          "internalType": "uint256",
          "name": "timestamp",
          "type": "uint256"
        }
      ],
      "name": "MemberPoolClaimed",
      "type": "event"
    },
    {
      "anonymous": false,
      "inputs": [
        {
          "indexed": true,
          "internalType": "uint256",
          "name": "proposalId",
          "type": "uint256"
        },
        {
          "indexed": true,
          "internalType": "address",
          "name": "proposer",
          "type": "address"
        },
        {
          "indexed": false,
          "internalType": "string",
          "name": "title",
          "type": "string"
        },
        {
          "indexed": false,
          "internalType": "uint256",
          "name": "endTime",
          "type": "uint256"
        }
      ],
      "name": "ProposalCreated",
      "type": "event"
    },
    {
      "anonymous": false,
      "inputs": [
        {
          "indexed": true,
          "internalType": "uint256",
          "name": "proposalId",
          "type": "uint256"
        },
        {
          "indexed": false,
          "internalType": "bool",
          "name": "success",
          "type": "bool"
        },
        {
          "indexed": false,
          "internalType": "bytes",
          "name": "returnData",
          "type": "bytes"
        }
      ],
      "name": "ProposalExecuted",
      "type": "event"
    },
    {
      "anonymous": false,
      "inputs": [
        {
          "indexed": true,
          "internalType": "uint256",
          "name": "proposalId",
          "type": "uint256"
        },
        {
          "indexed": true,
          "internalType": "address",
          "name": "recipient",
          "type": "address"
        },
        {
          "indexed": false,
          "internalType": "uint256",
          "name": "amount",
          "type": "uint256"
        },
        {
          "indexed": false,
          "internalType": "string",
          "name": "description",
          "type": "string"
        }
      ],
      "name": "TreasuryAction",
      "type": "event"
    },
    {
      "anonymous": false,
      "inputs": [
        {
          "indexed": true,
          "internalType": "address",
          "name": "priest",
          "type": "address"
        },
        {
          "indexed": true,
          "internalType": "address",
          "name": "recipient",
          "type": "address"
        },
        {
          "indexed": false,
          "internalType": "uint256",
          "name": "amount",
          "type": "uint256"
        },
        {
          "indexed": false,
          "internalType": "uint256",
          "name": "timestamp",
          "type": "uint256"
        }
      ],
      "name": "TreasuryWithdrawn",
      "type": "event"
    },
    {
      "anonymous": false,
      "inputs": [
        {
          "indexed": true,
          "internalType": "uint256",
          "name": "proposalId",
          "type": "uint256"
        },
        {
          "indexed": true,
          "internalType": "address",
          "name": "voter",
          "type": "address"
        },
        {
          "indexed": false,
          "internalType": "bool",
          "name": "support",
          "type": "bool"
        },
        {
          "indexed": false,
          "internalType": "uint256",
          "name": "timestamp",
          "type": "uint256"
        }
      ],
      "name": "VoteCast",
      "type": "event"
    },
    {
      "inputs": [],
      "name": "DEFAULT_VOTING_PERIOD",
      "outputs": [
        {
          "internalType": "uint256",
          "name": "",
          "type": "uint256"
        }
      ],
      "stateMutability": "view",
      "type": "function"
    },
    {
      "inputs": [],
      "name": "MAX_VOTING_PERIOD",
      "outputs": [
        {
          "internalType": "uint256",
          "name": "",
          "type": "uint256"
        }
      ],
      "stateMutability": "view",
      "type": "function"
    },
    {
      "inputs": [],
      "name": "MIN_VOTING_PERIOD",
      "outputs": [
        {
          "internalType": "uint256",
          "name": "",
          "type": "uint256"
        }
      ],
      "stateMutability": "view",
      "type": "function"
    },
    {
      "inputs": [],
      "name": "accessToken",
      "outputs": [
        {
          "internalType": "address",
          "name": "",
          "type": "address"
        }
      ],
      "stateMutability": "view",
      "type": "function"
    },
    {
      "inputs": [],
      "name": "claimMemberPool",
      "outputs": [],
      "stateMutability": "nonpayable",
      "type": "function"
    },
    {
      "inputs": [
        {
          "internalType": "string",
          "name": "_title",
          "type": "string"
        },
        {
          "internalType": "string",
          "name": "_description",
          "type": "string"
        },
        {
          "internalType": "bytes",
          "name": "_callData",
          "type": "bytes"
        },
        {
          "internalType": "uint256",
          "name": "_votingPeriod",
          "type": "uint256"
        }
      ],
      "name": "createProposal",
      "outputs": [
        {
          "internalType": "uint256",
          "name": "",
          "type": "uint256"
        }
      ],
      "stateMutability": "nonpayable",
      "type": "function"
    },
    {
      "inputs": [],
      "name": "entryFee",
      "outputs": [
        {
          "internalType": "uint256",
          "name": "",
          "type": "uint256"
        }
      ],
      "stateMutability": "view",
      "type": "function"
    },
    {
      "inputs": [
        {
          "internalType": "uint256",
          "name": "_proposalId",
          "type": "uint256"
        }
      ],
      "name": "executeProposal",
      "outputs": [],
      "stateMutability": "nonpayable",
      "type": "function"
    },
    {
      "inputs": [],
      "name": "getActiveProposals",
      "outputs": [
        {
          "internalType": "uint256[]",
          "name": "",
          "type": "uint256[]"
        }
      ],
      "stateMutability": "view",
      "type": "function"
    },
    {
      "inputs": [
        {
          "internalType": "address",
          "name": "member",
          "type": "address"
        }
      ],
      "name": "getClaimablePoolAmount",
      "outputs": [
        {
          "internalType": "uint256",
          "name": "",
          "type": "uint256"
        }
      ],
      "stateMutability": "view",
      "type": "function"
    },
    {
      "inputs": [],
      "name": "getConfig",
      "outputs": [
        {
          "internalType": "address",
          "name": "token",
          "type": "address"
        },
        {
          "internalType": "uint256",
          "name": "fee",
          "type": "uint256"
        },
        {
          "internalType": "bool",
          "name": "isPaused",
          "type": "bool"
        },
        {
          "internalType": "uint256",
          "name": "purchases",
          "type": "uint256"
        },
        {
          "internalType": "uint256",
          "name": "treasury",
          "type": "uint256"
        },
        {
          "internalType": "uint256",
          "name": "pool",
          "type": "uint256"
        }
      ],
      "stateMutability": "view",
      "type": "function"
    },
    {
      "inputs": [],
      "name": "getMemberCount",
      "outputs": [
        {
          "internalType": "uint256",
          "name": "",
          "type": "uint256"
        }
      ],
      "stateMutability": "view",
      "type": "function"
    },
    {
      "inputs": [
        {
          "internalType": "uint256",
          "name": "_proposalId",
          "type": "uint256"
        }
      ],
      "name": "getProposal",
      "outputs": [
        {
          "internalType": "address",
          "name": "proposer",
          "type": "address"
        },
        {
          "internalType": "string",
          "name": "title",
          "type": "string"
        },
        {
          "internalType": "string",
          "name": "description",
          "type": "string"
        },
        {
          "internalType": "uint256",
          "name": "yesVotes",
          "type": "uint256"
        },
        {
          "internalType": "uint256",
          "name": "noVotes",
          "type": "uint256"
        },
        {
          "internalType": "uint256",
          "name": "endTime",
          "type": "uint256"
        },
        {
          "internalType": "bool",
          "name": "executed",
          "type": "bool"
        },
        {
          "internalType": "bool",
          "name": "passed",
          "type": "bool"
        }
      ],
      "stateMutability": "view",
      "type": "function"
    },
    {
      "inputs": [
        {
          "internalType": "address",
          "name": "user",
          "type": "address"
        }
      ],
      "name": "getPurchaseDetails",
      "outputs": [
        {
          "internalType": "bool",
          "name": "purchased",
          "type": "bool"
        },
        {
          "internalType": "uint256",
          "name": "timestamp",
          "type": "uint256"
        },
        {
          "internalType": "uint256",
          "name": "blockNum",
          "type": "uint256"
        }
      ],
      "stateMutability": "view",
      "type": "function"
    },
    {
      "inputs": [],
      "name": "getTreasuryInfo",
      "outputs": [
        {
          "internalType": "uint256",
          "name": "treasury",
          "type": "uint256"
        },
        {
          "internalType": "uint256",
          "name": "memberPool",
          "type": "uint256"
        },
        {
          "internalType": "uint256",
          "name": "totalReceived",
          "type": "uint256"
        },
        {
          "internalType": "uint256",
          "name": "totalBurnedAmount",
          "type": "uint256"
        },
        {
          "internalType": "uint256",
          "name": "totalProtocolFees",
          "type": "uint256"
        },
        {
          "internalType": "address",
          "name": "protocolAddress",
          "type": "address"
        }
      ],
      "stateMutability": "view",
      "type": "function"
    },
    {
      "inputs": [
        {
          "internalType": "address",
          "name": "user",
          "type": "address"
        }
      ],
      "name": "hasAccess",
      "outputs": [
        {
          "internalType": "bool",
          "name": "",
          "type": "bool"
        }
      ],
      "stateMutability": "view",
      "type": "function"
    },
    {
      "inputs": [
        {
          "internalType": "address",
          "name": "",
          "type": "address"
        }
      ],
      "name": "hasPurchased",
      "outputs": [
        {
          "internalType": "bool",
          "name": "",
          "type": "bool"
        }
      ],
      "stateMutability": "view",
      "type": "function"
    },
    {
      "inputs": [
        {
          "internalType": "uint256",
          "name": "_proposalId",
          "type": "uint256"
        },
        {
          "internalType": "address",
          "name": "_voter",
          "type": "address"
        }
      ],
      "name": "hasVoted",
      "outputs": [
        {
          "internalType": "bool",
          "name": "voted",
          "type": "bool"
        },
        {
          "internalType": "bool",
          "name": "support",
          "type": "bool"
        }
      ],
      "stateMutability": "view",
      "type": "function"
    },
    {
      "inputs": [
        {
          "internalType": "address",
          "name": "",
          "type": "address"
        }
      ],
      "name": "memberIndex",
      "outputs": [
        {
          "internalType": "uint256",
          "name": "",
          "type": "uint256"
        }
      ],
      "stateMutability": "view",
      "type": "function"
    },
    {
      "inputs": [],
      "name": "memberPoolBalance",
      "outputs": [
        {
          "internalType": "uint256",
          "name": "",
          "type": "uint256"
        }
      ],
      "stateMutability": "view",
      "type": "function"
    },
    {
      "inputs": [
        {
          "internalType": "address",
          "name": "",
          "type": "address"
        }
      ],
      "name": "memberPoolClaims",
      "outputs": [
        {
          "internalType": "uint256",
          "name": "",
          "type": "uint256"
        }
      ],
      "stateMutability": "view",
      "type": "function"
    },
    {
      "inputs": [
        {
          "internalType": "uint256",
          "name": "",
          "type": "uint256"
        }
      ],
      "name": "members",
      "outputs": [
        {
          "internalType": "address",
          "name": "",
          "type": "address"
        }
      ],
      "stateMutability": "view",
      "type": "function"
    },
    {
      "inputs": [],
      "name": "paused",
      "outputs": [
        {
          "internalType": "bool",
          "name": "",
          "type": "bool"
        }
      ],
      "stateMutability": "view",
      "type": "function"
    },
    {
      "inputs": [
        {
          "internalType": "uint256",
          "name": "",
          "type": "uint256"
        }
      ],
      "name": "poolDeposits",
      "outputs": [
        {
          "internalType": "uint256",
          "name": "",
          "type": "uint256"
        }
      ],
      "stateMutability": "view",
      "type": "function"
    },
    {
      "inputs": [],
      "name": "priest",
      "outputs": [
        {
          "internalType": "address",
          "name": "",
          "type": "address"
        }
      ],
      "stateMutability": "view",
      "type": "function"
    },
    {
      "inputs": [],
      "name": "proposalCount",
      "outputs": [
        {
          "internalType": "uint256",
          "name": "",
          "type": "uint256"
        }
      ],
      "stateMutability": "view",
      "type": "function"
    },
    {
      "inputs": [
        {
          "internalType": "uint256",
          "name": "",
          "type": "uint256"
        }
      ],
      "name": "proposals",
      "outputs": [
        {
          "internalType": "uint256",
          "name": "id",
          "type": "uint256"
        },
        {
          "internalType": "address",
          "name": "proposer",
          "type": "address"
        },
        {
          "internalType": "string",
          "name": "title",
          "type": "string"
        },
        {
          "internalType": "string",
          "name": "description",
          "type": "string"
        },
        {
          "internalType": "bytes",
          "name": "callData",
          "type": "bytes"
        },
        {
          "internalType": "uint256",
          "name": "yesVotes",
          "type": "uint256"
        },
        {
          "internalType": "uint256",
          "name": "noVotes",
          "type": "uint256"
        },
        {
          "internalType": "uint256",
          "name": "endTime",
          "type": "uint256"
        },
        {
          "internalType": "bool",
          "name": "executed",
          "type": "bool"
        }
      ],
      "stateMutability": "view",
      "type": "function"
    },
    {
      "inputs": [],
      "name": "purchaseAccess",
      "outputs": [],
      "stateMutability": "nonpayable",
      "type": "function"
    },
    {
      "inputs": [
        {
          "internalType": "address",
          "name": "",
          "type": "address"
        }
      ],
      "name": "purchaseBlock",
      "outputs": [
        {
          "internalType": "uint256",
          "name": "",
          "type": "uint256"
        }
      ],
      "stateMutability": "view",
      "type": "function"
    },
    {
      "inputs": [
        {
          "internalType": "address",
          "name": "",
          "type": "address"
        }
      ],
      "name": "purchaseTimestamp",
      "outputs": [
        {
          "internalType": "uint256",
          "name": "",
          "type": "uint256"
        }
      ],
      "stateMutability": "view",
      "type": "function"
    },
    {
      "inputs": [
        {
          "internalType": "address",
          "name": "token",
          "type": "address"
        },
        {
          "internalType": "address",
          "name": "to",
          "type": "address"
        }
      ],
      "name": "recoverWrongToken",
      "outputs": [],
      "stateMutability": "nonpayable",
      "type": "function"
    },
    {
      "inputs": [
        {
          "internalType": "bool",
          "name": "_paused",
          "type": "bool"
        }
      ],
      "name": "setPaused",
      "outputs": [],
      "stateMutability": "nonpayable",
      "type": "function"
    },
    {
      "inputs": [
        {
          "internalType": "bool",
          "name": "_paused",
          "type": "bool"
        }
      ],
      "name": "setPausedDAO",
      "outputs": [],
      "stateMutability": "nonpayable",
      "type": "function"
    },
    {
      "inputs": [],
      "name": "totalBurned",
      "outputs": [
        {
          "internalType": "uint256",
          "name": "",
          "type": "uint256"
        }
      ],
      "stateMutability": "view",
      "type": "function"
    },
    {
      "inputs": [],
      "name": "totalPurchases",
      "outputs": [
        {
          "internalType": "uint256",
          "name": "",
          "type": "uint256"
        }
      ],
      "stateMutability": "view",
      "type": "function"
    },
    {
      "inputs": [],
      "name": "totalToMemberPool",
      "outputs": [
        {
          "internalType": "uint256",
          "name": "",
          "type": "uint256"
        }
      ],
      "stateMutability": "view",
      "type": "function"
    },
    {
      "inputs": [],
      "name": "totalToProtocol",
      "outputs": [
        {
          "internalType": "uint256",
          "name": "",
          "type": "uint256"
        }
      ],
      "stateMutability": "view",
      "type": "function"
    },
    {
      "inputs": [],
      "name": "totalToTreasury",
      "outputs": [
        {
          "internalType": "uint256",
          "name": "",
          "type": "uint256"
        }
      ],
      "stateMutability": "view",
      "type": "function"
    },
    {
      "inputs": [],
      "name": "treasuryBalance",
      "outputs": [
        {
          "internalType": "uint256",
          "name": "",
          "type": "uint256"
        }
      ],
      "stateMutability": "view",
      "type": "function"
    },
    {
      "inputs": [
        {
          "internalType": "address",
          "name": "_token",
          "type": "address"
        },
        {
          "internalType": "uint256",
          "name": "_entryFee",
          "type": "uint256"
        }
      ],
      "name": "updateConfig",
      "outputs": [],
      "stateMutability": "nonpayable",
      "type": "function"
    },
    {
      "inputs": [
        {
          "internalType": "address",
          "name": "_token",
          "type": "address"
        },
        {
          "internalType": "uint256",
          "name": "_entryFee",
          "type": "uint256"
        }
      ],
      "name": "updateConfigDAO",
      "outputs": [],
      "stateMutability": "nonpayable",
      "type": "function"
    },
    {
      "inputs": [
        {
          "internalType": "uint256",
          "name": "_proposalId",
          "type": "uint256"
        },
        {
          "internalType": "bool",
          "name": "_support",
          "type": "bool"
        }
      ],
      "name": "vote",
      "outputs": [],
      "stateMutability": "nonpayable",
      "type": "function"
    },
    {
      "inputs": [
        {
          "internalType": "address",
          "name": "recipient",
          "type": "address"
        }
      ],
      "name": "withdrawAllTreasury",
      "outputs": [],
      "stateMutability": "nonpayable",
      "type": "function"
    },
    {
      "inputs": [
        {
          "internalType": "address",
          "name": "recipient",
          "type": "address"
        },
        {
          "internalType": "string",
          "name": "reason",
          "type": "string"
        }
      ],
      "name": "withdrawAllTreasuryDAO",
      "outputs": [],
      "stateMutability": "nonpayable",
      "type": "function"
    },
    {
      "inputs": [
        {
          "internalType": "address",
          "name": "recipient",
          "type": "address"
        },
        {
          "internalType": "uint256",
          "name": "amount",
          "type": "uint256"
        }
      ],
      "name": "withdrawTreasury",
      "outputs": [],
      "stateMutability": "nonpayable",
      "type": "function"
    },
    {
      "inputs": [
        {
          "internalType": "address",
          "name": "recipient",
          "type": "address"
        },
        {
          "internalType": "uint256",
          "name": "amount",
          "type": "uint256"
        },
        {
          "internalType": "string",
          "name": "reason",
          "type": "string"
        }
      ],
      "name": "withdrawTreasuryDAO",
      "outputs": [],
      "stateMutability": "nonpayable",
      "type": "function"
    }
  ],
  "bytecode": "0x60a06040523480156200001157600080fd5b50604051620031c0380380620031c08339810160408190526200003491620001f0565b6001600160a01b038316620000905760405162461bcd60e51b815260206004820152601660248201527f496e76616c69642070726965737420616464726573730000000000000000000060448201526064015b60405180910390fd5b6001600160a01b038216620000e85760405162461bcd60e51b815260206004820152601560248201527f496e76616c696420746f6b656e20616464726573730000000000000000000000604482015260640162000087565b600081116200013a5760405162461bcd60e51b815260206004820181905260248201527f456e74727920666565206d7573742062652067726561746572207468616e2030604482015260640162000087565b600a811015620001995760405162461bcd60e51b8152602060048201526024808201527f456e7472792066656520746f6f20736d616c6c20666f722064697374726962756044820152633a34b7b760e11b606482015260840162000087565b6001600160a01b03928316608052600080546001600160a01b03191692909316919091179091556001556004805460ff1916905562000231565b80516001600160a01b0381168114620001eb57600080fd5b919050565b6000806000606084860312156200020657600080fd5b6200021184620001d3565b92506200022160208501620001d3565b9150604084015190509250925092565b608051612f5e62000262600039600081816105c1015281816105fd015281816116000152611d030152612f5e6000f3fe608060405234801561001057600080fd5b506004361061028a5760003560e01c80636758f49b1161015c578063bebc8fc0116100ce578063d3493ced11610087578063d3493ced146106df578063d89135cd146106f2578063da35c664146106fb578063e243c5fb14610704578063f4f7596a14610717578063f7158b2a1461072557600080fd5b8063bebc8fc0146105bc578063c1b57edb146105e3578063c2939471146105ec578063c3f909d414610652578063c7f758a8146106a5578063c9d27afe146106cc57600080fd5b8063999dcbe611610120578063999dcbe61461056457806399e288d814610577578063a64e024a1461057f578063a81bbe3c14610589578063aedfe53f146105a9578063bdb75b34146105b357600080fd5b80636758f49b146104da57806376755118146104ed57806390118fb41461050d57806395a078e814610530578063997072f71461055c57600080fd5b806343859632116102005780635c975abb116101b95780635c975abb146103f55780635daf08ca146104125780635e391dfe1461043d5780635fa7ddf01461045d57806364653f2914610466578063653724d6146104c757600080fd5b8063438596321461037e578063524ddc23146103a857806354403801146103bb5780635584c4f9146103ce5780635962a941146103e357806359c266ff146103ec57600080fd5b80631808022a116102525780631808022a1461031257806318a7406414610325578063215809ca14610338578063313dab201461034257806332d084bb1461034b5780633dd352791461035e57600080fd5b8063013cf08b1461028f578063072ea61c146102c05780630d61b519146102d75780630d86419a146102ec57806316c38b3c146102ff575b600080fd5b6102a261029d3660046126ee565b61072d565b6040516102b79998979695949392919061274d565b60405180910390f35b6102c960015481565b6040519081526020016102b7565b6102ea6102e53660046126ee565b61091a565b005b6102ea6102fa3660046127e8565b610b37565b6102ea61030d366004612823565b610bc4565b6102c9610320366004612847565b610c44565b6102ea6103333660046127e8565b610d6d565b6102c96201518081565b6102c960025481565b6102c961035936600461290e565b610df0565b6102c961036c366004612847565b60096020526000908152604090205481565b61039161038c3660046129b2565b6110ab565b6040805192151583529015156020830152016102b7565b6102ea6103b63660046127e8565b611111565b6102ea6103c93660046129de565b61120e565b6103d661142b565b6040516102b79190612a35565b6102c9600e5481565b6102c960125481565b6004546104029060ff1681565b60405190151581526020016102b7565b6104256104203660046126ee565b611565565b6040516001600160a01b0390911681526020016102b7565b6102c961044b366004612847565b60076020526000908152604090205481565b6102c960035481565b6104aa610474366004612847565b6001600160a01b03166000908152600560209081526040808320546006835281842054600790935292205460ff90921692909190565b6040805193151584526020840192909252908201526060016102b7565b6102ea6104d5366004612823565b61158f565b6102ea6104e8366004612a79565b6115f5565b6102c96104fb366004612847565b60066020526000908152604090205481565b61040261051b366004612847565b60056020526000908152604090205460ff1681565b61040261053e366004612847565b6001600160a01b031660009081526005602052604090205460ff1690565b6008546102c9565b6102c96105723660046126ee565b61186f565b6102ea611890565b6102c962278d0081565b6102c9610597366004612847565b600a6020526000908152604090205481565b6102c962093a8081565b6102c960115481565b6104257f000000000000000000000000000000000000000000000000000000000000000081565b6102c960105481565b600254600354601054600f546012547f000000000000000000000000000000000000000000000000000000000000000060408051968752602087019590955293850192909252606084015260808301526001600160a01b031660a082015260c0016102b7565b600054600154600454600e54600254600354604080516001600160a01b039097168752602087019590955260ff9093161515938501939093526060840152608083019190915260a082015260c0016102b7565b6106b86106b33660046126ee565b611fe2565b6040516102b7989796959493929190612aa3565b6102ea6106da366004612b0c565b612193565b6102ea6106ed366004612b3c565b612369565b6102c9600f5481565b6102c9600c5481565b600054610425906001600160a01b031681565b6102ea6102fa366004612847565b6102ea612510565b600d6020526000908152604090208054600182015460028301805492936001600160a01b039092169261075f90612b8a565b80601f016020809104026020016040519081016040528092919081815260200182805461078b90612b8a565b80156107d85780601f106107ad576101008083540402835291602001916107d8565b820191906000526020600020905b8154815290600101906020018083116107bb57829003601f168201915b5050505050908060030180546107ed90612b8a565b80601f016020809104026020016040519081016040528092919081815260200182805461081990612b8a565b80156108665780601f1061083b57610100808354040283529160200191610866565b820191906000526020600020905b81548152906001019060200180831161084957829003601f168201915b50505050509080600401805461087b90612b8a565b80601f01602080910402602001604051908101604052809291908181526020018280546108a790612b8a565b80156108f45780601f106108c9576101008083540402835291602001916108f4565b820191906000526020600020905b8154815290600101906020018083116108d757829003601f168201915b505050506005830154600684015460078501546008909501549394919390925060ff1689565b600c5481106109445760405162461bcd60e51b815260040161093b90612bc4565b60405180910390fd5b6000818152600d6020526040902060078101544210156109995760405162461bcd60e51b815260206004820152601060248201526f159bdd1a5b99c81b9bdd08195b99195960821b604482015260640161093b565b600881015460ff16156109e15760405162461bcd60e51b815260206004820152601060248201526f105b1c9958591e48195e1958dd5d195960821b604482015260640161093b565b8060060154816005015411610a305760405162461bcd60e51b815260206004820152601560248201527450726f706f73616c20646964206e6f74207061737360581b604482015260640161093b565b60088101805460ff1916600117905560405160009081903090610a57906004860190612bee565b6000604051808303816000865af19150503d8060008114610a94576040519150601f19603f3d011682016040523d82523d6000602084013e610a99565b606091505b5091509150837faf8f9d0e884d3306a083e846741a0bc4d75908e2b0ec63b558219652ae4c1b908383604051610ad0929190612c64565b60405180910390a281610b315760088301805460ff1916905560405162461bcd60e51b815260206004820152601960248201527f50726f706f73616c20657865637574696f6e206661696c656400000000000000604482015260640161093b565b50505050565b60405162461bcd60e51b815260206004820152605660248201527f5472656173757279207769746864726177616c7320726571756972652044414f60448201527f20617070726f76616c2e2055736520776974686472617754726561737572794460648201527520a7903a343937bab3b4103090383937b837b9b0b61760511b608482015260a40161093b565b60405162461bcd60e51b815260206004820152604960248201527f50617573652f756e70617573652072657175697265732044414f20617070726f60448201527f76616c2e205573652073657450617573656444414f207468726f756768206120606482015268383937b837b9b0b61760b91b608482015260a40161093b565b6001600160a01b03811660009081526005602052604081205460ff16610c6c57506000919050565b6001600160a01b0382166000908152600960205260408120549080610c92836001612c95565b90505b600b54811015610d1b576000600b8281548110610cb457610cb4612cae565b90600052602060002001541115610d0957808015610d0757600081600b8481548110610ce257610ce2612cae565b9060005260206000200154610cf79190612cc4565b9050610d038185612c95565b9350505b505b80610d1381612ce6565b915050610c95565b506001600160a01b0384166000908152600a60205260409020548111610d42576000610d65565b6001600160a01b0384166000908152600a6020526040902054610d659082612cff565b949350505050565b60405162461bcd60e51b815260206004820152604c60248201527f436f6e666967207570646174657320726571756972652044414f20617070726f60448201527f76616c2e2055736520757064617465436f6e66696744414f207468726f75676860648201526b103090383937b837b9b0b61760a11b608482015260a40161093b565b3360009081526005602052604081205460ff16610e4f5760405162461bcd60e51b815260206004820152601a60248201527f4f6e6c79206d656d626572732063616e2063616c6c2074686973000000000000604482015260640161093b565b6000855111610e915760405162461bcd60e51b815260206004820152600e60248201526d151a5d1b19481c995c5d5a5c995960921b604482015260640161093b565b6000845111610ed95760405162461bcd60e51b815260206004820152601460248201527311195cd8dc9a5c1d1a5bdb881c995c5d5a5c995960621b604482015260640161093b565b6000835111610f1f5760405162461bcd60e51b815260206004820152601260248201527110d85b1b0819185d18481c995c5d5a5c995960721b604482015260640161093b565b816000819003610f2f575062093a805b62015180811015610f825760405162461bcd60e51b815260206004820152601760248201527f566f74696e6720706572696f6420746f6f2073686f7274000000000000000000604482015260640161093b565b62278d00811115610fce5760405162461bcd60e51b8152602060048201526016602482015275566f74696e6720706572696f6420746f6f206c6f6e6760501b604482015260640161093b565b600c805460009182610fdf83612ce6565b909155506000818152600d602052604090208181556001810180546001600160a01b03191633179055909150600281016110198982612d61565b50600381016110288882612d61565b50600481016110378782612d61565b506110428342612c95565b6007820181905560088201805460ff191690556000600583018190556006830155604051339184917f98120a6aaa04295520ab4e01c6c1235dd316e822cc9ff31db7b3f197366d18bd91611098918d9190612e21565b60405180910390a3509695505050505050565b600080600c5484106110cf5760405162461bcd60e51b815260040161093b90612bc4565b50506000918252600d602090815260408084206001600160a01b0393909316845260098301825280842054600a9093019091529091205460ff91821692911690565b3330146111305760405162461bcd60e51b815260040161093b90612e43565b6001600160a01b0382161561115b57600080546001600160a01b0319166001600160a01b0384161790555b80156111c457600a8110156111be5760405162461bcd60e51b8152602060048201526024808201527f456e7472792066656520746f6f20736d616c6c20666f722064697374726962756044820152633a34b7b760e11b606482015260840161093b565b60018190555b6000546001546040519081526001600160a01b03909116907faf8839d80c9b3bbf95c97465eb8c8348db4098f5c15af186c3b425b112998117906020015b60405180910390a25050565b33301461122d5760405162461bcd60e51b815260040161093b90612e43565b6001600160a01b0383166112535760405162461bcd60e51b815260040161093b90612e73565b600082116112a35760405162461bcd60e51b815260206004820152601d60248201527f416d6f756e74206d7573742062652067726561746572207468616e2030000000604482015260640161093b565b6002548211156112f55760405162461bcd60e51b815260206004820152601d60248201527f496e73756666696369656e742074726561737572792062616c616e6365000000604482015260640161093b565b81600260008282546113079190612cff565b90915550506000805460405163a9059cbb60e01b81526001600160a01b038681166004830152602482018690529091169063a9059cbb906044016020604051808303816000875af1158015611360573d6000803e3d6000fd5b505050506040513d601f19601f820116820180604052508101906113849190612e9e565b9050806113d35760405162461bcd60e51b815260206004820152601a60248201527f5472656173757279207769746864726177616c206661696c6564000000000000604482015260640161093b565b836001600160a01b03166001600c546113ec9190612cff565b7f1ba011ee074f0e08cc727335f32d75fb7ee71dc0a1e13bb9473e5650b0afd1a3858560405161141d929190612ebb565b60405180910390a350505050565b60606000805b600c54811015611492576000818152600d60205260409020600701544210801561146d57506000818152600d602052604090206008015460ff16155b15611480578161147c81612ce6565b9250505b8061148a81612ce6565b915050611431565b5060008167ffffffffffffffff8111156114ae576114ae612862565b6040519080825280602002602001820160405280156114d7578160200160208202803683370190505b5090506000805b600c5481101561155c576000818152600d60205260409020600701544210801561151a57506000818152600d602052604090206008015460ff16155b1561154a5780838361152b81612ce6565b94508151811061153d5761153d612cae565b6020026020010181815250505b8061155481612ce6565b9150506114de565b50909392505050565b6008818154811061157557600080fd5b6000918252602090912001546001600160a01b0316905081565b3330146115ae5760405162461bcd60e51b815260040161093b90612e43565b6004805460ff19168215159081179091556040519081527f752d7e161ff5146f80e3820893176eb40532811e5e20400dfdde57455213706a9060200160405180910390a150565b336001600160a01b037f0000000000000000000000000000000000000000000000000000000000000000161461166d5760405162461bcd60e51b815260206004820152601960248201527f4f6e6c79207072696573742063616e2063616c6c207468697300000000000000604482015260640161093b565b6000546001600160a01b03908116908316036116d75760405162461bcd60e51b8152602060048201526024808201527f43616e6e6f742077697468647261772074726561737572792f706f6f6c20746f6044820152636b656e7360e01b606482015260840161093b565b6001600160a01b0381166116fd5760405162461bcd60e51b815260040161093b90612e73565b6040516370a0823160e01b81523060048201526000906001600160a01b038416906370a0823190602401602060405180830381865afa158015611744573d6000803e3d6000fd5b505050506040513d601f19601f820116820180604052508101906117689190612ed4565b9050600081116117b15760405162461bcd60e51b81526020600482015260146024820152732737903a37b5b2b739903a37903932b1b7bb32b960611b604482015260640161093b565b60405163a9059cbb60e01b81526001600160a01b038381166004830152602482018390526000919085169063a9059cbb906044016020604051808303816000875af1158015611804573d6000803e3d6000fd5b505050506040513d601f19601f820116820180604052508101906118289190612e9e565b905080610b315760405162461bcd60e51b8152602060048201526015602482015274151bdad95b881c9958dbdd995c9e4819985a5b1959605a1b604482015260640161093b565b600b818154811061187f57600080fd5b600091825260209091200154905081565b60045460ff16156118d85760405162461bcd60e51b815260206004820152601260248201527110dbdb9d1c9858dd081a5cc81c185d5cd95960721b604482015260640161093b565b3360009081526005602052604090205460ff16156119385760405162461bcd60e51b815260206004820152601860248201527f416c726561647920707572636861736564206163636573730000000000000000604482015260640161093b565b60006064600154601e61194b9190612eed565b6119559190612cc4565b905060006064600154600a61196a9190612eed565b6119749190612cc4565b9050600081611984846003612eed565b61198e9190612c95565b90506001548111156119d65760405162461bcd60e51b815260206004820152601160248201527021b0b631bab630ba34b7b71032b93937b960791b604482015260640161093b565b6001546000546040516370a0823160e01b81523360048201526001600160a01b03909116906370a0823190602401602060405180830381865afa158015611a21573d6000803e3d6000fd5b505050506040513d601f19601f82011682018060405250810190611a459190612ed4565b1015611a935760405162461bcd60e51b815260206004820152601a60248201527f496e73756666696369656e7420746f6b656e2062616c616e6365000000000000604482015260640161093b565b600080546040516323b872dd60e01b81526001600160a01b03909116906323b872dd90611aca90339061dead908990600401612f04565b6020604051808303816000875af1158015611ae9573d6000803e3d6000fd5b505050506040513d601f19601f82011682018060405250810190611b0d9190612e9e565b905080611b535760405162461bcd60e51b8152602060048201526014602482015273109d5c9b881d1c985b9cd9995c8819985a5b195960621b604482015260640161093b565b600080546040516323b872dd60e01b81526001600160a01b03909116906323b872dd90611b8890339030908a90600401612f04565b6020604051808303816000875af1158015611ba7573d6000803e3d6000fd5b505050506040513d601f19601f82011682018060405250810190611bcb9190612e9e565b905080611c1a5760405162461bcd60e51b815260206004820152601860248201527f5472656173757279207472616e73666572206661696c65640000000000000000604482015260640161093b565b600080546040516323b872dd60e01b81526001600160a01b03909116906323b872dd90611c4f90339030908b90600401612f04565b6020604051808303816000875af1158015611c6e573d6000803e3d6000fd5b505050506040513d601f19601f82011682018060405250810190611c929190612e9e565b905080611cd85760405162461bcd60e51b8152602060048201526014602482015273141bdbdb081d1c985b9cd9995c8819985a5b195960621b604482015260640161093b565b600080546040516323b872dd60e01b81526001600160a01b03909116906323b872dd90611d2d9033907f0000000000000000000000000000000000000000000000000000000000000000908b90600401612f04565b6020604051808303816000875af1158015611d4c573d6000803e3d6000fd5b505050506040513d601f19601f82011682018060405250810190611d709190612e9e565b905080611dbf5760405162461bcd60e51b815260206004820152601860248201527f50726f746f636f6c207472616e73666572206661696c65640000000000000000604482015260640161093b565b8660026000828254611dd19190612c95565b925050819055508660036000828254611dea9190612c95565b9250508190555086600f6000828254611e039190612c95565b925050819055508660106000828254611e1c9190612c95565b925050819055508660116000828254611e359190612c95565b925050819055508560126000828254611e4e9190612c95565b909155505060085415611e9557600b80546001810182556000919091527f0175b7a638427703f0dbe7bb9bbf987a2551717b34e79f33b5b1008d1fa01db901879055611ec8565b600b805460018101825560009182527f0175b7a638427703f0dbe7bb9bbf987a2551717b34e79f33b5b1008d1fa01db901555b336000818152600560209081526040808320805460ff1916600190811790915560068352818420429055600783528184204390556008805460099094529184208390558201815582527ff3f7a9fe364faab93b216da50a3214154f22a0a2b415b23a84c8169e8b636ee30180546001600160a01b031916909217909155600e805491611f5383612ce6565b9190505550336001600160a01b03167fe6d1c0e418a42a777d49c66571075fc47bc1d92e7f506007ddde08d1ff182bbc600154898a8b8b42436001600e54611f9b9190612cff565b604080519889526020890197909752958701949094526060860192909252608085015260a084015260c083015260e08201526101000160405180910390a250505050505050565b60006060806000806000806000600c5489106120105760405162461bcd60e51b815260040161093b90612bc4565b6000898152600d60205260409020600181015460058201546006830154600784015460088501546002860180546001600160a01b03909616959094600388019490939092909160ff9091169083851190879061206b90612b8a565b80601f016020809104026020016040519081016040528092919081815260200182805461209790612b8a565b80156120e45780601f106120b9576101008083540402835291602001916120e4565b820191906000526020600020905b8154815290600101906020018083116120c757829003601f168201915b505050505096508580546120f790612b8a565b80601f016020809104026020016040519081016040528092919081815260200182805461212390612b8a565b80156121705780601f1061214557610100808354040283529160200191612170565b820191906000526020600020905b81548152906001019060200180831161215357829003601f168201915b505050505095509850985098509850985098509850985050919395975091939597565b3360009081526005602052604090205460ff166121f25760405162461bcd60e51b815260206004820152601a60248201527f4f6e6c79206d656d626572732063616e2063616c6c2074686973000000000000604482015260640161093b565b600c5482106122135760405162461bcd60e51b815260040161093b90612bc4565b6000828152600d60205260409020600781015442106122635760405162461bcd60e51b815260206004820152600c60248201526b159bdd1a5b99c8195b99195960a21b604482015260640161093b565b33600090815260098201602052604090205460ff16156122b55760405162461bcd60e51b815260206004820152600d60248201526c105b1c9958591e481d9bdd1959609a1b604482015260640161093b565b3360009081526009820160209081526040808320805460ff19908116600117909155600a85019092529091208054841580159190931617905561230e5760058101805490600061230483612ce6565b9190505550612326565b60068101805490600061232083612ce6565b91905055505b604080518315158152426020820152339185917fcbdf6214089cba887ecbf35a0b6a734589959c9763342c756bb2a80ca2bc9f6e910160405180910390a3505050565b3330146123885760405162461bcd60e51b815260040161093b90612e43565b6001600160a01b0382166123ae5760405162461bcd60e51b815260040161093b90612e73565b6000600254116123f45760405162461bcd60e51b81526020600482015260116024820152704e6f2074726561737572792066756e647360781b604482015260640161093b565b60028054600091829055815460405163a9059cbb60e01b81526001600160a01b038681166004830152602482018490529293929091169063a9059cbb906044016020604051808303816000875af1158015612453573d6000803e3d6000fd5b505050506040513d601f19601f820116820180604052508101906124779190612e9e565b9050806124c65760405162461bcd60e51b815260206004820152601a60248201527f5472656173757279207769746864726177616c206661696c6564000000000000604482015260640161093b565b836001600160a01b03166001600c546124df9190612cff565b7f1ba011ee074f0e08cc727335f32d75fb7ee71dc0a1e13bb9473e5650b0afd1a3848660405161141d929190612ebb565b600061251b33610c44565b9050600081116125635760405162461bcd60e51b81526020600482015260136024820152724e6f207265776172647320746f20636c61696d60681b604482015260640161093b565b8060035410156125b55760405162461bcd60e51b815260206004820152601960248201527f496e73756666696369656e7420706f6f6c2062616c616e636500000000000000604482015260640161093b565b336000908152600a6020526040812080548392906125d4908490612c95565b9250508190555080600360008282546125ed9190612cff565b90915550506000805460405163a9059cbb60e01b8152336004820152602481018490526001600160a01b039091169063a9059cbb906044016020604051808303816000875af1158015612644573d6000803e3d6000fd5b505050506040513d601f19601f820116820180604052508101906126689190612e9e565b9050806126b75760405162461bcd60e51b815260206004820152601a60248201527f506f6f6c20636c61696d207472616e73666572206661696c6564000000000000604482015260640161093b565b6040805183815242602082015233917fc4e740509dbfae3377bc9925dd7bcc8aaba69cd730316216d76b2d24725c63669101611202565b60006020828403121561270057600080fd5b5035919050565b6000815180845260005b8181101561272d57602081850181015186830182015201612711565b506000602082860101526020601f19601f83011685010191505092915050565b8981526001600160a01b0389166020820152610120604082018190526000906127788382018b612707565b9050828103606084015261278c818a612707565b905082810360808401526127a08189612707565b9150508560a08301528460c08301528360e08301528215156101008301529a9950505050505050505050565b80356001600160a01b03811681146127e357600080fd5b919050565b600080604083850312156127fb57600080fd5b612804836127cc565b946020939093013593505050565b801515811461282057600080fd5b50565b60006020828403121561283557600080fd5b813561284081612812565b9392505050565b60006020828403121561285957600080fd5b612840826127cc565b634e487b7160e01b600052604160045260246000fd5b600067ffffffffffffffff8084111561289357612893612862565b604051601f8501601f19908116603f011681019082821181831017156128bb576128bb612862565b816040528093508581528686860111156128d457600080fd5b858560208301376000602087830101525050509392505050565b600082601f8301126128ff57600080fd5b61284083833560208501612878565b6000806000806080858703121561292457600080fd5b843567ffffffffffffffff8082111561293c57600080fd5b612948888389016128ee565b9550602087013591508082111561295e57600080fd5b61296a888389016128ee565b9450604087013591508082111561298057600080fd5b508501601f8101871361299257600080fd5b6129a187823560208401612878565b949793965093946060013593505050565b600080604083850312156129c557600080fd5b823591506129d5602084016127cc565b90509250929050565b6000806000606084860312156129f357600080fd5b6129fc846127cc565b925060208401359150604084013567ffffffffffffffff811115612a1f57600080fd5b612a2b868287016128ee565b9150509250925092565b6020808252825182820181905260009190848201906040850190845b81811015612a6d57835183529284019291840191600101612a51565b50909695505050505050565b60008060408385031215612a8c57600080fd5b612a95836127cc565b91506129d5602084016127cc565b6001600160a01b038916815261010060208201819052600090612ac88382018b612707565b90508281036040840152612adc818a612707565b60608401989098525050608081019490945260a0840192909252151560c0830152151560e0909101529392505050565b60008060408385031215612b1f57600080fd5b823591506020830135612b3181612812565b809150509250929050565b60008060408385031215612b4f57600080fd5b612b58836127cc565b9150602083013567ffffffffffffffff811115612b7457600080fd5b612b80858286016128ee565b9150509250929050565b600181811c90821680612b9e57607f821691505b602082108103612bbe57634e487b7160e01b600052602260045260246000fd5b50919050565b60208082526010908201526f125b9d985b1a59081c1c9bdc1bdcd85b60821b604082015260600190565b6000808354612bfc81612b8a565b60018281168015612c145760018114612c2957612c58565b60ff1984168752821515830287019450612c58565b8760005260208060002060005b85811015612c4f5781548a820152908401908201612c36565b50505082870194505b50929695505050505050565b8215158152604060208201526000610d656040830184612707565b634e487b7160e01b600052601160045260246000fd5b80820180821115612ca857612ca8612c7f565b92915050565b634e487b7160e01b600052603260045260246000fd5b600082612ce157634e487b7160e01b600052601260045260246000fd5b500490565b600060018201612cf857612cf8612c7f565b5060010190565b81810381811115612ca857612ca8612c7f565b601f821115612d5c57600081815260208120601f850160051c81016020861015612d395750805b601f850160051c820191505b81811015612d5857828155600101612d45565b5050505b505050565b815167ffffffffffffffff811115612d7b57612d7b612862565b612d8f81612d898454612b8a565b84612d12565b602080601f831160018114612dc45760008415612dac5750858301515b600019600386901b1c1916600185901b178555612d58565b600085815260208120601f198616915b82811015612df357888601518255948401946001909101908401612dd4565b5085821015612e115787850151600019600388901b60f8161c191681555b5050505050600190811b01905550565b604081526000612e346040830185612707565b90508260208301529392505050565b6020808252601690820152754f6e6c792044414f2063616e2063616c6c207468697360501b604082015260600190565b602080825260119082015270125b9d985b1a59081c9958da5c1a595b9d607a1b604082015260600190565b600060208284031215612eb057600080fd5b815161284081612812565b828152604060208201526000610d656040830184612707565b600060208284031215612ee657600080fd5b5051919050565b8082028115828204841417612ca857612ca8612c7f565b6001600160a01b03938416815291909216602082015260408101919091526060019056fea2646970667358221220afa1915541f3fa633ada0ee39022652dc8b384da445c2328c0353097aac59c9a64736f6c63430008130033",
  "linkReferences": {},
  "deployedLinkReferences": {}
}