{
  "_format": "hh-sol-artifact-1",
  "contractName": "TEMPL",
  "sourceName": "contracts/TEMPL.sol",
  "abi": [
    {
      "inputs": [
        {
          "internalType": "address",
          "name": "_priest",
          "type": "address"
        },
        {
          "internalType": "address",
          "name": "_protocolFeeRecipient",
          "type": "address"
        },
        {
          "internalType": "address",
          "name": "_token",
          "type": "address"
        },
        {
          "internalType": "uint256",
          "name": "_entryFee",
          "type": "uint256"
        }
      ],
      "stateMutability": "nonpayable",
      "type": "constructor"
    },
    {
      "inputs": [],
      "name": "ActiveProposalExists",
      "type": "error"
    },
    {
      "inputs": [],
      "name": "AlreadyExecuted",
      "type": "error"
    },
    {
      "inputs": [],
      "name": "AlreadyPurchased",
      "type": "error"
    },
    {
      "inputs": [],
      "name": "AmountZero",
      "type": "error"
    },
    {
      "inputs": [],
      "name": "CallDataRequired",
      "type": "error"
    },
    {
      "inputs": [],
      "name": "CallDataTooShort",
      "type": "error"
    },
    {
      "inputs": [],
      "name": "ContractPausedError",
      "type": "error"
    },
    {
      "inputs": [],
      "name": "DescriptionRequired",
      "type": "error"
    },
    {
      "inputs": [],
      "name": "EntryFeeTooSmall",
      "type": "error"
    },
    {
      "inputs": [],
      "name": "InsufficientBalance",
      "type": "error"
    },
    {
      "inputs": [],
      "name": "InsufficientPoolBalance",
      "type": "error"
    },
    {
      "inputs": [],
      "name": "InsufficientTreasuryBalance",
      "type": "error"
    },
    {
      "inputs": [],
      "name": "InvalidCallData",
      "type": "error"
    },
    {
      "inputs": [],
      "name": "InvalidEntryFee",
      "type": "error"
    },
    {
      "inputs": [],
      "name": "InvalidProposal",
      "type": "error"
    },
    {
      "inputs": [],
      "name": "InvalidRecipient",
      "type": "error"
    },
    {
      "inputs": [],
      "name": "InvalidSender",
      "type": "error"
    },
    {
      "inputs": [],
      "name": "JoinedAfterProposal",
      "type": "error"
    },
    {
      "inputs": [],
      "name": "LimitOutOfRange",
      "type": "error"
    },
    {
      "inputs": [],
      "name": "NoMembers",
      "type": "error"
    },
    {
      "inputs": [],
      "name": "NoRewardsToClaim",
      "type": "error"
    },
    {
      "inputs": [],
      "name": "NoTreasuryFunds",
      "type": "error"
    },
    {
      "inputs": [],
      "name": "NotDAO",
      "type": "error"
    },
    {
      "inputs": [],
      "name": "NotMember",
      "type": "error"
    },
    {
      "inputs": [],
      "name": "ProposalExecutionFailed",
      "type": "error"
    },
    {
      "inputs": [],
      "name": "ProposalNotPassed",
      "type": "error"
    },
    {
      "inputs": [],
      "name": "ReentrancyGuardReentrantCall",
      "type": "error"
    },
    {
      "inputs": [
        {
          "internalType": "address",
          "name": "token",
          "type": "address"
        }
      ],
      "name": "SafeERC20FailedOperation",
      "type": "error"
    },
    {
      "inputs": [],
      "name": "TitleRequired",
      "type": "error"
    },
    {
      "inputs": [],
      "name": "TokenChangeDisabled",
      "type": "error"
    },
    {
      "inputs": [],
      "name": "VotingEnded",
      "type": "error"
    },
    {
      "inputs": [],
      "name": "VotingNotEnded",
      "type": "error"
    },
    {
      "inputs": [],
      "name": "VotingPeriodTooLong",
      "type": "error"
    },
    {
      "inputs": [],
      "name": "VotingPeriodTooShort",
      "type": "error"
    },
    {
      "anonymous": false,
      "inputs": [
        {
          "indexed": true,
          "internalType": "address",
          "name": "purchaser",
          "type": "address"
        },
        {
          "indexed": false,
          "internalType": "uint256",
          "name": "totalAmount",
          "type": "uint256"
        },
        {
          "indexed": false,
          "internalType": "uint256",
          "name": "burnedAmount",
          "type": "uint256"
        },
        {
          "indexed": false,
          "internalType": "uint256",
          "name": "treasuryAmount",
          "type": "uint256"
        },
        {
          "indexed": false,
          "internalType": "uint256",
          "name": "memberPoolAmount",
          "type": "uint256"
        },
        {
          "indexed": false,
          "internalType": "uint256",
          "name": "protocolAmount",
          "type": "uint256"
        },
        {
          "indexed": false,
          "internalType": "uint256",
          "name": "timestamp",
          "type": "uint256"
        },
        {
          "indexed": false,
          "internalType": "uint256",
          "name": "blockNumber",
          "type": "uint256"
        },
        {
          "indexed": false,
          "internalType": "uint256",
          "name": "purchaseId",
          "type": "uint256"
        }
      ],
      "name": "AccessPurchased",
      "type": "event"
    },
    {
      "anonymous": false,
      "inputs": [
        {
          "indexed": true,
          "internalType": "address",
          "name": "token",
          "type": "address"
        },
        {
          "indexed": false,
          "internalType": "uint256",
          "name": "entryFee",
          "type": "uint256"
        }
      ],
      "name": "ConfigUpdated",
      "type": "event"
    },
    {
      "anonymous": false,
      "inputs": [
        {
          "indexed": false,
          "internalType": "bool",
          "name": "isPaused",
          "type": "bool"
        }
      ],
      "name": "ContractPaused",
      "type": "event"
    },
    {
      "anonymous": false,
      "inputs": [
        {
          "indexed": true,
          "internalType": "address",
          "name": "member",
          "type": "address"
        },
        {
          "indexed": false,
          "internalType": "uint256",
          "name": "amount",
          "type": "uint256"
        },
        {
          "indexed": false,
          "internalType": "uint256",
          "name": "timestamp",
          "type": "uint256"
        }
      ],
      "name": "MemberPoolClaimed",
      "type": "event"
    },
    {
      "anonymous": false,
      "inputs": [
        {
          "indexed": true,
          "internalType": "uint256",
          "name": "proposalId",
          "type": "uint256"
        },
        {
          "indexed": true,
          "internalType": "address",
          "name": "proposer",
          "type": "address"
        },
        {
          "indexed": false,
          "internalType": "string",
          "name": "title",
          "type": "string"
        },
        {
          "indexed": false,
          "internalType": "uint256",
          "name": "endTime",
          "type": "uint256"
        }
      ],
      "name": "ProposalCreated",
      "type": "event"
    },
    {
      "anonymous": false,
      "inputs": [
        {
          "indexed": true,
          "internalType": "uint256",
          "name": "proposalId",
          "type": "uint256"
        },
        {
          "indexed": false,
          "internalType": "bool",
          "name": "success",
          "type": "bool"
        },
        {
          "indexed": false,
          "internalType": "bytes",
          "name": "returnData",
          "type": "bytes"
        }
      ],
      "name": "ProposalExecuted",
      "type": "event"
    },
    {
      "anonymous": false,
      "inputs": [
        {
          "indexed": true,
          "internalType": "uint256",
          "name": "proposalId",
          "type": "uint256"
        },
        {
          "indexed": true,
          "internalType": "address",
          "name": "token",
          "type": "address"
        },
        {
          "indexed": true,
          "internalType": "address",
          "name": "recipient",
          "type": "address"
        },
        {
          "indexed": false,
          "internalType": "uint256",
          "name": "amount",
          "type": "uint256"
        },
        {
          "indexed": false,
          "internalType": "string",
          "name": "description",
          "type": "string"
        }
      ],
      "name": "TreasuryAction",
      "type": "event"
    },
    {
      "anonymous": false,
      "inputs": [
        {
          "indexed": true,
          "internalType": "uint256",
          "name": "proposalId",
          "type": "uint256"
        },
        {
          "indexed": false,
          "internalType": "uint256",
          "name": "amount",
          "type": "uint256"
        },
        {
          "indexed": false,
          "internalType": "uint256",
          "name": "perMember",
          "type": "uint256"
        },
        {
          "indexed": false,
          "internalType": "uint256",
          "name": "remainder",
          "type": "uint256"
        }
      ],
      "name": "TreasuryDisbanded",
      "type": "event"
    },
    {
      "anonymous": false,
      "inputs": [
        {
          "indexed": true,
          "internalType": "uint256",
          "name": "proposalId",
          "type": "uint256"
        },
        {
          "indexed": true,
          "internalType": "address",
          "name": "voter",
          "type": "address"
        },
        {
          "indexed": false,
          "internalType": "bool",
          "name": "support",
          "type": "bool"
        },
        {
          "indexed": false,
          "internalType": "uint256",
          "name": "timestamp",
          "type": "uint256"
        }
      ],
      "name": "VoteCast",
      "type": "event"
    },
    {
      "inputs": [],
      "name": "DEFAULT_VOTING_PERIOD",
      "outputs": [
        {
          "internalType": "uint256",
          "name": "",
          "type": "uint256"
        }
      ],
      "stateMutability": "view",
      "type": "function"
    },
    {
      "inputs": [],
      "name": "MAX_VOTING_PERIOD",
      "outputs": [
        {
          "internalType": "uint256",
          "name": "",
          "type": "uint256"
        }
      ],
      "stateMutability": "view",
      "type": "function"
    },
    {
      "inputs": [],
      "name": "MIN_VOTING_PERIOD",
      "outputs": [
        {
          "internalType": "uint256",
          "name": "",
          "type": "uint256"
        }
      ],
      "stateMutability": "view",
      "type": "function"
    },
    {
      "inputs": [],
      "name": "accessToken",
      "outputs": [
        {
          "internalType": "address",
          "name": "",
          "type": "address"
        }
      ],
      "stateMutability": "view",
      "type": "function"
    },
    {
      "inputs": [
        {
          "internalType": "address",
          "name": "",
          "type": "address"
        }
      ],
      "name": "activeProposalId",
      "outputs": [
        {
          "internalType": "uint256",
          "name": "",
          "type": "uint256"
        }
      ],
      "stateMutability": "view",
      "type": "function"
    },
    {
      "inputs": [],
      "name": "claimMemberPool",
      "outputs": [],
      "stateMutability": "nonpayable",
      "type": "function"
    },
    {
      "inputs": [
        {
          "internalType": "string",
          "name": "_title",
          "type": "string"
        },
        {
          "internalType": "string",
          "name": "_description",
          "type": "string"
        },
        {
          "internalType": "bytes",
          "name": "_callData",
          "type": "bytes"
        },
        {
          "internalType": "uint256",
          "name": "_votingPeriod",
          "type": "uint256"
        }
      ],
      "name": "createProposal",
      "outputs": [
        {
          "internalType": "uint256",
          "name": "",
          "type": "uint256"
        }
      ],
      "stateMutability": "nonpayable",
      "type": "function"
    },
    {
      "inputs": [],
      "name": "cumulativeMemberRewards",
      "outputs": [
        {
          "internalType": "uint256",
          "name": "",
          "type": "uint256"
        }
      ],
      "stateMutability": "view",
      "type": "function"
    },
    {
      "inputs": [],
      "name": "disbandTreasuryDAO",
      "outputs": [],
      "stateMutability": "nonpayable",
      "type": "function"
    },
    {
      "inputs": [],
      "name": "entryFee",
      "outputs": [
        {
          "internalType": "uint256",
          "name": "",
          "type": "uint256"
        }
      ],
      "stateMutability": "view",
      "type": "function"
    },
    {
      "inputs": [
        {
          "internalType": "uint256",
          "name": "_proposalId",
          "type": "uint256"
        }
      ],
      "name": "executeProposal",
      "outputs": [],
      "stateMutability": "nonpayable",
      "type": "function"
    },
    {
      "inputs": [],
      "name": "getActiveProposals",
      "outputs": [
        {
          "internalType": "uint256[]",
          "name": "",
          "type": "uint256[]"
        }
      ],
      "stateMutability": "view",
      "type": "function"
    },
    {
      "inputs": [
        {
          "internalType": "uint256",
          "name": "offset",
          "type": "uint256"
        },
        {
          "internalType": "uint256",
          "name": "limit",
          "type": "uint256"
        }
      ],
      "name": "getActiveProposalsPaginated",
      "outputs": [
        {
          "internalType": "uint256[]",
          "name": "proposalIds",
          "type": "uint256[]"
        },
        {
          "internalType": "bool",
          "name": "hasMore",
          "type": "bool"
        }
      ],
      "stateMutability": "view",
      "type": "function"
    },
    {
      "inputs": [
        {
          "internalType": "address",
          "name": "member",
          "type": "address"
        }
      ],
      "name": "getClaimablePoolAmount",
      "outputs": [
        {
          "internalType": "uint256",
          "name": "",
          "type": "uint256"
        }
      ],
      "stateMutability": "view",
      "type": "function"
    },
    {
      "inputs": [],
      "name": "getConfig",
      "outputs": [
        {
          "internalType": "address",
          "name": "token",
          "type": "address"
        },
        {
          "internalType": "uint256",
          "name": "fee",
          "type": "uint256"
        },
        {
          "internalType": "bool",
          "name": "isPaused",
          "type": "bool"
        },
        {
          "internalType": "uint256",
          "name": "purchases",
          "type": "uint256"
        },
        {
          "internalType": "uint256",
          "name": "treasury",
          "type": "uint256"
        },
        {
          "internalType": "uint256",
          "name": "pool",
          "type": "uint256"
        }
      ],
      "stateMutability": "view",
      "type": "function"
    },
    {
      "inputs": [],
      "name": "getMemberCount",
      "outputs": [
        {
          "internalType": "uint256",
          "name": "",
          "type": "uint256"
        }
      ],
      "stateMutability": "view",
      "type": "function"
    },
    {
      "inputs": [
        {
          "internalType": "uint256",
          "name": "_proposalId",
          "type": "uint256"
        }
      ],
      "name": "getProposal",
      "outputs": [
        {
          "internalType": "address",
          "name": "proposer",
          "type": "address"
        },
        {
          "internalType": "string",
          "name": "title",
          "type": "string"
        },
        {
          "internalType": "string",
          "name": "description",
          "type": "string"
        },
        {
          "internalType": "uint256",
          "name": "yesVotes",
          "type": "uint256"
        },
        {
          "internalType": "uint256",
          "name": "noVotes",
          "type": "uint256"
        },
        {
          "internalType": "uint256",
          "name": "endTime",
          "type": "uint256"
        },
        {
          "internalType": "bool",
          "name": "executed",
          "type": "bool"
        },
        {
          "internalType": "bool",
          "name": "passed",
          "type": "bool"
        }
      ],
      "stateMutability": "view",
      "type": "function"
    },
    {
      "inputs": [
        {
          "internalType": "address",
          "name": "user",
          "type": "address"
        }
      ],
      "name": "getPurchaseDetails",
      "outputs": [
        {
          "internalType": "bool",
          "name": "purchased",
          "type": "bool"
        },
        {
          "internalType": "uint256",
          "name": "timestamp",
          "type": "uint256"
        },
        {
          "internalType": "uint256",
          "name": "blockNum",
          "type": "uint256"
        }
      ],
      "stateMutability": "view",
      "type": "function"
    },
    {
      "inputs": [],
      "name": "getTreasuryInfo",
      "outputs": [
        {
          "internalType": "uint256",
          "name": "treasury",
          "type": "uint256"
        },
        {
          "internalType": "uint256",
          "name": "memberPool",
          "type": "uint256"
        },
        {
          "internalType": "uint256",
          "name": "totalReceived",
          "type": "uint256"
        },
        {
          "internalType": "uint256",
          "name": "totalBurnedAmount",
          "type": "uint256"
        },
        {
          "internalType": "uint256",
          "name": "totalProtocolFees",
          "type": "uint256"
        },
        {
          "internalType": "address",
          "name": "protocolAddress",
          "type": "address"
        }
      ],
      "stateMutability": "view",
      "type": "function"
    },
    {
      "inputs": [
        {
          "internalType": "address",
          "name": "voter",
          "type": "address"
        }
      ],
      "name": "getVoteWeight",
      "outputs": [
        {
          "internalType": "uint256",
          "name": "",
          "type": "uint256"
        }
      ],
      "stateMutability": "view",
      "type": "function"
    },
    {
      "inputs": [
        {
          "internalType": "address",
          "name": "user",
          "type": "address"
        }
      ],
      "name": "hasAccess",
      "outputs": [
        {
          "internalType": "bool",
          "name": "",
          "type": "bool"
        }
      ],
      "stateMutability": "view",
      "type": "function"
    },
    {
      "inputs": [
        {
          "internalType": "address",
          "name": "",
          "type": "address"
        }
      ],
      "name": "hasActiveProposal",
      "outputs": [
        {
          "internalType": "bool",
          "name": "",
          "type": "bool"
        }
      ],
      "stateMutability": "view",
      "type": "function"
    },
    {
      "inputs": [
        {
          "internalType": "uint256",
          "name": "_proposalId",
          "type": "uint256"
        },
        {
          "internalType": "address",
          "name": "_voter",
          "type": "address"
        }
      ],
      "name": "hasVoted",
      "outputs": [
        {
          "internalType": "bool",
          "name": "voted",
          "type": "bool"
        },
        {
          "internalType": "bool",
          "name": "support",
          "type": "bool"
        }
      ],
      "stateMutability": "view",
      "type": "function"
    },
    {
      "inputs": [
        {
          "internalType": "address",
          "name": "",
          "type": "address"
        }
      ],
      "name": "memberIndex",
      "outputs": [
        {
          "internalType": "uint256",
          "name": "",
          "type": "uint256"
        }
      ],
      "stateMutability": "view",
      "type": "function"
    },
    {
      "inputs": [
        {
          "internalType": "uint256",
          "name": "",
          "type": "uint256"
        }
      ],
      "name": "memberList",
      "outputs": [
        {
          "internalType": "address",
          "name": "",
          "type": "address"
        }
      ],
      "stateMutability": "view",
      "type": "function"
    },
    {
      "inputs": [],
      "name": "memberPoolBalance",
      "outputs": [
        {
          "internalType": "uint256",
          "name": "",
          "type": "uint256"
        }
      ],
      "stateMutability": "view",
      "type": "function"
    },
    {
      "inputs": [
        {
          "internalType": "address",
          "name": "",
          "type": "address"
        }
      ],
      "name": "memberPoolClaims",
      "outputs": [
        {
          "internalType": "uint256",
          "name": "",
          "type": "uint256"
        }
      ],
      "stateMutability": "view",
      "type": "function"
    },
    {
      "inputs": [],
      "name": "memberRewardRemainder",
      "outputs": [
        {
          "internalType": "uint256",
          "name": "",
          "type": "uint256"
        }
      ],
      "stateMutability": "view",
      "type": "function"
    },
    {
      "inputs": [
        {
          "internalType": "address",
          "name": "",
          "type": "address"
        }
      ],
      "name": "members",
      "outputs": [
        {
          "internalType": "bool",
          "name": "purchased",
          "type": "bool"
        },
        {
          "internalType": "uint256",
          "name": "timestamp",
          "type": "uint256"
        },
        {
          "internalType": "uint256",
          "name": "block",
          "type": "uint256"
        },
        {
          "internalType": "uint256",
          "name": "rewardSnapshot",
          "type": "uint256"
        }
      ],
      "stateMutability": "view",
      "type": "function"
    },
    {
      "inputs": [],
      "name": "paused",
      "outputs": [
        {
          "internalType": "bool",
          "name": "",
          "type": "bool"
        }
      ],
      "stateMutability": "view",
      "type": "function"
    },
    {
      "inputs": [],
      "name": "priest",
      "outputs": [
        {
          "internalType": "address",
          "name": "",
          "type": "address"
        }
      ],
      "stateMutability": "view",
      "type": "function"
    },
    {
      "inputs": [],
      "name": "proposalCount",
      "outputs": [
        {
          "internalType": "uint256",
          "name": "",
          "type": "uint256"
        }
      ],
      "stateMutability": "view",
      "type": "function"
    },
    {
      "inputs": [
        {
          "internalType": "uint256",
          "name": "",
          "type": "uint256"
        }
      ],
      "name": "proposals",
      "outputs": [
        {
          "internalType": "uint256",
          "name": "id",
          "type": "uint256"
        },
        {
          "internalType": "address",
          "name": "proposer",
          "type": "address"
        },
        {
          "internalType": "string",
          "name": "title",
          "type": "string"
        },
        {
          "internalType": "string",
          "name": "description",
          "type": "string"
        },
        {
          "internalType": "bytes",
          "name": "callData",
          "type": "bytes"
        },
        {
          "internalType": "enum TEMPL.Action",
          "name": "action",
          "type": "uint8"
        },
        {
          "internalType": "address",
          "name": "token",
          "type": "address"
        },
        {
          "internalType": "address",
          "name": "recipient",
          "type": "address"
        },
        {
          "internalType": "uint256",
          "name": "amount",
          "type": "uint256"
        },
        {
          "internalType": "string",
          "name": "reason",
          "type": "string"
        },
        {
          "internalType": "bool",
          "name": "paused",
          "type": "bool"
        },
        {
          "internalType": "uint256",
          "name": "newEntryFee",
          "type": "uint256"
        },
        {
          "internalType": "uint256",
          "name": "yesVotes",
          "type": "uint256"
        },
        {
          "internalType": "uint256",
          "name": "noVotes",
          "type": "uint256"
        },
        {
          "internalType": "uint256",
          "name": "endTime",
          "type": "uint256"
        },
        {
          "internalType": "uint256",
          "name": "createdAt",
          "type": "uint256"
        },
        {
          "internalType": "uint256",
          "name": "eligibleVoters",
          "type": "uint256"
        },
        {
          "internalType": "bool",
          "name": "executed",
          "type": "bool"
        }
      ],
      "stateMutability": "view",
      "type": "function"
    },
    {
      "inputs": [],
      "name": "protocolFeeRecipient",
      "outputs": [
        {
          "internalType": "address",
          "name": "",
          "type": "address"
        }
      ],
      "stateMutability": "view",
      "type": "function"
    },
    {
      "inputs": [],
      "name": "purchaseAccess",
      "outputs": [],
      "stateMutability": "nonpayable",
      "type": "function"
    },
    {
      "inputs": [
        {
          "internalType": "bool",
          "name": "_paused",
          "type": "bool"
        }
      ],
      "name": "setPausedDAO",
      "outputs": [],
      "stateMutability": "nonpayable",
      "type": "function"
    },
    {
      "inputs": [],
      "name": "totalBurned",
      "outputs": [
        {
          "internalType": "uint256",
          "name": "",
          "type": "uint256"
        }
      ],
      "stateMutability": "view",
      "type": "function"
    },
    {
      "inputs": [],
      "name": "totalPurchases",
      "outputs": [
        {
          "internalType": "uint256",
          "name": "",
          "type": "uint256"
        }
      ],
      "stateMutability": "view",
      "type": "function"
    },
    {
      "inputs": [],
      "name": "totalToMemberPool",
      "outputs": [
        {
          "internalType": "uint256",
          "name": "",
          "type": "uint256"
        }
      ],
      "stateMutability": "view",
      "type": "function"
    },
    {
      "inputs": [],
      "name": "totalToProtocol",
      "outputs": [
        {
          "internalType": "uint256",
          "name": "",
          "type": "uint256"
        }
      ],
      "stateMutability": "view",
      "type": "function"
    },
    {
      "inputs": [],
      "name": "totalToTreasury",
      "outputs": [
        {
          "internalType": "uint256",
          "name": "",
          "type": "uint256"
        }
      ],
      "stateMutability": "view",
      "type": "function"
    },
    {
      "inputs": [],
      "name": "treasuryBalance",
      "outputs": [
        {
          "internalType": "uint256",
          "name": "",
          "type": "uint256"
        }
      ],
      "stateMutability": "view",
      "type": "function"
    },
    {
      "inputs": [
        {
          "internalType": "address",
          "name": "_token",
          "type": "address"
        },
        {
          "internalType": "uint256",
          "name": "_entryFee",
          "type": "uint256"
        }
      ],
      "name": "updateConfigDAO",
      "outputs": [],
      "stateMutability": "nonpayable",
      "type": "function"
    },
    {
      "inputs": [
        {
          "internalType": "uint256",
          "name": "_proposalId",
          "type": "uint256"
        },
        {
          "internalType": "bool",
          "name": "_support",
          "type": "bool"
        }
      ],
      "name": "vote",
      "outputs": [],
      "stateMutability": "nonpayable",
      "type": "function"
    },
    {
      "inputs": [
        {
          "internalType": "address",
          "name": "token",
          "type": "address"
        },
        {
          "internalType": "address",
          "name": "recipient",
          "type": "address"
        },
        {
          "internalType": "string",
          "name": "reason",
          "type": "string"
        }
      ],
      "name": "withdrawAllTreasuryDAO",
      "outputs": [],
      "stateMutability": "nonpayable",
      "type": "function"
    },
    {
      "inputs": [
        {
          "internalType": "address",
          "name": "token",
          "type": "address"
        },
        {
          "internalType": "address",
          "name": "recipient",
          "type": "address"
        },
        {
          "internalType": "uint256",
          "name": "amount",
          "type": "uint256"
        },
        {
          "internalType": "string",
          "name": "reason",
          "type": "string"
        }
      ],
      "name": "withdrawTreasuryDAO",
      "outputs": [],
      "stateMutability": "nonpayable",
      "type": "function"
    },
    {
      "stateMutability": "payable",
      "type": "receive"
    }
  ],
  "bytecode": "0x60e034620001b157601f620033ac38819003918201601f191683019291906001600160401b03841183851017620001b6578160809284926040968752833981010312620001b1576200005181620001cc565b906200006060208201620001cc565b60606200006f858401620001cc565b9201516001600055926001600160a01b0380821615908115620001a5575b811562000199575b50620001885783156200017757600a84106200016657600a8406620001555760805260a05260c05260015560ff1960045416600455516131ca9081620001e2823960805181610a4e015260a0518181816109f301528181610e0001526110ff015260c0518181816102f4015281816103a60152818161047a0152818161096d01528181610c1c01528181610d9701528181610dca01528181610e2201528181611427015281816122ba0152818161246201528181612f520152612fca0152f35b8451636fe6a4c960e01b8152600490fd5b8451635eee050360e11b8152600490fd5b84516365e52d5160e11b8152600490fd5b8451634e46966960e11b8152600490fd5b90508316153862000095565b8381161591506200008d565b600080fd5b634e487b7160e01b600052604160045260246000fd5b51906001600160a01b0382168203620001b15756fe60a0604052600436101561001b575b361561001957600080fd5b005b60003560e01c8063013cf08b14612738578063072ea61c1461271a57806308ae4b0c146126b95780630d61b519146121465780631808022a14612123578063215809ca14610add5780632833788614612066578063313dab201461204857806332d084bb146115375780633ccae22a146113c95780633dd352791461138f5780634385963214611320578063524ddc23146112f35780635584c4f9146112015780635962a941146111e357806359c266ff146111c55780635c975abb146111a25780635fa7ddf01461118457806364653f291461112e57806364df049e146110e9578063653724d6146110bc5780636898b19c1461109e5780636ad18550146110645780638f78bbc41461102257806395a078e814610fe3578063997072f714610fc557806399e288d814610b83578063a51a46b914610b65578063a64e024a14610b47578063a730117e14610b1c578063a81bbe3c14610ae2578063aedfe53f14610add578063b307fc6d14610a9b578063bdb75b3414610a7d578063bebc8fc014610a38578063c1b57edb14610a1a578063c2939471146109ac578063c3f909d414610939578063c7f758a814610841578063c9d27afe1461062a578063d402d4be14610411578063d89135cd146103f3578063da35c664146103d5578063e243c5fb14610390578063f7158b2a1461025e5763ffafe4ad0361000e5734610259576020366003190112610259576001600160a01b0361023b612a77565b16600052600e602052602060ff604060002054166040519015158152f35b600080fd5b346102595760003660031901126102595733600052600560205260ff604060002054161561037e5761028e612eae565b61029733612bb1565b801561036c57806102ad600354600a5490612ba4565b1061035a57600954336000526005602052600360406000200155600860205260406000206102dc828254612c62565b90556102ea81600354612ba4565b60035561032181337f00000000000000000000000000000000000000000000000000000000000000006001600160a01b031661308d565b6040519081524260208201527fc4e740509dbfae3377bc9925dd7bcc8aaba69cd730316216d76b2d24725c636660403392a26001600055005b60405163bc6072f160e01b8152600490fd5b6040516373380d9960e01b8152600490fd5b60405163148fe22160e11b8152600490fd5b34610259576000366003190112610259576040517f00000000000000000000000000000000000000000000000000000000000000006001600160a01b03168152602090f35b34610259576000366003190112610259576020600b54604051908152f35b34610259576000366003190112610259576020601054604051908152f35b346102595760803660031901126102595761042a612a77565b610432612a8d565b90604435906064356001600160401b03811161025957610456903690600401612adc565b92303303610618576001600160a01b03818116949085156106065784156105f457807f00000000000000000000000000000000000000000000000000000000000000001693169383851460001461050e57600254938482116104fc5781600080516020613175833981519152946104db926104d383600099612ba4565b60025561308d565b6104f76040519283928352604060208401526040830190612a37565b0390a4005b604051631c7b597b60e11b8152600490fd5b909250908361056057504781116104fc57600080808084885af1610530612ed1565b501561054e57600091600080516020613175833981519152916104db565b6040516331d436c760e01b8152600490fd5b90916040516370a0823160e01b8152306004820152602081602481885afa9081156105e8576000916105b6575b5083116104fc57826105b1600094600080516020613175833981519152948761308d565b6104db565b90506020813d6020116105e0575b816105d160209383612a16565b8101031261025957518661058d565b3d91506105c4565b6040513d6000823e3d90fd5b6040516365e52d5160e11b8152600490fd5b604051634e46966960e11b8152600490fd5b6040516327568d2f60e11b8152600490fd5b346102595760403660031901126102595760043560249081358015159283820361025957336000526020916005835260ff604060002054161561037e57600b5484101561082f5783600052600c8352604060002091600d83015442101561081d5733600052600584526001928360406000200154600e820154111561080b576011928382013360005280875260ff604060002054166012840180895260ff6040600020541692895260406000208860ff1982541617905588526106fd8360406000209060ff801983541691151516179055565b61077857501561076057600b0191825493840180941161074e575050555b60405192835242908301527fcbdf6214089cba887ecbf35a0b6a734589959c9763342c756bb2a80ca2bc9f6e60403393a3005b634e487b7160e01b6000526004526000fd5b600c0191825493840180941161074e5750505561071b565b9050878115150361078e575b505050505061071b565b156107dc57600b810180546000198101919082116107c85790600c9291550191825493840180941161074e575050555b8380808080610784565b8385634e487b7160e01b6000526004526000fd5b600c810180546000198101919082116107c85790600b9291550191825493840180941161074e575050556107be565b60405163f078ca7360e01b8152600490fd5b604051637a19ed0560e01b8152600490fd5b604051631dc0650160e31b8152600490fd5b3461025957602036600319011261025957600435600b5481101561082f57600052600c6020526040600020600d810154804210159081610927575b60018060a01b0360018401541691600b84015491600c8501549060ff6010870154169161090560036108da604051996108c38b6108bc8160028501612965565b038c612a16565b6108d36040518094819301612965565b0382612a16565b6108f7604051998a99610100908b528060208c01528a0190612a37565b9088820360408a0152612a37565b946060870152608086015260a0850152151560c0840152151560e08301520390f35b600b830154600c84015410915061087c565b346102595760003660031901126102595760c060015460ff60045416600f5460025490600354926040519460018060a01b037f00000000000000000000000000000000000000000000000000000000000000001686526020860152151560408501526060840152608083015260a0820152f35b346102595760003660031901126102595760c06002546003546011546010549060135492604051948552602085015260408401526060830152608082015260018060a01b037f00000000000000000000000000000000000000000000000000000000000000001660a0820152f35b34610259576000366003190112610259576020601154604051908152f35b34610259576000366003190112610259576040517f00000000000000000000000000000000000000000000000000000000000000006001600160a01b03168152602090f35b34610259576000366003190112610259576020601254604051908152f35b346102595760203660031901126102595760043560065481101561025957610ac4602091612b57565b905460405160039290921b1c6001600160a01b03168152f35b612aa3565b34610259576020366003190112610259576001600160a01b03610b03612a77565b1660005260086020526020604060002054604051908152f35b34610259576020366003190112610259576020610b3f610b3a612a77565b612e84565b604051908152f35b3461025957600036600319011261025957602060405162278d008152f35b34610259576000366003190112610259576020600a54604051908152f35b346102595760003660031901126102595760ff60045416610fb357303314610fa157610bad612eae565b3360005260056020526040600020805460ff8116610f8f57600191825490601e820290821593838304601e14851715610ec05783603c810204603c14851715610ec057600a840294848604600a141715610ec0576040516370a0823160e01b81523360048201526020816024817f00000000000000000000000000000000000000000000000000000000000000006001600160a01b03165afa80156105e8578591600091610f5a575b5010610f4857859060ff191617815542858201554360028201556006543360005260076020528060406000205568010000000000000000811015610f32578086610ca39201600655612b57565b81546001600160a01b0360039290921b91821b19163390911b179055600f54610ccb90612bfd565b600f55600654858111610ed6575b5060036009549101558354601e810290808204601e1490151715610ec0576064603c81610df7930494610d0e86600254612c62565b600255610d1d86600354612c62565b600355610d2e838604601054612c62565b601055610d3d86601154612c62565b601155610d4c86601254612c62565b601255610d5d838804601354612c62565b6013556040516323b872dd60e01b602082015233602482015261dead604482015283860484820152838152610dc490610d95816129fb565b7f00000000000000000000000000000000000000000000000000000000000000006001600160a01b03166130d8565b020430337f00000000000000000000000000000000000000000000000000000000000000006001600160a01b0316613044565b610e4f606484047f0000000000000000000000000000000000000000000000000000000000000000337f00000000000000000000000000000000000000000000000000000000000000006001600160a01b0316613044565b835492600f54926000198401938411610ec0576064809360405196875204602086015280604086015260608501520460808301524260a08301524360c083015260e08201527fe6d1c0e418a42a777d49c66571075fc47bc1d92e7f506007ddde08d1ff182bbc6101003392a2600055005b634e487b7160e01b600052601160045260246000fd5b8554601e810290808204601e1490151715610ec057610efb906064600a549104612c62565b6000198201918211610ec057610f1e82610f18610f299484612e5a565b92612e7a565b600a55600954612c62565b60095585610cd9565b634e487b7160e01b600052604160045260246000fd5b604051631e9acf1760e31b8152600490fd5b9150506020813d602011610f87575b81610f7660209383612a16565b810103126102595784905188610c56565b3d9150610f69565b604051630cd9ed5560e21b8152600490fd5b604051636edaef2f60e11b8152600490fd5b604051630eceade960e31b8152600490fd5b34610259576000366003190112610259576020600654604051908152f35b34610259576020366003190112610259576001600160a01b03611004612a77565b166000526005602052602060ff604060002054166040519015158152f35b3461025957604036600319011261025957611058611044602435600435612ccc565b604051928392604084526040840190612b23565b90151560208301520390f35b34610259576020366003190112610259576001600160a01b03611085612a77565b16600052600d6020526020604060002054604051908152f35b34610259576000366003190112610259576020600954604051908152f35b34610259576020366003190112610259576004358015158103610259573033036106185761001990612ff2565b34610259576000366003190112610259576040517f00000000000000000000000000000000000000000000000000000000000000006001600160a01b03168152602090f35b34610259576020366003190112610259576001600160a01b0361114f612a77565b1660005260056020526060604060002060ff815416906002600182015491015490604051921515835260208301526040820152f35b34610259576000366003190112610259576020600354604051908152f35b3461025957600036600319011261025957602060ff600454166040519015158152f35b34610259576000366003190112610259576020601354604051908152f35b34610259576000366003190112610259576020600f54604051908152f35b3461025957600036600319011261025957600b546000805b8281106112a5575061122a90612c86565b906000805b828110611250576040516020808252819061124c90820187612b23565b0390f35b80600191600052600c6020526040600020600d81015442109081611295575b5061127b575b0161122f565b8061128f61128885612bfd565b9487612cb8565b52611275565b60ff91506010015416158661126f565b80600052600c6020526040600020600d810154421090816112e3575b506112cf575b600101611219565b906112db600191612bfd565b9190506112c7565b60ff9150601001541615846112c1565b346102595760403660031901126102595761130c612a77565b303303610618576100199060243590612f01565b346102595760403660031901126102595760043561133c612a8d565b600b5482101561082f57604091600052600c602052816000209060018060a01b031660005260118101602052601260ff836000205416910160205260ff8260002054168251911515825215156020820152f35b34610259576020366003190112610259576001600160a01b036113b0612a77565b1660005260076020526020604060002054604051908152f35b34610259576060366003190112610259576113e2612a77565b6113ea612a8d565b6044356001600160401b03811161025957611409903690600401612adc565b90303303610618576001600160a01b038181169390841561060657807f0000000000000000000000000000000000000000000000000000000000000000169116928184146000146114915760025491821561147f576104db8360009560008051602061317583398151915295938760025561308d565b604051631ab9ebab60e01b8152600490fd5b919050826114b2575047801561147f57600080808084885af1610530612ed1565b6040516370a0823160e01b81523060048201529091602082602481875afa9182156105e857600092611503575b5081821561147f576105b1600080516020613175833981519152936000958761308d565b9091506020813d60201161152f575b8161151f60209383612a16565b81010312610259575190856114df565b3d9150611512565b34610259576080366003190112610259576004356001600160401b03811161025957611567903690600401612adc565b6024356001600160401b03811161025957611586903690600401612adc565b906001600160401b036044351161025957366023604435011215610259576001600160401b0360443560040135116102595736602460443560040135604435010111610259576064359033600052600560205260ff604060002054161561037e5780511561203657825115612024576044356004013515612012576004604435810135106120005733600052600e60205260ff60406000205416611f8b575b8115611f80575b62093a808210611f6e5762278d008211611f5c57600b549161164d83612bfd565b600b5582600052600c60205260406000209383855560018501336bffffffffffffffffffffffff60a01b82541617905582516001600160401b038111610f32576116a78161169e600289015461292b565b60028901612c0c565b6020601f8211600114611ef05790806116d692600091611ee5575b508160011b916000199060031b1c19161790565b60028601555b8051906001600160401b038211610f3257611707826116fe600389015461292b565b60038901612c0c565b602090601f8311600114611e7357611738929160009183611e68575b50508160011b916000199060031b1c19161790565b60038501555b61175e60443560040135611755600487015461292b565b60048701612c0c565b6000601f6044356004013511600114611dda576117a09060009060443560040135611dca575b5060443560040135908160011b916000199060031b1c19161790565b60048501555b6044356004013560041161025957604435602401356001600160e01b03191663329b926b60e11b81036118ff5750602460443560040135036118ed576020604435600481013581010360031901126102595760286044350135908115158203610259578461184b600080516020613155833981519152926118458795600560209a0160ff198154169055600985019060ff801983541691151516179055565b42612c62565b90600d810191825542600e820155600654600f8201556000600c601083019260ff1993848154169055338352601181018a5260408320600185825416179055601281018a52604083206001858254161790556001600b8201550155600e87526001604060002091825416179055600d86528260406000205554926118da60405191604083526040830190612a37565b93868201528033940390a3604051908152f35b604051631c49f4d160e01b8152600490fd5b90939063524ddc2360e01b810361199557506044803560040135036118ed5760406044356004810135810103600319011261025957600080516020613155833981519152839161184b602096611959602860443501613030565b60443560480135600a850155600584018054600160089390931b610100600160a81b03166001600160a81b031990911617919091179055611845565b636a016a5f60e11b8103611b9d575060a460443560040135106118ed57608060443560048101358101036003190112610259576119d6602860443501613030565b906119e5604860443501613030565b94608860443501356001600160401b03811161025957611a179060046044359081013581016024019101602801612adc565b928351966001600160401b038811610f3257878795611a4860209a611a3f600889015461292b565b60088901612c0c565b8990601f8311600114611b0d5792611a9183611aee9461184b97946000805160206131558339815191529a9997600092611b025750508160011b916000199060031b1c19161790565b60088701555b6044356068013560078701556006860180546001600160a01b0319166001600160a01b0392909216919091179055600585018054610100600160a81b03191660089290921b610100600160a81b0316919091179055565b60058301805460ff19166002179055611845565b015190508e80611723565b60088796959493929897016000528a6000209060005b601f1984168110611b83575082611aee9492600080516020613155833981519152999a60019361184b999896601f19811610611b6a575b505050811b016008870155611a97565b015160001960f88460031b161c191690558d8080611b5a565b818a01518355988c01988b98506001909201918c01611b23565b631e65711560e11b8103611d855750608460443560040135106118ed5760606044356004810135810103600319011261025957611bde602860443501613030565b90611bed604860443501613030565b94606860443501356001600160401b03811161025957611c1f9060046044359081013581016024019101602801612adc565b928351966001600160401b038811610f3257878795611c4760209a611a3f600889015461292b565b8990601f8311600114611cf55792611c9083611ce19461184b97946000805160206131558339815191529a9997600092611b025750508160011b916000199060031b1c19161790565b60088701555b6006860180546001600160a01b0319166001600160a01b0392909216919091179055600585018054610100600160a81b03191660089290921b610100600160a81b0316919091179055565b60058301805460ff19166003179055611845565b60088796959493929897016000528a6000209060005b601f1984168110611d6b575082611ce19492600080516020613155833981519152999a60019361184b999896601f19811610611d52575b505050811b016008870155611c96565b015160001960f88460031b161c191690558d8080611d42565b818a01518355988c01988b98506001909201918c01611d0b565b631419bc4360e11b036118ed576004604435810135036118ed576000805160206131558339815191528161184b6020966005879501600460ff19825416179055611845565b6024915060443501013586611784565b6004850160005260206000209060005b60046044350135601f19168110611e4b575060046044350135601f19811610611e26575b5050600160443560040135811b0160048501556117a6565b602460001960f86044356004013560031b161c19916044350101351690558480611e0e565b909160206001819260248660443501013581550193019101611dea565b015190508780611723565b9190600387016000526020600020906000935b601f1984168510611eca576001945083601f19811610611eb1575b505050811b01600385015561173e565b015160001960f88460031b161c19169055868080611ea1565b81810151835560209485019460019093019290910190611e86565b9050850151886116c2565b906002870160005260206000206000925b601f1983168410611f44576001935082601f19811610611f2b575b5050811b0160028601556116dc565b86015160001960f88460031b161c191690558780611f1c565b86810151825560209384019360019092019101611f01565b60405163eeeb962360e01b8152600490fd5b6040516331806aeb60e21b8152600490fd5b62093a80915061162c565b600d602052604060002054600052600c602052604060002060ff601082015416159081611ff2575b5015611fcb5760405163792c310960e11b8152600490fd5b33600052600e602052604060002060ff198154169055600d60205260006040812055611625565b600d91500154421084611fb3565b604051632d2b93ff60e01b8152600490fd5b60405163066e738d60e01b8152600490fd5b604051633e61080d60e01b8152600490fd5b6040516319d546f160e31b8152600490fd5b34610259576000366003190112610259576020600254604051908152f35b346102595760003660031901126102595730330361061857600254801561147f576006549081156121115760607f8b887c99365b16ec127c895b4fbfab96273b2a79191ed7b42b9724cd8a695ae991600093846002556120c882600354612c62565b6003556120df6120d88284612e5a565b9183612e7a565b906120ec81600954612c62565b6009556120fb82600a54612c62565b600a5560405192835260208301526040820152a2005b604051630292d7c360e51b8152600490fd5b34610259576020366003190112610259576020610b3f612141612a77565b612bb1565b34610259576020806003193601126102595760043590612164612eae565b600b5482101561082f5781600052600c8152604060002090600d82015442106126a757601082019182549260ff841661269557600b820154600c830154101561268357600160ff1980951617905560018060a01b039283600183015416600052600e835260ff6040600020541680612671575b612651575b50600581019260ff845416600581101561263b578061223657505060008051602061313583398151915292509061221b60ff6009606094015416612ff2565b60408051916001835282015260006040820152a26001600055005b6001810361226c575060609291600a61226792600080516020613135833981519152965460081c1691015490612f01565b61221b565b9192916002908082036124295750816008949554851c169082600687015416926122ac6007880154976122a56040518099819301612965565b0387612a16565b83156106065786156105f4577f00000000000000000000000000000000000000000000000000000000000000001694828603612349578154908188116104fc5787612326818760609a8d9761231f6000805160206131358339815191529e60008051602061317583398151915299612ba4565b905561308d565b61234160405192839283526040898401526040830190612a37565b0390a461221b565b9594505080612398574784116104fc57600080808087865af161236a612ed1565b501561054e578560008051602061317583398151915260008051602061313583398151915296606096612326565b6040516370a0823160e01b81523060048201528381602481855afa9081156105e8576000916123fc575b5084116104fc578560008051602061317583398151915260008051602061313583398151915296866123f7606098878761308d565b612326565b90508381813d8311612422575b6124138183612a16565b810103126102595751876123c2565b503d612409565b909391906003810361257657508060089554861c169061245a81600685015416936122a56040518099819301612965565b8215610606577f0000000000000000000000000000000000000000000000000000000000000000168181036124c4578454801561147f576000805160206131358339815191529660609661232683878c96600060008051602061317583398151915297955561308d565b509250826124e5574792831561147f57600080808087865af161236a612ed1565b6040516370a0823160e01b815230600482015293928285602481845afa9485156105e857600095612547575b5084851561147f5760008051602061317583398151915260609588926123f760008051602061313583398151915299878761308d565b9094508281813d831161256f575b61255f8183612a16565b8101031261025957519386612511565b503d612555565b91505060049193501461259c575b5060606000805160206131358339815191529161221b565b805491821561147f57600654928315612111577f8b887c99365b16ec127c895b4fbfab96273b2a79191ed7b42b9724cd8a695ae9606086926000805160206131358339815191529660008397556125f582600354612c62565b6003556126056120d88284612e5a565b9061261281600954612c62565b60095561262182600a54612c62565b600a55604051928352868301526040820152a29150612584565b634e487b7160e01b600052602160045260246000fd5b600e83526040600020908154169055600d825260006040812055846121dc565b50600d835284604060002054146121d7565b60405163c8c93ba360e01b8152600490fd5b604051630dc1019760e01b8152600490fd5b604051633fc30bd160e11b8152600490fd5b34610259576020366003190112610259576001600160a01b036126da612a77565b1660005260056020526080604060002060ff8154169060018101549060036002820154910154916040519315158452602084015260408301526060820152f35b34610259576000366003190112610259576020600154604051908152f35b34610259576020366003190112610259576004356000908152600c602052604090208054600182015490916001600160a01b039091169060a061277e8160028401612965565b0360a09061278b91612a16565b604051928361279d8160038501612965565b036127a89085612a16565b60405193846127ba8160048601612965565b036127c59086612a16565b6005830154600684015460078501546040516001600160a01b039092169792909190816127f58160088a01612965565b036128009083612a16565b600987015460ff1698600a88015492600b89015494600c8a015496600d8b015498600e8c01549a600f8d01549c6010015460ff169d60405160805261024091608051526080516020015280608051604001526080510160a09061286291612a37565b60805181036080516060015261287791612a37565b60805181036080516080015261288c91612a37565b9260ff85166005111561263b578460ff6128dc961660a0608051015260018060a01b039060081c1660c0608051015260e06080510152610100608051015260805182036101206080510152612a37565b9715156101406080510152610160608051015261018060805101526101a060805101526101c060805101526101e060805101526102006080510152151561022060805101526080519003608051f35b90600182811c9216801561295b575b602083101461294557565b634e487b7160e01b600052602260045260246000fd5b91607f169161293a565b8054600093926129748261292b565b918282526020936001916001811690816000146129dc575060011461299b575b5050505050565b90939495506000929192528360002092846000945b8386106129c857505050500101903880808080612994565b8054858701830152940193859082016129b0565b60ff19168685015250505090151560051b010191503880808080612994565b60a081019081106001600160401b03821117610f3257604052565b90601f801991011681019081106001600160401b03821117610f3257604052565b919082519283825260005b848110612a63575050826000602080949584010152601f8019910116010190565b602081830181015184830182015201612a42565b600435906001600160a01b038216820361025957565b602435906001600160a01b038216820361025957565b3461025957600036600319011261025957602060405162093a808152f35b6001600160401b038111610f3257601f01601f191660200190565b81601f8201121561025957803590612af382612ac1565b92612b016040519485612a16565b8284526020838301011161025957816000926020809301838601378301015290565b90815180825260208080930193019160005b828110612b43575050505090565b835185529381019392810192600101612b35565b600654811015612b8e5760066000527ff652222313e28459528d920b65115c16c04f3efc82aaedc97be59f3f377c0d3f0190600090565b634e487b7160e01b600052603260045260246000fd5b91908203918211610ec057565b6001600160a01b03166000908152600560205260409020805460ff1615612bf7576003600954910154808211600014612bf057612bed91612ba4565b90565b5050600090565b50600090565b6000198114610ec05760010190565b90601f8111612c1a57505050565b6000916000526020600020906020601f850160051c83019410612c58575b601f0160051c01915b828110612c4d57505050565b818155600101612c41565b9092508290612c38565b91908201809211610ec057565b6001600160401b038111610f325760051b60200190565b90612c9082612c6f565b612c9d6040519182612a16565b8281528092612cae601f1991612c6f565b0190602036910137565b8051821015612b8e5760209160051b010190565b9181158015612e50575b612e3e57600b5480841015612e0f57612cee83612c86565b91600091855b81871080612e06575b15612d6a575085600052600c6020526040600020600d81015442109081612d5a575b50612d40575b60018601808711610ec057612d3a9096612bfd565b95612cf4565b85612d54612d4d85612bfd565b9486612cb8565b52612d25565b60ff915060100154161538612d1f565b9550909350600094818110612db6575b5050612d8581612c86565b9160005b828110612d97575050509190565b80612da460019284612cb8565b51612daf8287612cb8565b5201612d89565b5b81811015612d7a5780600052600c6020526040600020600d81015442109081612df6575b50612de857600101612db7565b505092506001923880612d7a565b60ff915060100154161538612ddb565b50858410612cfd565b50915050604051602081018181106001600160401b03821117610f325760405260008152600036813790600090565b6040516381f396b760e01b8152600490fd5b5060648211612cd6565b8115612e64570490565b634e487b7160e01b600052601260045260246000fd5b8115612e64570690565b6001600160a01b031660009081526005602052604090205460ff1615612ea957600190565b600090565b600260005414612ebf576002600055565b604051633ee5aeb560e01b8152600490fd5b3d15612efc573d90612ee282612ac1565b91612ef06040519384612a16565b82523d6000602084013e565b606090565b6001600160a01b03919082168015159081612fc5575b50612fb35780612f76575b507faf8839d80c9b3bbf95c97465eb8c8348db4098f5c15af186c3b425b1129981176020600154926040519384527f00000000000000000000000000000000000000000000000000000000000000001692a2565b600a8110612fa157600a8106612f8f5760015538612f22565b604051636fe6a4c960e01b8152600490fd5b604051635eee050360e11b8152600490fd5b60405163b078ee9d60e01b8152600490fd5b9050827f000000000000000000000000000000000000000000000000000000000000000016141538612f17565b60207f752d7e161ff5146f80e3820893176eb40532811e5e20400dfdde57455213706a91151560ff196004541660ff821617600455604051908152a1565b35906001600160a01b038216820361025957565b6040516323b872dd60e01b60208201526001600160a01b03928316602482015292909116604483015260648083019390935291815261308b91613086826129fb565b6130d8565b565b60405163a9059cbb60e01b60208201526001600160a01b03909216602483015260448083019390935291815260808101916001600160401b03831182841017610f325761308b926040525b906000602091828151910182855af1156105e8576000513d61312b57506001600160a01b0381163b155b6131095750565b604051635274afe760e01b81526001600160a01b039091166004820152602490fd5b6001141561310256feaf8f9d0e884d3306a083e846741a0bc4d75908e2b0ec63b558219652ae4c1b9098120a6aaa04295520ab4e01c6c1235dd316e822cc9ff31db7b3f197366d18bdd81f085560db5c809c425a15f00e3f2904e4fa46d6e8672ff2e671ccd6d9a231a26469706673582212203347e8b25962a87180ce9b284fd070198fd227243d6b6fbf7d35cbf61df36b0264736f6c63430008170033",
  "linkReferences": {},
  "deployedLinkReferences": {}
}