{
  "_format": "hh-sol-artifact-1",
  "contractName": "TEMPL",
  "sourceName": "contracts/TEMPL.sol",
  "abi": [
    {
      "inputs": [
        {
          "internalType": "address",
          "name": "_priest",
          "type": "address"
        },
        {
          "internalType": "address",
          "name": "_token",
          "type": "address"
        },
        {
          "internalType": "uint256",
          "name": "_entryFee",
          "type": "uint256"
        }
      ],
      "stateMutability": "nonpayable",
      "type": "constructor"
    },
    {
      "anonymous": false,
      "inputs": [
        {
          "indexed": true,
          "internalType": "address",
          "name": "purchaser",
          "type": "address"
        },
        {
          "indexed": false,
          "internalType": "uint256",
          "name": "totalAmount",
          "type": "uint256"
        },
        {
          "indexed": false,
          "internalType": "uint256",
          "name": "burnedAmount",
          "type": "uint256"
        },
        {
          "indexed": false,
          "internalType": "uint256",
          "name": "treasuryAmount",
          "type": "uint256"
        },
        {
          "indexed": false,
          "internalType": "uint256",
          "name": "memberPoolAmount",
          "type": "uint256"
        },
        {
          "indexed": false,
          "internalType": "uint256",
          "name": "protocolAmount",
          "type": "uint256"
        },
        {
          "indexed": false,
          "internalType": "uint256",
          "name": "timestamp",
          "type": "uint256"
        },
        {
          "indexed": false,
          "internalType": "uint256",
          "name": "blockNumber",
          "type": "uint256"
        },
        {
          "indexed": false,
          "internalType": "uint256",
          "name": "purchaseId",
          "type": "uint256"
        }
      ],
      "name": "AccessPurchased",
      "type": "event"
    },
    {
      "anonymous": false,
      "inputs": [
        {
          "indexed": true,
          "internalType": "address",
          "name": "token",
          "type": "address"
        },
        {
          "indexed": false,
          "internalType": "uint256",
          "name": "entryFee",
          "type": "uint256"
        }
      ],
      "name": "ConfigUpdated",
      "type": "event"
    },
    {
      "anonymous": false,
      "inputs": [
        {
          "indexed": false,
          "internalType": "bool",
          "name": "isPaused",
          "type": "bool"
        }
      ],
      "name": "ContractPaused",
      "type": "event"
    },
    {
      "anonymous": false,
      "inputs": [
        {
          "indexed": true,
          "internalType": "address",
          "name": "member",
          "type": "address"
        },
        {
          "indexed": false,
          "internalType": "uint256",
          "name": "amount",
          "type": "uint256"
        },
        {
          "indexed": false,
          "internalType": "uint256",
          "name": "timestamp",
          "type": "uint256"
        }
      ],
      "name": "MemberPoolClaimed",
      "type": "event"
    },
    {
      "anonymous": false,
      "inputs": [
        {
          "indexed": true,
          "internalType": "uint256",
          "name": "proposalId",
          "type": "uint256"
        },
        {
          "indexed": true,
          "internalType": "address",
          "name": "proposer",
          "type": "address"
        },
        {
          "indexed": false,
          "internalType": "string",
          "name": "title",
          "type": "string"
        },
        {
          "indexed": false,
          "internalType": "uint256",
          "name": "endTime",
          "type": "uint256"
        }
      ],
      "name": "ProposalCreated",
      "type": "event"
    },
    {
      "anonymous": false,
      "inputs": [
        {
          "indexed": true,
          "internalType": "uint256",
          "name": "proposalId",
          "type": "uint256"
        },
        {
          "indexed": false,
          "internalType": "bool",
          "name": "success",
          "type": "bool"
        },
        {
          "indexed": false,
          "internalType": "bytes",
          "name": "returnData",
          "type": "bytes"
        }
      ],
      "name": "ProposalExecuted",
      "type": "event"
    },
    {
      "anonymous": false,
      "inputs": [
        {
          "indexed": true,
          "internalType": "uint256",
          "name": "proposalId",
          "type": "uint256"
        },
        {
          "indexed": true,
          "internalType": "address",
          "name": "recipient",
          "type": "address"
        },
        {
          "indexed": false,
          "internalType": "uint256",
          "name": "amount",
          "type": "uint256"
        },
        {
          "indexed": false,
          "internalType": "string",
          "name": "description",
          "type": "string"
        }
      ],
      "name": "TreasuryAction",
      "type": "event"
    },
    {
      "anonymous": false,
      "inputs": [
        {
          "indexed": true,
          "internalType": "address",
          "name": "priest",
          "type": "address"
        },
        {
          "indexed": true,
          "internalType": "address",
          "name": "recipient",
          "type": "address"
        },
        {
          "indexed": false,
          "internalType": "uint256",
          "name": "amount",
          "type": "uint256"
        },
        {
          "indexed": false,
          "internalType": "uint256",
          "name": "timestamp",
          "type": "uint256"
        }
      ],
      "name": "TreasuryWithdrawn",
      "type": "event"
    },
    {
      "anonymous": false,
      "inputs": [
        {
          "indexed": true,
          "internalType": "uint256",
          "name": "proposalId",
          "type": "uint256"
        },
        {
          "indexed": true,
          "internalType": "address",
          "name": "voter",
          "type": "address"
        },
        {
          "indexed": false,
          "internalType": "bool",
          "name": "support",
          "type": "bool"
        },
        {
          "indexed": false,
          "internalType": "uint256",
          "name": "timestamp",
          "type": "uint256"
        }
      ],
      "name": "VoteCast",
      "type": "event"
    },
    {
      "inputs": [],
      "name": "DEFAULT_VOTING_PERIOD",
      "outputs": [
        {
          "internalType": "uint256",
          "name": "",
          "type": "uint256"
        }
      ],
      "stateMutability": "view",
      "type": "function"
    },
    {
      "inputs": [],
      "name": "MAX_VOTING_PERIOD",
      "outputs": [
        {
          "internalType": "uint256",
          "name": "",
          "type": "uint256"
        }
      ],
      "stateMutability": "view",
      "type": "function"
    },
    {
      "inputs": [],
      "name": "MIN_VOTING_PERIOD",
      "outputs": [
        {
          "internalType": "uint256",
          "name": "",
          "type": "uint256"
        }
      ],
      "stateMutability": "view",
      "type": "function"
    },
    {
      "inputs": [],
      "name": "accessToken",
      "outputs": [
        {
          "internalType": "address",
          "name": "",
          "type": "address"
        }
      ],
      "stateMutability": "view",
      "type": "function"
    },
    {
      "inputs": [
        {
          "internalType": "address",
          "name": "",
          "type": "address"
        }
      ],
      "name": "activeProposalId",
      "outputs": [
        {
          "internalType": "uint256",
          "name": "",
          "type": "uint256"
        }
      ],
      "stateMutability": "view",
      "type": "function"
    },
    {
      "inputs": [],
      "name": "claimMemberPool",
      "outputs": [],
      "stateMutability": "nonpayable",
      "type": "function"
    },
    {
      "inputs": [
        {
          "internalType": "string",
          "name": "_title",
          "type": "string"
        },
        {
          "internalType": "string",
          "name": "_description",
          "type": "string"
        },
        {
          "internalType": "bytes",
          "name": "_callData",
          "type": "bytes"
        },
        {
          "internalType": "uint256",
          "name": "_votingPeriod",
          "type": "uint256"
        }
      ],
      "name": "createProposal",
      "outputs": [
        {
          "internalType": "uint256",
          "name": "",
          "type": "uint256"
        }
      ],
      "stateMutability": "nonpayable",
      "type": "function"
    },
    {
      "inputs": [],
      "name": "entryFee",
      "outputs": [
        {
          "internalType": "uint256",
          "name": "",
          "type": "uint256"
        }
      ],
      "stateMutability": "view",
      "type": "function"
    },
    {
      "inputs": [
        {
          "internalType": "uint256",
          "name": "_proposalId",
          "type": "uint256"
        }
      ],
      "name": "executeProposal",
      "outputs": [],
      "stateMutability": "nonpayable",
      "type": "function"
    },
    {
      "inputs": [],
      "name": "getActiveProposals",
      "outputs": [
        {
          "internalType": "uint256[]",
          "name": "",
          "type": "uint256[]"
        }
      ],
      "stateMutability": "view",
      "type": "function"
    },
    {
      "inputs": [
        {
          "internalType": "address",
          "name": "member",
          "type": "address"
        }
      ],
      "name": "getClaimablePoolAmount",
      "outputs": [
        {
          "internalType": "uint256",
          "name": "",
          "type": "uint256"
        }
      ],
      "stateMutability": "view",
      "type": "function"
    },
    {
      "inputs": [],
      "name": "getConfig",
      "outputs": [
        {
          "internalType": "address",
          "name": "token",
          "type": "address"
        },
        {
          "internalType": "uint256",
          "name": "fee",
          "type": "uint256"
        },
        {
          "internalType": "bool",
          "name": "isPaused",
          "type": "bool"
        },
        {
          "internalType": "uint256",
          "name": "purchases",
          "type": "uint256"
        },
        {
          "internalType": "uint256",
          "name": "treasury",
          "type": "uint256"
        },
        {
          "internalType": "uint256",
          "name": "pool",
          "type": "uint256"
        }
      ],
      "stateMutability": "view",
      "type": "function"
    },
    {
      "inputs": [],
      "name": "getMemberCount",
      "outputs": [
        {
          "internalType": "uint256",
          "name": "",
          "type": "uint256"
        }
      ],
      "stateMutability": "view",
      "type": "function"
    },
    {
      "inputs": [
        {
          "internalType": "uint256",
          "name": "_proposalId",
          "type": "uint256"
        }
      ],
      "name": "getProposal",
      "outputs": [
        {
          "internalType": "address",
          "name": "proposer",
          "type": "address"
        },
        {
          "internalType": "string",
          "name": "title",
          "type": "string"
        },
        {
          "internalType": "string",
          "name": "description",
          "type": "string"
        },
        {
          "internalType": "uint256",
          "name": "yesVotes",
          "type": "uint256"
        },
        {
          "internalType": "uint256",
          "name": "noVotes",
          "type": "uint256"
        },
        {
          "internalType": "uint256",
          "name": "endTime",
          "type": "uint256"
        },
        {
          "internalType": "bool",
          "name": "executed",
          "type": "bool"
        },
        {
          "internalType": "bool",
          "name": "passed",
          "type": "bool"
        }
      ],
      "stateMutability": "view",
      "type": "function"
    },
    {
      "inputs": [
        {
          "internalType": "address",
          "name": "user",
          "type": "address"
        }
      ],
      "name": "getPurchaseDetails",
      "outputs": [
        {
          "internalType": "bool",
          "name": "purchased",
          "type": "bool"
        },
        {
          "internalType": "uint256",
          "name": "timestamp",
          "type": "uint256"
        },
        {
          "internalType": "uint256",
          "name": "blockNum",
          "type": "uint256"
        }
      ],
      "stateMutability": "view",
      "type": "function"
    },
    {
      "inputs": [],
      "name": "getTreasuryInfo",
      "outputs": [
        {
          "internalType": "uint256",
          "name": "treasury",
          "type": "uint256"
        },
        {
          "internalType": "uint256",
          "name": "memberPool",
          "type": "uint256"
        },
        {
          "internalType": "uint256",
          "name": "totalReceived",
          "type": "uint256"
        },
        {
          "internalType": "uint256",
          "name": "totalBurnedAmount",
          "type": "uint256"
        },
        {
          "internalType": "uint256",
          "name": "totalProtocolFees",
          "type": "uint256"
        },
        {
          "internalType": "address",
          "name": "protocolAddress",
          "type": "address"
        }
      ],
      "stateMutability": "view",
      "type": "function"
    },
    {
      "inputs": [
        {
          "internalType": "address",
          "name": "user",
          "type": "address"
        }
      ],
      "name": "hasAccess",
      "outputs": [
        {
          "internalType": "bool",
          "name": "",
          "type": "bool"
        }
      ],
      "stateMutability": "view",
      "type": "function"
    },
    {
      "inputs": [
        {
          "internalType": "address",
          "name": "",
          "type": "address"
        }
      ],
      "name": "hasActiveProposal",
      "outputs": [
        {
          "internalType": "bool",
          "name": "",
          "type": "bool"
        }
      ],
      "stateMutability": "view",
      "type": "function"
    },
    {
      "inputs": [
        {
          "internalType": "address",
          "name": "",
          "type": "address"
        }
      ],
      "name": "hasPurchased",
      "outputs": [
        {
          "internalType": "bool",
          "name": "",
          "type": "bool"
        }
      ],
      "stateMutability": "view",
      "type": "function"
    },
    {
      "inputs": [
        {
          "internalType": "uint256",
          "name": "_proposalId",
          "type": "uint256"
        },
        {
          "internalType": "address",
          "name": "_voter",
          "type": "address"
        }
      ],
      "name": "hasVoted",
      "outputs": [
        {
          "internalType": "bool",
          "name": "voted",
          "type": "bool"
        },
        {
          "internalType": "bool",
          "name": "support",
          "type": "bool"
        }
      ],
      "stateMutability": "view",
      "type": "function"
    },
    {
      "inputs": [
        {
          "internalType": "address",
          "name": "",
          "type": "address"
        }
      ],
      "name": "memberIndex",
      "outputs": [
        {
          "internalType": "uint256",
          "name": "",
          "type": "uint256"
        }
      ],
      "stateMutability": "view",
      "type": "function"
    },
    {
      "inputs": [],
      "name": "memberPoolBalance",
      "outputs": [
        {
          "internalType": "uint256",
          "name": "",
          "type": "uint256"
        }
      ],
      "stateMutability": "view",
      "type": "function"
    },
    {
      "inputs": [
        {
          "internalType": "address",
          "name": "",
          "type": "address"
        }
      ],
      "name": "memberPoolClaims",
      "outputs": [
        {
          "internalType": "uint256",
          "name": "",
          "type": "uint256"
        }
      ],
      "stateMutability": "view",
      "type": "function"
    },
    {
      "inputs": [
        {
          "internalType": "uint256",
          "name": "",
          "type": "uint256"
        }
      ],
      "name": "members",
      "outputs": [
        {
          "internalType": "address",
          "name": "",
          "type": "address"
        }
      ],
      "stateMutability": "view",
      "type": "function"
    },
    {
      "inputs": [],
      "name": "paused",
      "outputs": [
        {
          "internalType": "bool",
          "name": "",
          "type": "bool"
        }
      ],
      "stateMutability": "view",
      "type": "function"
    },
    {
      "inputs": [
        {
          "internalType": "uint256",
          "name": "",
          "type": "uint256"
        }
      ],
      "name": "poolDeposits",
      "outputs": [
        {
          "internalType": "uint256",
          "name": "",
          "type": "uint256"
        }
      ],
      "stateMutability": "view",
      "type": "function"
    },
    {
      "inputs": [],
      "name": "priest",
      "outputs": [
        {
          "internalType": "address",
          "name": "",
          "type": "address"
        }
      ],
      "stateMutability": "view",
      "type": "function"
    },
    {
      "inputs": [],
      "name": "proposalCount",
      "outputs": [
        {
          "internalType": "uint256",
          "name": "",
          "type": "uint256"
        }
      ],
      "stateMutability": "view",
      "type": "function"
    },
    {
      "inputs": [
        {
          "internalType": "uint256",
          "name": "",
          "type": "uint256"
        }
      ],
      "name": "proposals",
      "outputs": [
        {
          "internalType": "uint256",
          "name": "id",
          "type": "uint256"
        },
        {
          "internalType": "address",
          "name": "proposer",
          "type": "address"
        },
        {
          "internalType": "string",
          "name": "title",
          "type": "string"
        },
        {
          "internalType": "string",
          "name": "description",
          "type": "string"
        },
        {
          "internalType": "bytes",
          "name": "callData",
          "type": "bytes"
        },
        {
          "internalType": "uint256",
          "name": "yesVotes",
          "type": "uint256"
        },
        {
          "internalType": "uint256",
          "name": "noVotes",
          "type": "uint256"
        },
        {
          "internalType": "uint256",
          "name": "endTime",
          "type": "uint256"
        },
        {
          "internalType": "uint256",
          "name": "createdAt",
          "type": "uint256"
        },
        {
          "internalType": "uint256",
          "name": "eligibleVoters",
          "type": "uint256"
        },
        {
          "internalType": "bool",
          "name": "executed",
          "type": "bool"
        }
      ],
      "stateMutability": "view",
      "type": "function"
    },
    {
      "inputs": [],
      "name": "purchaseAccess",
      "outputs": [],
      "stateMutability": "nonpayable",
      "type": "function"
    },
    {
      "inputs": [
        {
          "internalType": "address",
          "name": "",
          "type": "address"
        }
      ],
      "name": "purchaseBlock",
      "outputs": [
        {
          "internalType": "uint256",
          "name": "",
          "type": "uint256"
        }
      ],
      "stateMutability": "view",
      "type": "function"
    },
    {
      "inputs": [
        {
          "internalType": "address",
          "name": "",
          "type": "address"
        }
      ],
      "name": "purchaseTimestamp",
      "outputs": [
        {
          "internalType": "uint256",
          "name": "",
          "type": "uint256"
        }
      ],
      "stateMutability": "view",
      "type": "function"
    },
    {
      "inputs": [
        {
          "internalType": "address",
          "name": "token",
          "type": "address"
        },
        {
          "internalType": "address",
          "name": "to",
          "type": "address"
        }
      ],
      "name": "recoverWrongToken",
      "outputs": [],
      "stateMutability": "nonpayable",
      "type": "function"
    },
    {
      "inputs": [
        {
          "internalType": "bool",
          "name": "_paused",
          "type": "bool"
        }
      ],
      "name": "setPaused",
      "outputs": [],
      "stateMutability": "nonpayable",
      "type": "function"
    },
    {
      "inputs": [
        {
          "internalType": "bool",
          "name": "_paused",
          "type": "bool"
        }
      ],
      "name": "setPausedDAO",
      "outputs": [],
      "stateMutability": "nonpayable",
      "type": "function"
    },
    {
      "inputs": [],
      "name": "totalBurned",
      "outputs": [
        {
          "internalType": "uint256",
          "name": "",
          "type": "uint256"
        }
      ],
      "stateMutability": "view",
      "type": "function"
    },
    {
      "inputs": [],
      "name": "totalPurchases",
      "outputs": [
        {
          "internalType": "uint256",
          "name": "",
          "type": "uint256"
        }
      ],
      "stateMutability": "view",
      "type": "function"
    },
    {
      "inputs": [],
      "name": "totalToMemberPool",
      "outputs": [
        {
          "internalType": "uint256",
          "name": "",
          "type": "uint256"
        }
      ],
      "stateMutability": "view",
      "type": "function"
    },
    {
      "inputs": [],
      "name": "totalToProtocol",
      "outputs": [
        {
          "internalType": "uint256",
          "name": "",
          "type": "uint256"
        }
      ],
      "stateMutability": "view",
      "type": "function"
    },
    {
      "inputs": [],
      "name": "totalToTreasury",
      "outputs": [
        {
          "internalType": "uint256",
          "name": "",
          "type": "uint256"
        }
      ],
      "stateMutability": "view",
      "type": "function"
    },
    {
      "inputs": [],
      "name": "treasuryBalance",
      "outputs": [
        {
          "internalType": "uint256",
          "name": "",
          "type": "uint256"
        }
      ],
      "stateMutability": "view",
      "type": "function"
    },
    {
      "inputs": [
        {
          "internalType": "address",
          "name": "_token",
          "type": "address"
        },
        {
          "internalType": "uint256",
          "name": "_entryFee",
          "type": "uint256"
        }
      ],
      "name": "updateConfig",
      "outputs": [],
      "stateMutability": "nonpayable",
      "type": "function"
    },
    {
      "inputs": [
        {
          "internalType": "address",
          "name": "_token",
          "type": "address"
        },
        {
          "internalType": "uint256",
          "name": "_entryFee",
          "type": "uint256"
        }
      ],
      "name": "updateConfigDAO",
      "outputs": [],
      "stateMutability": "nonpayable",
      "type": "function"
    },
    {
      "inputs": [
        {
          "internalType": "uint256",
          "name": "_proposalId",
          "type": "uint256"
        },
        {
          "internalType": "bool",
          "name": "_support",
          "type": "bool"
        }
      ],
      "name": "vote",
      "outputs": [],
      "stateMutability": "nonpayable",
      "type": "function"
    },
    {
      "inputs": [
        {
          "internalType": "address",
          "name": "recipient",
          "type": "address"
        }
      ],
      "name": "withdrawAllTreasury",
      "outputs": [],
      "stateMutability": "nonpayable",
      "type": "function"
    },
    {
      "inputs": [
        {
          "internalType": "address",
          "name": "recipient",
          "type": "address"
        },
        {
          "internalType": "string",
          "name": "reason",
          "type": "string"
        }
      ],
      "name": "withdrawAllTreasuryDAO",
      "outputs": [],
      "stateMutability": "nonpayable",
      "type": "function"
    },
    {
      "inputs": [
        {
          "internalType": "address",
          "name": "recipient",
          "type": "address"
        },
        {
          "internalType": "uint256",
          "name": "amount",
          "type": "uint256"
        }
      ],
      "name": "withdrawTreasury",
      "outputs": [],
      "stateMutability": "nonpayable",
      "type": "function"
    },
    {
      "inputs": [
        {
          "internalType": "address",
          "name": "recipient",
          "type": "address"
        },
        {
          "internalType": "uint256",
          "name": "amount",
          "type": "uint256"
        },
        {
          "internalType": "string",
          "name": "reason",
          "type": "string"
        }
      ],
      "name": "withdrawTreasuryDAO",
      "outputs": [],
      "stateMutability": "nonpayable",
      "type": "function"
    }
  ],
  "bytecode": "0x60a06040523480156200001157600080fd5b5060405162003473380380620034738339810160408190526200003491620001f0565b6001600160a01b038316620000905760405162461bcd60e51b815260206004820152601660248201527f496e76616c69642070726965737420616464726573730000000000000000000060448201526064015b60405180910390fd5b6001600160a01b038216620000e85760405162461bcd60e51b815260206004820152601560248201527f496e76616c696420746f6b656e20616464726573730000000000000000000000604482015260640162000087565b600081116200013a5760405162461bcd60e51b815260206004820181905260248201527f456e74727920666565206d7573742062652067726561746572207468616e2030604482015260640162000087565b600a811015620001995760405162461bcd60e51b8152602060048201526024808201527f456e7472792066656520746f6f20736d616c6c20666f722064697374726962756044820152633a34b7b760e11b606482015260840162000087565b6001600160a01b03928316608052600080546001600160a01b03191692909316919091179091556001556004805460ff1916905562000231565b80516001600160a01b0381168114620001eb57600080fd5b919050565b6000806000606084860312156200020657600080fd5b6200021184620001d3565b92506200022160208501620001d3565b9150604084015190509250925092565b60805161321162000262600039600081816105f9015281816106350152818161181d0152611f2601526132116000f3fe608060405234801561001057600080fd5b50600436106102a05760003560e01c80636ad1855011610167578063c1b57edb116100ce578063d89135cd11610087578063d89135cd1461072a578063da35c66414610733578063e243c5fb1461073c578063f4f7596a1461074f578063f7158b2a1461075d578063ffafe4ad1461076557600080fd5b8063c1b57edb1461061b578063c293947114610624578063c3f909d41461068a578063c7f758a8146106dd578063c9d27afe14610704578063d3493ced1461071757600080fd5b806399e288d81161012057806399e288d8146105af578063a64e024a146105b7578063a81bbe3c146105c1578063aedfe53f146105e1578063bdb75b34146105eb578063bebc8fc0146105f457600080fd5b80636ad1855014610505578063767551181461052557806390118fb41461054557806395a078e814610568578063997072f714610594578063999dcbe61461059c57600080fd5b8063524ddc231161020b5780635daf08ca116101c45780635daf08ca1461042a5780635e391dfe146104555780635fa7ddf01461047557806364653f291461047e578063653724d6146104df5780636758f49b146104f257600080fd5b8063524ddc23146103c057806354403801146103d35780635584c4f9146103e65780635962a941146103fb57806359c266ff146104045780635c975abb1461040d57600080fd5b806318a740641161025d57806318a740641461033d578063215809ca14610350578063313dab201461035a57806332d084bb146103635780633dd3527914610376578063438596321461039657600080fd5b8063013cf08b146102a5578063072ea61c146102d85780630d61b519146102ef5780630d86419a1461030457806316c38b3c146103175780631808022a1461032a575b600080fd5b6102b86102b3366004612992565b610788565b6040516102cf9b9a999897969594939291906129f1565b60405180910390f35b6102e160015481565b6040519081526020016102cf565b6103026102fd366004612992565b610983565b005b610302610312366004612a9b565b610c4f565b610302610325366004612ad6565b610cdc565b6102e1610338366004612afa565b610d5c565b61030261034b366004612a9b565b610e85565b6102e16201518081565b6102e160025481565b6102e1610371366004612bc1565b610f08565b6102e1610384366004612afa565b60096020526000908152604090205481565b6103a96103a4366004612c65565b6112c8565b6040805192151583529015156020830152016102cf565b6103026103ce366004612a9b565b61132e565b6103026103e1366004612c91565b61142b565b6103ee611648565b6040516102cf9190612ce8565b6102e160105481565b6102e160145481565b60045461041a9060ff1681565b60405190151581526020016102cf565b61043d610438366004612992565b611782565b6040516001600160a01b0390911681526020016102cf565b6102e1610463366004612afa565b60076020526000908152604090205481565b6102e160035481565b6104c261048c366004612afa565b6001600160a01b03166000908152600560209081526040808320546006835281842054600790935292205460ff90921692909190565b6040805193151584526020840192909252908201526060016102cf565b6103026104ed366004612ad6565b6117ac565b610302610500366004612d2c565b611812565b6102e1610513366004612afa565b600e6020526000908152604090205481565b6102e1610533366004612afa565b60066020526000908152604090205481565b61041a610553366004612afa565b60056020526000908152604090205460ff1681565b61041a610576366004612afa565b6001600160a01b031660009081526005602052604090205460ff1690565b6008546102e1565b6102e16105aa366004612992565b611a92565b610302611ab3565b6102e162278d0081565b6102e16105cf366004612afa565b600a6020526000908152604090205481565b6102e162093a8081565b6102e160135481565b61043d7f000000000000000000000000000000000000000000000000000000000000000081565b6102e160125481565b6002546003546012546011546014547f000000000000000000000000000000000000000000000000000000000000000060408051968752602087019590955293850192909252606084015260808301526001600160a01b031660a082015260c0016102cf565b600054600154600454601054600254600354604080516001600160a01b039097168752602087019590955260ff9093161515938501939093526060840152608083019190915260a082015260c0016102cf565b6106f06106eb366004612992565b612205565b6040516102cf989796959493929190612d56565b610302610712366004612dbf565b6123b6565b610302610725366004612def565b61260d565b6102e160115481565b6102e1600c5481565b60005461043d906001600160a01b031681565b610302610312366004612afa565b6103026127b4565b61041a610773366004612afa565b600f6020526000908152604090205460ff1681565b600d6020526000908152604090208054600182015460028301805492936001600160a01b03909216926107ba90612e3d565b80601f01602080910402602001604051908101604052809291908181526020018280546107e690612e3d565b80156108335780601f1061080857610100808354040283529160200191610833565b820191906000526020600020905b81548152906001019060200180831161081657829003601f168201915b50505050509080600301805461084890612e3d565b80601f016020809104026020016040519081016040528092919081815260200182805461087490612e3d565b80156108c15780601f10610896576101008083540402835291602001916108c1565b820191906000526020600020905b8154815290600101906020018083116108a457829003601f168201915b5050505050908060040180546108d690612e3d565b80601f016020809104026020016040519081016040528092919081815260200182805461090290612e3d565b801561094f5780601f106109245761010080835404028352916020019161094f565b820191906000526020600020905b81548152906001019060200180831161093257829003601f168201915b50505060058401546006850154600786015460088701546009880154600a9098015496979396929550909350919060ff168b565b600c5481106109ad5760405162461bcd60e51b81526004016109a490612e77565b60405180910390fd5b6000818152600d602052604090206007810154421015610a025760405162461bcd60e51b815260206004820152601060248201526f159bdd1a5b99c81b9bdd08195b99195960821b60448201526064016109a4565b600a81015460ff1615610a4a5760405162461bcd60e51b815260206004820152601060248201526f105b1c9958591e48195e1958dd5d195960821b60448201526064016109a4565b8060060154816005015411610a995760405162461bcd60e51b815260206004820152601560248201527450726f706f73616c20646964206e6f74207061737360581b60448201526064016109a4565b600a8101805460ff191660019081179091558101546001600160a01b03166000818152600f602052604090205460ff168015610aec57506001600160a01b0381166000908152600e602052604090205483145b15610b1d576001600160a01b0381166000908152600f60209081526040808320805460ff19169055600e9091528120555b600080306001600160a01b031684600401604051610b3b9190612ea1565b6000604051808303816000865af19150503d8060008114610b78576040519150601f19603f3d011682016040523d82523d6000602084013e610b7d565b606091505b5091509150847faf8f9d0e884d3306a083e846741a0bc4d75908e2b0ec63b558219652ae4c1b908383604051610bb4929190612f17565b60405180910390a281610c4857600a8401805460ff199081169091556001600160a01b0384166000908152600f602090815260408083208054909416600117909355600e90528190208690555162461bcd60e51b81526109a49060040160208082526019908201527f50726f706f73616c20657865637574696f6e206661696c656400000000000000604082015260600190565b5050505050565b60405162461bcd60e51b815260206004820152605660248201527f5472656173757279207769746864726177616c7320726571756972652044414f60448201527f20617070726f76616c2e2055736520776974686472617754726561737572794460648201527520a7903a343937bab3b4103090383937b837b9b0b61760511b608482015260a4016109a4565b60405162461bcd60e51b815260206004820152604960248201527f50617573652f756e70617573652072657175697265732044414f20617070726f60448201527f76616c2e205573652073657450617573656444414f207468726f756768206120606482015268383937b837b9b0b61760b91b608482015260a4016109a4565b6001600160a01b03811660009081526005602052604081205460ff16610d8457506000919050565b6001600160a01b0382166000908152600960205260408120549080610daa836001612f48565b90505b600b54811015610e33576000600b8281548110610dcc57610dcc612f61565b90600052602060002001541115610e2157808015610e1f57600081600b8481548110610dfa57610dfa612f61565b9060005260206000200154610e0f9190612f77565b9050610e1b8185612f48565b9350505b505b80610e2b81612f99565b915050610dad565b506001600160a01b0384166000908152600a60205260409020548111610e5a576000610e7d565b6001600160a01b0384166000908152600a6020526040902054610e7d9082612fb2565b949350505050565b60405162461bcd60e51b815260206004820152604c60248201527f436f6e666967207570646174657320726571756972652044414f20617070726f60448201527f76616c2e2055736520757064617465436f6e66696744414f207468726f75676860648201526b103090383937b837b9b0b61760a11b608482015260a4016109a4565b3360009081526005602052604081205460ff16610f675760405162461bcd60e51b815260206004820152601a60248201527f4f6e6c79206d656d626572732063616e2063616c6c207468697300000000000060448201526064016109a4565b6000855111610fa95760405162461bcd60e51b815260206004820152600e60248201526d151a5d1b19481c995c5d5a5c995960921b60448201526064016109a4565b6000845111610ff15760405162461bcd60e51b815260206004820152601460248201527311195cd8dc9a5c1d1a5bdb881c995c5d5a5c995960621b60448201526064016109a4565b60008351116110375760405162461bcd60e51b815260206004820152601260248201527110d85b1b0819185d18481c995c5d5a5c995960721b60448201526064016109a4565b336000908152600f602052604090205460ff161561110357336000908152600e6020908152604080832054808452600d909252909120600a81015460ff161580156110855750806007015442105b156110de5760405162461bcd60e51b815260206004820152602360248201527f596f7520616c7265616479206861766520616e206163746976652070726f706f6044820152621cd85b60ea1b60648201526084016109a4565b336000908152600f60209081526040808320805460ff19169055600e90915281205550505b816000819003611113575062093a805b620151808110156111665760405162461bcd60e51b815260206004820152601760248201527f566f74696e6720706572696f6420746f6f2073686f727400000000000000000060448201526064016109a4565b62278d008111156111b25760405162461bcd60e51b8152602060048201526016602482015275566f74696e6720706572696f6420746f6f206c6f6e6760501b60448201526064016109a4565b600c8054600091826111c383612f99565b909155506000818152600d602052604090208181556001810180546001600160a01b03191633179055909150600281016111fd8982613014565b506003810161120c8882613014565b506004810161121b8782613014565b506112268342612f48565b6007820190815542600880840191909155546009830155600a8201805460ff199081169091556000600584018190556006840181905533808252600f602090815260408084208054909516600117909455600e9052908290208590559154905184917f98120a6aaa04295520ab4e01c6c1235dd316e822cc9ff31db7b3f197366d18bd916112b5918d916130d4565b60405180910390a3509695505050505050565b600080600c5484106112ec5760405162461bcd60e51b81526004016109a490612e77565b50506000918252600d602090815260408084206001600160a01b03939093168452600b8301825280842054600c9093019091529091205460ff91821692911690565b33301461134d5760405162461bcd60e51b81526004016109a4906130f6565b6001600160a01b0382161561137857600080546001600160a01b0319166001600160a01b0384161790555b80156113e157600a8110156113db5760405162461bcd60e51b8152602060048201526024808201527f456e7472792066656520746f6f20736d616c6c20666f722064697374726962756044820152633a34b7b760e11b60648201526084016109a4565b60018190555b6000546001546040519081526001600160a01b03909116907faf8839d80c9b3bbf95c97465eb8c8348db4098f5c15af186c3b425b112998117906020015b60405180910390a25050565b33301461144a5760405162461bcd60e51b81526004016109a4906130f6565b6001600160a01b0383166114705760405162461bcd60e51b81526004016109a490613126565b600082116114c05760405162461bcd60e51b815260206004820152601d60248201527f416d6f756e74206d7573742062652067726561746572207468616e203000000060448201526064016109a4565b6002548211156115125760405162461bcd60e51b815260206004820152601d60248201527f496e73756666696369656e742074726561737572792062616c616e636500000060448201526064016109a4565b81600260008282546115249190612fb2565b90915550506000805460405163a9059cbb60e01b81526001600160a01b038681166004830152602482018690529091169063a9059cbb906044016020604051808303816000875af115801561157d573d6000803e3d6000fd5b505050506040513d601f19601f820116820180604052508101906115a19190613151565b9050806115f05760405162461bcd60e51b815260206004820152601a60248201527f5472656173757279207769746864726177616c206661696c656400000000000060448201526064016109a4565b836001600160a01b03166001600c546116099190612fb2565b7f1ba011ee074f0e08cc727335f32d75fb7ee71dc0a1e13bb9473e5650b0afd1a3858560405161163a92919061316e565b60405180910390a350505050565b60606000805b600c548110156116af576000818152600d60205260409020600701544210801561168a57506000818152600d60205260409020600a015460ff16155b1561169d578161169981612f99565b9250505b806116a781612f99565b91505061164e565b5060008167ffffffffffffffff8111156116cb576116cb612b15565b6040519080825280602002602001820160405280156116f4578160200160208202803683370190505b5090506000805b600c54811015611779576000818152600d60205260409020600701544210801561173757506000818152600d60205260409020600a015460ff16155b156117675780838361174881612f99565b94508151811061175a5761175a612f61565b6020026020010181815250505b8061177181612f99565b9150506116fb565b50909392505050565b6008818154811061179257600080fd5b6000918252602090912001546001600160a01b0316905081565b3330146117cb5760405162461bcd60e51b81526004016109a4906130f6565b6004805460ff19168215159081179091556040519081527f752d7e161ff5146f80e3820893176eb40532811e5e20400dfdde57455213706a9060200160405180910390a150565b336001600160a01b037f0000000000000000000000000000000000000000000000000000000000000000161461188a5760405162461bcd60e51b815260206004820152601960248201527f4f6e6c79207072696573742063616e2063616c6c20746869730000000000000060448201526064016109a4565b6000546001600160a01b03908116908316036118f45760405162461bcd60e51b8152602060048201526024808201527f43616e6e6f742077697468647261772074726561737572792f706f6f6c20746f6044820152636b656e7360e01b60648201526084016109a4565b6001600160a01b03811661191a5760405162461bcd60e51b81526004016109a490613126565b6040516370a0823160e01b81523060048201526000906001600160a01b038416906370a0823190602401602060405180830381865afa158015611961573d6000803e3d6000fd5b505050506040513d601f19601f820116820180604052508101906119859190613187565b9050600081116119ce5760405162461bcd60e51b81526020600482015260146024820152732737903a37b5b2b739903a37903932b1b7bb32b960611b60448201526064016109a4565b60405163a9059cbb60e01b81526001600160a01b038381166004830152602482018390526000919085169063a9059cbb906044016020604051808303816000875af1158015611a21573d6000803e3d6000fd5b505050506040513d601f19601f82011682018060405250810190611a459190613151565b905080611a8c5760405162461bcd60e51b8152602060048201526015602482015274151bdad95b881c9958dbdd995c9e4819985a5b1959605a1b60448201526064016109a4565b50505050565b600b8181548110611aa257600080fd5b600091825260209091200154905081565b60045460ff1615611afb5760405162461bcd60e51b815260206004820152601260248201527110dbdb9d1c9858dd081a5cc81c185d5cd95960721b60448201526064016109a4565b3360009081526005602052604090205460ff1615611b5b5760405162461bcd60e51b815260206004820152601860248201527f416c72656164792070757263686173656420616363657373000000000000000060448201526064016109a4565b60006064600154601e611b6e91906131a0565b611b789190612f77565b905060006064600154600a611b8d91906131a0565b611b979190612f77565b9050600081611ba78460036131a0565b611bb19190612f48565b9050600154811115611bf95760405162461bcd60e51b815260206004820152601160248201527021b0b631bab630ba34b7b71032b93937b960791b60448201526064016109a4565b6001546000546040516370a0823160e01b81523360048201526001600160a01b03909116906370a0823190602401602060405180830381865afa158015611c44573d6000803e3d6000fd5b505050506040513d601f19601f82011682018060405250810190611c689190613187565b1015611cb65760405162461bcd60e51b815260206004820152601a60248201527f496e73756666696369656e7420746f6b656e2062616c616e636500000000000060448201526064016109a4565b600080546040516323b872dd60e01b81526001600160a01b03909116906323b872dd90611ced90339061dead9089906004016131b7565b6020604051808303816000875af1158015611d0c573d6000803e3d6000fd5b505050506040513d601f19601f82011682018060405250810190611d309190613151565b905080611d765760405162461bcd60e51b8152602060048201526014602482015273109d5c9b881d1c985b9cd9995c8819985a5b195960621b60448201526064016109a4565b600080546040516323b872dd60e01b81526001600160a01b03909116906323b872dd90611dab90339030908a906004016131b7565b6020604051808303816000875af1158015611dca573d6000803e3d6000fd5b505050506040513d601f19601f82011682018060405250810190611dee9190613151565b905080611e3d5760405162461bcd60e51b815260206004820152601860248201527f5472656173757279207472616e73666572206661696c6564000000000000000060448201526064016109a4565b600080546040516323b872dd60e01b81526001600160a01b03909116906323b872dd90611e7290339030908b906004016131b7565b6020604051808303816000875af1158015611e91573d6000803e3d6000fd5b505050506040513d601f19601f82011682018060405250810190611eb59190613151565b905080611efb5760405162461bcd60e51b8152602060048201526014602482015273141bdbdb081d1c985b9cd9995c8819985a5b195960621b60448201526064016109a4565b600080546040516323b872dd60e01b81526001600160a01b03909116906323b872dd90611f509033907f0000000000000000000000000000000000000000000000000000000000000000908b906004016131b7565b6020604051808303816000875af1158015611f6f573d6000803e3d6000fd5b505050506040513d601f19601f82011682018060405250810190611f939190613151565b905080611fe25760405162461bcd60e51b815260206004820152601860248201527f50726f746f636f6c207472616e73666572206661696c6564000000000000000060448201526064016109a4565b8660026000828254611ff49190612f48565b92505081905550866003600082825461200d9190612f48565b9250508190555086601160008282546120269190612f48565b92505081905550866012600082825461203f9190612f48565b9250508190555086601360008282546120589190612f48565b9250508190555085601460008282546120719190612f48565b9091555050600854156120b857600b80546001810182556000919091527f0175b7a638427703f0dbe7bb9bbf987a2551717b34e79f33b5b1008d1fa01db9018790556120eb565b600b805460018101825560009182527f0175b7a638427703f0dbe7bb9bbf987a2551717b34e79f33b5b1008d1fa01db901555b336000818152600560209081526040808320805460ff1916600190811790915560068352818420429055600783528184204390556008805460099094529184208390558201815582527ff3f7a9fe364faab93b216da50a3214154f22a0a2b415b23a84c8169e8b636ee30180546001600160a01b031916909217909155601080549161217683612f99565b9190505550336001600160a01b03167fe6d1c0e418a42a777d49c66571075fc47bc1d92e7f506007ddde08d1ff182bbc600154898a8b8b424360016010546121be9190612fb2565b604080519889526020890197909752958701949094526060860192909252608085015260a084015260c083015260e08201526101000160405180910390a250505050505050565b60006060806000806000806000600c5489106122335760405162461bcd60e51b81526004016109a490612e77565b6000898152600d602052604090206001810154600582015460068301546007840154600a8501546002860180546001600160a01b03909616959094600388019490939092909160ff9091169083851190879061228e90612e3d565b80601f01602080910402602001604051908101604052809291908181526020018280546122ba90612e3d565b80156123075780601f106122dc57610100808354040283529160200191612307565b820191906000526020600020905b8154815290600101906020018083116122ea57829003601f168201915b5050505050965085805461231a90612e3d565b80601f016020809104026020016040519081016040528092919081815260200182805461234690612e3d565b80156123935780601f1061236857610100808354040283529160200191612393565b820191906000526020600020905b81548152906001019060200180831161237657829003601f168201915b505050505095509850985098509850985098509850985050919395975091939597565b3360009081526005602052604090205460ff166124155760405162461bcd60e51b815260206004820152601a60248201527f4f6e6c79206d656d626572732063616e2063616c6c207468697300000000000060448201526064016109a4565b600c5482106124365760405162461bcd60e51b81526004016109a490612e77565b6000828152600d60205260409020600781015442106124865760405162461bcd60e51b815260206004820152600c60248201526b159bdd1a5b99c8195b99195960a21b60448201526064016109a4565b336000908152600b8201602052604090205460ff16156124d85760405162461bcd60e51b815260206004820152600d60248201526c105b1c9958591e481d9bdd1959609a1b60448201526064016109a4565b600881015433600090815260066020526040902054106125595760405162461bcd60e51b815260206004820152603660248201527f596f752063616e6e6f7420766f7465206f6e2070726f706f73616c7320637265604482015275185d1959081899599bdc99481e5bdd481a9bda5b995960521b60648201526084016109a4565b336000908152600b820160209081526040808320805460ff19908116600117909155600c8501909252909120805484158015919093161790556125b2576005810180549060006125a883612f99565b91905055506125ca565b6006810180549060006125c483612f99565b91905055505b604080518315158152426020820152339185917fcbdf6214089cba887ecbf35a0b6a734589959c9763342c756bb2a80ca2bc9f6e910160405180910390a3505050565b33301461262c5760405162461bcd60e51b81526004016109a4906130f6565b6001600160a01b0382166126525760405162461bcd60e51b81526004016109a490613126565b6000600254116126985760405162461bcd60e51b81526020600482015260116024820152704e6f2074726561737572792066756e647360781b60448201526064016109a4565b60028054600091829055815460405163a9059cbb60e01b81526001600160a01b038681166004830152602482018490529293929091169063a9059cbb906044016020604051808303816000875af11580156126f7573d6000803e3d6000fd5b505050506040513d601f19601f8201168201806040525081019061271b9190613151565b90508061276a5760405162461bcd60e51b815260206004820152601a60248201527f5472656173757279207769746864726177616c206661696c656400000000000060448201526064016109a4565b836001600160a01b03166001600c546127839190612fb2565b7f1ba011ee074f0e08cc727335f32d75fb7ee71dc0a1e13bb9473e5650b0afd1a3848660405161163a92919061316e565b60006127bf33610d5c565b9050600081116128075760405162461bcd60e51b81526020600482015260136024820152724e6f207265776172647320746f20636c61696d60681b60448201526064016109a4565b8060035410156128595760405162461bcd60e51b815260206004820152601960248201527f496e73756666696369656e7420706f6f6c2062616c616e63650000000000000060448201526064016109a4565b336000908152600a602052604081208054839290612878908490612f48565b9250508190555080600360008282546128919190612fb2565b90915550506000805460405163a9059cbb60e01b8152336004820152602481018490526001600160a01b039091169063a9059cbb906044016020604051808303816000875af11580156128e8573d6000803e3d6000fd5b505050506040513d601f19601f8201168201806040525081019061290c9190613151565b90508061295b5760405162461bcd60e51b815260206004820152601a60248201527f506f6f6c20636c61696d207472616e73666572206661696c656400000000000060448201526064016109a4565b6040805183815242602082015233917fc4e740509dbfae3377bc9925dd7bcc8aaba69cd730316216d76b2d24725c6366910161141f565b6000602082840312156129a457600080fd5b5035919050565b6000815180845260005b818110156129d1576020818501810151868301820152016129b5565b506000602082860101526020601f19601f83011685010191505092915050565b8b81526001600160a01b038b16602082015261016060408201819052600090612a1c8382018d6129ab565b90508281036060840152612a30818c6129ab565b90508281036080840152612a44818b6129ab565b60a0840199909952505060c081019590955260e085019390935261010084019190915261012083015215156101409091015295945050505050565b80356001600160a01b0381168114612a9657600080fd5b919050565b60008060408385031215612aae57600080fd5b612ab783612a7f565b946020939093013593505050565b8015158114612ad357600080fd5b50565b600060208284031215612ae857600080fd5b8135612af381612ac5565b9392505050565b600060208284031215612b0c57600080fd5b612af382612a7f565b634e487b7160e01b600052604160045260246000fd5b600067ffffffffffffffff80841115612b4657612b46612b15565b604051601f8501601f19908116603f01168101908282118183101715612b6e57612b6e612b15565b81604052809350858152868686011115612b8757600080fd5b858560208301376000602087830101525050509392505050565b600082601f830112612bb257600080fd5b612af383833560208501612b2b565b60008060008060808587031215612bd757600080fd5b843567ffffffffffffffff80821115612bef57600080fd5b612bfb88838901612ba1565b95506020870135915080821115612c1157600080fd5b612c1d88838901612ba1565b94506040870135915080821115612c3357600080fd5b508501601f81018713612c4557600080fd5b612c5487823560208401612b2b565b949793965093946060013593505050565b60008060408385031215612c7857600080fd5b82359150612c8860208401612a7f565b90509250929050565b600080600060608486031215612ca657600080fd5b612caf84612a7f565b925060208401359150604084013567ffffffffffffffff811115612cd257600080fd5b612cde86828701612ba1565b9150509250925092565b6020808252825182820181905260009190848201906040850190845b81811015612d2057835183529284019291840191600101612d04565b50909695505050505050565b60008060408385031215612d3f57600080fd5b612d4883612a7f565b9150612c8860208401612a7f565b6001600160a01b038916815261010060208201819052600090612d7b8382018b6129ab565b90508281036040840152612d8f818a6129ab565b60608401989098525050608081019490945260a0840192909252151560c0830152151560e0909101529392505050565b60008060408385031215612dd257600080fd5b823591506020830135612de481612ac5565b809150509250929050565b60008060408385031215612e0257600080fd5b612e0b83612a7f565b9150602083013567ffffffffffffffff811115612e2757600080fd5b612e3385828601612ba1565b9150509250929050565b600181811c90821680612e5157607f821691505b602082108103612e7157634e487b7160e01b600052602260045260246000fd5b50919050565b60208082526010908201526f125b9d985b1a59081c1c9bdc1bdcd85b60821b604082015260600190565b6000808354612eaf81612e3d565b60018281168015612ec75760018114612edc57612f0b565b60ff1984168752821515830287019450612f0b565b8760005260208060002060005b85811015612f025781548a820152908401908201612ee9565b50505082870194505b50929695505050505050565b8215158152604060208201526000610e7d60408301846129ab565b634e487b7160e01b600052601160045260246000fd5b80820180821115612f5b57612f5b612f32565b92915050565b634e487b7160e01b600052603260045260246000fd5b600082612f9457634e487b7160e01b600052601260045260246000fd5b500490565b600060018201612fab57612fab612f32565b5060010190565b81810381811115612f5b57612f5b612f32565b601f82111561300f57600081815260208120601f850160051c81016020861015612fec5750805b601f850160051c820191505b8181101561300b57828155600101612ff8565b5050505b505050565b815167ffffffffffffffff81111561302e5761302e612b15565b6130428161303c8454612e3d565b84612fc5565b602080601f831160018114613077576000841561305f5750858301515b600019600386901b1c1916600185901b17855561300b565b600085815260208120601f198616915b828110156130a657888601518255948401946001909101908401613087565b50858210156130c45787850151600019600388901b60f8161c191681555b5050505050600190811b01905550565b6040815260006130e760408301856129ab565b90508260208301529392505050565b6020808252601690820152754f6e6c792044414f2063616e2063616c6c207468697360501b604082015260600190565b602080825260119082015270125b9d985b1a59081c9958da5c1a595b9d607a1b604082015260600190565b60006020828403121561316357600080fd5b8151612af381612ac5565b828152604060208201526000610e7d60408301846129ab565b60006020828403121561319957600080fd5b5051919050565b8082028115828204841417612f5b57612f5b612f32565b6001600160a01b03938416815291909216602082015260408101919091526060019056fea264697066735822122097b0c46db5d9097ea07fb56e5bec81986e21c64d2f080ce7adc7bcb752491b5b64736f6c63430008130033",
  "linkReferences": {},
  "deployedLinkReferences": {}
}