{
  "_format": "hh-sol-artifact-1",
  "contractName": "TEMPL",
  "sourceName": "contracts/TEMPL.sol",
  "abi": [
    {
      "inputs": [
        {
          "internalType": "address",
          "name": "_priest",
          "type": "address"
        },
        {
          "internalType": "address",
          "name": "_token",
          "type": "address"
        },
        {
          "internalType": "uint256",
          "name": "_entryFee",
          "type": "uint256"
        }
      ],
      "stateMutability": "nonpayable",
      "type": "constructor"
    },
    {
      "anonymous": false,
      "inputs": [
        {
          "indexed": true,
          "internalType": "address",
          "name": "purchaser",
          "type": "address"
        },
        {
          "indexed": false,
          "internalType": "uint256",
          "name": "totalAmount",
          "type": "uint256"
        },
        {
          "indexed": false,
          "internalType": "uint256",
          "name": "burnedAmount",
          "type": "uint256"
        },
        {
          "indexed": false,
          "internalType": "uint256",
          "name": "treasuryAmount",
          "type": "uint256"
        },
        {
          "indexed": false,
          "internalType": "uint256",
          "name": "memberPoolAmount",
          "type": "uint256"
        },
        {
          "indexed": false,
          "internalType": "uint256",
          "name": "protocolAmount",
          "type": "uint256"
        },
        {
          "indexed": false,
          "internalType": "uint256",
          "name": "timestamp",
          "type": "uint256"
        },
        {
          "indexed": false,
          "internalType": "uint256",
          "name": "blockNumber",
          "type": "uint256"
        },
        {
          "indexed": false,
          "internalType": "uint256",
          "name": "purchaseId",
          "type": "uint256"
        }
      ],
      "name": "AccessPurchased",
      "type": "event"
    },
    {
      "anonymous": false,
      "inputs": [
        {
          "indexed": true,
          "internalType": "address",
          "name": "token",
          "type": "address"
        },
        {
          "indexed": false,
          "internalType": "uint256",
          "name": "entryFee",
          "type": "uint256"
        }
      ],
      "name": "ConfigUpdated",
      "type": "event"
    },
    {
      "anonymous": false,
      "inputs": [
        {
          "indexed": false,
          "internalType": "bool",
          "name": "isPaused",
          "type": "bool"
        }
      ],
      "name": "ContractPaused",
      "type": "event"
    },
    {
      "anonymous": false,
      "inputs": [
        {
          "indexed": true,
          "internalType": "address",
          "name": "member",
          "type": "address"
        },
        {
          "indexed": false,
          "internalType": "uint256",
          "name": "amount",
          "type": "uint256"
        },
        {
          "indexed": false,
          "internalType": "uint256",
          "name": "timestamp",
          "type": "uint256"
        }
      ],
      "name": "MemberPoolClaimed",
      "type": "event"
    },
    {
      "anonymous": false,
      "inputs": [
        {
          "indexed": true,
          "internalType": "address",
          "name": "priest",
          "type": "address"
        },
        {
          "indexed": true,
          "internalType": "address",
          "name": "recipient",
          "type": "address"
        },
        {
          "indexed": false,
          "internalType": "uint256",
          "name": "amount",
          "type": "uint256"
        },
        {
          "indexed": false,
          "internalType": "uint256",
          "name": "timestamp",
          "type": "uint256"
        }
      ],
      "name": "TreasuryWithdrawn",
      "type": "event"
    },
    {
      "inputs": [],
      "name": "accessToken",
      "outputs": [
        {
          "internalType": "address",
          "name": "",
          "type": "address"
        }
      ],
      "stateMutability": "view",
      "type": "function"
    },
    {
      "inputs": [],
      "name": "claimMemberPool",
      "outputs": [],
      "stateMutability": "nonpayable",
      "type": "function"
    },
    {
      "inputs": [],
      "name": "entryFee",
      "outputs": [
        {
          "internalType": "uint256",
          "name": "",
          "type": "uint256"
        }
      ],
      "stateMutability": "view",
      "type": "function"
    },
    {
      "inputs": [
        {
          "internalType": "address",
          "name": "member",
          "type": "address"
        }
      ],
      "name": "getClaimablePoolAmount",
      "outputs": [
        {
          "internalType": "uint256",
          "name": "",
          "type": "uint256"
        }
      ],
      "stateMutability": "view",
      "type": "function"
    },
    {
      "inputs": [],
      "name": "getConfig",
      "outputs": [
        {
          "internalType": "address",
          "name": "token",
          "type": "address"
        },
        {
          "internalType": "uint256",
          "name": "fee",
          "type": "uint256"
        },
        {
          "internalType": "bool",
          "name": "isPaused",
          "type": "bool"
        },
        {
          "internalType": "uint256",
          "name": "purchases",
          "type": "uint256"
        },
        {
          "internalType": "uint256",
          "name": "treasury",
          "type": "uint256"
        },
        {
          "internalType": "uint256",
          "name": "pool",
          "type": "uint256"
        }
      ],
      "stateMutability": "view",
      "type": "function"
    },
    {
      "inputs": [
        {
          "internalType": "address",
          "name": "user",
          "type": "address"
        }
      ],
      "name": "getPurchaseDetails",
      "outputs": [
        {
          "internalType": "bool",
          "name": "purchased",
          "type": "bool"
        },
        {
          "internalType": "uint256",
          "name": "timestamp",
          "type": "uint256"
        },
        {
          "internalType": "uint256",
          "name": "blockNum",
          "type": "uint256"
        }
      ],
      "stateMutability": "view",
      "type": "function"
    },
    {
      "inputs": [],
      "name": "getTreasuryInfo",
      "outputs": [
        {
          "internalType": "uint256",
          "name": "treasury",
          "type": "uint256"
        },
        {
          "internalType": "uint256",
          "name": "memberPool",
          "type": "uint256"
        },
        {
          "internalType": "uint256",
          "name": "totalReceived",
          "type": "uint256"
        },
        {
          "internalType": "uint256",
          "name": "totalBurnedAmount",
          "type": "uint256"
        },
        {
          "internalType": "uint256",
          "name": "totalProtocolFees",
          "type": "uint256"
        },
        {
          "internalType": "address",
          "name": "protocolAddress",
          "type": "address"
        }
      ],
      "stateMutability": "view",
      "type": "function"
    },
    {
      "inputs": [
        {
          "internalType": "address",
          "name": "user",
          "type": "address"
        }
      ],
      "name": "hasAccess",
      "outputs": [
        {
          "internalType": "bool",
          "name": "",
          "type": "bool"
        }
      ],
      "stateMutability": "view",
      "type": "function"
    },
    {
      "inputs": [
        {
          "internalType": "address",
          "name": "",
          "type": "address"
        }
      ],
      "name": "hasPurchased",
      "outputs": [
        {
          "internalType": "bool",
          "name": "",
          "type": "bool"
        }
      ],
      "stateMutability": "view",
      "type": "function"
    },
    {
      "inputs": [
        {
          "internalType": "address",
          "name": "",
          "type": "address"
        }
      ],
      "name": "memberIndex",
      "outputs": [
        {
          "internalType": "uint256",
          "name": "",
          "type": "uint256"
        }
      ],
      "stateMutability": "view",
      "type": "function"
    },
    {
      "inputs": [],
      "name": "memberPoolBalance",
      "outputs": [
        {
          "internalType": "uint256",
          "name": "",
          "type": "uint256"
        }
      ],
      "stateMutability": "view",
      "type": "function"
    },
    {
      "inputs": [
        {
          "internalType": "address",
          "name": "",
          "type": "address"
        }
      ],
      "name": "memberPoolClaims",
      "outputs": [
        {
          "internalType": "uint256",
          "name": "",
          "type": "uint256"
        }
      ],
      "stateMutability": "view",
      "type": "function"
    },
    {
      "inputs": [
        {
          "internalType": "uint256",
          "name": "",
          "type": "uint256"
        }
      ],
      "name": "members",
      "outputs": [
        {
          "internalType": "address",
          "name": "",
          "type": "address"
        }
      ],
      "stateMutability": "view",
      "type": "function"
    },
    {
      "inputs": [],
      "name": "paused",
      "outputs": [
        {
          "internalType": "bool",
          "name": "",
          "type": "bool"
        }
      ],
      "stateMutability": "view",
      "type": "function"
    },
    {
      "inputs": [
        {
          "internalType": "uint256",
          "name": "",
          "type": "uint256"
        }
      ],
      "name": "poolDeposits",
      "outputs": [
        {
          "internalType": "uint256",
          "name": "",
          "type": "uint256"
        }
      ],
      "stateMutability": "view",
      "type": "function"
    },
    {
      "inputs": [],
      "name": "priest",
      "outputs": [
        {
          "internalType": "address",
          "name": "",
          "type": "address"
        }
      ],
      "stateMutability": "view",
      "type": "function"
    },
    {
      "inputs": [],
      "name": "purchaseAccess",
      "outputs": [],
      "stateMutability": "nonpayable",
      "type": "function"
    },
    {
      "inputs": [
        {
          "internalType": "address",
          "name": "",
          "type": "address"
        }
      ],
      "name": "purchaseBlock",
      "outputs": [
        {
          "internalType": "uint256",
          "name": "",
          "type": "uint256"
        }
      ],
      "stateMutability": "view",
      "type": "function"
    },
    {
      "inputs": [
        {
          "internalType": "address",
          "name": "",
          "type": "address"
        }
      ],
      "name": "purchaseTimestamp",
      "outputs": [
        {
          "internalType": "uint256",
          "name": "",
          "type": "uint256"
        }
      ],
      "stateMutability": "view",
      "type": "function"
    },
    {
      "inputs": [
        {
          "internalType": "address",
          "name": "token",
          "type": "address"
        },
        {
          "internalType": "address",
          "name": "to",
          "type": "address"
        }
      ],
      "name": "recoverWrongToken",
      "outputs": [],
      "stateMutability": "nonpayable",
      "type": "function"
    },
    {
      "inputs": [
        {
          "internalType": "bool",
          "name": "_paused",
          "type": "bool"
        }
      ],
      "name": "setPaused",
      "outputs": [],
      "stateMutability": "nonpayable",
      "type": "function"
    },
    {
      "inputs": [],
      "name": "totalBurned",
      "outputs": [
        {
          "internalType": "uint256",
          "name": "",
          "type": "uint256"
        }
      ],
      "stateMutability": "view",
      "type": "function"
    },
    {
      "inputs": [],
      "name": "totalPurchases",
      "outputs": [
        {
          "internalType": "uint256",
          "name": "",
          "type": "uint256"
        }
      ],
      "stateMutability": "view",
      "type": "function"
    },
    {
      "inputs": [],
      "name": "totalToMemberPool",
      "outputs": [
        {
          "internalType": "uint256",
          "name": "",
          "type": "uint256"
        }
      ],
      "stateMutability": "view",
      "type": "function"
    },
    {
      "inputs": [],
      "name": "totalToProtocol",
      "outputs": [
        {
          "internalType": "uint256",
          "name": "",
          "type": "uint256"
        }
      ],
      "stateMutability": "view",
      "type": "function"
    },
    {
      "inputs": [],
      "name": "totalToTreasury",
      "outputs": [
        {
          "internalType": "uint256",
          "name": "",
          "type": "uint256"
        }
      ],
      "stateMutability": "view",
      "type": "function"
    },
    {
      "inputs": [],
      "name": "treasuryBalance",
      "outputs": [
        {
          "internalType": "uint256",
          "name": "",
          "type": "uint256"
        }
      ],
      "stateMutability": "view",
      "type": "function"
    },
    {
      "inputs": [
        {
          "internalType": "address",
          "name": "_token",
          "type": "address"
        },
        {
          "internalType": "uint256",
          "name": "_entryFee",
          "type": "uint256"
        }
      ],
      "name": "updateConfig",
      "outputs": [],
      "stateMutability": "nonpayable",
      "type": "function"
    },
    {
      "inputs": [
        {
          "internalType": "address",
          "name": "recipient",
          "type": "address"
        }
      ],
      "name": "withdrawAllTreasury",
      "outputs": [],
      "stateMutability": "nonpayable",
      "type": "function"
    },
    {
      "inputs": [
        {
          "internalType": "address",
          "name": "recipient",
          "type": "address"
        },
        {
          "internalType": "uint256",
          "name": "amount",
          "type": "uint256"
        }
      ],
      "name": "withdrawTreasury",
      "outputs": [],
      "stateMutability": "nonpayable",
      "type": "function"
    }
  ],
  "bytecode": "0x60a06040523480156200001157600080fd5b5060405162001c1f38038062001c1f8339810160408190526200003491620001f0565b6001600160a01b038316620000905760405162461bcd60e51b815260206004820152601660248201527f496e76616c69642070726965737420616464726573730000000000000000000060448201526064015b60405180910390fd5b6001600160a01b038216620000e85760405162461bcd60e51b815260206004820152601560248201527f496e76616c696420746f6b656e20616464726573730000000000000000000000604482015260640162000087565b600081116200013a5760405162461bcd60e51b815260206004820181905260248201527f456e74727920666565206d7573742062652067726561746572207468616e2030604482015260640162000087565b600a811015620001995760405162461bcd60e51b8152602060048201526024808201527f456e7472792066656520746f6f20736d616c6c20666f722064697374726962756044820152633a34b7b760e11b606482015260840162000087565b6001600160a01b03928316608052600080546001600160a01b03191692909316919091179091556001556004805460ff1916905562000231565b80516001600160a01b0381168114620001eb57600080fd5b919050565b6000806000606084860312156200020657600080fd5b6200021184620001d3565b92506200022160208501620001d3565b9150604084015190509250925092565b6080516119a16200027e600039600081816104210152818161045d01528181610547015281816107890152818161094101528181610a910152818161116d015261145701526119a16000f3fe608060405234801561001057600080fd5b50600436106101da5760003560e01c80637675511811610104578063bebc8fc0116100a2578063d89135cd11610071578063d89135cd14610505578063e243c5fb1461050e578063f4f7596a14610521578063f7158b2a1461053457600080fd5b8063bebc8fc01461041c578063c1b57edb14610443578063c29394711461044c578063c3f909d4146104b257600080fd5b8063999dcbe6116100de578063999dcbe6146103d857806399e288d8146103eb578063a81bbe3c146103f3578063bdb75b341461041357600080fd5b8063767551181461036957806390118fb41461038957806395a078e8146103ac57600080fd5b80635962a9411161017c5780635e391dfe1161014b5780635e391dfe146102cc5780635fa7ddf0146102ec57806364653f29146102f55780636758f49b1461035657600080fd5b80635962a9411461027257806359c266ff1461027b5780635c975abb146102845780635daf08ca146102a157600080fd5b80631808022a116101b85780631808022a1461022357806318a7406414610236578063313dab20146102495780633dd352791461025257600080fd5b8063072ea61c146101df5780630d86419a146101fb57806316c38b3c14610210575b600080fd5b6101e860015481565b6040519081526020015b60405180910390f35b61020e61020936600461173f565b61053c565b005b61020e61021e36600461177a565b61077e565b6101e861023136600461179e565b61080d565b61020e61024436600461173f565b610936565b6101e860025481565b6101e861026036600461179e565b60096020526000908152604090205481565b6101e8600c5481565b6101e860105481565b6004546102919060ff1681565b60405190151581526020016101f2565b6102b46102af3660046117b9565b610a5c565b6040516001600160a01b0390911681526020016101f2565b6101e86102da36600461179e565b60076020526000908152604090205481565b6101e860035481565b61033961030336600461179e565b6001600160a01b03166000908152600560209081526040808320546006835281842054600790935292205460ff90921692909190565b6040805193151584526020840192909252908201526060016101f2565b61020e6103643660046117d2565b610a86565b6101e861037736600461179e565b60066020526000908152604090205481565b61029161039736600461179e565b60056020526000908152604090205460ff1681565b6102916103ba36600461179e565b6001600160a01b031660009081526005602052604090205460ff1690565b6101e86103e63660046117b9565b610cd9565b61020e610cfa565b6101e861040136600461179e565b600a6020526000908152604090205481565b6101e8600f5481565b6102b47f000000000000000000000000000000000000000000000000000000000000000081565b6101e8600e5481565b600254600354600e54600d546010547f000000000000000000000000000000000000000000000000000000000000000060408051968752602087019590955293850192909252606084015260808301526001600160a01b031660a082015260c0016101f2565b600054600154600454600c54600254600354604080516001600160a01b039097168752602087019590955260ff9093161515938501939093526060840152608083019190915260a082015260c0016101f2565b6101e8600d5481565b6000546102b4906001600160a01b031681565b61020e61052f36600461179e565b61144c565b61020e611545565b336001600160a01b037f0000000000000000000000000000000000000000000000000000000000000000161461058d5760405162461bcd60e51b815260040161058490611805565b60405180910390fd5b6001600160a01b0382166105b35760405162461bcd60e51b81526004016105849061183c565b600081116106035760405162461bcd60e51b815260206004820152601d60248201527f416d6f756e74206d7573742062652067726561746572207468616e20300000006044820152606401610584565b6002548111156106555760405162461bcd60e51b815260206004820152601d60248201527f496e73756666696369656e742074726561737572792062616c616e63650000006044820152606401610584565b8060026000828254610667919061187d565b90915550506000805460405163a9059cbb60e01b81526001600160a01b038581166004830152602482018590529091169063a9059cbb906044015b6020604051808303816000875af11580156106c1573d6000803e3d6000fd5b505050506040513d601f19601f820116820180604052508101906106e59190611896565b9050806107345760405162461bcd60e51b815260206004820152601a60248201527f5472656173757279207769746864726177616c206661696c65640000000000006044820152606401610584565b604080518381524260208201526001600160a01b0385169133917f31a8092046a766d50c60467d927f8769a20162fd47024a64bb365aac647eb0df910160405180910390a3505050565b336001600160a01b037f000000000000000000000000000000000000000000000000000000000000000016146107c65760405162461bcd60e51b815260040161058490611805565b6004805460ff19168215159081179091556040519081527f752d7e161ff5146f80e3820893176eb40532811e5e20400dfdde57455213706a9060200160405180910390a150565b6001600160a01b03811660009081526005602052604081205460ff1661083557506000919050565b6001600160a01b038216600090815260096020526040812054908061085b8360016118b3565b90505b600b548110156108e4576000600b828154811061087d5761087d6118c6565b906000526020600020015411156108d2578080156108d057600081600b84815481106108ab576108ab6118c6565b90600052602060002001546108c091906118dc565b90506108cc81856118b3565b9350505b505b806108dc816118fe565b91505061085e565b506001600160a01b0384166000908152600a6020526040902054811161090b57600061092e565b6001600160a01b0384166000908152600a602052604090205461092e908261187d565b949350505050565b336001600160a01b037f0000000000000000000000000000000000000000000000000000000000000000161461097e5760405162461bcd60e51b815260040161058490611805565b6001600160a01b038216156109a957600080546001600160a01b0319166001600160a01b0384161790555b8015610a1257600a811015610a0c5760405162461bcd60e51b8152602060048201526024808201527f456e7472792066656520746f6f20736d616c6c20666f722064697374726962756044820152633a34b7b760e11b6064820152608401610584565b60018190555b6000546001546040519081526001600160a01b03909116907faf8839d80c9b3bbf95c97465eb8c8348db4098f5c15af186c3b425b112998117906020015b60405180910390a25050565b60088181548110610a6c57600080fd5b6000918252602090912001546001600160a01b0316905081565b336001600160a01b037f00000000000000000000000000000000000000000000000000000000000000001614610ace5760405162461bcd60e51b815260040161058490611805565b6000546001600160a01b0390811690831603610b3b5760405162461bcd60e51b815260206004820152602660248201527f557365207769746864726177547265617375727920666f722061636365737320604482015265746f6b656e7360d01b6064820152608401610584565b6001600160a01b038116610b615760405162461bcd60e51b81526004016105849061183c565b6040516370a0823160e01b81523060048201526000906001600160a01b038416906370a0823190602401602060405180830381865afa158015610ba8573d6000803e3d6000fd5b505050506040513d601f19601f82011682018060405250810190610bcc9190611917565b905060008111610c155760405162461bcd60e51b81526020600482015260146024820152732737903a37b5b2b739903a37903932b1b7bb32b960611b6044820152606401610584565b60405163a9059cbb60e01b81526001600160a01b038381166004830152602482018390526000919085169063a9059cbb906044016020604051808303816000875af1158015610c68573d6000803e3d6000fd5b505050506040513d601f19601f82011682018060405250810190610c8c9190611896565b905080610cd35760405162461bcd60e51b8152602060048201526015602482015274151bdad95b881c9958dbdd995c9e4819985a5b1959605a1b6044820152606401610584565b50505050565b600b8181548110610ce957600080fd5b600091825260209091200154905081565b60045460ff1615610d425760405162461bcd60e51b815260206004820152601260248201527110dbdb9d1c9858dd081a5cc81c185d5cd95960721b6044820152606401610584565b3360009081526005602052604090205460ff1615610da25760405162461bcd60e51b815260206004820152601860248201527f416c7265616479207075726368617365642061636365737300000000000000006044820152606401610584565b60006064600154601e610db59190611930565b610dbf91906118dc565b905060006064600154600a610dd49190611930565b610dde91906118dc565b9050600081610dee846003611930565b610df891906118b3565b9050600154811115610e405760405162461bcd60e51b815260206004820152601160248201527021b0b631bab630ba34b7b71032b93937b960791b6044820152606401610584565b6001546000546040516370a0823160e01b81523360048201526001600160a01b03909116906370a0823190602401602060405180830381865afa158015610e8b573d6000803e3d6000fd5b505050506040513d601f19601f82011682018060405250810190610eaf9190611917565b1015610efd5760405162461bcd60e51b815260206004820152601a60248201527f496e73756666696369656e7420746f6b656e2062616c616e63650000000000006044820152606401610584565b600080546040516323b872dd60e01b81526001600160a01b03909116906323b872dd90610f3490339061dead908990600401611947565b6020604051808303816000875af1158015610f53573d6000803e3d6000fd5b505050506040513d601f19601f82011682018060405250810190610f779190611896565b905080610fbd5760405162461bcd60e51b8152602060048201526014602482015273109d5c9b881d1c985b9cd9995c8819985a5b195960621b6044820152606401610584565b600080546040516323b872dd60e01b81526001600160a01b03909116906323b872dd90610ff290339030908a90600401611947565b6020604051808303816000875af1158015611011573d6000803e3d6000fd5b505050506040513d601f19601f820116820180604052508101906110359190611896565b9050806110845760405162461bcd60e51b815260206004820152601860248201527f5472656173757279207472616e73666572206661696c656400000000000000006044820152606401610584565b600080546040516323b872dd60e01b81526001600160a01b03909116906323b872dd906110b990339030908b90600401611947565b6020604051808303816000875af11580156110d8573d6000803e3d6000fd5b505050506040513d601f19601f820116820180604052508101906110fc9190611896565b9050806111425760405162461bcd60e51b8152602060048201526014602482015273141bdbdb081d1c985b9cd9995c8819985a5b195960621b6044820152606401610584565b600080546040516323b872dd60e01b81526001600160a01b03909116906323b872dd906111979033907f0000000000000000000000000000000000000000000000000000000000000000908b90600401611947565b6020604051808303816000875af11580156111b6573d6000803e3d6000fd5b505050506040513d601f19601f820116820180604052508101906111da9190611896565b9050806112295760405162461bcd60e51b815260206004820152601860248201527f50726f746f636f6c207472616e73666572206661696c656400000000000000006044820152606401610584565b866002600082825461123b91906118b3565b92505081905550866003600082825461125491906118b3565b9250508190555086600d600082825461126d91906118b3565b9250508190555086600e600082825461128691906118b3565b9250508190555086600f600082825461129f91906118b3565b9250508190555085601060008282546112b891906118b3565b9091555050600854156112ff57600b80546001810182556000919091527f0175b7a638427703f0dbe7bb9bbf987a2551717b34e79f33b5b1008d1fa01db901879055611332565b600b805460018101825560009182527f0175b7a638427703f0dbe7bb9bbf987a2551717b34e79f33b5b1008d1fa01db901555b336000818152600560209081526040808320805460ff1916600190811790915560068352818420429055600783528184204390556008805460099094529184208390558201815582527ff3f7a9fe364faab93b216da50a3214154f22a0a2b415b23a84c8169e8b636ee30180546001600160a01b031916909217909155600c8054916113bd836118fe565b9190505550336001600160a01b03167fe6d1c0e418a42a777d49c66571075fc47bc1d92e7f506007ddde08d1ff182bbc600154898a8b8b42436001600c54611405919061187d565b604080519889526020890197909752958701949094526060860192909252608085015260a084015260c083015260e08201526101000160405180910390a250505050505050565b336001600160a01b037f000000000000000000000000000000000000000000000000000000000000000016146114945760405162461bcd60e51b815260040161058490611805565b6001600160a01b0381166114ba5760405162461bcd60e51b81526004016105849061183c565b6000600254116115005760405162461bcd60e51b81526020600482015260116024820152704e6f2074726561737572792066756e647360781b6044820152606401610584565b60028054600091829055815460405163a9059cbb60e01b81526001600160a01b038581166004830152602482018490529293929091169063a9059cbb906044016106a2565b60006115503361080d565b9050600081116115985760405162461bcd60e51b81526020600482015260136024820152724e6f207265776172647320746f20636c61696d60681b6044820152606401610584565b8060035410156115ea5760405162461bcd60e51b815260206004820152601960248201527f496e73756666696369656e7420706f6f6c2062616c616e6365000000000000006044820152606401610584565b336000908152600a6020526040812080548392906116099084906118b3565b925050819055508060036000828254611622919061187d565b90915550506000805460405163a9059cbb60e01b8152336004820152602481018490526001600160a01b039091169063a9059cbb906044016020604051808303816000875af1158015611679573d6000803e3d6000fd5b505050506040513d601f19601f8201168201806040525081019061169d9190611896565b9050806116ec5760405162461bcd60e51b815260206004820152601a60248201527f506f6f6c20636c61696d207472616e73666572206661696c65640000000000006044820152606401610584565b6040805183815242602082015233917fc4e740509dbfae3377bc9925dd7bcc8aaba69cd730316216d76b2d24725c63669101610a50565b80356001600160a01b038116811461173a57600080fd5b919050565b6000806040838503121561175257600080fd5b61175b83611723565b946020939093013593505050565b801515811461177757600080fd5b50565b60006020828403121561178c57600080fd5b813561179781611769565b9392505050565b6000602082840312156117b057600080fd5b61179782611723565b6000602082840312156117cb57600080fd5b5035919050565b600080604083850312156117e557600080fd5b6117ee83611723565b91506117fc60208401611723565b90509250929050565b60208082526019908201527f4f6e6c79207072696573742063616e2063616c6c207468697300000000000000604082015260600190565b602080825260119082015270125b9d985b1a59081c9958da5c1a595b9d607a1b604082015260600190565b634e487b7160e01b600052601160045260246000fd5b8181038181111561189057611890611867565b92915050565b6000602082840312156118a857600080fd5b815161179781611769565b8082018082111561189057611890611867565b634e487b7160e01b600052603260045260246000fd5b6000826118f957634e487b7160e01b600052601260045260246000fd5b500490565b60006001820161191057611910611867565b5060010190565b60006020828403121561192957600080fd5b5051919050565b808202811582820484141761189057611890611867565b6001600160a01b03938416815291909216602082015260408101919091526060019056fea26469706673582212201ef6b7a57920b34b37d15079acc78067522bfafffcb05d7e3810511c25df24c064736f6c63430008130033",
  "linkReferences": {},
  "deployedLinkReferences": {}
}