{
  "_format": "hh-sol-artifact-1",
  "contractName": "TEMPL",
  "sourceName": "contracts/TEMPL.sol",
  "abi": [
    {
      "inputs": [
        {
          "internalType": "address",
          "name": "_priest",
          "type": "address"
        },
        {
          "internalType": "address",
          "name": "_token",
          "type": "address"
        },
        {
          "internalType": "uint256",
          "name": "_entryFee",
          "type": "uint256"
        },
        {
          "internalType": "uint256",
          "name": "_priestVoteWeight",
          "type": "uint256"
        },
        {
          "internalType": "uint256",
          "name": "_priestWeightThreshold",
          "type": "uint256"
        }
      ],
      "stateMutability": "nonpayable",
      "type": "constructor"
    },
    {
      "anonymous": false,
      "inputs": [
        {
          "indexed": true,
          "internalType": "address",
          "name": "purchaser",
          "type": "address"
        },
        {
          "indexed": false,
          "internalType": "uint256",
          "name": "totalAmount",
          "type": "uint256"
        },
        {
          "indexed": false,
          "internalType": "uint256",
          "name": "burnedAmount",
          "type": "uint256"
        },
        {
          "indexed": false,
          "internalType": "uint256",
          "name": "treasuryAmount",
          "type": "uint256"
        },
        {
          "indexed": false,
          "internalType": "uint256",
          "name": "memberPoolAmount",
          "type": "uint256"
        },
        {
          "indexed": false,
          "internalType": "uint256",
          "name": "protocolAmount",
          "type": "uint256"
        },
        {
          "indexed": false,
          "internalType": "uint256",
          "name": "timestamp",
          "type": "uint256"
        },
        {
          "indexed": false,
          "internalType": "uint256",
          "name": "blockNumber",
          "type": "uint256"
        },
        {
          "indexed": false,
          "internalType": "uint256",
          "name": "purchaseId",
          "type": "uint256"
        }
      ],
      "name": "AccessPurchased",
      "type": "event"
    },
    {
      "anonymous": false,
      "inputs": [
        {
          "indexed": true,
          "internalType": "address",
          "name": "token",
          "type": "address"
        },
        {
          "indexed": false,
          "internalType": "uint256",
          "name": "entryFee",
          "type": "uint256"
        }
      ],
      "name": "ConfigUpdated",
      "type": "event"
    },
    {
      "anonymous": false,
      "inputs": [
        {
          "indexed": false,
          "internalType": "bool",
          "name": "isPaused",
          "type": "bool"
        }
      ],
      "name": "ContractPaused",
      "type": "event"
    },
    {
      "anonymous": false,
      "inputs": [
        {
          "indexed": true,
          "internalType": "address",
          "name": "member",
          "type": "address"
        },
        {
          "indexed": false,
          "internalType": "uint256",
          "name": "amount",
          "type": "uint256"
        },
        {
          "indexed": false,
          "internalType": "uint256",
          "name": "timestamp",
          "type": "uint256"
        }
      ],
      "name": "MemberPoolClaimed",
      "type": "event"
    },
    {
      "anonymous": false,
      "inputs": [
        {
          "indexed": true,
          "internalType": "uint256",
          "name": "proposalId",
          "type": "uint256"
        },
        {
          "indexed": true,
          "internalType": "address",
          "name": "proposer",
          "type": "address"
        },
        {
          "indexed": false,
          "internalType": "string",
          "name": "title",
          "type": "string"
        },
        {
          "indexed": false,
          "internalType": "uint256",
          "name": "endTime",
          "type": "uint256"
        }
      ],
      "name": "ProposalCreated",
      "type": "event"
    },
    {
      "anonymous": false,
      "inputs": [
        {
          "indexed": true,
          "internalType": "uint256",
          "name": "proposalId",
          "type": "uint256"
        },
        {
          "indexed": false,
          "internalType": "bool",
          "name": "success",
          "type": "bool"
        },
        {
          "indexed": false,
          "internalType": "bytes",
          "name": "returnData",
          "type": "bytes"
        }
      ],
      "name": "ProposalExecuted",
      "type": "event"
    },
    {
      "anonymous": false,
      "inputs": [
        {
          "indexed": true,
          "internalType": "uint256",
          "name": "proposalId",
          "type": "uint256"
        },
        {
          "indexed": true,
          "internalType": "address",
          "name": "recipient",
          "type": "address"
        },
        {
          "indexed": false,
          "internalType": "uint256",
          "name": "amount",
          "type": "uint256"
        },
        {
          "indexed": false,
          "internalType": "string",
          "name": "description",
          "type": "string"
        }
      ],
      "name": "TreasuryAction",
      "type": "event"
    },
    {
      "anonymous": false,
      "inputs": [
        {
          "indexed": true,
          "internalType": "address",
          "name": "priest",
          "type": "address"
        },
        {
          "indexed": true,
          "internalType": "address",
          "name": "recipient",
          "type": "address"
        },
        {
          "indexed": false,
          "internalType": "uint256",
          "name": "amount",
          "type": "uint256"
        },
        {
          "indexed": false,
          "internalType": "uint256",
          "name": "timestamp",
          "type": "uint256"
        }
      ],
      "name": "TreasuryWithdrawn",
      "type": "event"
    },
    {
      "anonymous": false,
      "inputs": [
        {
          "indexed": true,
          "internalType": "uint256",
          "name": "proposalId",
          "type": "uint256"
        },
        {
          "indexed": true,
          "internalType": "address",
          "name": "voter",
          "type": "address"
        },
        {
          "indexed": false,
          "internalType": "bool",
          "name": "support",
          "type": "bool"
        },
        {
          "indexed": false,
          "internalType": "uint256",
          "name": "timestamp",
          "type": "uint256"
        }
      ],
      "name": "VoteCast",
      "type": "event"
    },
    {
      "inputs": [],
      "name": "DEFAULT_VOTING_PERIOD",
      "outputs": [
        {
          "internalType": "uint256",
          "name": "",
          "type": "uint256"
        }
      ],
      "stateMutability": "view",
      "type": "function"
    },
    {
      "inputs": [],
      "name": "MAX_VOTING_PERIOD",
      "outputs": [
        {
          "internalType": "uint256",
          "name": "",
          "type": "uint256"
        }
      ],
      "stateMutability": "view",
      "type": "function"
    },
    {
      "inputs": [],
      "name": "MIN_VOTING_PERIOD",
      "outputs": [
        {
          "internalType": "uint256",
          "name": "",
          "type": "uint256"
        }
      ],
      "stateMutability": "view",
      "type": "function"
    },
    {
      "inputs": [],
      "name": "accessToken",
      "outputs": [
        {
          "internalType": "address",
          "name": "",
          "type": "address"
        }
      ],
      "stateMutability": "view",
      "type": "function"
    },
    {
      "inputs": [
        {
          "internalType": "address",
          "name": "",
          "type": "address"
        }
      ],
      "name": "activeProposalId",
      "outputs": [
        {
          "internalType": "uint256",
          "name": "",
          "type": "uint256"
        }
      ],
      "stateMutability": "view",
      "type": "function"
    },
    {
      "inputs": [],
      "name": "claimMemberPool",
      "outputs": [],
      "stateMutability": "nonpayable",
      "type": "function"
    },
    {
      "inputs": [
        {
          "internalType": "string",
          "name": "_title",
          "type": "string"
        },
        {
          "internalType": "string",
          "name": "_description",
          "type": "string"
        },
        {
          "internalType": "bytes",
          "name": "_callData",
          "type": "bytes"
        },
        {
          "internalType": "uint256",
          "name": "_votingPeriod",
          "type": "uint256"
        }
      ],
      "name": "createProposal",
      "outputs": [
        {
          "internalType": "uint256",
          "name": "",
          "type": "uint256"
        }
      ],
      "stateMutability": "nonpayable",
      "type": "function"
    },
    {
      "inputs": [],
      "name": "entryFee",
      "outputs": [
        {
          "internalType": "uint256",
          "name": "",
          "type": "uint256"
        }
      ],
      "stateMutability": "view",
      "type": "function"
    },
    {
      "inputs": [
        {
          "internalType": "uint256",
          "name": "_proposalId",
          "type": "uint256"
        }
      ],
      "name": "executeProposal",
      "outputs": [],
      "stateMutability": "nonpayable",
      "type": "function"
    },
    {
      "inputs": [],
      "name": "getActiveProposals",
      "outputs": [
        {
          "internalType": "uint256[]",
          "name": "",
          "type": "uint256[]"
        }
      ],
      "stateMutability": "view",
      "type": "function"
    },
    {
      "inputs": [
        {
          "internalType": "address",
          "name": "member",
          "type": "address"
        }
      ],
      "name": "getClaimablePoolAmount",
      "outputs": [
        {
          "internalType": "uint256",
          "name": "",
          "type": "uint256"
        }
      ],
      "stateMutability": "view",
      "type": "function"
    },
    {
      "inputs": [],
      "name": "getConfig",
      "outputs": [
        {
          "internalType": "address",
          "name": "token",
          "type": "address"
        },
        {
          "internalType": "uint256",
          "name": "fee",
          "type": "uint256"
        },
        {
          "internalType": "bool",
          "name": "isPaused",
          "type": "bool"
        },
        {
          "internalType": "uint256",
          "name": "purchases",
          "type": "uint256"
        },
        {
          "internalType": "uint256",
          "name": "treasury",
          "type": "uint256"
        },
        {
          "internalType": "uint256",
          "name": "pool",
          "type": "uint256"
        }
      ],
      "stateMutability": "view",
      "type": "function"
    },
    {
      "inputs": [],
      "name": "getMemberCount",
      "outputs": [
        {
          "internalType": "uint256",
          "name": "",
          "type": "uint256"
        }
      ],
      "stateMutability": "view",
      "type": "function"
    },
    {
      "inputs": [
        {
          "internalType": "uint256",
          "name": "_proposalId",
          "type": "uint256"
        }
      ],
      "name": "getProposal",
      "outputs": [
        {
          "internalType": "address",
          "name": "proposer",
          "type": "address"
        },
        {
          "internalType": "string",
          "name": "title",
          "type": "string"
        },
        {
          "internalType": "string",
          "name": "description",
          "type": "string"
        },
        {
          "internalType": "uint256",
          "name": "yesVotes",
          "type": "uint256"
        },
        {
          "internalType": "uint256",
          "name": "noVotes",
          "type": "uint256"
        },
        {
          "internalType": "uint256",
          "name": "endTime",
          "type": "uint256"
        },
        {
          "internalType": "bool",
          "name": "executed",
          "type": "bool"
        },
        {
          "internalType": "bool",
          "name": "passed",
          "type": "bool"
        }
      ],
      "stateMutability": "view",
      "type": "function"
    },
    {
      "inputs": [
        {
          "internalType": "address",
          "name": "user",
          "type": "address"
        }
      ],
      "name": "getPurchaseDetails",
      "outputs": [
        {
          "internalType": "bool",
          "name": "purchased",
          "type": "bool"
        },
        {
          "internalType": "uint256",
          "name": "timestamp",
          "type": "uint256"
        },
        {
          "internalType": "uint256",
          "name": "blockNum",
          "type": "uint256"
        }
      ],
      "stateMutability": "view",
      "type": "function"
    },
    {
      "inputs": [],
      "name": "getTreasuryInfo",
      "outputs": [
        {
          "internalType": "uint256",
          "name": "treasury",
          "type": "uint256"
        },
        {
          "internalType": "uint256",
          "name": "memberPool",
          "type": "uint256"
        },
        {
          "internalType": "uint256",
          "name": "totalReceived",
          "type": "uint256"
        },
        {
          "internalType": "uint256",
          "name": "totalBurnedAmount",
          "type": "uint256"
        },
        {
          "internalType": "uint256",
          "name": "totalProtocolFees",
          "type": "uint256"
        },
        {
          "internalType": "address",
          "name": "protocolAddress",
          "type": "address"
        }
      ],
      "stateMutability": "view",
      "type": "function"
    },
    {
      "inputs": [
        {
          "internalType": "address",
          "name": "voter",
          "type": "address"
        }
      ],
      "name": "getVoteWeight",
      "outputs": [
        {
          "internalType": "uint256",
          "name": "",
          "type": "uint256"
        }
      ],
      "stateMutability": "view",
      "type": "function"
    },
    {
      "inputs": [
        {
          "internalType": "address",
          "name": "user",
          "type": "address"
        }
      ],
      "name": "hasAccess",
      "outputs": [
        {
          "internalType": "bool",
          "name": "",
          "type": "bool"
        }
      ],
      "stateMutability": "view",
      "type": "function"
    },
    {
      "inputs": [
        {
          "internalType": "address",
          "name": "",
          "type": "address"
        }
      ],
      "name": "hasActiveProposal",
      "outputs": [
        {
          "internalType": "bool",
          "name": "",
          "type": "bool"
        }
      ],
      "stateMutability": "view",
      "type": "function"
    },
    {
      "inputs": [
        {
          "internalType": "address",
          "name": "",
          "type": "address"
        }
      ],
      "name": "hasPurchased",
      "outputs": [
        {
          "internalType": "bool",
          "name": "",
          "type": "bool"
        }
      ],
      "stateMutability": "view",
      "type": "function"
    },
    {
      "inputs": [
        {
          "internalType": "uint256",
          "name": "_proposalId",
          "type": "uint256"
        },
        {
          "internalType": "address",
          "name": "_voter",
          "type": "address"
        }
      ],
      "name": "hasVoted",
      "outputs": [
        {
          "internalType": "bool",
          "name": "voted",
          "type": "bool"
        },
        {
          "internalType": "bool",
          "name": "support",
          "type": "bool"
        }
      ],
      "stateMutability": "view",
      "type": "function"
    },
    {
      "inputs": [
        {
          "internalType": "address",
          "name": "",
          "type": "address"
        }
      ],
      "name": "memberIndex",
      "outputs": [
        {
          "internalType": "uint256",
          "name": "",
          "type": "uint256"
        }
      ],
      "stateMutability": "view",
      "type": "function"
    },
    {
      "inputs": [],
      "name": "memberPoolBalance",
      "outputs": [
        {
          "internalType": "uint256",
          "name": "",
          "type": "uint256"
        }
      ],
      "stateMutability": "view",
      "type": "function"
    },
    {
      "inputs": [
        {
          "internalType": "address",
          "name": "",
          "type": "address"
        }
      ],
      "name": "memberPoolClaims",
      "outputs": [
        {
          "internalType": "uint256",
          "name": "",
          "type": "uint256"
        }
      ],
      "stateMutability": "view",
      "type": "function"
    },
    {
      "inputs": [
        {
          "internalType": "uint256",
          "name": "",
          "type": "uint256"
        }
      ],
      "name": "members",
      "outputs": [
        {
          "internalType": "address",
          "name": "",
          "type": "address"
        }
      ],
      "stateMutability": "view",
      "type": "function"
    },
    {
      "inputs": [],
      "name": "paused",
      "outputs": [
        {
          "internalType": "bool",
          "name": "",
          "type": "bool"
        }
      ],
      "stateMutability": "view",
      "type": "function"
    },
    {
      "inputs": [
        {
          "internalType": "uint256",
          "name": "",
          "type": "uint256"
        }
      ],
      "name": "poolDeposits",
      "outputs": [
        {
          "internalType": "uint256",
          "name": "",
          "type": "uint256"
        }
      ],
      "stateMutability": "view",
      "type": "function"
    },
    {
      "inputs": [],
      "name": "priest",
      "outputs": [
        {
          "internalType": "address",
          "name": "",
          "type": "address"
        }
      ],
      "stateMutability": "view",
      "type": "function"
    },
    {
      "inputs": [],
      "name": "priestVoteWeight",
      "outputs": [
        {
          "internalType": "uint256",
          "name": "",
          "type": "uint256"
        }
      ],
      "stateMutability": "view",
      "type": "function"
    },
    {
      "inputs": [],
      "name": "priestWeightThreshold",
      "outputs": [
        {
          "internalType": "uint256",
          "name": "",
          "type": "uint256"
        }
      ],
      "stateMutability": "view",
      "type": "function"
    },
    {
      "inputs": [],
      "name": "proposalCount",
      "outputs": [
        {
          "internalType": "uint256",
          "name": "",
          "type": "uint256"
        }
      ],
      "stateMutability": "view",
      "type": "function"
    },
    {
      "inputs": [
        {
          "internalType": "uint256",
          "name": "",
          "type": "uint256"
        }
      ],
      "name": "proposals",
      "outputs": [
        {
          "internalType": "uint256",
          "name": "id",
          "type": "uint256"
        },
        {
          "internalType": "address",
          "name": "proposer",
          "type": "address"
        },
        {
          "internalType": "string",
          "name": "title",
          "type": "string"
        },
        {
          "internalType": "string",
          "name": "description",
          "type": "string"
        },
        {
          "internalType": "bytes",
          "name": "callData",
          "type": "bytes"
        },
        {
          "internalType": "uint256",
          "name": "yesVotes",
          "type": "uint256"
        },
        {
          "internalType": "uint256",
          "name": "noVotes",
          "type": "uint256"
        },
        {
          "internalType": "uint256",
          "name": "endTime",
          "type": "uint256"
        },
        {
          "internalType": "uint256",
          "name": "createdAt",
          "type": "uint256"
        },
        {
          "internalType": "uint256",
          "name": "eligibleVoters",
          "type": "uint256"
        },
        {
          "internalType": "bool",
          "name": "executed",
          "type": "bool"
        }
      ],
      "stateMutability": "view",
      "type": "function"
    },
    {
      "inputs": [],
      "name": "purchaseAccess",
      "outputs": [],
      "stateMutability": "nonpayable",
      "type": "function"
    },
    {
      "inputs": [
        {
          "internalType": "address",
          "name": "",
          "type": "address"
        }
      ],
      "name": "purchaseBlock",
      "outputs": [
        {
          "internalType": "uint256",
          "name": "",
          "type": "uint256"
        }
      ],
      "stateMutability": "view",
      "type": "function"
    },
    {
      "inputs": [
        {
          "internalType": "address",
          "name": "",
          "type": "address"
        }
      ],
      "name": "purchaseTimestamp",
      "outputs": [
        {
          "internalType": "uint256",
          "name": "",
          "type": "uint256"
        }
      ],
      "stateMutability": "view",
      "type": "function"
    },
    {
      "inputs": [
        {
          "internalType": "address",
          "name": "token",
          "type": "address"
        },
        {
          "internalType": "address",
          "name": "to",
          "type": "address"
        }
      ],
      "name": "recoverWrongToken",
      "outputs": [],
      "stateMutability": "nonpayable",
      "type": "function"
    },
    {
      "inputs": [
        {
          "internalType": "bool",
          "name": "_paused",
          "type": "bool"
        }
      ],
      "name": "setPaused",
      "outputs": [],
      "stateMutability": "nonpayable",
      "type": "function"
    },
    {
      "inputs": [
        {
          "internalType": "bool",
          "name": "_paused",
          "type": "bool"
        }
      ],
      "name": "setPausedDAO",
      "outputs": [],
      "stateMutability": "nonpayable",
      "type": "function"
    },
    {
      "inputs": [],
      "name": "totalBurned",
      "outputs": [
        {
          "internalType": "uint256",
          "name": "",
          "type": "uint256"
        }
      ],
      "stateMutability": "view",
      "type": "function"
    },
    {
      "inputs": [],
      "name": "totalPurchases",
      "outputs": [
        {
          "internalType": "uint256",
          "name": "",
          "type": "uint256"
        }
      ],
      "stateMutability": "view",
      "type": "function"
    },
    {
      "inputs": [],
      "name": "totalToMemberPool",
      "outputs": [
        {
          "internalType": "uint256",
          "name": "",
          "type": "uint256"
        }
      ],
      "stateMutability": "view",
      "type": "function"
    },
    {
      "inputs": [],
      "name": "totalToProtocol",
      "outputs": [
        {
          "internalType": "uint256",
          "name": "",
          "type": "uint256"
        }
      ],
      "stateMutability": "view",
      "type": "function"
    },
    {
      "inputs": [],
      "name": "totalToTreasury",
      "outputs": [
        {
          "internalType": "uint256",
          "name": "",
          "type": "uint256"
        }
      ],
      "stateMutability": "view",
      "type": "function"
    },
    {
      "inputs": [],
      "name": "treasuryBalance",
      "outputs": [
        {
          "internalType": "uint256",
          "name": "",
          "type": "uint256"
        }
      ],
      "stateMutability": "view",
      "type": "function"
    },
    {
      "inputs": [
        {
          "internalType": "address",
          "name": "_token",
          "type": "address"
        },
        {
          "internalType": "uint256",
          "name": "_entryFee",
          "type": "uint256"
        }
      ],
      "name": "updateConfig",
      "outputs": [],
      "stateMutability": "nonpayable",
      "type": "function"
    },
    {
      "inputs": [
        {
          "internalType": "address",
          "name": "_token",
          "type": "address"
        },
        {
          "internalType": "uint256",
          "name": "_entryFee",
          "type": "uint256"
        }
      ],
      "name": "updateConfigDAO",
      "outputs": [],
      "stateMutability": "nonpayable",
      "type": "function"
    },
    {
      "inputs": [
        {
          "internalType": "uint256",
          "name": "_proposalId",
          "type": "uint256"
        },
        {
          "internalType": "bool",
          "name": "_support",
          "type": "bool"
        }
      ],
      "name": "vote",
      "outputs": [],
      "stateMutability": "nonpayable",
      "type": "function"
    },
    {
      "inputs": [
        {
          "internalType": "address",
          "name": "recipient",
          "type": "address"
        }
      ],
      "name": "withdrawAllTreasury",
      "outputs": [],
      "stateMutability": "nonpayable",
      "type": "function"
    },
    {
      "inputs": [
        {
          "internalType": "address",
          "name": "recipient",
          "type": "address"
        },
        {
          "internalType": "string",
          "name": "reason",
          "type": "string"
        }
      ],
      "name": "withdrawAllTreasuryDAO",
      "outputs": [],
      "stateMutability": "nonpayable",
      "type": "function"
    },
    {
      "inputs": [
        {
          "internalType": "address",
          "name": "recipient",
          "type": "address"
        },
        {
          "internalType": "uint256",
          "name": "amount",
          "type": "uint256"
        }
      ],
      "name": "withdrawTreasury",
      "outputs": [],
      "stateMutability": "nonpayable",
      "type": "function"
    },
    {
      "inputs": [
        {
          "internalType": "address",
          "name": "recipient",
          "type": "address"
        },
        {
          "internalType": "uint256",
          "name": "amount",
          "type": "uint256"
        },
        {
          "internalType": "string",
          "name": "reason",
          "type": "string"
        }
      ],
      "name": "withdrawTreasuryDAO",
      "outputs": [],
      "stateMutability": "nonpayable",
      "type": "function"
    }
  ],
  "bytecode": "0x60e06040523480156200001157600080fd5b506040516200377d3803806200377d8339810160408190526200003491620002c6565b6001600160a01b038516620000905760405162461bcd60e51b815260206004820152601660248201527f496e76616c69642070726965737420616464726573730000000000000000000060448201526064015b60405180910390fd5b6001600160a01b038416620000e85760405162461bcd60e51b815260206004820152601560248201527f496e76616c696420746f6b656e20616464726573730000000000000000000000604482015260640162000087565b600083116200013a5760405162461bcd60e51b815260206004820181905260248201527f456e74727920666565206d7573742062652067726561746572207468616e2030604482015260640162000087565b600a831015620001995760405162461bcd60e51b8152602060048201526024808201527f456e7472792066656520746f6f20736d616c6c20666f722064697374726962756044820152633a34b7b760e11b606482015260840162000087565b60008211620001fd5760405162461bcd60e51b815260206004820152602960248201527f50726965737420766f746520776569676874206d75737420626520677265617460448201526806572207468616e20360bc1b606482015260840162000087565b60008111620002665760405162461bcd60e51b815260206004820152602e60248201527f50726965737420776569676874207468726573686f6c64206d7573742062652060448201526d067726561746572207468616e20360941b606482015260840162000087565b6001600160a01b03948516608052600080546001600160a01b031916949095169390931790935560015560a09190915260c0526004805460ff1916905562000319565b80516001600160a01b0381168114620002c157600080fd5b919050565b600080600080600060a08688031215620002df57600080fd5b620002ea86620002a9565b9450620002fa60208701620002a9565b6040870151606088015160809098015196999198509695945092505050565b60805160a05160c0516133f5620003886000396000818161041601528181612316015261272e0152600081816107100152818161233f015261275701526000818161067a015281816106b6015281816118c501528181611fce015281816122d7015261270101526133f56000f3fe608060405234801561001057600080fd5b50600436106102f15760003560e01c80636ad185501161019d578063c1b57edb116100e9578063d3493ced116100a2578063e243c5fb1161007c578063e243c5fb146107e4578063f4f7596a146107f7578063f7158b2a14610805578063ffafe4ad1461080d57600080fd5b8063d3493ced146107bf578063d89135cd146107d2578063da35c664146107db57600080fd5b8063c1b57edb1461069c578063c2939471146106a5578063c34b55801461070b578063c3f909d414610732578063c7f758a814610785578063c9d27afe146107ac57600080fd5b806399e288d811610156578063a81bbe3c11610130578063a81bbe3c1461064c578063aedfe53f146103a1578063bdb75b341461066c578063bebc8fc01461067557600080fd5b806399e288d814610627578063a64e024a1461062f578063a730117e1461063957600080fd5b80636ad185501461057d578063767551181461059d57806390118fb4146105bd57806395a078e8146105e0578063997072f71461060c578063999dcbe61461061457600080fd5b80634c78afc81161025c5780635c975abb116102155780635fa7ddf0116101ef5780635fa7ddf0146104ed57806364653f29146104f6578063653724d6146105575780636758f49b1461056a57600080fd5b80635c975abb146104855780635daf08ca146104a25780635e391dfe146104cd57600080fd5b80634c78afc814610411578063524ddc2314610438578063544038011461044b5780635584c4f91461045e5780635962a9411461047357806359c266ff1461047c57600080fd5b806318a74064116102ae57806318a740641461038e578063215809ca146103a1578063313dab20146103ab57806332d084bb146103b45780633dd35279146103c757806343859632146103e757600080fd5b8063013cf08b146102f6578063072ea61c146103295780630d61b519146103405780630d86419a1461035557806316c38b3c146103685780631808022a1461037b575b600080fd5b610309610304366004612b76565b610830565b6040516103209b9a99989796959493929190612bd5565b60405180910390f35b61033260015481565b604051908152602001610320565b61035361034e366004612b76565b610a2b565b005b610353610363366004612c7f565b610cf7565b610353610376366004612cba565b610d84565b610332610389366004612cde565b610e04565b61035361039c366004612c7f565b610f2d565b61033262093a8081565b61033260025481565b6103326103c2366004612da5565b610fb0565b6103326103d5366004612cde565b60096020526000908152604090205481565b6103fa6103f5366004612e49565b611370565b604080519215158352901515602083015201610320565b6103327f000000000000000000000000000000000000000000000000000000000000000081565b610353610446366004612c7f565b6113d6565b610353610459366004612e75565b6114d3565b6104666116f0565b6040516103209190612ecc565b61033260105481565b61033260145481565b6004546104929060ff1681565b6040519015158152602001610320565b6104b56104b0366004612b76565b61182a565b6040516001600160a01b039091168152602001610320565b6103326104db366004612cde565b60076020526000908152604090205481565b61033260035481565b61053a610504366004612cde565b6001600160a01b03166000908152600560209081526040808320546006835281842054600790935292205460ff90921692909190565b604080519315158452602084019290925290820152606001610320565b610353610565366004612cba565b611854565b610353610578366004612f10565b6118ba565b61033261058b366004612cde565b600e6020526000908152604090205481565b6103326105ab366004612cde565b60066020526000908152604090205481565b6104926105cb366004612cde565b60056020526000908152604090205460ff1681565b6104926105ee366004612cde565b6001600160a01b031660009081526005602052604090205460ff1690565b600854610332565b610332610622366004612b76565b611b3a565b610353611b5b565b61033262278d0081565b610332610647366004612cde565b6122ad565b61033261065a366004612cde565b600a6020526000908152604090205481565b61033260135481565b6104b57f000000000000000000000000000000000000000000000000000000000000000081565b61033260125481565b6002546003546012546011546014547f000000000000000000000000000000000000000000000000000000000000000060408051968752602087019590955293850192909252606084015260808301526001600160a01b031660a082015260c001610320565b6103327f000000000000000000000000000000000000000000000000000000000000000081565b600054600154600454601054600254600354604080516001600160a01b039097168752602087019590955260ff9093161515938501939093526060840152608083019190915260a082015260c001610320565b610798610793366004612b76565b61236b565b604051610320989796959493929190612f3a565b6103536107ba366004612fa3565b61251c565b6103536107cd366004612fd3565b6127f1565b61033260115481565b610332600c5481565b6000546104b5906001600160a01b031681565b610353610363366004612cde565b610353612998565b61049261081b366004612cde565b600f6020526000908152604090205460ff1681565b600d6020526000908152604090208054600182015460028301805492936001600160a01b039092169261086290613021565b80601f016020809104026020016040519081016040528092919081815260200182805461088e90613021565b80156108db5780601f106108b0576101008083540402835291602001916108db565b820191906000526020600020905b8154815290600101906020018083116108be57829003601f168201915b5050505050908060030180546108f090613021565b80601f016020809104026020016040519081016040528092919081815260200182805461091c90613021565b80156109695780601f1061093e57610100808354040283529160200191610969565b820191906000526020600020905b81548152906001019060200180831161094c57829003601f168201915b50505050509080600401805461097e90613021565b80601f01602080910402602001604051908101604052809291908181526020018280546109aa90613021565b80156109f75780601f106109cc576101008083540402835291602001916109f7565b820191906000526020600020905b8154815290600101906020018083116109da57829003601f168201915b50505060058401546006850154600786015460088701546009880154600a9098015496979396929550909350919060ff168b565b600c548110610a555760405162461bcd60e51b8152600401610a4c9061305b565b60405180910390fd5b6000818152600d602052604090206007810154421015610aaa5760405162461bcd60e51b815260206004820152601060248201526f159bdd1a5b99c81b9bdd08195b99195960821b6044820152606401610a4c565b600a81015460ff1615610af25760405162461bcd60e51b815260206004820152601060248201526f105b1c9958591e48195e1958dd5d195960821b6044820152606401610a4c565b8060060154816005015411610b415760405162461bcd60e51b815260206004820152601560248201527450726f706f73616c20646964206e6f74207061737360581b6044820152606401610a4c565b600a8101805460ff191660019081179091558101546001600160a01b03166000818152600f602052604090205460ff168015610b9457506001600160a01b0381166000908152600e602052604090205483145b15610bc5576001600160a01b0381166000908152600f60209081526040808320805460ff19169055600e9091528120555b600080306001600160a01b031684600401604051610be39190613085565b6000604051808303816000865af19150503d8060008114610c20576040519150601f19603f3d011682016040523d82523d6000602084013e610c25565b606091505b5091509150847faf8f9d0e884d3306a083e846741a0bc4d75908e2b0ec63b558219652ae4c1b908383604051610c5c9291906130fb565b60405180910390a281610cf057600a8401805460ff199081169091556001600160a01b0384166000908152600f602090815260408083208054909416600117909355600e90528190208690555162461bcd60e51b8152610a4c9060040160208082526019908201527f50726f706f73616c20657865637574696f6e206661696c656400000000000000604082015260600190565b5050505050565b60405162461bcd60e51b815260206004820152605660248201527f5472656173757279207769746864726177616c7320726571756972652044414f60448201527f20617070726f76616c2e2055736520776974686472617754726561737572794460648201527520a7903a343937bab3b4103090383937b837b9b0b61760511b608482015260a401610a4c565b60405162461bcd60e51b815260206004820152604960248201527f50617573652f756e70617573652072657175697265732044414f20617070726f60448201527f76616c2e205573652073657450617573656444414f207468726f756768206120606482015268383937b837b9b0b61760b91b608482015260a401610a4c565b6001600160a01b03811660009081526005602052604081205460ff16610e2c57506000919050565b6001600160a01b0382166000908152600960205260408120549080610e5283600161312c565b90505b600b54811015610edb576000600b8281548110610e7457610e74613145565b90600052602060002001541115610ec957808015610ec757600081600b8481548110610ea257610ea2613145565b9060005260206000200154610eb7919061315b565b9050610ec3818561312c565b9350505b505b80610ed38161317d565b915050610e55565b506001600160a01b0384166000908152600a60205260409020548111610f02576000610f25565b6001600160a01b0384166000908152600a6020526040902054610f259082613196565b949350505050565b60405162461bcd60e51b815260206004820152604c60248201527f436f6e666967207570646174657320726571756972652044414f20617070726f60448201527f76616c2e2055736520757064617465436f6e66696744414f207468726f75676860648201526b103090383937b837b9b0b61760a11b608482015260a401610a4c565b3360009081526005602052604081205460ff1661100f5760405162461bcd60e51b815260206004820152601a60248201527f4f6e6c79206d656d626572732063616e2063616c6c20746869730000000000006044820152606401610a4c565b60008551116110515760405162461bcd60e51b815260206004820152600e60248201526d151a5d1b19481c995c5d5a5c995960921b6044820152606401610a4c565b60008451116110995760405162461bcd60e51b815260206004820152601460248201527311195cd8dc9a5c1d1a5bdb881c995c5d5a5c995960621b6044820152606401610a4c565b60008351116110df5760405162461bcd60e51b815260206004820152601260248201527110d85b1b0819185d18481c995c5d5a5c995960721b6044820152606401610a4c565b336000908152600f602052604090205460ff16156111ab57336000908152600e6020908152604080832054808452600d909252909120600a81015460ff1615801561112d5750806007015442105b156111865760405162461bcd60e51b815260206004820152602360248201527f596f7520616c7265616479206861766520616e206163746976652070726f706f6044820152621cd85b60ea1b6064820152608401610a4c565b336000908152600f60209081526040808320805460ff19169055600e90915281205550505b8160008190036111bb575062093a805b62093a8081101561120e5760405162461bcd60e51b815260206004820152601760248201527f566f74696e6720706572696f6420746f6f2073686f72740000000000000000006044820152606401610a4c565b62278d0081111561125a5760405162461bcd60e51b8152602060048201526016602482015275566f74696e6720706572696f6420746f6f206c6f6e6760501b6044820152606401610a4c565b600c80546000918261126b8361317d565b909155506000818152600d602052604090208181556001810180546001600160a01b03191633179055909150600281016112a589826131f8565b50600381016112b488826131f8565b50600481016112c387826131f8565b506112ce834261312c565b6007820190815542600880840191909155546009830155600a8201805460ff199081169091556000600584018190556006840181905533808252600f602090815260408084208054909516600117909455600e9052908290208590559154905184917f98120a6aaa04295520ab4e01c6c1235dd316e822cc9ff31db7b3f197366d18bd9161135d918d916132b8565b60405180910390a3509695505050505050565b600080600c5484106113945760405162461bcd60e51b8152600401610a4c9061305b565b50506000918252600d602090815260408084206001600160a01b03939093168452600b8301825280842054600c9093019091529091205460ff91821692911690565b3330146113f55760405162461bcd60e51b8152600401610a4c906132da565b6001600160a01b0382161561142057600080546001600160a01b0319166001600160a01b0384161790555b801561148957600a8110156114835760405162461bcd60e51b8152602060048201526024808201527f456e7472792066656520746f6f20736d616c6c20666f722064697374726962756044820152633a34b7b760e11b6064820152608401610a4c565b60018190555b6000546001546040519081526001600160a01b03909116907faf8839d80c9b3bbf95c97465eb8c8348db4098f5c15af186c3b425b112998117906020015b60405180910390a25050565b3330146114f25760405162461bcd60e51b8152600401610a4c906132da565b6001600160a01b0383166115185760405162461bcd60e51b8152600401610a4c9061330a565b600082116115685760405162461bcd60e51b815260206004820152601d60248201527f416d6f756e74206d7573742062652067726561746572207468616e20300000006044820152606401610a4c565b6002548211156115ba5760405162461bcd60e51b815260206004820152601d60248201527f496e73756666696369656e742074726561737572792062616c616e63650000006044820152606401610a4c565b81600260008282546115cc9190613196565b90915550506000805460405163a9059cbb60e01b81526001600160a01b038681166004830152602482018690529091169063a9059cbb906044016020604051808303816000875af1158015611625573d6000803e3d6000fd5b505050506040513d601f19601f820116820180604052508101906116499190613335565b9050806116985760405162461bcd60e51b815260206004820152601a60248201527f5472656173757279207769746864726177616c206661696c65640000000000006044820152606401610a4c565b836001600160a01b03166001600c546116b19190613196565b7f1ba011ee074f0e08cc727335f32d75fb7ee71dc0a1e13bb9473e5650b0afd1a385856040516116e2929190613352565b60405180910390a350505050565b60606000805b600c54811015611757576000818152600d60205260409020600701544210801561173257506000818152600d60205260409020600a015460ff16155b1561174557816117418161317d565b9250505b8061174f8161317d565b9150506116f6565b5060008167ffffffffffffffff81111561177357611773612cf9565b60405190808252806020026020018201604052801561179c578160200160208202803683370190505b5090506000805b600c54811015611821576000818152600d6020526040902060070154421080156117df57506000818152600d60205260409020600a015460ff16155b1561180f578083836117f08161317d565b94508151811061180257611802613145565b6020026020010181815250505b806118198161317d565b9150506117a3565b50909392505050565b6008818154811061183a57600080fd5b6000918252602090912001546001600160a01b0316905081565b3330146118735760405162461bcd60e51b8152600401610a4c906132da565b6004805460ff19168215159081179091556040519081527f752d7e161ff5146f80e3820893176eb40532811e5e20400dfdde57455213706a9060200160405180910390a150565b336001600160a01b037f000000000000000000000000000000000000000000000000000000000000000016146119325760405162461bcd60e51b815260206004820152601960248201527f4f6e6c79207072696573742063616e2063616c6c2074686973000000000000006044820152606401610a4c565b6000546001600160a01b039081169083160361199c5760405162461bcd60e51b8152602060048201526024808201527f43616e6e6f742077697468647261772074726561737572792f706f6f6c20746f6044820152636b656e7360e01b6064820152608401610a4c565b6001600160a01b0381166119c25760405162461bcd60e51b8152600401610a4c9061330a565b6040516370a0823160e01b81523060048201526000906001600160a01b038416906370a0823190602401602060405180830381865afa158015611a09573d6000803e3d6000fd5b505050506040513d601f19601f82011682018060405250810190611a2d919061336b565b905060008111611a765760405162461bcd60e51b81526020600482015260146024820152732737903a37b5b2b739903a37903932b1b7bb32b960611b6044820152606401610a4c565b60405163a9059cbb60e01b81526001600160a01b038381166004830152602482018390526000919085169063a9059cbb906044016020604051808303816000875af1158015611ac9573d6000803e3d6000fd5b505050506040513d601f19601f82011682018060405250810190611aed9190613335565b905080611b345760405162461bcd60e51b8152602060048201526015602482015274151bdad95b881c9958dbdd995c9e4819985a5b1959605a1b6044820152606401610a4c565b50505050565b600b8181548110611b4a57600080fd5b600091825260209091200154905081565b60045460ff1615611ba35760405162461bcd60e51b815260206004820152601260248201527110dbdb9d1c9858dd081a5cc81c185d5cd95960721b6044820152606401610a4c565b3360009081526005602052604090205460ff1615611c035760405162461bcd60e51b815260206004820152601860248201527f416c7265616479207075726368617365642061636365737300000000000000006044820152606401610a4c565b60006064600154601e611c169190613384565b611c20919061315b565b905060006064600154600a611c359190613384565b611c3f919061315b565b9050600081611c4f846003613384565b611c59919061312c565b9050600154811115611ca15760405162461bcd60e51b815260206004820152601160248201527021b0b631bab630ba34b7b71032b93937b960791b6044820152606401610a4c565b6001546000546040516370a0823160e01b81523360048201526001600160a01b03909116906370a0823190602401602060405180830381865afa158015611cec573d6000803e3d6000fd5b505050506040513d601f19601f82011682018060405250810190611d10919061336b565b1015611d5e5760405162461bcd60e51b815260206004820152601a60248201527f496e73756666696369656e7420746f6b656e2062616c616e63650000000000006044820152606401610a4c565b600080546040516323b872dd60e01b81526001600160a01b03909116906323b872dd90611d9590339061dead90899060040161339b565b6020604051808303816000875af1158015611db4573d6000803e3d6000fd5b505050506040513d601f19601f82011682018060405250810190611dd89190613335565b905080611e1e5760405162461bcd60e51b8152602060048201526014602482015273109d5c9b881d1c985b9cd9995c8819985a5b195960621b6044820152606401610a4c565b600080546040516323b872dd60e01b81526001600160a01b03909116906323b872dd90611e5390339030908a9060040161339b565b6020604051808303816000875af1158015611e72573d6000803e3d6000fd5b505050506040513d601f19601f82011682018060405250810190611e969190613335565b905080611ee55760405162461bcd60e51b815260206004820152601860248201527f5472656173757279207472616e73666572206661696c656400000000000000006044820152606401610a4c565b600080546040516323b872dd60e01b81526001600160a01b03909116906323b872dd90611f1a90339030908b9060040161339b565b6020604051808303816000875af1158015611f39573d6000803e3d6000fd5b505050506040513d601f19601f82011682018060405250810190611f5d9190613335565b905080611fa35760405162461bcd60e51b8152602060048201526014602482015273141bdbdb081d1c985b9cd9995c8819985a5b195960621b6044820152606401610a4c565b600080546040516323b872dd60e01b81526001600160a01b03909116906323b872dd90611ff89033907f0000000000000000000000000000000000000000000000000000000000000000908b9060040161339b565b6020604051808303816000875af1158015612017573d6000803e3d6000fd5b505050506040513d601f19601f8201168201806040525081019061203b9190613335565b90508061208a5760405162461bcd60e51b815260206004820152601860248201527f50726f746f636f6c207472616e73666572206661696c656400000000000000006044820152606401610a4c565b866002600082825461209c919061312c565b9250508190555086600360008282546120b5919061312c565b9250508190555086601160008282546120ce919061312c565b9250508190555086601260008282546120e7919061312c565b925050819055508660136000828254612100919061312c565b925050819055508560146000828254612119919061312c565b90915550506008541561216057600b80546001810182556000919091527f0175b7a638427703f0dbe7bb9bbf987a2551717b34e79f33b5b1008d1fa01db901879055612193565b600b805460018101825560009182527f0175b7a638427703f0dbe7bb9bbf987a2551717b34e79f33b5b1008d1fa01db901555b336000818152600560209081526040808320805460ff1916600190811790915560068352818420429055600783528184204390556008805460099094529184208390558201815582527ff3f7a9fe364faab93b216da50a3214154f22a0a2b415b23a84c8169e8b636ee30180546001600160a01b031916909217909155601080549161221e8361317d565b9190505550336001600160a01b03167fe6d1c0e418a42a777d49c66571075fc47bc1d92e7f506007ddde08d1ff182bbc600154898a8b8b424360016010546122669190613196565b604080519889526020890197909752958701949094526060860192909252608085015260a084015260c083015260e08201526101000160405180910390a250505050505050565b6001600160a01b03811660009081526005602052604081205460ff166122d557506000919050565b7f00000000000000000000000000000000000000000000000000000000000000006001600160a01b0316826001600160a01b031614801561233757506008547f0000000000000000000000000000000000000000000000000000000000000000115b1561236357507f0000000000000000000000000000000000000000000000000000000000000000919050565b506001919050565b60006060806000806000806000600c5489106123995760405162461bcd60e51b8152600401610a4c9061305b565b6000898152600d602052604090206001810154600582015460068301546007840154600a8501546002860180546001600160a01b03909616959094600388019490939092909160ff909116908385119087906123f490613021565b80601f016020809104026020016040519081016040528092919081815260200182805461242090613021565b801561246d5780601f106124425761010080835404028352916020019161246d565b820191906000526020600020905b81548152906001019060200180831161245057829003601f168201915b5050505050965085805461248090613021565b80601f01602080910402602001604051908101604052809291908181526020018280546124ac90613021565b80156124f95780601f106124ce576101008083540402835291602001916124f9565b820191906000526020600020905b8154815290600101906020018083116124dc57829003601f168201915b505050505095509850985098509850985098509850985050919395975091939597565b3360009081526005602052604090205460ff1661257b5760405162461bcd60e51b815260206004820152601a60248201527f4f6e6c79206d656d626572732063616e2063616c6c20746869730000000000006044820152606401610a4c565b600c54821061259c5760405162461bcd60e51b8152600401610a4c9061305b565b6000828152600d60205260409020600781015442106125ec5760405162461bcd60e51b815260206004820152600c60248201526b159bdd1a5b99c8195b99195960a21b6044820152606401610a4c565b336000908152600b8201602052604090205460ff161561263e5760405162461bcd60e51b815260206004820152600d60248201526c105b1c9958591e481d9bdd1959609a1b6044820152606401610a4c565b600881015433600090815260066020526040902054106126bf5760405162461bcd60e51b815260206004820152603660248201527f596f752063616e6e6f7420766f7465206f6e2070726f706f73616c7320637265604482015275185d1959081899599bdc99481e5bdd481a9bda5b995960521b6064820152608401610a4c565b336000818152600b8301602090815260408083208054600160ff199182168117909255600c870190935292208054909116851515179055906001600160a01b037f00000000000000000000000000000000000000000000000000000000000000001614801561274f57506008547f0000000000000000000000000000000000000000000000000000000000000000115b1561277757507f00000000000000000000000000000000000000000000000000000000000000005b821561279c5780826005016000828254612791919061312c565b909155506127b69050565b808260060160008282546127b0919061312c565b90915550505b604080518415158152426020820152339186917fcbdf6214089cba887ecbf35a0b6a734589959c9763342c756bb2a80ca2bc9f6e91016116e2565b3330146128105760405162461bcd60e51b8152600401610a4c906132da565b6001600160a01b0382166128365760405162461bcd60e51b8152600401610a4c9061330a565b60006002541161287c5760405162461bcd60e51b81526020600482015260116024820152704e6f2074726561737572792066756e647360781b6044820152606401610a4c565b60028054600091829055815460405163a9059cbb60e01b81526001600160a01b038681166004830152602482018490529293929091169063a9059cbb906044016020604051808303816000875af11580156128db573d6000803e3d6000fd5b505050506040513d601f19601f820116820180604052508101906128ff9190613335565b90508061294e5760405162461bcd60e51b815260206004820152601a60248201527f5472656173757279207769746864726177616c206661696c65640000000000006044820152606401610a4c565b836001600160a01b03166001600c546129679190613196565b7f1ba011ee074f0e08cc727335f32d75fb7ee71dc0a1e13bb9473e5650b0afd1a384866040516116e2929190613352565b60006129a333610e04565b9050600081116129eb5760405162461bcd60e51b81526020600482015260136024820152724e6f207265776172647320746f20636c61696d60681b6044820152606401610a4c565b806003541015612a3d5760405162461bcd60e51b815260206004820152601960248201527f496e73756666696369656e7420706f6f6c2062616c616e6365000000000000006044820152606401610a4c565b336000908152600a602052604081208054839290612a5c90849061312c565b925050819055508060036000828254612a759190613196565b90915550506000805460405163a9059cbb60e01b8152336004820152602481018490526001600160a01b039091169063a9059cbb906044016020604051808303816000875af1158015612acc573d6000803e3d6000fd5b505050506040513d601f19601f82011682018060405250810190612af09190613335565b905080612b3f5760405162461bcd60e51b815260206004820152601a60248201527f506f6f6c20636c61696d207472616e73666572206661696c65640000000000006044820152606401610a4c565b6040805183815242602082015233917fc4e740509dbfae3377bc9925dd7bcc8aaba69cd730316216d76b2d24725c636691016114c7565b600060208284031215612b8857600080fd5b5035919050565b6000815180845260005b81811015612bb557602081850181015186830182015201612b99565b506000602082860101526020601f19601f83011685010191505092915050565b8b81526001600160a01b038b16602082015261016060408201819052600090612c008382018d612b8f565b90508281036060840152612c14818c612b8f565b90508281036080840152612c28818b612b8f565b60a0840199909952505060c081019590955260e085019390935261010084019190915261012083015215156101409091015295945050505050565b80356001600160a01b0381168114612c7a57600080fd5b919050565b60008060408385031215612c9257600080fd5b612c9b83612c63565b946020939093013593505050565b8015158114612cb757600080fd5b50565b600060208284031215612ccc57600080fd5b8135612cd781612ca9565b9392505050565b600060208284031215612cf057600080fd5b612cd782612c63565b634e487b7160e01b600052604160045260246000fd5b600067ffffffffffffffff80841115612d2a57612d2a612cf9565b604051601f8501601f19908116603f01168101908282118183101715612d5257612d52612cf9565b81604052809350858152868686011115612d6b57600080fd5b858560208301376000602087830101525050509392505050565b600082601f830112612d9657600080fd5b612cd783833560208501612d0f565b60008060008060808587031215612dbb57600080fd5b843567ffffffffffffffff80821115612dd357600080fd5b612ddf88838901612d85565b95506020870135915080821115612df557600080fd5b612e0188838901612d85565b94506040870135915080821115612e1757600080fd5b508501601f81018713612e2957600080fd5b612e3887823560208401612d0f565b949793965093946060013593505050565b60008060408385031215612e5c57600080fd5b82359150612e6c60208401612c63565b90509250929050565b600080600060608486031215612e8a57600080fd5b612e9384612c63565b925060208401359150604084013567ffffffffffffffff811115612eb657600080fd5b612ec286828701612d85565b9150509250925092565b6020808252825182820181905260009190848201906040850190845b81811015612f0457835183529284019291840191600101612ee8565b50909695505050505050565b60008060408385031215612f2357600080fd5b612f2c83612c63565b9150612e6c60208401612c63565b6001600160a01b038916815261010060208201819052600090612f5f8382018b612b8f565b90508281036040840152612f73818a612b8f565b60608401989098525050608081019490945260a0840192909252151560c0830152151560e0909101529392505050565b60008060408385031215612fb657600080fd5b823591506020830135612fc881612ca9565b809150509250929050565b60008060408385031215612fe657600080fd5b612fef83612c63565b9150602083013567ffffffffffffffff81111561300b57600080fd5b61301785828601612d85565b9150509250929050565b600181811c9082168061303557607f821691505b60208210810361305557634e487b7160e01b600052602260045260246000fd5b50919050565b60208082526010908201526f125b9d985b1a59081c1c9bdc1bdcd85b60821b604082015260600190565b600080835461309381613021565b600182811680156130ab57600181146130c0576130ef565b60ff19841687528215158302870194506130ef565b8760005260208060002060005b858110156130e65781548a8201529084019082016130cd565b50505082870194505b50929695505050505050565b8215158152604060208201526000610f256040830184612b8f565b634e487b7160e01b600052601160045260246000fd5b8082018082111561313f5761313f613116565b92915050565b634e487b7160e01b600052603260045260246000fd5b60008261317857634e487b7160e01b600052601260045260246000fd5b500490565b60006001820161318f5761318f613116565b5060010190565b8181038181111561313f5761313f613116565b601f8211156131f357600081815260208120601f850160051c810160208610156131d05750805b601f850160051c820191505b818110156131ef578281556001016131dc565b5050505b505050565b815167ffffffffffffffff81111561321257613212612cf9565b613226816132208454613021565b846131a9565b602080601f83116001811461325b57600084156132435750858301515b600019600386901b1c1916600185901b1785556131ef565b600085815260208120601f198616915b8281101561328a5788860151825594840194600190910190840161326b565b50858210156132a85787850151600019600388901b60f8161c191681555b5050505050600190811b01905550565b6040815260006132cb6040830185612b8f565b90508260208301529392505050565b6020808252601690820152754f6e6c792044414f2063616e2063616c6c207468697360501b604082015260600190565b602080825260119082015270125b9d985b1a59081c9958da5c1a595b9d607a1b604082015260600190565b60006020828403121561334757600080fd5b8151612cd781612ca9565b828152604060208201526000610f256040830184612b8f565b60006020828403121561337d57600080fd5b5051919050565b808202811582820484141761313f5761313f613116565b6001600160a01b03938416815291909216602082015260408101919091526060019056fea2646970667358221220a974a4b6a231220a46f4f71c5984491383940fd83ddf1514816f26624c1da64664736f6c63430008130033",
  "linkReferences": {},
  "deployedLinkReferences": {}
}